:0400000508000000EF
:020000040800F2
:10000000801C0020010100081F0F0008990D000846
:100010001D0F000859070008172500080000000000
:10002000000000000000000000000000D11B0008DC
:10003000E70A000800000000B5180008051C0008C9
:10004000192500080B180008691C0008A71B0008E8
:10005000650C0008151B0008E90A0008ED0A0008F5
:10006000EF0A0008F10A0008F30A0008090A00086C
:100070000B0A00080D0A00080F0A0008110A000800
:10008000130A0008150A0008E505000813250008F2
:10009000152500085B0700085D070008F50A000841
:1000A0006B1C00085D1D0008311D00086D1C000858
:1000B000611D0008311F0008C91F00089D0D0008C0
:1000C0009B0D0008A10D00089F0D0008CD1B000826
:1000D000CF1B00083D230008B1230008B32300080C
:1000E000EB0A0008A51B000811250008000000000D
:1000F0000000000000000000000000000000000000
:10010000AFF3008000F002F800F0AFF80AA090E82A
:10011000000C82448344AAF10107DA4501D100F0C2
:10012000A4F8AFF2090EBAE80F0013F0010F18BFE0
:10013000FB1A43F001031847282C0000482C00004C
:10014000103A24BF78C878C1FAD8520724BF30C803
:1001500030C144BF04680C607047000000230024D5
:1001600000250026103A28BF78C1FBD8520728BFC7
:1001700030C148BF0B60704700F046B902480349E0
:10018000034A044B7047000080180020801C0020A8
:10019000801A0020801A0020EFF3108072B670479A
:1001A00080F3108870471F4C4FF0000525604FF01A
:1001B000000484F309881C4C4FF0010525701B4C8A
:1001C0004FF08055256062B6FEE7184C4FF0805521
:1001D00025607047154C4FF080552560704700BF73
:1001E000EFF3098030B1A0F1200080E8F00F104C4F
:1001F0002468206000B50F4880475DF804EB0E4C82
:100200000E4D2E7826700A4C0D4E366826603068EA
:1002100090E8F00F00F1200080F309884EF0040E02
:10022000704700BF20ED00E0A500002004ED00E0D5
:10023000B8000020D9140008A2000020A30000206C
:10024000C00000207047744600F02EF8A6460DB599
:1002500000F050F80400BDE80D40110070470200A6
:1002600010B50020AFF3008010BDAFF30080FFF7A2
:10027000EAFF03B400F0B8F803BC00F055F80FB47F
:1002800000F0B7F80FBC02F081FB00F047F801B5B1
:10029000AFF3008000F09FF8BDE8014000F002F8E5
:1002A0006FF0000000F02CF8754600F033F8AE4611
:1002B00005006946534620F00700854618B020B572
:1002C000FFF75CFFBDE820404FF000064FF000074D
:1002D0004FF000084FF0000B21F00701AC46ACE8EE
:1002E000C009ACE8C009ACE8C009ACE8C0098D465B
:1002F0007047000001487047704700003018002028
:1003000003494FF01800ABBE70470000EF0000003B
:100310002600020000487047201800200446AFF372
:1003200000802046FFF7B3FF2DE9FE4304460D464B
:1003300002F07CFC0020CDE90045AFF30080029084
:100340006846FFF719FF04460D46DDE90001174630
:100350001E46AFF30080AFF30080AFF300800021B2
:100360000846AFF30080804600F048F8002181463F
:10037000C0F800800846AFF30080411CC9F80410A3
:1003800000210846AFF300800021C9F808000846A4
:10039000AFF300800021C9F80C000846AFF30080DD
:1003A000C9F81000AFF30080AFF30080AFF3008016
:1003B000AFF30080AFF30080AFF30080AFF30080B5
:1003C000AFF30080AFF3008003B0204629463A46E1
:1003D0003346BDE8F08310B50020AFF30080AFF3E3
:1003E0000080AFF3008010BD6FF000006FF00201DD
:1003F000704710B5AFF3008010BD704701487047DB
:100400007047000040180020704700000148704706
:1004100070470000241800208021014800F0A9BC8A
:10042000000C014010B5054C8021204600F0A1FCD5
:100430002046BDE81040022100F099BC000C0140AC
:1004400010B5054C0221204600F093FC2046BDE883
:100450001040802100F08BBC000C0140026822EAB1
:100460001122026070470029816802D041F0010129
:1004700001E021F0010181607047000030B587B0D4
:100480000E20ADF8180000248DF81B4006A93A484C
:1004900000F016FC394D284600F0C8FA39483849B2
:1004A00001603949C0E901140921C0E90314802120
:1004B0004161490081618900C16120210162090215
:1004C000C0E909140146284600F0F0FA0121284647
:1004D00000F0A1FA01208DF8080001948DF8094080
:1004E0004FF46020CDE90304254C03208DF814005F
:1004F0004C3C01A9204600F0A5F801220323114637
:10050000204600F0C3F8022203231146204600F0E3
:10051000BDF803231A461946204600F0B7F801211A
:10052000204600F03EF80121204600F043F84FF449
:10053000087501222946204600F07AF8012120465C
:1005400000F024F801212046FFF78DFF204600F03F
:10055000D7F8204600F03FF80028FAD1204600F0F6
:10056000DEF8204600F030F80028FAD1294620466F
:10057000FFF774FF07B030BD0008014008000240DB
:100580004C240140E4000020140000200029816870
:1005900002D041F4807102E04FF6FF6211408160A9
:1005A00070474268491E22F46042C9B242EA4131B2
:1005B000416070470029416802D041F4006101E0C8
:1005C00021F40061416070470146896800204907B5
:1005D00000D501207047014689680020090700D531
:1005E0000120704710B5FFF7D7FD0D4A1178491C5F
:1005F0001170FFF7D5FD4FF408710A48FFF72EFF81
:10060000FFF7CAFD08490B88084A13804B885380BE
:1006100089889180FFF7C4FDBDE8104000F07EBDE1
:10062000A000002000240140140000201A00002037
:10063000002A4268C9B201D00A4300E08A434260FE
:100640007047000010B542680E4B0C791A400B68D9
:1006500042EA04221343436082680B4B1A40D1E9FB
:10066000024323434C7942EA440213438360C26A43
:10067000097C22F47002491EC9B242EA0151C162EA
:1006800010BD0000FFFEF0FFFDF7F1FF70B507267B
:1006900009290AD9C568A1F10A0404EB4404A6405B
:1006A000B543A3401D43C56007E0056901EB410464
:1006B000A640B543A3401D4305611F23072A09D265
:1006C000446B521E02EB820293409C4391400C43C8
:1006D000446370BD0D2A09D2046BD21F02EB820263
:1006E00093409C4391400C43046370BDC46A0D3A2F
:1006F00002EB820293409C4391400C43C46270BD64
:10070000816841F00801816070470029816802D04A
:1007100041F4A00101E021F4A001816070478168EB
:1007200041F004018160704710B5064C012120465C
:1007300001F0B6FC20460122BDE81040114601F050
:1007400033BD00000008004000220121014801F0F3
:100750002BBD000000080040FEE770477047000016
:1007600038B540F2C230ADF8000003208DF8020029
:1007700010200E4C8DF803006946204600F0A0FAC8
:100780000221204600F0F5FA4021204600F0F1FA5F
:100790008021204600F0EDFAA115204600F0E9FA8C
:1007A0006115204600F0E5FA38BD0000000C01405C
:1007B0004021014800F0DDBA000C01402DE9F8436A
:1007C000DFF8908005460F4616464021404600F06F
:1007D000D0FA002001F04CFA002001F04FFA4FF45B
:1007E0000049ADF8009010208DF8030003248DF827
:1007F00002406946404600F063FA4FF4006140460B
:1008000000F0B5FA4946404600F0B3FA4FF4005004
:10081000ADF8000018208DF803008DF802406946FD
:10082000404600F04DFA0C480680858001F082FABF
:1008300009480A30C78001F033FA012001F018FAA4
:10084000012001F01BFA4FF48061404600F091FA5C
:10085000BDE8F883000C0140C800002038B5002036
:1008600001F006FA002001F009FA4FF40054ADF847
:10087000004010208DF8030003200E4D8DF802007B
:100880006946284600F01CFAE110284600F06FFA8D
:100890002146284600F06DFAA110284600F067FABC
:1008A000A100284600F065FA4021284600F05FFAD2
:1008B00038BD0000000C01402DE9F843DFF89080BE
:1008C00005460F4616464021404600F052FA0020E9
:1008D00001F0CEF9002001F0D1F94FF40059ADF844
:1008E000009010208DF8030003248DF80240694623
:1008F000404600F0E5F94FF48061404600F037FAD9
:100900004946404600F035FA4FF40040ADF800008B
:1009100018208DF803008DF802406946404600F02B
:10092000CFF90C480680858001F004FA09480A30A6
:10093000C78001F0D9F9012001F09AF9012001F0F6
:100940009DF94FF40061404600F013FABDE8F883CA
:10095000000C0140C800002038B5002001F088F9E3
:10096000002001F08BF94FF40044ADF80040102056
:100970008DF8030003200E4D8DF8020069462846CD
:1009800000F09EF96111284600F0F1F9A110284607
:1009900000F0EFF92111284600F0E9F92146284638
:1009A00000F0E7F94021284600F0E1F938BD0000E9
:1009B000000C014038B5002001F05AF9002001F088
:1009C0005DF94FF40044ADF8004010208DF80300AD
:1009D00003200C4D8DF802006946284600F070F99E
:1009E0006111284600F0C3F9A110284600F0C1F9B2
:1009F0002111284600F0BBF92146284600F0B9F93C
:100A000038BD0000000C01407047704770477047C8
:100A10007047704770470029016802D041F001011A
:100A200001E021F0010101607047000000B50246BD
:100A30000021FFF7F0FF0020106050609060D06050
:100A4000184B1848D11A44389A421ED00ADC16496D
:100A5000511812D0142914D028290DD1416841F41D
:100A6000706108E0142914D0282916D03C2903D13C
:100A7000416841F07061416000BD416841F00F0183
:100A8000F9E7416841F0F001F5E7416841F4704150
:100A9000F1E7416841F47021EDE7416841F47001EC
:100AA000E9E7000044000240F8FFFDBF30B50268EE
:100AB00047F6F0739A430C6A8B682343D1E90445E7
:100AC0002C4323438C692343CC6923434C6A23433F
:100AD0008C6A234313430360CA6842600A688260D9
:100AE0004968C16030BD70477047704770477047B4
:100AF0007047704710B5FFF74FFB0F490A78521C3B
:100B00000A70FFF74DFB802000F036F880B180209E
:100B100000F018F809480168B1F5967F06D900F091
:100B200087F80748006800F08FFB01E000210160B2
:100B3000BDE8104000F0F2BAA00000204C000020F8
:100B40008C00002001490860704700001404014037
:100B500010B50721002000F09FF8064880210160B1
:100B6000002101710C2242718171BDE8104000F03A
:100B700011B800000C000020054B01461A68002047
:100B80005B690A400B4202D0002A00D00120704766
:100B90000004014030B5184C017985790A19D2F862
:100BA0000014036825B31943C2F80014D4F80814DC
:100BB00002689143C4F80814D4F80C1402689143F5
:100BC000C4F80C14417910290AD104F58164216814
:100BD000026811432160616800680143616030BDB3
:100BE0002144D1F8002400680243C1F8002430BD3C
:100BF0009943C2F8001430BD0000014008B50A490D
:100C0000012088710846FFF7C5FF8020ADF800007D
:100C100003208DF8020004208DF803006946034884
:100C200000F04EF808BD00000C0000200008014054
:100C300008B50A49002088710846FFF7ABFF8020FD
:100C4000ADF8000003208DF8020048208DF8030065
:100C50006946034800F034F808BD00000C0000208D
:100C6000000801407047000004490A6822F01002A1
:100C70000A600A6802430A607047000000200240D0
:100C800004490A6802F038020A600A6802430A60EE
:100C9000704700000020024010B58A0721F00304CD
:100CA0000649120F21440F238C6893409C438C60AB
:100CB0008B68904003438B6010BD00000000014032
:100CC000F0B5CC78002204F00F03E40601D58C784F
:100CD00023430C884FF00F0714F0FF0F4FF0010C67
:100CE0001BD005680E880CFA02F42640A64210D1EB
:100CF000960007FA06FE25EA0E0E03FA06F5CE78F0
:100D000045EA0E05282E00D14461CE78482E00D148
:100D10000461521C082AE5D305600A88FF2A1ED9FF
:100D20004568002202F108060CFA06F40E882640F7
:100D3000A64210D1960007FA06FE25EA0E0E03FA27
:100D400006F5CE7845EA0E05282E00D14461CE780E
:100D5000482E00D10461521C082AE3D34560F0BD3F
:100D60000246926800200A4200D00120704741618B
:100D700070470161704700004FF480710148FFF730
:100D8000F8BF0000000C01404FF480710148FFF7EC
:100D9000EEBF0000000C0140FEE77047704770474F
:100DA000704700002DE9F843FFF7DAFC00F0FCFE85
:100DB00000F0A2F800F02AFD01F078FA01F084F9C1
:100DC000FFF75CFBFFF7C4FEFFF7D6FFFFF724FB3E
:100DD000FFF7EEFC01F000FD01F0E0FC00F04AF846
:100DE000FFF7A2FC032000F033FB062000F030FBED
:100DF000194D0126194C40F6FF7802276A4600215A
:100E0000286800F0D5F9606948B92088012820D108
:100E10006088F0B9FFF7A0FDFFF7CAFC19E0606930
:100E2000012816D1208850B9608840B9FFF7FAFA36
:100E3000E660FFF7E3FE0AA001F014FE09E0208857
:100E4000012806D1608820B91022FA214046FFF718
:100E500033FD6761D2E700009C00002044000020C1
:100E60004E6F772C20536561726368206F726769DB
:100E70006E210A0010B500F0BDFE14490020488024
:100E80008860134A1060134A1060134A1060134AB6
:100E90001060134A1070134A1060134A1060134A0E
:100EA0001080134A108048808860C8600861012261
:100EB0008A80104A10700888012806D148880028C6
:100EC00003D1BDE81040FFF72FBC10BD4400002047
:100ED0007000002074000020780000207C000020BA
:100EE0006900002080000020840000206A000020AB
:100EF0006C0000206800002008B50120ADF800005B
:100F000003208DF8020048208DF80300694602484E
:100F1000FFF7D6FE08BD0000000C0140FEE7704759
:100F200038B500214FF0006000F084F84FF4A06065
:100F300000F076F817208DF8000001208DF80100F0
:100F400000248DF802408DF80300684600F02DF86B
:100F50001C208DF800008DF80140684600F025F84F
:100F60001D208DF8000002208DF80100684600F079
:100F70001CF81E208DF8000003208DF80100684643
:100F800000F013F812208DF8000004208DF8010005
:100F9000684600F00AF825208DF8000005208DF83D
:100FA0000100684600F001F838BDF0B50F23C278A3
:100FB00001784FF0E024012742B3D4F80C2D02F45D
:100FC000E062C2F5E062120AC2F10405D340427841
:100FD000AA4085781D4015438A072D01D20E954001
:100FE00021F003010B19D3F80064FF2191408E43D7
:100FF0000D402E43C3F80064007800F01F018F40BD
:10100000400904EB8000C0F80071F0BD01F01F0042
:101010008740480904EB8000C0F88071F0BD0000F3
:101020000249084302490860704700000000FA05C1
:101030000CED00E0024A1140014302480160704794
:1010400080FFFF1F08ED00E07047000010B586B07C
:1010500000F062F82C4C002323706370A37163715D
:10106000E36063612371E01D1946491CC9B200F8B1
:10107000013B0229F9D3A370E37023624FF420717E
:101080002248A36100F005FB20482821283800F001
:1010900000FB1E48002100F140024261491C403023
:1010A0004032C9B20929F8D3436118486362E0614C
:1010B000E021A0F5E87000F0ECFA1548002100F1FD
:1010C000100203704260491C1030103289B20D29A1
:1010D000F7D3037043600E482061032300223221BE
:1010E000E03001AC0FC44FF6FF73009300F1C4026F
:1010F00009230021074800F0E9F800F00EF806B0D7
:10110000BDE81040FFF7A0BFA0000020A015002000
:10111000D0130020D91700087047704770B5144CE1
:101120006079012822D1FFF737F82178054621B1EF
:10113000491E11F0FF01217013D1607888B900F0C9
:10114000D5FAE178A07881420BD00A4850F82110F6
:101150002162C86A401CC862E068401CE060FFF77A
:1011600039F82846BDE87040FFF71AB870BD000096
:10117000A00000207815002070B50C4D0646287898
:1011800008B1002070BDFFF707F82C690CB1616849
:101190002961FFF705F83CB103202070268100206B
:1011A0006060204600F06AFA204670BDA000002072
:1011B0002DE9F0470646007889461446032801D0F9
:1011C000012036E0DFF87C8098F8000008B10220AA
:1011D0002FE098F8010008B111202AE0FEF7DCFFAB
:1011E00005463089002710B1401E308125E0D8F82F
:1011F000181011F8220F40F0010008704F7021F80C
:10120000029C304600F016FA2846FEF7C9FF00F0AF
:1012100049FAFEF7C1FFD8F81810054691F82300E7
:10122000012809D1304600F0B5F92846FEF7B8FF8D
:101230000A202070BDE8F087CF612846FEF7B0FF96
:101240002770F7E7A000002070B504460078032857
:1012500001D0012070BDFEF79FFF0546A07A50B176
:1012600001220021204600F0B1F92846FEF798FF40
:1012700000F018FA09E021894FF6FF70814206D28A
:10128000491C21812846FEF78BFF002070BD2846AF
:10129000FEF786FF322070BD10B5094C607900283A
:1012A0000CD100F023FAE0780649A07051F8200034
:1012B0002062A061BDE81040FEF775BF10BD0000C0
:1012C000A000002078150020704700002DE9FE4F97
:1012D000DDE90CAB0746884691461C46FEF75CFFED
:1012E0001D4D297821B1FEF75BFF1020BDE8FE8F70
:1012F0001A4E56F8241051BB012146F82410FEF76F
:101300004FFF5846109A0E9900F074FA4A4641462B
:101310003846109B00F062F80EA90EC98DE80E0049
:10132000014653465A46204600F0F0F9070005D121
:101330006879012809D100F0B5F906E0FEF72CFF25
:10134000002146F82410FEF72BFF3846CEE7FEF7C3
:1013500027FF2820CAE70000A00000207815002001
:101360007047704710B50446FEF716FF194951F84B
:10137000241019B9FEF714FF642010BD012903D110
:10138000FEF70EFF0B2010BD91F8222013071CD58D
:1013900022F0080281F82220D2B292B90A8C82B9D6
:1013A0000D4B26318A781C7922431A710A78DB1D8D
:1013B0009C5C49780C439C54FEF7F2FE00F072F9F5
:1013C00001E0FEF7EDFE002010BDFEF7E9FE65200E
:1013D00010BD000078150020A00000204FF08073A1
:1013E00042F8043942F804096FF001031046136013
:1013F0004FF0123240F8042D4FF0033240F8042D24
:101400004FF0023240F8042D521040F8042D40F8FD
:10141000041D4FF0113140F8041D110140F8041D66
:101420004FF0093140F8041DD10040F8041D4FF081
:10143000073140F8041D4FF0063140F8041D4FF00D
:10144000053140F8041D910040F8041D704700006C
:101450002DE9F0410546FEF79FFE1D4BFF2D9969D2
:1014600002D191F8245003E091F82410A94201D14F
:10147000012400E00024174951F8251021B9FEF796
:101480008FFE5A20BDE8F081012903D1FEF788FEC6
:101490000B20F7E70E4D91F82620ED1DAE5C91F87C
:1014A0002770BE43AE54AA5C22B991F828501A792D
:1014B000AA431A7111F8222F42F008020A70FEF7AF
:1014C0006FFE012C01D100F0EDF80020DAE70000FA
:1014D000A000002078150020704700002DE9F041A1
:1014E000040019D0FEF758FE0C4DAA69EB1D92F8C6
:1014F000261092F827705E5CBE435E54595C21B999
:1015000092F828302979994329711484FEF748FE0E
:10151000BDE8F04100F0C6B8BDE8F081A0000020B1
:1015200070B51B4D6879012830D16C6A2AE0FEF74E
:1015300033FE218C19B3491E0904090C21841ED1E4
:1015400094F8221011F0370F05D021F0370184F8FC
:101550002210012100E0002184F8231094F82210C9
:1015600009070CD42634A1782A7911432971084A35
:101570002178D21D535C6678263C3343535464690A
:10158000FEF70EFE94F824000928D0D170BD0000AB
:10159000A000002010B50C4B9A6912F8261F527853
:1015A0000144CC7A9443CC72E1B229B99A69817A28
:1015B00092F8282091438172986900211C30C171F2
:1015C0008171016010BD0000A0000020F0B5817A9B
:1015D000154C0126615C06FA01F3DDB24318DF7A8F
:1015E000E45DA640F6B2B74304EBC104DF72E4B297
:1015F000FBB213B9837AAB4383720C48002350F8D3
:1016000024001C3083800360C3718379934383710A
:10161000D8B238B9064A107928431071D21D505CEF
:10162000304350542046F0BD5E2C00087815002051
:10163000A000002070B5104CA169E31DC86191F8AD
:10164000262091F827609D5CB5439D549A5C22B991
:1016500091F8283022799A43227111F8263F00F13F
:101660000B029D5C49780D439D54A269817A92F8E2
:1016700028201143817270BDA000002000228272D8
:101680000B301146491CC9B200F8012B0229F9D3CD
:101690007047002203E0491E00F8012B89B200299F
:1016A000F9D1704770B5FEF777FD0E4C05462078EE
:1016B00098B9607888B900F019F8E178A07881428B
:1016C0000BD0094850F821102162C86A401CC8623A
:1016D000E068401CE060FEF778FD2846BDE87040F9
:1016E000FEF75EBDA0000020781500200649054ADF
:1016F0000879CB1D105C1B5CD25C02EBC000C8708B
:10170000704700005E2C0008A00000202DE9FF5F5C
:10171000DDE90FAB06460D469046DDF83890FEF742
:101720003BFD2B4FFC69002C4ED00C34A168F961B5
:10173000FEF736FD44F80C5C26760025A575E575A8
:10174000A58244F808ACC4F8009044F8048CA4F8CE
:1017500004B00398E080F008A076C2B2012101FA3B
:1017600002F0207706F0070060768140E17625617F
:101770002562A5626562E56225630C3C2046FFF7A1
:10178000A3FD2046FFF7ECFDFEF706FD114941F8E9
:101790002640796AC4E9051501B18C617C62263462
:1017A000A1783A7911433971094A2178D21D535CE5
:1017B000647823435354B979491CB971FEF7F0FC9E
:1017C000002004B0BDE8F09FFEF7EAFC4620F8E7F1
:1017D000A00000207815002010B5054CFEF7DCFCB9
:1017E0006169491C6161FEF7DBFCFFF7BAFDF5E7B3
:1017F000A0000020D30707D0920705D5002201E002
:1018000004C0491E0029FBD17047704770B500F035
:101810003BFA144800250580458040F6FF71818021
:10182000C580057200F086FA0E4C70200A342080C4
:10183000012060800C4EA0803188E180208165818C
:10184000A081E581204600F02BFA7088E0802046D8
:1018500000F04AFA002000F00BFABDE870400020CA
:1018600000F00CBAC80000200800002038B54FF482
:101870002C40ADF8000010208DF8030003200C4C24
:101880008DF8020069462046FFF71AFA4FF400412E
:101890002046FFF76EFA61142046FFF76AFA211519
:1018A0002046FFF764FAE1142046FFF760FA38BDDE
:1018B000000C0140FEF794BC034A516821F44041FA
:1018C000014351607047000000100240044A0029A3
:1018D000516901D0014300E081435161704700002C
:1018E00000100240044A0029D16901D0014300E000
:1018F0008143D1617047000000100240044A002972
:10190000916901D0014300E081439161704700007B
:1019100000100240044A0029D16801D0014300E0D0
:101920008143D160704700000010024010B500F004
:101930003FF84FF48034204600F0D2F800F01AF956
:10194000012825D11020FFF78FF90220FFF798F921
:10195000002000F0BBF8002000F0E8F8A01100F033
:10196000DBF8A010FFF7A8FF4FF4A011204600F00D
:10197000EDF8012000F0E4F8392000F087F80028A5
:10198000FAD0022000F0ECF800F098F80828FBD11B
:10199000012144F60D20FFF7B1FF01210720FFF7D9
:1019A000A1FF0121BDE810400846FFF78FBF0000EE
:1019B0000E480021C1600161142242618161C16150
:1019C000026842F0010202604268094B1A4042601C
:1019D0000268084B1A400260026822F4802202600A
:1019E000426822F4FE0242608160704700100240AB
:1019F0000000FFF8FFFFF6FE30B5204A5168204B8B
:101A000011F00C0103D0042901D0082901D0036092
:101A100011E05168022401F4701104EB9141546803
:101A2000184D14F4803F02D05468A40301D56943D3
:101A300000E0594301605168134B01F0F0010909BE
:101A40005C5C0168E1404160546804F4E064240A8D
:101A50001C5D21FA04F48460546804F46054E40AC0
:101A60001B5DD940C1605268074B02F44042920BA3
:101A70001B1F9A5CB1FBF2F1016130BD0010024006
:101A800000127A0000093D003E2C000803460020A9
:101A90005909094A012901D1116804E0022901D13B
:101AA000116A00E0516A03F01F02012393400B42C8
:101AB00000D001207047000000100240024840683A
:101AC00000F00C007047000000100240034A51680B
:101AD00021F0F00101435160704700000010024006
:101AE0000B490A6822F480320A600A6822F48022D4
:101AF0000A60B0F5803F07D0B0F5802F03D10868A9
:101B000040F4A02008607047086840F48030F9E78E
:101B10000010024070470000034A516821F4E06160
:101B2000014351607047000000100240034A5168B1
:101B300021F4605141EAC00050607047001002403B
:101B4000014908667047000000004242034B5A6892
:101B5000084322F47C121043586070470010024082
:101B6000034A516821F003010143516070470000AE
:101B70000010024010B50A4C3120FFF787FF20709B
:101B80006068401C6060207810B96068FF28F3D15D
:101B90003120FFF77BFF002800D0012010BD00009E
:101BA000000000207047704708B5F020ADF8000035
:101BB00003208DF8020048208DF803006946024892
:101BC000FFF77EF808BD000000080140704770472D
:101BD0007047000010B5064C0121204600F060FA65
:101BE00020460122BDE81040114600F0DDBA000099
:101BF0000004004000220121014800F0D5BA000095
:101C00000004004010B5FEF7C7FA064A1178491CD7
:101C10001170FEF7C5FAFFF783FCBDE81040FFF72F
:101C20007DBA0000A00000204FF0E02110B9002094
:101C3000886170470128086902D140F0010001E085
:101C400020F00100086170474FF0E021002808698A
:101C500002D040F0020001E020F00200086170476D
:101C60004FF0E021486170477047704770470000AF
:101C70000149086070470000008025420149086062
:101C800070470000BC88254210B50121CC022046D7
:101C9000FFF740FE2046BDE810400021FFF73ABEA6
:101CA00010B50F4A13880F490024C1F86043048817
:101CB00003F47F431C4314804388C1F86033838856
:101CC000C1F868330389C1F864334389C1F86C33C0
:101CD00083890B60C3894B60C088908310BD00006E
:101CE000182C0140A080254210B50F4A13880F49D7
:101CF0000024C1F87043048803F47F431C4314801C
:101D00004388C1F870338388C1F878330389C1F8F8
:101D100074334389C1F87C3383890B60C3894B607A
:101D2000C088108410BD00001C2C0140B0802542EA
:101D300070470000084982888A8502880A850A88D7
:101D400002F09F020A80C28843881A430B881A4314
:101D50000A80007A08867047002C01407047000016
:101D600010B5FEF719FA064A1178491C1170FEF7F2
:101D700017FA00F007F8BDE81040FFF7CFB90000F0
:101D8000A00000202DE9F05F0121880700F08CF908
:101D9000DFF83CB180215846FEF7E2FFDFF83481DE
:101DA000DFF834914D4E4E4F00244E4D4FF0010A56
:101DB000012826D100F01EFE80215846FEF7D0FFF4
:101DC00001284DD16868000619D56868FC2802D042
:101DD0006868401E3AE0A868002841D1C5F808A00C
:101DE000EC60388800283BD13068002838D1A8F84A
:101DF0000040A9F800403CA000F034FE30E0FF2095
:101E000024E000F0F7FD80215846FEF7A9FF38BB1B
:101E10006868000657D468680028D9D1E868F8B91E
:101E2000AC60C5F80CA03068D0B9398832480129B7
:101E30000ED10168012902D00168022908D1FEF7FC
:101E4000FFFA2E480068FFF7FFF909E0686007E035
:101E5000398829B9006818B9A8F800A0A9F800A025
:101E600027490868012814D126480268521C0260DC
:101E7000026841F289339A420BD904600C6022480F
:101E8000007830B921480068FFF7DEF920A000F0A3
:101E9000E9FD3068012803D123490868401C086027
:101EA0002888401C28802888B0F5167F04D92C800B
:101EB00001211E48FEF729FC3888002805D1BDE81D
:101EC000F05F00F019BD0320C0E7BDE8F09F0000FF
:101ED000000801404400002048000020500000207D
:101EE00046000020200000204E6F7420726F726741
:101EF000696E210A000000005400002090000020BC
:101F00008400002080000020690000209400002050
:101F1000736C6F7720636865636B206973207469E5
:101F20006D6F7574210A00004C00002000240140F0
:101F300010B5FEF731F9064A1178491C1170FEF709
:101F40002FF900F007F8BDE81040FFF7E7B80000F0
:101F5000A00000202DE9F0410121164800F0A4F86E
:101F6000DFF8548040214046FEF7FAFE134D144C32
:101F70000027144E01280ED100F036FD40214046C6
:101F8000FEF7EEFE012804D128692068401C20607D
:101F90003760BDE8F08100F027FD40214046FEF7A4
:101FA000DFFE0028F5D128693068401C30602760CA
:101FB000EFE700000004004000080140200000207E
:101FC000780000207000002010B5FEF7E5F8064A02
:101FD0001178491C1170FEF7E3F800F007F8BDE82E
:101FE0001040FFF79BB80000A00000202DE9F04151
:101FF0000121254800F058F8244F20213846FEF7EB
:10200000AFFE01250026224C012825D100F0F2FC6C
:1020100020213846FEF7A4FE012819D16069000688
:1020200018D56069F02824D1A069002810D1A561D5
:10203000E6611848008801280AD11748008801285D
:1020400006D116480068BDE8F041FFF7FDB86061B1
:10205000BDE8F081FF20FAE700F0CCFC20213846F3
:10206000FEF77EFE0028F3D1606900060AD460699D
:1020700010B16069401EEAE7E0690028E8D1A66176
:10208000E561E5E70F20E2E70008004000080140B5
:10209000200000204800002044000020880000208C
:1020A000028A8A4302827047028A8A430282704708
:1020B0000029018802D041F0010102E040F2FE3225
:1020C00011400180704700002DE9FF4101250024E7
:1020D000ADF8085048F69F46ADF80C40AF07ADF894
:1020E0000A60ADF80E4002A9384600F0D0F8ADF80D
:1020F0000040ADF80240ADF804506946384600F0A3
:102100005BF8274CADF8085002A9204600F0BFF854
:102110006946204600F050F8ADF80850214D02A95C
:10212000284600F0B4F86946284600F045F8012139
:102130003846FFF7BDFF01212046FFF7B9FF012117
:102140002846FFF7B5FF01223146384600F094F8E3
:1021500001223146204600F08FF801224EF65F2121
:10216000284600F089F801213846FFF799FF012140
:102170002046FFF795FF01212846FFF791FF012236
:102180001146384600F010F800220121204600F0E8
:102190000BF800220121284600F006F8BDE8FF8177
:1021A0000004004000080040002A828901D00A4350
:1021B00000E08A438281704770B5038C2D4C4A88B9
:1021C00004F108060AB1012A26D1058B34F8124021
:1021D0002C4036F812501D40002A028C0CD143F2DC
:1021E00032331A4002840A888B8822438386CB8844
:1021F00045F0010423430DE043F223331A400284E7
:102200000A888B8844EA02220387C98845F01003B4
:1022100043EA011302832BE0022A01D0032A27D1CB
:10222000858B34F812402C4036F812501D40022A9B
:10223000028C0DD143F233231A4002840A888B8822
:1022400022438387C98845F4807343EA01230EE063
:1022500042F233331A4002840A888B8844EA02220D
:10226000A0F84030C98845F4805343EA01338283A3
:10227000038470BD4E2C00080185818A012A02D199
:1022800041F0010101E001F00101818270470A88FB
:1022900082854A880285028802F08F0202808A883D
:1022A000C9880A4301880A430280704730B587B065
:1022B0004FF40074ADF8184003208DF81A00182070
:1022C0001C4D8DF81B0006A92846FEF7F9FC60009E
:1022D000ADF8180004208DF81B0006A92846FEF76B
:1022E000EFFC4FF4E130009000200C21ADF810001D
:1022F000ADF80C10ADF81240ADF80400ADF80800D0
:102300000D4CADF80600ADF80A00ADF80E00ADF8C2
:1023100014006946204600F09DF8012240F2255144
:10232000204600F07EF80121204600F04AF807B070
:1023300030BD0000000801400038014070B5FDF7D5
:102340002BFF174A1178491C1170FDF729FF154E14
:1023500040F225552946304600F044F8E0B13046B9
:1023600000F0C4F8104A00F07F01541E2078115488
:10237000401C20702946304600F01CF820780128C7
:102380000AD100222946304600F04BF80020207088
:1023900006480068FEF758FFBDE87040FEF7BEBE75
:1023A000A0000020003801404100002098000020DB
:1023B000704770470A0A0121914002888A430280CF
:1023C00070470029818902D041F4005101E021F4D5
:1023D0000051818170470246128800200A4200D0D5
:1023E0000120704770B501F01F0501260024C1F3DC
:1023F000421306FA05F2012B01D1838904E0022B76
:1024000001D1038A00E0838A4FEA11210088134238
:1024100006FA01F600EA060001D000B101242046C8
:1024200070BD10B5C1F3421301F01F040121A1409A
:10243000012B01D10C3004E0022B01D1103000E05F
:102440001430002A026801D00A4300E08A43026087
:1024500010BD000030B50546008A85B00C464CF230
:10246000FF010840E188E289638A1143228A1A4306
:102470001143A28A114301432982A8894EF6F31120
:102480000840A18822891143A28902431143A981EE
:10249000A88A4FF6FF41084061890143A982684636
:1024A000FFF7AAFA1048854201D1039800E002988C
:1024B00019214843216864228900B0FBF1F0B0FB88
:1024C000F2F109010B096FF01804634300EB83007C
:1024D000322303EB0010B0FBF2F000F00F000843D2
:1024E000288105B030BD0000003801408088C0F36D
:1024F0000800704710B509788180044C802120467F
:10250000FFF769FF0028F9D010BD00000038014036
:10251000704770477047FEE7704700002DE9F843A9
:102520000025254C254E40F6FF7903276A460021F9
:10253000A06AFEF73DFE3068012823D1FDF72CFE8E
:10254000804610224FF4C8714846FEF737F94046DE
:10255000FDF726FE6420FEF7C1FFFDF71DFE804655
:102560000120E061A561A560E5603760FFF732FBFF
:102570004046FDF715FE0320FEF7F4FE10A000F024
:1025800071FAD3E730680228D0D120780128CDD164
:10259000376025701022FA214846FEF78DF9062093
:1025A000FEF7E0FE0BA000F05DFA4FF41670FEF7A8
:1025B00095FFFDF731FFB9E76800002054000020C7
:1025C00073657470325F666173745F6261636B0A16
:1025D0000000000073657470345F676F5F6F72672F
:1025E000696E0A002DE9F84F00251E4C1E4FDFF8DA
:1025F0007C9001264FF4C86A40F6FF7B4FF002083A
:102600006A460021E06AFEF7D3FD0320FEF720FFB3
:10261000FFF7F0FAA561E5616670E560A5606561A8
:1026200025616580A580102251465846FEF7C6F800
:10263000FEF7AAFB257078880A3080B2FEF74EFFBD
:10264000FEF70CF9C9F80080FDF7ECFE08A000F0D9
:1026500009FA4FF49670FEF741FFFEF78DFB2670E6
:10266000CEE70000680000201A000020540000207F
:102670006261636B5F74696D656F75745F746173BC
:102680006B5F636F7265210A00000000F8B5094DA9
:10269000094E0A4F01246A460021286AFEF788FD88
:1026A000FDF7C0FEFEF750F834803C6004A000F057
:1026B000D9F9F0E76800002046000020540000200F
:1026C00073657470315F626F740A00002DE9F8431E
:1026D000254C264DDFF8988040F6FF7640F22557CE
:1026E0006A460021206BFEF763FD2878412805D15A
:1026F0001022FA213046FEF7DFF82FE0422802D1FF
:10270000FEF72AF92AE0432803D110224FF4C871BA
:1027100004E0442806D110224FF47A713046FEF7C7
:102720004DF81BE0452802D1FEF798F816E0462840
:1027300002D1FDF777FE11E0472802D1FDF780FEB8
:102740000CE048280AD0492808D04A2806D1094870
:1027500083884288018808A000F084F90122394664
:102760004046FFF75EFEBBE7680000204100002006
:10277000003801401A00002070726F6772616D208E
:1027800069732072756E696E67204144302025643C
:10279000202564202564200A0000000010B50020D8
:1027A000FEF7EAFC0B4C20620020FEF7E5FC6062BD
:1027B0000020FEF7E1FCA0620020FEF7DDFCE062F5
:1027C0000020FEF7D9FC20630020FEF7D5FC6063F3
:1027D00010BD00006800002000B585B00323002272
:1027E000CDE9032336486421CDE90101022300F538
:1027F000C672002133480093FEF768FD03230022D0
:10280000CDE9032330486421CDE90101052300F51A
:10281000C67200212D480093FEF758FD03230022C5
:10282000CDE903232A48C821CDE90101042300F59D
:102830004772002127480093FEF748FD032300223A
:10284000CDE903232448C821CDE9003000F54772C3
:10285000029100212148FEF739FD03230022CDE932
:1028600003231F48C821CDE90101062300F5477263
:1028700000211C480093FEF729FD03230022CDE927
:1028800003231948C821CDE90101072300F5477248
:10289000002116480093FEF719FD03230022CDE91D
:1028A000032313486421CDE90101082300F5C67212
:1028B000002110480093FEF709FD05B000BD00009F
:1028C000A00200208D26000830040020012A000804
:1028D000C00500201D250008E0080020612B00082D
:1028E000000C0020292B0008200F0020E5250008FF
:1028F00040120020CD2600082DE9F041DFF880804D
:1029000001214046FEF72CFA01271E4E1E4C0025E1
:10291000C8B900F06FF801214046FEF721FA0028FF
:102920000DD1A06900060CD5A069F02818D1E06986
:10293000002804D1E761256267611AE0A061BDE863
:10294000F081FF20FAE700F055F801214046FEF73C
:1029500007FA0128F3D1A06900060FD4A06910B1CD
:10296000A069401EEAE7206A0028E8D1E5612762F5
:1029700065613068BDE8F041FEF766BC0F20DDE719
:10298000000C01409C0000204400002000B585B0F0
:10299000FEF7CCFFFEF7C4FAFEF768FFFEF756FB22
:1029A00042F22830FFF75CF90120FFF74DF90120D2
:1029B000FFF73AF903230022CDE9032308486421F5
:1029C000CDE90101012300F5C672002105480093FD
:1029D000FEF77CFCFEF760FC002005B000BD0000A7
:1029E00010010020A50D00080020401CC0B20228E4
:1029F000FBD370470020401CC0B20228FBD37047B5
:102A00002DE9F84F114D124E124FDFF84C90DFF8C0
:102A10004CA0DFF84CB000244FF001086A460021BA
:102A2000686AFEF7C5FB34603C60A9F80080AAF82C
:102A30000080ABF80040FDF703FDFDF775FE4FF495
:102A4000FA70FEF74BFDFDF7E7FCE7E768000020B2
:102A5000500000204C0000204400002048000020CE
:102A6000460000200FB4FEB500206F460146024626
:102A700087E8070009AD2B4E2EE0252805D0481C1D
:102A800008903046FFF736FD26E0491C089108788B
:102A9000632818D006DC432815D0442823D05328B7
:102AA00014D103E064281ED073280FD12D1D55F8D2
:102AB000044C04E021463046FFF71CFD641C2078DE
:102AC0000028F7D105E02D1D15F8041C3046FFF74E
:102AD00011FD0898401C0890089908780028CCD16E
:102AE000FEBC5DF814FB2D1D55F8042C002002F0EF
:102AF0000F0130313954392901D9C91D3954121106
:102B0000401C0828F3D378213954401C3021395413
:102B10000A243919491E3046FFF7ECFC641E002CCC
:102B2000F7DCD6E70038014010B5084CA0880A3021
:102B300080B2FEF7D3FCFDF73DFFFEF79BF904A042
:102B4000FFF790FFFF20FEF783FCEFE71A0000205D
:102B500073657470355F73656E645F656E640A00DB
:102B600070B5294CAA20FEF7B9FCA068E168401AAC
:102B7000608020696169401AA0806088732802D94A
:102B80006088FA2805D3A088732837D9A088FA2846
:102B900034D201266670FFF72DF8FDF75FFE102294
:102BA0004FF4C86140F6FF70FDF708FEFEF7ECF841
:102BB00000252570A561E561E560A5606561256179
:102BC000A288618811A0FFF74DFF6580A580154898
:102BD0004088643080B2FEF781FCFDF73FFE124969
:102BE00002200860FDF71EFC2820FEF777FCFEF7A8
:102BF000C3F826700320FEF72BFCB3E7A068E06063
:102C000020696061AEE700006800002073657470A1
:102C1000335F636865636B5F76616C3A202564207F
:102C200025640A001A0000205400002010B5FDF7AA
:102C3000EDFB4FF00001016010BD0204060800002A
:102C4000000001020304010203040607080900FF53
:102C5000FF0000FFFF003133133333313313000023
:102C60000100020001000300010002000100040055
:102C70000100020001000300010002000100050044
:102C80000100020001000300010002000100040035
:102C90000100020001000300010002000100060023
:102CA0000100020001000300010002000100040015
:102CB0000100020001000300010002000100050004
:102CC00001000200010003000100020001000400F5
:102CD00001000200010003000100020001000700E2
:102CE00001000200010003000100020001000400D5
:102CF00001000200010003000100020001000500C4
:102D000001000200010003000100020001000400B4
:102D100001000200010003000100020001000600A2
:102D20000100020001000300010002000100040094
:102D30000100020001000300010002000100050083
:102D40000100020001000300010002000100040074
:102D50000100020001000300010002000100000068
:102D6000802D000800000020C8000000400100087D
:102D7000482E0008C8000020B81B00005C010008B5
:102D80000000000000000000FF07FF070000000037
:102D90000000000000000000000000000000000033
:102DA0000000000003000000000000000000000020
:102DB0000F0000000F0000000000000000000000F5
:102DC0000000000000000000000000000000000003
:102DD0000000000000000000020000000F000000E2
:102DE00000000000000000000000000000000000E3
:102DF00000000000000000000000000000000000D3
:102E000000000000000000000000000000000000C2
:102E100000000000000000000000000000000000B2
:102E200000000000000000000000000000000000A2
:102E30000000000000000000000000000000000092
:082E400000000000000000008A
:00000001FF
