:020000040800F2
:10000000B83B0020010100080501000807010008B5
:10001000090100080B0100080D01000800000000A4
:1000200000000000000000000000000011010008B6
:100030000F010008000000008502000811480008B8
:10004000AB56000893420008BF4800086F470008FD
:1000500005230008B94600086D210008D5210008D5
:10006000F5210008F7210008F9210008D11F000838
:10007000D51F0008ED1F0008052000081D200008FE
:100080001F2000082120000855090008A756000875
:10009000A95600088B0A00088D0A0008FD210008F7
:1000A000DD4A0008E14D00087D4D0008E94A0008DE
:1000B0000D4E0008E14F0008E54F0008E325000859
:1000C000E1250008E7250008E5250008B9470008F4
:1000D000BB47000875540008DD540008FD540008B3
:1000E0008D2100086D470008A5560008000000009B
:1000F0000000000000000000000000000000000000
:1001000004480047FEE7FEE7FEE7FEE7FEE7FEE7FE
:10011000FEE700001901000800F002F800F05FF8A7
:100120000AA090E8000C82448344AAF10107DA4552
:1001300001D100F054F8AFF2090EBAE80F0013F045
:10014000010F18BFFB1A43F0010318470CE8000029
:100150002CE800000A444FF0000C10F8013B13F0AB
:10016000070408BF10F8014B1D1108BF10F8015B10
:10017000641E05D010F8016B641E01F8016BF9D103
:1001800013F0080F1EBF10F8014BAD1C0C1B09D15A
:100190006D1E58BF01F801CBFAD505E014F8016BCC
:1001A00001F8016B6D1EF9D59142D6D3704700005E
:1001B0000023002400250026103A28BF78C1FBD870
:1001C000520728BF30C148BF0B607047642900F058
:1001D000C980002070471FB51FBD10B510BD00F0CD
:1001E00063FB1146FFF7F7FF09F006F800F081FB0B
:1001F00003B4FFF7F2FF03BC05F089FD0248034991
:10020000034A044B70470000B8370020B83B002079
:10021000B8390020B839002072B606B42E490A78E1
:1002200002F101020A7006BC704706B42A490A7836
:10023000A2F101020A704FF00001002A81F3108838
:1002400006BC7047254C264D25604FF0000484F312
:100250000988244C4FF001052570234C4FF0805540
:10026000256062B6FEE730B41F4C4FF08055256024
:1002700030BC704730B41C4C4FF08055256030BC0A
:10028000704700BFEFF3108372B6EFF3098030B10F
:10029000A0F1200080E8F00F144C2468206000B525
:1002A000134880475DF804EB124C134D2E782670EE
:1002B0000E4C124E36682660306890E8F00F00F160
:1002C000200080F309884EF0040E83F310887047F5
:1002D00000BF72B670470000D000002020ED00E0A3
:1002E0000000FFFFE200002004ED00E0E800002035
:1002F000C13A0008DE000020DF000020F0000020EE
:10030000704710B54C1084EA530404D54042C1F143
:10031000000138BF491E1B4204D55242C3F10003FD
:1003200038BF5B1E00F089F914F0804F04D04042C2
:10033000C1F1000138BF491E14F0004F04D05242F1
:10034000C3F1000338BF5B1E10BD00000FB40449A9
:1003500010B503AA029800F04FFA10BC5DF814FB28
:10036000040100202DE9F04106460024106875299B
:10037000314616A511D0AFF30080002803DAC0F192
:10038000000013A507E031688A0701D511A502E036
:10039000490704D510A5012401E0AFF30080002136
:1003A0000A2306F1240707E0B0FBF3F203FB120077
:1003B000303078541046491C0028F5D123462A468F
:1003C0003046BDE8F04100F0BAB90000000000007E
:1003D0002D0000002B000000200000002DE9F05F40
:1003E000894604464FF0000ADFF828B1FB44C0F804
:1003F00020A02046E168884700287CD0252806D028
:10040000D4E901219047206A401C2062F1E70025D1
:100410005F462046E16888472028064608DB312EE3
:1004200006D207EB060010F8200C08B10543F0E7F0
:10043000A80701D525F00405C4F81CA00027C4F8BE
:1004400018A02A2E09D0304605F05AFC38B304EB28
:100450008708303EC8F8186019E059F8041B204698
:1004600004EB87029161E1688847012F064618D1A5
:10047000E069002820DA25F020051DE0D8F81800F2
:1004800000EB800006EB40003038C8F8180020462A
:10049000E1688847064605F033FC0028EED1012FBD
:1004A0000AD02E2E08D12046E16888477F1C0646D8
:1004B000022F45F02005C4DBA069002803DA404282
:1004C00045F00105A061E80701D025F0100596B1BF
:1004D000A6F14100192802D8203645F400654A46A5
:1004E0003146204625604D46FFF770FE60B1012879
:1004F00007D0ED1D00E009E025F0070000F1080934
:1005000077E705F1040974E7304679E7206ABDE82A
:10051000F09F000041E3000040EA010310B59B0793
:100520000FD1042A0DD310C808C9121F9C42F8D05D
:1005300020BA19BA884201D9012010BD4FF0FF300E
:1005400010BD1AB1D30703D0521C07E0002010BD24
:1005500010F8013B11F8014B1B1B07D110F8013BB0
:1005600011F8014B1B1B01D1921EF1D1184610BD91
:1005700010B5203AC0F00B80B1E81850203AA0E83E
:100580001850B1E81850A0E81850BFF4F5AF5FEA72
:10059000027C24BFB1E81850A0E8185044BF18C925
:1005A00018C0BDE810405FEA827C24BF51F8043BCC
:1005B00040F8043B08BF7047D20728BF31F8023B20
:1005C00048BF11F8012B28BF20F8023B48BF00F8B4
:1005D000012B704702F0FF0343EA032242EA024282
:1005E00000F01EB94FF0000200B51346944696463F
:1005F000203922BFA0E80C50A0E80C50B1F1200136
:10060000BFF4F7AF090728BFA0E80C5048BF0CC0E3
:100610005DF804EB890028BF40F8042B08BF704741
:1006200048BF20F8022B11F0804F18BF00F8012BB3
:100630007047704770477047704753EA020C00F0EC
:1006400069802DE9F04B4FF00006002B1FBFB3FA75
:1006500083F503FA05F424FA05F65E4012BF16434B
:10066000B2FA82F502FA05F4C5F120051EBF22FA9E
:1006700005FC44EA0C04203556EA044C4FEA1444C5
:1006800018BF641C4FF000084FF00009904271EB56
:10069000030C39D3002919BFB1FA81F701FA07F623
:1006A000B0FA80F700FA07F6C7F120071EBF20FA5C
:1006B00007FC46EA0C062037B6FBF4FCA7EB05075F
:1006C000103F07F01F0BCBF120060CFA0BFB2CFAA6
:1006D00006F644BFB3460026202FA4BF5E464FF067
:1006E000000B5BEA060C08BF4FF0010B19EB0B097E
:1006F000ABFB027C48EB0608C01B06FB02CC0BFBE5
:1007000003CC71EB0C01C1E70B460246414648465B
:10071000BDE8F08B13B54FF000004FF00001AFF3D0
:100720000080BDE81C40704710B500F099F80068E3
:1007300010BD10B5044600F093F8046010BD2DE91B
:10074000F0470D4699469246044600F12408016898
:10075000880604D5E06921F01001216000E0012045
:10076000A84202DDA0EB050700E00027A16907EB26
:10077000050202EB0900A1EB0000A0612078C00691
:1007800002D42046AFF30080002608E0D4E901211E
:100790001AF806009047206A401C761C20624E45DD
:1007A000F4DB2078C0060AD52046AFF3008006E0CF
:1007B000D4E9012130209047206A401C2062381E75
:1007C000A7F10107F4DC07E0D4E9012118F80500DE
:1007D0009047206A401C2062281EA5F10105F3DC29
:1007E0002046AFF300802078000602D50220BDE845
:1007F000F0870120FBE70000074B70B50D467B44F6
:1008000000F037F80446284600F046F810B14FF0E3
:10081000FF3070BD204670BD3F6C00004FF00002FD
:100820000429C0F0128010F0030C3FF4DDAECCF1CF
:10083000040CBCF1020F18BF00F8012BA8BF20F870
:10084000022BA1EB0C01FFF7CFBE5FEAC17C24BFF6
:1008500000F8012B00F8012B48BF00F8012B70476E
:10086000004870475437002001694A1C026108782B
:10087000704700B58FB0CDE90131002105910549E0
:100880007944CDE9031011466846FFF7A7FD0FB084
:1008900000BD0000E5FFFFFF007B00F08000704717
:1008A00000487047543700207546FFF7F9FFAE4601
:1008B00005006946534620F00700854618B020B56C
:1008C000FFF79CFCBDE820404FF000064FF000070A
:1008D0004FF000084FF0000B21F00701AC46ACE8E8
:1008E000C009ACE8C009ACE8C009ACE8C0098D4655
:1008F00070470446AFF300802046FFF779FC21B132
:10090000826842F00102826003E0826822F0010204
:100910008260704721B1826842F48072826004E094
:1009200082684FF6FF631A408260704701460020DC
:100930008A6812F0040F01D0012000E00020704707
:10094000014600208A6812F0080F01D0012000E063
:10095000002070477047000030B502460020002399
:1009600050680F4C20400D790C6844EA0524204360
:10097000506090680B4C2040D1E902542C434D79D3
:1009800044EA450420439060D06A20F470000C7C57
:10099000641E1C43E3B240EA0350D06230BD000045
:1009A000FFFEF0FFFDF7F1FFF0B504460D46002015
:1009B0000021092D11DDE068A5F10A0606EB4607C6
:1009C000072606FA07F18843A5F10A0606EB460654
:1009D00003FA06F10843E0600CE0206905EB4507E7
:1009E000072606FA07F1884305EB450603FA06F1E8
:1009F00008432061072A0FDA606B561E06EB860754
:100A00001F2606FA07F18843561E06EB860605FAEE
:100A100006F10843606322E00D2A0FDA206BD61F2F
:100A200006EB86071F2606FA07F18843D61F06EB5A
:100A3000860605FA06F10843206310E0E06AA2F199
:100A40000D0606EB86071F2606FA07F18843A2F17A
:100A50000D0606EB860605FA06F10843E062F0BDD6
:100A6000816841F008018160704721B1826842F4D9
:100A7000A002826003E0826822F4A00282607047D4
:100A8000816841F004018160704770477047000041
:100A900000BF022467E04FF48051334801F08EFD1F
:100AA00088B94FF40051304801F088FD58B9322020
:100AB0002E4908702E4890F82A0040F006002C4974
:100AC00081F82A003CE04FF48051274801F076FD80
:100AD00090B9122025490870254890F82A0000F0A6
:100AE000F900234981F82A00084690F82A0040F0CE
:100AF000020081F82A0023E04FF400511A4801F067
:100B00005DFD90B9222019490870194890F82A0013
:100B100000F0F900164981F82A00084690F82A00EA
:100B200040F0040081F82A000AE002200F49087012
:100B30000F4890F82A0000F0F9000D4981F82A00CA
:100B40000A480078A04208D00848047800780228B3
:100B500003D00848006802F0A3FD052300221146D7
:100B6000104602F0DDFF96E7000C01405101002025
:100B7000F03600204C0100200FB42DE9F04F9DB05D
:100B80004FF0000B002400201C901B904FF07E5073
:100B90001A9000201990814682469DF9B400FD49C3
:100BA00008629DF9B400401C36D108468069C861CE
:100BB000BDF89800ADF82C00BDF89A00ADF82E00F5
:100BC000BDF89C00ADF8300028980D9029980E9043
:100BD0002A980F902B9810902C9811909DF8B400A3
:100BE0008DF848002E9813902F98149030981590F7
:100BF0003198169032981790339828220FA91890A0
:100C00006846FFF7B5FC0BA80FC800F0F1F91DB05E
:100C1000BDE8F00F5DF814FB2C98DE49C861C86987
:100C2000DD490CF051FD06D2DA49C869DB490CF008
:100C300087FDD849C861D749C869D9490CF044FC37
:100C400006D2D449C869D5490CF072FAD149C861B5
:100C500029980CF0EDFB4FF4C871484340002A90EE
:100C600000203090319032903390CE4800682E9022
:100C7000CD4800682F90CD4808F0A6FACB4809F07F
:100C80001DFDC44890F82800C24981F829000120C0
:100C900081F8280051E1BF4AD16990690CF050FDFC
:100CA00005460CF0A9FB8146BA49C86900210CF041
:100CB0000BFD01D2012500E00025B649886900211D
:100CC0000CF002FD01D2012000E00020854264D03A
:100CD000B049C8690CF000FA21F000410546002235
:100CE000B34B0BF0E7FF58D2AA4988690CF0F4F92E
:100CF00021F0004105460022AD4B0BF0DBFF4CD24A
:100D0000A44988690CF078FB10F1960F1FDAA1490D
:100D100088690CF0E1F921F0004605469D49C86953
:100D20000CF06AFB05900BF060FE21F00041002200
:100D3000A04BCDE906010BF0F3FF07462A463346E8
:100D40000CF0E0F8CDE908010BF020FE8146914956
:100D500088690CF051FB96281FDD8E4988690CF0DC
:100D6000BBF921F0004605468A49C8690CF044FBEE
:100D700005900BF03AFE21F000412A463346CDE9BA
:100D800006010BF0EFFB00228A4BCDE908010CF0C5
:100D9000B9F807460BF0FAFD814620460CF068FBD7
:100DA00007468548016838460CF0C2FB05464846B0
:100DB0000CF05EFB07468148016838460CF0B8FB32
:100DC000064629460CF0B4F92890B9F1000F01DD70
:100DD000012000E00020BAF1000F01DD012100E058
:100DE0000021884200D00024CA464C44B4F5FA6F72
:100DF00001DD4FF4FA6414F5FA6F00DA704CBDF8B7
:100E000098000CF04DFB064628990CF099FC05461D
:100E10000CF00EFB80B2ADF89A00BDF898000CF013
:100E20003FFB064628990CF083F905460CF000FBC1
:100E300080B2ADF89C00BDF89A001E2802DA1E2090
:100E4000ADF89A00BDF89A00C82802DDC820ADF8B8
:100E50009A00BDF89C001E2802DA1E20ADF89C0006
:100E6000BDF89C00C82802DDC820ADF89C009DF8A4
:100E7000B400012809D1BDF89A104C4808F072F965
:100E8000BDF89C10494809F0E7FB142300221146E5
:100E9000104602F045FE43492E980968081A309022
:100EA00041492F980968081A319046488068D2282D
:100EB00013DD3E4808F088F93C4809F0FFFB0523A4
:100EC00000221146104602F02BFE324890F829000D
:100ED000304981F82800082099E63A48406864289B
:100EE00013DD324808F070F9304809F0E7FB0523BC
:100EF00000221146104602F013FE264890F8290001
:100F0000244981F82800072081E62E48C06864281B
:100F100013DD264808F058F9244809F0CFFB0523D3
:100F200000221146104602F0FBFD1A4890F82900F5
:100F3000184981F82800092069E6DDE930010844F4
:100F40002A99884205D2134890F82A0000283FF4D5
:100F5000A2AE104890F82A0038B90E4890F829003F
:100F60000C4981F82800002051E6104808F02CF9BF
:100F70000E4809F0A3FB074890F82900054981F8BD
:100F80002800084690F82A0010F0040F1CD0032017
:100F90003DE60000F0360020000034430000B4437A
:100FA000000034C308000020040000202C3600207C
:100FB00000C06240008076405801002054010020AB
:100FC00030F8FFFF30370020084890F82A0010F072
:100FD000020F01D004201AE6044890F82A0010F00D
:100FE000080F01D0052012E6012010E6F03600209F
:100FF0000FB42DE9FE4F4FF000080024A146002059
:1010000002904FF07E5001900020009000250027B4
:1010100095490F980CF08CFA82464FF080410CF005
:1010200087FA06460CF0E8F9109000201690179009
:10103000189019908D48006814908D48006815909C
:101040008C4808F0C1F88B4809F038FB8A4890F8C2
:101050002800894981F82900042081F82800F1E05E
:10106000854A9169D0690CF06BFB06460CF0C4F917
:1010700005468149C86900210CF026FB01D20126F2
:1010800000E000267C49886900210CF01DFB01D29C
:10109000012000E00020864252D07749C8690CF058
:1010A000ABF9B0F1000A01DB504601E0CAF10000E3
:1010B000962845DD704988690CF09EF9061E01DB13
:1010C000304600E0704296283ADD6B4988696B49EA
:1010D0000CF0FAFA17D26849C8690CF08DF9B0F132
:1010E000000A01DB504601E0CAF10000C0F5B47B04
:1010F000614988690CF080F9061E01DB304600E08A
:101100007042ABEB00055C4988695D490CF0DCF985
:1011100016D25949C8690CF06FF9B0F1000A01DB29
:10112000D34601E0CAF1000B534988690CF064F919
:10113000061E01DB304600E070425844A0F5B4754D
:1011400020460CF095F983464E48016858460CF04D
:10115000EFF9064628460CF08BF983464A480168A9
:1011600058460CF0E5F9824631460BF0E1FF0E904F
:10117000002D01DD012000E00020002F01DD012114
:1011800000E00021884200D000242F462C44B4F512
:101190007A7F01DD4FF47A7414F57A7F00DA3B4CE4
:1011A000BDF830000CF07CF982460E990CF0C8FABC
:1011B00006460CF03DF980B2ADF83200BDF83000C3
:1011C0000CF06EF982460E990BF0B2FF06460CF059
:1011D0002FF980B2ADF83400BDF832001E2802DAD3
:1011E0001E20ADF83200BDF83200C82802DDC8204C
:1011F000ADF83200BDF834001E2802DA1E20ADF82A
:101200003400BDF83400C82802DDC820ADF8340031
:10121000BDF83210174807F073FFBDF834101548B9
:1012200009F0E8F9142300221146104602F078FC78
:101230000E4914980968081A16900D4915980968FE
:10124000081A1790DDE91601084410998842FFF446
:1012500007AF094890F82900074981F828000020C5
:10126000BDE8FE0F5DF814FB0000C8430800002035
:10127000040000202C360020F03600200000164329
:10128000000016C3640100206001002018FCFFFF6D
:101290000FB42DE9FE4F00200290834601900024F8
:1012A000814682461690179018901990B8480068A9
:1012B0001490B8480068159012980BF00DFF054681
:1012C0000022B54B0BF0F6FC0BD212980BF004FF8A
:1012D00005460022B14B0BF015FE07460BF010F946
:1012E000129012980BF0F8FE05460022AC4B0BF062
:1012F000A7FB0BD812980BF0EFFE07460022A74B76
:101300000BF030F905460BF0FBF812901298A54946
:10131000C8610A46916912980CF012FA82460021BF
:1013200050460CF0D1F912D250460BF0D5FE21F008
:10133000004105460022984B0BF082FB03D20120AE
:101340008DF84C0015E0FF208DF84C0011E0504660
:101350000BF0C2FE21F00041054600228E4B0BF03F
:101360006FFB03D2FF208DF84C0002E001208DF8C6
:101370004C008C4890F828008A4981F82900022006
:1013800081F82800514688480CF0D2F805460CF048
:101390004FF81090854807F017FF844809F08EF940
:1013A000DEE0804A916912980CF0CAF907460BF00A
:1013B00093FE21F00041054600227D4B0BF040FBDF
:1013C0000FD3784A916912980CF0BAF907460BF0DE
:1013D00083FE21F0004105460022764B0BF06AFCAB
:1013E0000CD2704890F829006E4981F828006F48A7
:1013F00007F0EAFE6D4809F061F9B7E01899169810
:10140000A0EB010B19991798401A019016981890A3
:10141000179819900198ABEB0004A4EB09000CF0AD
:1014200027F807466448016838460CF081F80546FD
:10143000624800680CF01CF8009061480168009850
:101440000CF076F8074620460CF012F800905D4844
:10145000016800980CF06CF8804639460BF068FE85
:10146000064629460BF064FE0E90A14653480068DC
:101470002044524908600846006842F210718842D0
:1014800002DD08464D4908604C4800684E498842D4
:1014900002DA084649490860BDF830000CF000F84F
:1014A00006460E990CF04CF905460BF0C1FF80B2D0
:1014B000ADF83200BDF830000BF0F2FF06460E9991
:1014C0000BF036FE05460BF0B3FF80B2ADF83400EA
:1014D000BDF832001E2802DA1E20ADF83200BDF839
:1014E0003200C82802DDC820ADF83200BDF8340053
:1014F0001E2802DA1E20ADF83400BDF83400C828DA
:1015000002DDC820ADF834009DF84C00012809D157
:10151000BDF83210254807F025FEBDF834102348E9
:1015200009F068F89DF94C00401C09D1BDF8321053
:101530001E4807F0E5FDBDF834101C4809F08CF892
:10154000142300221146104602F0EAFA10491498BA
:101550000968081A16900F4915980968081A179013
:10156000104890F82A0000283FF41BAF00BF0F4836
:1015700007F02AFE0D4809F0A1F80A4890F8290062
:10158000084981F828000020BDE8FE0F5DF814FB33
:1015900008000020040000200080664000807640A3
:1015A000008066C0F03600200000A0412C360020EC
:1015B0000000104000407640840100208801002097
:1015C000800100207C010020F0D8FFFFB6B000BFF2
:1015D000002400203590382126A8FFF703F8382191
:1015E00018A8FEF7FFFFF8480078ADF89800F74814
:1015F00007F0EAFDF54809F061F80121084609F015
:101600005BFE0121002009F057FE01208DF8B40097
:10161000EF4829900020EF49486271E334AA002185
:10162000ED48006801F0DEFF68E30020E94981F839
:101630002A00EA480078ADF8600001208DF87C00AF
:101640009DF9B410A1EB011101EB41015A2202EB0B
:1016500041000BF00DFF1E90BDF86000ADF82800B2
:10166000BDF86200ADF82A00BDF86400ADF82C00AA
:101670001A980C901B980D901C980E901D980F9026
:101680001E9810909DF87C008DF8440020981290D0
:1016900021981390229814902398159024981690CE
:1016A000259828220EA917906846FEF761FF0AA820
:1016B0000FC8FFF7EDFDC4480078ADF860000120C9
:1016C0008DF87C00C6481B909DF9B410A1EB011168
:1016D00001EB41015A2202EB41000BF0C9FE1E90C2
:1016E000BDF86000ADF82800BDF86200ADF82A0032
:1016F000BDF86400ADF82C001A980C901B980D9062
:101700001C980E901D980F901E9810909DF87C00CC
:101710008DF84400209812902198139022981490EC
:101720002398159024981690259828220EA9179092
:101730006846FEF71DFF0AA80FC8FFF71DFA35908F
:101740000020A44981F828009DF8D40000287DD00D
:101750009DF8D40002283BDB9DF8D400052837DC37
:10176000FF208DF87C004FF07C501B90084680696C
:101770001E90BDF86000ADF82800BDF86200ADF81D
:101780002A00BDF86400ADF82C001A980C901B9844
:101790000D901C980E901D980F901E9810909DF81B
:1017A0007C008DF844002098129021981390229884
:1017B00014902398159024981690259828220EA905
:1017C00017906846FEF7D4FE0AA80FC8FFF7D4F9B1
:1017D000804880691E9000247E48406A00287DD1A0
:1017E0009DF8B40001284BD145E0601CC4B27B4891
:1017F0000078ADF860009DF9B410C1EB01100BF05A
:1018000037FE05461E990BF093FC1E90BDF8600054
:10181000ADF82800BDF86200ADF82A00BDF86400FC
:10182000ADF82C001A980C901B980D901C980E90F7
:101830001D980F901E9810909DF87C008DF8440024
:101840002098129021981390229800E0B6E114900D
:101850002398159024981690259828220EA9179061
:101860006846FEF785FE0AA80FC8FFF711FD359000
:10187000042C00DD03E05B4800683228B5DB4BE058
:1018800045E0601CC4B255480078ADF860009DF991
:10189000B410C1EB01100BF0EBFD05461E990BF0E7
:1018A00047FC1E90BDF86000ADF82800BDF862004E
:1018B000ADF82A00BDF86400ADF82C001A980C9021
:1018C0001B980D901C980E901D980F901E981090CC
:1018D0009DF87C008DF84400209800E021E01290F3
:1018E000219813902298149023981590249816907C
:1018F000259828220EA917906846FEF739FE0AA8F7
:101900000FC8FFF7C5FC3590042C00DD03E0354817
:1019100000693228B5DB00BF9DF8B4008DF87C006B
:10192000B2E02C48406AB428FAD19DF9B400401CBA
:101930005AD143E0601CC4B228480078ADF860007A
:101940009DF9B410C1EB01100BF092FD05461E99F4
:101950000BF0EBFE1E90BDF86000ADF82800BDF85E
:101960006200ADF82A00BDF86400ADF82C001A98AA
:101970000C901B980D901C980E901D980F901E981F
:1019800010909DF87C008DF84400209812902198CA
:1019900013902298149023981590249816902598C7
:1019A00028220EA917906846FEF7E2FD0AA80FC884
:1019B000FFF76EFC3590042C00DD03E00948006859
:1019C0003228B7DB5AE00000440100202C3600200A
:1019D0000000C842F03600204801002045010020E8
:1019E000000016433037002043E0601CC4B2C548F5
:1019F0000078ADF860009DF9B410C1EB01100BF058
:101A000037FD05461E990BF090FE1E90BDF8600054
:101A1000ADF82800BDF86200ADF82A00BDF86400FA
:101A2000ADF82C001A980C901B980D901C980E90F5
:101A30001D980F901E9810909DF87C008DF8440022
:101A40002098129021981390229814902398159022
:101A500024981690259828220EA917906846FEF71C
:101A600087FD0AA80FC8FFF713FC3590042C00DD92
:101A700003E0A54800693228B7DB00BF9DF8B40039
:101A8000404240B28DF87C00A0480078ADF860007C
:101A9000BDF86000ADF82800BDF86200ADF82A007E
:101AA000BDF86400ADF82C001A980C901B980D90AE
:101AB0001C980E901D980F901E9810909DF87C0019
:101AC0008DF8440020981290219813902298149039
:101AD0002398159024981690259828220EA91790DF
:101AE0006846FEF745FD0AA80FC809F091FC35903D
:101AF0009DF8D4000B283CD19DF9B410C1EB011125
:101B000001EB41015A22C2EB41000BF0B1FC1E90E7
:101B1000BDF86000ADF82800BDF86200ADF82A00FD
:101B2000BDF86400ADF82C001A980C901B980D902D
:101B30001C980E901D980F901E9810909DF87C0098
:101B40008DF84400209812902198139022981490B8
:101B50002398159024981690259828220EA917905E
:101B60006846FEF705FD0AA80FC8FFF791FB359000
:101B7000C4E09DF8D4000C2815D10D2001F050FFD1
:101B8000C82300221146104601F0CAFF11203590EB
:101B900035A95F4803F076FDC823002211461046A0
:101BA00001F0BEFFABE000205A4981F82800C823AD
:101BB00000221146104601F0B3FF98E0514800782A
:101BC000ADF860009DF8B4008DF87C005149486A7A
:101BD0000BF04EFC06469DF9B4105A2201FB02F0B0
:101BE0000BF046FC07464B48816938460BF0A0FADB
:101BF000054631460BF09CFA1E90BDF86000ADF82A
:101C00002800BDF86200ADF82A00BDF86400ADF808
:101C10002C001A980C901B980D901C980E901D98F3
:101C20000F901E9810909DF87C008DF8440020982D
:101C3000129021981390229814902398159024982C
:101C40001690259828220EA917906846FEF790FC5A
:101C50000AA80FC8FFF71CFB359000202D4981F81A
:101C600028002D480078ADF8600001208DF87C0038
:101C70002A481B90084680691E90BDF86000ADF8A8
:101C80002800BDF86200ADF82A00BDF86400ADF888
:101C90002C001A980C901B980D901C980E901D9873
:101CA0000F901E9810909DF87C008DF844002098AD
:101CB00012902198139022981490239815902498AC
:101CC0001690259828220EA917906846FEF750FC1A
:101CD0000AA80FC8FEF750FF359000200D4981F883
:101CE0002800C82300221146104601F019FF9DF874
:101CF000B400404240B28DF8B40000BF95E400BF8C
:101D00008CE400004501002030370020460100200F
:101D100000380140F036002044010020000040401F
:101D200007E00A2300221146104601F0F9FE0AF0EE
:101D300027FBF6E708B5FF20ADF8000000208DF87E
:101D4000030003208DF802006946724800F07EFB14
:101D50003F20ADF8000000208DF8030003208DF82F
:101D6000020069466C4800F071FB0320ADF80000EA
:101D700000208DF8030003208DF8020069466748B3
:101D800000F064FB4FF48070ADF8000014208DF873
:101D9000030003208DF802006946614800F056FBFD
:101DA0004FF40040ADF8000014208DF8030003202C
:101DB0008DF802006946594800F048FB4FF4804016
:101DC000ADF8000014208DF8030003208DF8020008
:101DD0006946524800F03AFB4FF40060ADF800004D
:101DE00010208DF8030003208DF8020069464D484D
:101DF00000F02CFB00224FF400614A4800F0E7FBA2
:101E00000420ADF8000014208DF8030003208DF8A5
:101E100002006946434800F019FB4FF4C040ADF89A
:101E2000000004208DF8030003208DF802006946AD
:101E30003C4800F00BFB4FF40070ADF80000482068
:101E40008DF8030001208DF802006946344800F047
:101E5000FDFA4FF48040ADF8000048208DF80300F3
:101E600001208DF8020069462D4800F0EFFA0220AB
:101E7000ADF8000004208DF8030003208DF8020067
:101E80006946274800F0E2FA4FF48050ADF80000B0
:101E900004208DF8030003208DF8020069462148D4
:101EA00000F0D4FA4FF44050ADF8000004208DF853
:101EB000030003208DF802006946184800F0C6FAB6
:101EC0004FF40040ADF8000014208DF8030003200B
:101ED0008DF802006946114800F0B8FA2020ADF8EC
:101EE000000004208DF8030003208DF802006946ED
:101EF0000A4800F0ABFA8020ADF8000004208DF80D
:101F0000030003208DF802006946054800F09EFAA0
:101F100008BD00000008014000100140000C014015
:101F2000001801400014014008B50820ADF8000079
:101F300003208DF8020014208DF803006946224822
:101F400000F084FA4FF44070ADF8000003208DF8E3
:101F5000020014208DF8030069461B4800F076FA51
:101F60000120ADF8000003208DF8020010208DF84C
:101F700003006946144800F069FA4FF4C050ADF808
:101F8000000003208DF8020010208DF80300694640
:101F90000E4800F05BFA012211030C4800F017FB19
:101FA00001221146084800F012FB0122D102074825
:101FB00000F00DFB0121022008F084FA07F05CF824
:101FC00007F078F808BD000000140140001001403F
:101FD0007047000010B5202000F024F800210248CE
:101FE00000F026F810BD00001C00024010B54FF4B0
:101FF000007000F017F80021014800F019F810BD3A
:102000003000024010B54FF4005000F00BF80021F2
:10201000014800F00DF810BD4400024070477047C1
:10202000704700000149486070470000000002400E
:1020300021B1026842F00102026003E0026822F06E
:10204000010202607047000000B5034600211846F7
:10205000FFF7EEFF0020186058609860D8602B49A9
:10206000581A8B422AD007DC294818180BD014289C
:1020700012D0282846D118E0142828D028282FD09C
:102080003C283FD135E021484438406840F00F00FB
:102090001E494439486036E01C484438406840F0E6
:1020A000F0001A49443948602DE018484438406827
:1020B00040F4706015494439486024E013484438BE
:1020C000406840F470401149443948601BE00F48B3
:1020D0004438406840F470200C494439486012E0AC
:1020E0000A484438406840F4700008494439486060
:1020F00009E006484438406840F0706003494439BC
:10210000486000E000BF00BF00BD00004400024086
:10211000F8FFFDBF10B50022026847F6F0739A433E
:102120000C6A8B6823430C6923434C6923438C69F5
:102130002343CC6923434C6A23438C6A23431A43C9
:102140000260CB6843600B6883604B68C36010BD5E
:102150000146002201E0531C9AB28A42FBDB0020B8
:1021600001E0431C98B2C828FBDB704710B5FEF7AE
:1021700053F805480078401C03490870FEF755F8ED
:1021800001F0C6F910BD0000DC00002010B5FEF71C
:1021900043F80E480078401C0C490870FEF745F8DB
:1021A0004FF4804000F05AF860B14FF4804000F0E6
:1021B0004FF8FEF731F806480068401C04490860F3
:1021C000FEF733F801F0A4F910BD0000DC00002098
:1021D0000400002010B5FEF71FF805480078401CE9
:1021E00003490870FEF721F801F092F910BD0000D4
:1021F000DC000020704770477047000010B5FEF704
:102200000BF80E480078401C0C490870FEF70DF8DA
:102210004FF4007000F022F860B14FF4007000F04D
:1022200017F8FDF7F9FF06480068401C04490860EC
:10223000FDF7FBFF01F06CF910BD0000DC00002091
:1022400008000020014908607047000014040140A4
:102250000149086070470000140401400146002055
:102260000022074B1B6803EA0102054B14331B686D
:102270000B4202D00AB1012000E0002070470000AC
:1022800000040140817989B301791D4A89580268A7
:10229000114302791A4BD150194908310968026873
:1022A0009143174A08321160111D09680268914371
:1022B000134A0C321160417910290ED1111F09689F
:1022C000026811430E4A08321160111D0968026844
:1022D00011430B4A0C32116011E04179084A8958C8
:1022E000026811434279064BD15008E0FFE70179BB
:1022F000034A8958026891430279014BD1507047D3
:1023000000040140704700000549096821F01001F0
:10231000034A1160114609680143116070470000CB
:10232000002002400549096801F03801034A1160A4
:102330001146096801431160704700000020024007
:1023400010B5084800F018F8074800F015F80748DD
:1023500000F012F8064800F00FF8064800F00CF8FC
:1023600010BD000000080140000C014000100140B9
:10237000001401400018014010B504462149601ABC
:102380008C4220D006DC204820180AD0B0F5806F9F
:1023900034D10FE0B0F5806F1ED0B0F5006F2DD1B5
:1023A00023E00121042002F005F80021042002F0BE
:1023B00001F824E00121082001F0FCFF00210820A1
:1023C00001F0F8FF1BE00121102001F0F3FF0021D4
:1023D000102001F0EFFF12E00121202001F0EAFFC0
:1023E0000021202001F0E6FF09E00121402001F05A
:1023F000E1FF0021402001F0DDFF00E000BF00BF51
:1024000010BD00000010014000F8FEBF30B50022F2
:102410008B071C0F0F2303FA04F20B4B8C1053F89D
:1024200024309343084C8D1044F8253023468C10FB
:1024300053F824308C07240F00FA04F42343024C91
:102440008D1044F8253030BD080001402DE9F041E1
:10245000024600250026002000230024002791F8D2
:1024600003C00CF00F0591F803C01CF0100F03D04F
:1024700091F802C04CEA050591F800C0BCF1000FCC
:1024800031D0146800202AE04FF0010C0CFA00F360
:10249000B1F800C00CEA03069E421FD183004FF042
:1024A0000F0C0CFA03F7BC4305FA03FC4CEA0404D6
:1024B00091F803C0BCF1280F05D14FF0010C0CFAC4
:1024C00000FCC2F814C091F803C0BCF1480F05D15C
:1024D0004FF0010C0CFA00FCC2F810C0401C082898
:1024E000D2D314600024B1F800C0BCF1FF0F34DD7A
:1024F000546800202EE000F1080C4FF0010808FAA3
:102500000CF3B1F800C00CEA03069E4221D183000F
:102510004FF00F0C0CFA03F7BC4305FA03FC4CEA2E
:10252000040491F803C0BCF1280F05D100F1080C98
:1025300008FA0CF8C2F8148091F803C0BCF1480FF7
:1025400007D100F1080C4FF0010808FA0CF8C2F8A6
:102550001080401C0828CED35460BDE8F0810000F4
:1025600070B50B460022002400210025124E716830
:10257000C0F3034582B200F40016B6F5001F02D185
:1025800021F0E0610AE000F48016B6F5801F04D166
:10259000032606FA05F4A14300E0914343B100F499
:1025A0000016B6F5001F02D141EA024100E01143D6
:1025B000014E716070BD0000000001400246002025
:1025C00093680B4201D0012000E0002070471AB14F
:1025D00003690B43036102E043690B4343617047A6
:1025E000704770477047704710B50122D103094802
:1025F000FFF7EDFF00F06AF9012240210648FFF7DE
:10260000E6FF0220FFF7A4FD002240210248FFF769
:10261000DEFF10BD001401400010014010B500F0B5
:1026200055F900224FF400410D48FFF7D0FF02207A
:10263000FFF78EFD002240210A48FFF7C8FF022065
:10264000FFF786FD0122D1030548FFF7C0FF0220F6
:10265000FFF77EFD012240210248FFF7B8FF10BDC1
:10266000001401400010014070B5044600F02EF93E
:10267000002521E000224FF400411148FFF7A7FF99
:1026800014F0010F05D0012240210E48FFF79FFFF3
:1026900004E0002240210B48FFF799FF0320FFF7D9
:1026A00057FD64100122D1030548FFF790FF032076
:1026B000FFF74EFD681CC5B2082DDBDB70BD0000C6
:1026C000001401400010014010B5002400224FF416
:1026D00000411148FFF77BFF00F0E6F805E0601CC1
:1026E00084B2B4F5FA6F00DD05E040210B48FFF736
:1026F00065FF0028F3D100BF0122D1030648FFF790
:1027000066FF0520FFF724FD00224FF40041024838
:10271000FFF75DFF10BD00000014014000100140F4
:1027200038B500244FF4C050ADF8000003208DF8F8
:10273000020014208DF8030069460448FFF786FE66
:102740000021084600F098F838BD0000000801405C
:1027500070B5044602F01EF80020114908600546D5
:102760001AE0E0090F4908604FEA44604FEA10643C
:102770004FF0020003F06CFF01200B49C1F8B001DB
:10278000022003F065FF0020054908604FF00200B9
:1027900003F05EFF681CC5B2082DE2DB70BD0000CF
:1027A000B0012142AC0121420000214210B501F0EC
:1027B000F1FF01200A4908600A49C1F8B0014FF051
:1027C000040003F045FF0020054908604FF00400B5
:1027D00003F03EFF00200349C1F8B00110BD000026
:1027E000AC0121420000214210B501F0D3FF0020CE
:1027F0000B4908600B49C1F8AC014FF0040003F02D
:1028000027FF0120064908604FF0040003F020FF75
:1028100001200449C1F8AC01042003F019FF10BDE8
:10282000B00121420000214210B5002401F0A0FFB8
:1028300001200D49086003F00BFF01200B49C1F88E
:10284000B00103F005FF07E0601CC4B2FA2C03DD01
:10285000FFF7CAFF012010BD054800680028F3D12A
:102860000449086000BFF6E7AC01214200002142A4
:102870002C012142B001214270B505460C46FFF7FC
:1028800095FFA220FFF764FFFFF7CEFF2846FFF772
:102890005FFFFFF7C9FF2046FFF75AFFFFF7C4FFAE
:1028A000FFF7A2FF70BD000008B54020ADF80000A2
:1028B00004208DF8030003208DF8020069460248C9
:1028C000FFF7C4FD08BD00000010014008B540201E
:1028D000ADF8000010208DF8030003208DF80200F1
:1028E00069460248FFF7B2FD08BD00000010014034
:1028F00008B51020ADF8000004208DF80300032077
:102900008DF8020069460348FFF7A0FD00F034F897
:1029100008BD00000018014008B51020ADF8000007
:1029200014208DF8030003208DF802006946034847
:10293000FFF78CFD00F020F808BD000000180140F2
:1029400010B508200B49086000F016F8FFF7E4FF07
:1029500010200849086000F00FF808200549091FF9
:10296000086000F009F808200249086000F004F847
:1029700010BD00001418014008B50A20009002E0C4
:102980000098401E009000980028F9D108BD000072
:1029900008B50420ADF8000003208DF8020048209F
:1029A0008DF8030069461048FFF750FD012204210D
:1029B0000D48FFF70CFE1820ADF8000003208DF83D
:1029C000020014208DF8030069460748FFF73EFD1A
:1029D000012208210448FFF7FAFD012210210248D4
:1029E000FFF7F5FD08BD00000018014010B50820F4
:1029F0000B490860FFF7C0FFFFF78EFF1020084962
:102A0000091F0860FFF7B8FF08200549091F086083
:102A1000FFF7B2FF082002490860FFF7ADFF10BDC5
:102A20001418014070B5054608260024FFF760FF22
:102A300010201449086014E06006040E08201149B3
:102A4000091D0860FFF798FF08200E490860FFF78E
:102A500093FF0C480838006810F0100F01D044F0C4
:102A600001043000A6F10101CEB2E5D108200549EC
:102A7000091D086015B9FFF7B9FF01E0FFF760FF16
:102A8000204670BD1018014070B504460825FFF7B8
:102A900043FF19E0082011490860FFF76DFF14F0AB
:102AA000800F04D010200D49091F086002E010209B
:102AB0000A4908606006040EFFF75EFF0820074918
:102AC000091F0860FFF758FF2800A5F10101CDB2EA
:102AD000E0D108200149086070BD000014180140D1
:102AE00010B5FFF719FF10200B4908600820086097
:102AF000FFF742FF10200849091D0860FFF73CFF5F
:102B000010200549091D0860FFF736FF082002491B
:102B1000091D086010BD00001018014010B5FFF736
:102B2000FBFE08200A490860FFF726FF102008492D
:102B30000860FFF721FF08200549091F0860FFF71B
:102B40001BFF10200249091F0860FFF715FF10BD89
:102B50001418014010B50024FFF7CAFE10201049D8
:102B60000860FFF709FF08200D490860FFF704FF20
:102B70000AE0601CC4B22046611CCCB2FA2803DD16
:102B8000FFF7CCFF012010BD05480838006810F0A1
:102B9000100FEED108200249091D08600020F2E75D
:102BA0001018014010B5FFF7F3FE80216B2000F0F4
:102BB000D6F8642003F059FD00216B2000F0CFF817
:102BC000032000F08BF8002000F080F8322000F0A5
:102BD000AAF80021382000F0C2F800216A2000F095
:102BE000BEF80021232000F0BAF88021372000F041
:102BF000B6F8752000F013F80446682C0BD10121BB
:102C00006B2000F0ACF800216C2000F0A8F8322016
:102C100000F089F801E0012010BD0020FCE770B54C
:102C20000446FFF75DFFD020FFF72EFFFFF792FF6E
:102C30002046FFF729FFFFF78DFFFFF751FFD12057
:102C4000FFF722FFFFF786FF0020FFF7EBFE0546A8
:102C5000FFF764FF284670BD2DE9F04106460F4698
:102C600014461D46FFF73CFF002141EA4601C8B269
:102C7000FFF70AFFFFF76EFF20B1FFF74FFF0120BC
:102C8000BDE8F0813846FFF7FFFEFFF763FFFFF76F
:102C900027FF012101EB4601C8B2FFF7F5FEFFF760
:102CA00059FF0DE0012C04D10020FFF7BBFE287076
:102CB00003E00120FFF7B6FE2870601EC4B26D1C51
:102CC000002CEFD1FFF72AFF0020D9E710B504460A
:102CD000E006010E1C2000F042F810BD10B50446BD
:102CE000E006010E1B2000F03AF810BD70B5044656
:102CF0000025BC2C01DB012510E0622C01DB022544
:102D00000CE02A2C01DB032508E0142C01DB042550
:102D100004E00A2C01DB052500E0062529461A20DF
:102D200000F01DF870BD70B50446B4F57A7F01DD82
:102D30004FF47A74042C00DA04244FF47A7090FB78
:102D4000F4F0401EC5B22946192000F008F80546E7
:102D5000264604EBD6714810FFF7C8FF70BD70B56A
:102D600005460C46FFF7BCFED020FFF78DFEFFF7AF
:102D7000F1FE18B1FFF7D2FE012070BD2846FFF723
:102D800083FEFFF7E7FE2046FFF77EFEFFF7E2FE39
:102D900018B1FFF7C3FE0120EFE7FFF7BFFE0020E9
:102DA000EBE72DE9F04105460E4617469846FFF73A
:102DB00097FE002141EA4501C8B2FFF765FEFFF723
:102DC000C9FE20B1FFF7AAFE0120BDE8F081304620
:102DD000FFF75AFEFFF7BEFE00240CE018F80400CF
:102DE000FFF752FEFFF7B6FE18B1FFF797FE01207E
:102DF000EBE7601CC4B2BC42F0DBFFF78FFE0020A3
:102E0000E3E7000008B500200090002400F0C6FBB6
:102E1000884908600DE16A4664218648006800F030
:102E2000E1FB0120844908700C2048708348056844
:102E3000416800221346284609F002FE22D27F494B
:102E40000F68496821F0004100227D4B384609F0A7
:102E500033FE054609F09AFDC0F3072040F08000DC
:102E60007549887075490F68496821F00041002252
:102E7000734B384609F020FE054609F087FD6E4980
:102E8000C8701AE06D480568416800226C4B2846FE
:102E900009F012FE074609F079FD000A66498870BC
:102EA0006648056841680022654B284609F004FE23
:102EB000074609F06BFD6049C87060488568C168C5
:102EC00000221346284609F0BBFD22D25B498F68D9
:102ED000C96821F000410022594B384609F0ECFD49
:102EE000054609F053FDC0F3072040F08000524929
:102EF000087152498F68C96821F000410022504B87
:102F0000384609F0D9FD054609F040FD4A494871A7
:102F10001AE04A498D68C9680022494B284609F0E1
:102F2000CBFD074609F032FD000A434908714348CA
:102F30008568C1680022424B284609F0BDFD07465E
:102F400009F024FD3C4948713C49886900210AF098
:102F5000BBFA24D2394988690AF0BEF821F0004151
:102F600007460022364B09F0A7FD054609F00EFD85
:102F7000C0F3072040F080002F4988712F498869ED
:102F80000AF0AAF821F00041074600222C4B09F074
:102F900093FD054609F0FAFC2749C87114E027495A
:102FA000886928490AF0C4FA05460AF025FA000A99
:102FB000214988712149886922490AF0B9FA0546F0
:102FC0000AF01AFA1C49C8711F480068C0F387004C
:102FD000194908721C484068C0F3870048721A48B3
:102FE0008068C0F3870088721748C068C0F3870004
:102FF000C87215480069C0F3870008731348007849
:1030000000F0200011490978C1F3001141EA600085
:1030100009494873FDF700F9002406E00648011944
:103020000B4802F02FFB601CC4B20E2CF6DBFDF740
:10303000FCF8F0E64C01002020370020F03600209C
:1030400000002440000020413037002051010020C2
:103050000038014008B5C020ADF8000018208DF8F8
:10306000030003208DF8020069461248FFF7EEF9CD
:103070004FF44070ADF8000018208DF803000320D5
:103080008DF8020069460B48FFF7E0F908F070F888
:103090004FF40070ADF8000010208DF80300694671
:1030A0000548FFF7D3F900224FF400710248FFF7FB
:1030B0008EFA08BD000C0140001001403EB57F248F
:1030C000234801F0C9FF4FF48070ADF804000020E0
:1030D000ADF80600ADF80800ADF80A0001A91C48DB
:1030E00002F051F901221621194802F013F950207B
:1030F0002346002211460090154802F0E1F85020C6
:103100002346012200210090114802F0D9F85020F6
:1031100023460222002100900D4802F0D1F85020F1
:103120002346032200210090094802F0C9F800213B
:10313000074802F02CF80021054802F031F801217F
:10314000034801F075FF0121014801F079FF3EBD00
:103150000008004008B500214FF0006000F0F6F8CC
:103160004FF4A06000F0E8F825208DF80000022060
:103170008DF8010003208DF80200684600F08AF8FF
:103180000C208DF8000002208DF8010004208DF83D
:10319000020001208DF80300684600F07BF817203C
:1031A0008DF8000002208DF801008DF8020001204A
:1031B0008DF80300684600F06DF828208DF80000B7
:1031C00002208DF8010001208DF802008DF8030027
:1031D000684600F05FF807208DF8000003208DF8A6
:1031E000010002208DF8020001208DF803006846DE
:1031F00000F050F81B208DF8000001208DF8010030
:1032000002208DF8020001208DF80300684600F0CE
:1032100041F81C208DF8000001208DF801008DF888
:1032200002008DF80300684600F034F80322012103
:10323000044800F095F8002008F074F8012008F028
:1032400071F808BD9AC302000020411E0D4A1160AA
:1032500040F2FF720C49C1F884204FF0FF314FF06B
:10326000E022C2F8801240F2FF7208490A6000BFF3
:1032700004E00022064941F82020401C0B28F8D326
:103280007047000080E100E000E100E084E200E03F
:1032900000E400E0F0B500210022002300250F2407
:1032A000C678002E35D0214E366806F4E066C6F5A5
:1032B000E066310AC1F10405CC40467806FA05F112
:1032C00086782640314309010678B607F60EB140EC
:1032D000174E0778BF1056F827200678B607F70E66
:1032E000FF2606FA07F39A4319400A43104E07785F
:1032F000BF1046F82720067806F01F070126BE40BB
:1033000007787F114FF0E02C0CEB8707C7F80061BE
:103310000BE0067806F01F070126BE40054F90F827
:1033200000C04FEA6C1C47F82C60F0BD0CED00E0CB
:1033300000E400E080E100E002490143024A11603C
:10334000704700000000FA050CED00E0024A0A4058
:103350000243024B1A60704780FFFF1F08ED00E038
:10336000F0B503460C4615460020FF22002600213A
:10337000164F3F6807F4E067C7F5E067390AC1F107
:103380000400CA4004FA00F105EA020739430901C2
:1033900003F0C0008009C3F30122D700B9404FEA0F
:1033A000C20CFF2707FA0CF6084F0C3757F82070AD
:1033B000B743DFF818C00CF10C0C4CF820706746CE
:1033C00057F820700F434CF82070F0BD0CED00E072
:1033D000174818481848194819481A481A481B48E5
:1033E0001B481C481C481D481D481E481E481F48B5
:1033F0001F48204820482148214822482248234885
:103400002348244824482548254826482648274854
:10341000274828482848294829482A482A482B4824
:103420002B482C482C482D482D4800BF70470000E1
:1034300040D9000844D9000848D900084AD90008F2
:103440004CD900084ED9000850D9000852D90008BC
:1034500054D9000856D9000858D900085AD900088C
:103460005CD900085ED9000860D9000862D900085C
:1034700064D9000866D9000868D900086AD900082C
:103480006CD900086ED9000870D9000872D90008FC
:1034900074D9000876D9000878D900087AD90008CC
:1034A0007CD900087ED9000880D9000882D900089C
:1034B00084D9000886D9000888D900088AD900086C
:1034C0008CD900088ED9000890D9000892D900083C
:1034D00094D9000896D9000898D900089AD900080C
:1034E0009CD9000810B500F011F800F0DFFC00F0E6
:1034F000FBFC00F01DFD00F0B9FC00F07DFD00F0CC
:103500004BFD00F004F8FFF763FF10BD70477047F4
:1035100010B51A48007801282ED1FCF77DFE184816
:103520000078002804DD16480078401E1449087011
:1035300013480078F0B913480078D8B900F0BAFD04
:103540001148007811490978884213D010480E4973
:10355000097850F821000F49086008460068006BA0
:10356000401C096808630C480068401C0A49086050
:10357000FCF780FEFCF759FE10BD0000E2000020C1
:10358000DC000020DD000020DF000020DE00002045
:10359000A00C0020F0000020D400002070B50546EB
:1035A0000E480078002801DD002070BDFCF734FED5
:1035B0000B480468006820B1094800684068084961
:1035C0000860FCF732FE3CB103202070258100200A
:1035D0006060204600F03CFC2046E6E7DC0000206E
:1035E000D800002070B505460E46144628780328FA
:1035F00002D00120207070BD26480078002802DD2E
:1036000002202070F7E724480078002802DD11200E
:103610002070F0E7FCF700FE2889002807DD2889E4
:10362000401E2881FCF701FE00202070E3E71B48C4
:10363000006890F8260040F001001849096881F8F8
:10364000260000201549096881F827001348006802
:103650008684284600F0BCFBFCF7E7FD00F0F4FC94
:10366000FCF7DAFD0D48006890F82700012807D123
:10367000284600F0EDFAFCF7D8FD0A202070BAE7E2
:10368000002006490968C861FCF7CFFD00202070C2
:1036900000BFB0E7DC000020DD000020E8000020D3
:1036A00010B504462078032801D0012010BDFCF796
:1036B000B3FD608950B101220021204600F0F2FAEA
:1036C000FCF7B3FD00F0C0FC0020EFE720894FF6C7
:1036D000FF71884206D22089401C2081FCF7A5FD9D
:1036E0000020E3E7FCF7A1FD3220DFE710B50B482F
:1036F000007890B900F0DEFC0948007809490870AC
:1037000009480749097850F8210008490860084627
:10371000006807490860FCF795FD10BDE200002035
:10372000DF000020DE000020A00C0020F0000020C0
:10373000E800002000BF70472DE9FE4306460F4613
:1037400090461C46FCF768FD1D480078002804DD03
:10375000FCF76BFD1020BDE8FE831A4850F82400EA
:1037600048BB0120174941F82400FCF75EFD002307
:1037700042463946304600F005F981460020009067
:1037800001900346024649460290204600F0DAFCCA
:10379000054635B90C48007801280AD100F054FCE0
:1037A00007E0FCF739FD0020064941F82400FCF74A
:1037B0003CFD2846CFE7FCF738FD2820CBE700008A
:1037C000DC000020A00C0020E20000202DE9FF5FBB
:1037D00081468A4693461C46DDE90F78129DFCF728
:1037E0001BFD20480078002805DDFCF71EFD102099
:1037F00004B0BDE8F09F1C4850F8240070BB0120C5
:10380000194941F82400FCF710FD2A464146384684
:1038100000F032FD2B465A465146484600F0B2F8B9
:1038200003901198CDE9008002953A4620460E9B00
:10383000039900F087FC064636B90C480078012849
:103840000AD100F001FC07E0FCF7E6FC0020064985
:1038500041F82400FCF7E9FC3046C9E7FCF7E5FC39
:103860002820C5E7DC000020A00C0020E20000209A
:1038700000BF704701200149086070470000002028
:103880002DE9F041064688461446FCF7C5FCFF2E9C
:1038900003D11548006890F82860144850F8265065
:1038A0002DB9FCF7C2FC0B202070BDE8F081012D82
:1038B00004D1FCF7BAFC0B202070F6E7404600F07C
:1038C00037FC07460F2F04DDFCF7AFFC0E202070FD
:1038D000EBE7414605F1440000F01CFCFCF7A5FCB9
:1038E0000020207000BFE0E7E8000020A00C0020CE
:1038F00070B50546FCF790FC1F4850F825401CB9F0
:10390000FCF793FC642070BD012C03D1FCF78DFC07
:103910000B20F8E794F8260010F0080F27D014F8D1
:10392000260F20F00800207014F82609D8B9A08CC2
:10393000B0B9E08D1149098808431049088094F80E
:103940002A000F4931F81000A18D084394F82A107D
:103950000B4A22F81100FCF768FC00F075FB04E04C
:10396000FCF763FC01E0FCF760FC0020CBE7FCF710
:103970005CFC6520C7E70000A00C0020E0000020F0
:10398000CC0B002070B5044610464FF080750560E2
:10399000051F28462C606FF00106051F28462E6083
:1039A0004FF01236051F28462E604FF00336051FD4
:1039B00028462E604FF00236051F28462E607610EE
:1039C000051F28462E60051F284629604FF0113636
:1039D000051F28462E604FF01036051F28462E6022
:1039E0004FF00936051F28462E604FF00836051F98
:1039F00028462E604FF00736051F28462E604FF0F0
:103A00000636051F28462E604FF00536051F28464E
:103A10002E604FF00436051F28462E6070BD000052
:103A20002DE9F0410546FCF7F7FBFF2D05D12048B5
:103A3000006890F82850012608E01D48006890F8BA
:103A40002800A84201D1012600E00026194850F8BC
:103A5000254024B9FCF7E9FB5A20BDE8F081012C90
:103A600003D1FCF7E2FB0B20F7E794F82A70124829
:103A700030F81700A18D88430F4921F81700084638
:103A800030F8170028B9E18D0C48008888430B49AD
:103A9000088094F8260040F0080084F82600FCF71F
:103AA000C4FB012E01D100F0CFFA0020D5E70000C1
:103AB000E8000020A00C0020CC0B0020E00000203B
:103AC0007047000070B50546002D22DDFCF7A4FB11
:103AD0001048006890F82A400F4830F814000D494B
:103AE0000968898D88430C4921F81400084630F88C
:103AF000140038B907480068C18D08480088884319
:103B000006490880034800688584FCF78EFB00F0B6
:103B10009BFA70BDE8000020CC0B0020E0000020E4
:103B20002DE9F04706460F4690461D464FF47A7041
:103B300068434FF47A71B0FBF1F14FF46160704368
:103B4000C7EB071200EB8200404400EB4002C2EBDF
:103B5000C01001EBC0044FF6FF7000EA1449A4B294
:103B60002046FFF7AFFF0BE04FF40040FFF7AAFF3E
:103B70004FF40040FFF7A6FFA9F101001FFA80F9FA
:103B8000B9F1000FF0DC0020BDE8F08710B5FCF7BC
:103B900043FB03480468FCF748FB204610BD0000C7
:103BA000FC00002010B5FCF737FB24480068401CDF
:103BB00022490860FCF739FB2148007801283CD1F4
:103BC0002048046835E0FCF727FBA08C70B3A08C7C
:103BD000401E0004000CA08428D194F8260010F0A8
:103BE000370F09D014F8260F20F03700207001207D
:103BF0006070A4F1260402E0002084F8270094F805
:103C0000260010F0080F11D1E08D0F4909880843F4
:103C10000D49088094F82A000C4931F81000A18D54
:103C2000084394F82A10094A22F811006469FCF745
:103C3000FCFA94F828004028C5D110BDFC000020F3
:103C4000E2000020F4000020E0000020CC0B002067
:103C5000134A126892F82A1000F10C0232F811206F
:103C60000F4B1B689B8D9A4300F10C0323F8112026
:103C70001A4632F811202AB94289094B1B68DB8D9C
:103C80009A4342810022064B1B6883F82720044B8D
:103C90001B6883F82620024B1B68DA61704700001E
:103CA000E80000202DE9F04703468C46904693F843
:103CB0000A90B9F1000F06D093F80A90DFF800A13E
:103CC0001AF809100BE0B3F80A90DFF8F4A00AEB39
:103CD000192999F8009009F1080909F0FF014FF03E
:103CE000010909FA01F91FFA89F703F10C0909EB37
:103CF000410595F80090B9F1000F06D095F80090B5
:103D0000DFF8BCA01AF809400BE0B5F80090DFF826
:103D1000B0A00AEB192999F8009009F1080909F0F7
:103D2000FF044FF0010909FA04F91FFA89F604EBC0
:103D3000011909F0FF0003F10C0939F8119029EA83
:103D4000060903F10C0A2AF81190D14639F81190AE
:103D5000B9F1000F05D1B3F80A9029EA0709A3F8D1
:103D60000A90DFF8609059F820204FF00009A2F87F
:103D70002490C2F81C90C2F820C082F8279092F8D4
:103D8000269029EA080982F8269092F82690B9F13F
:103D9000000F13D1DFF83090B9F8009049EA070915
:103DA000DFF824A0AAF80090DFF8209039F81190ED
:103DB00049EA0609DFF814A02AF81190BDE8F08757
:103DC0009ED90008A00C0020E0000020CC0B0020B1
:103DD00010B51C4A1268D0611A4A126892F82A106B
:103DE000194A32F81120174B1B689B8D9A43164BCA
:103DF00023F811201A4632F811203AB9114A1268F4
:103E0000D38D124A12889A43104B1A800D4A1268B9
:103E100092F82A3000F10C0232F81320094B1B688B
:103E20009B8D1A43074B1B6893F82A4000F10C0343
:103E300023F814204289034B1B68DB8D1A4342810F
:103E400010BD0000E8000020CC0B0020E0000020A6
:103E50000023438100F10C01002204E0002321F83B
:103E6000023B531CDAB2052AF8DB704730B54FF439
:103E700034710C4800F0B6F80A4B03F11805002421
:103E800006E0002018705D6018331835601C84B29D
:103E90001D2CF6DB002018705860024802490860AB
:103EA00030BD0000FC080020D80000200020074999
:103EB00008600749087007490870074908700749F2
:103EC000087007490860074908607047FC00002037
:103ED000DC000020DD000020E3000020E2000020E4
:103EE000D4000020E400002000220B4B1A800B4974
:103EF000002004E0002221F8022B421CD0B2052849
:103F0000F8DB0022064B1A70064B1A70064B1A603B
:103F1000064B1A6070470000E0000020CC0B002028
:103F2000DE000020DF000020F0000020E80000207C
:103F300030B540F2E461144800F054F84FF4827157
:103F4000124800F04FF8104B03F1540500240AE02A
:103F50005D613F2083F8440000214520C154543363
:103F60005435601CC4B2142CF2D3002058613F2099
:103F700083F8440000214520C15400200449086012
:103F800001480449086030BDA40D0020A00C0020A9
:103F9000F4000020EC00002000B587B003200021D1
:103FA00032220A4BCDE90132CDE903104FF6FF7002
:103FB0004023064AC43200900548FFF707FC06AAD2
:103FC00004A14020FFF75CFC07B000BDD80B002027
:103FD0005942000875432F4F532D49492049646CBD
:103FE0006500000004E0002200F8012B4A1E91B297
:103FF0000029F8DC7047000010B54FF43471104808
:10400000FFF7F0FF0E4B00240DE0601C00EBC0003A
:104010000B4901EB800058603F201875002159754D
:104020002433601C84B2132CEFDB002058603F2047
:1040300018750021597502480249086010BD00003A
:1040400088140020F800002010B5FCF7E5F81248AD
:104050000078F0B911480078D8B900F02BF8104872
:10406000007810490978884213D00F480C49097824
:1040700050F821000D49086008460068006B401C9C
:10408000096808630A480068401C09490860FCF791
:10409000EAF8FCF7CAF810BDDC000020DD000020C3
:1040A000DF000020DE000020A00C0020F000002037
:1040B000D4000020134A127822B1124A1278124B0F
:1040C000985C07E0104A0F4B1B8802EB1322127812
:1040D0000832D0B20D4A02EB40010A783AB10A78B0
:1040E000094B9A5C02EB0012094B1A7009E00A882E
:1040F000054B03EB1222127802EB00120832044B3C
:104100001A707047E00000209ED90008CC0B0020F8
:10411000DF0000200246002005E011F8013B02F814
:10412000013B431CD8B20B78002BF6D113707047BB
:104130000146002002E0491C421CD0B20A78002A45
:10414000F9D170472DE9F05F05460E4617469846AF
:10415000DDE90BABDDF82890FCF75EF83848046821
:10416000002C69D054F8140F35490860FCF75DF84D
:1041700044F8146C25750020A074E074208244F883
:1041800010AC44F8089C44F80C7C24F804BC24F8D7
:10419000028C2809A075A17D01208840608305F06C
:1041A0000F006075617D0120884020830020A060A1
:1041B000E060E06160622062A062E0623F2084F81B
:1041C0003000A4F114044FF000014FF045000155F8
:1041D0002046FFF7AFFA2046FFF74AFBFCF71CF832
:1041E000184840F825401848006860610020A06128
:1041F0001548006810B114480068846112480460D2
:10420000E08D1249098808431049088094F82A0073
:104210000F4931F81000A18D084394F82A100C4A78
:1042200022F811000B480078401C0A490870FBF77F
:10423000FCFF0020BDE8F09FFBF7F7FF4620F9E701
:10424000EC000020A00C0020F4000020E000002082
:10425000CC0B0020E300002000BFFBF7DDFF05488A
:104260000068401C03490860FBF7DFFFFFF702FB13
:10427000F3E70000E400002012F0010F08D012F074
:10428000020F05D002E0491E002308C00029FAD120
:10429000704770472DE9F04105460C46002601277E
:1042A000A08808B9022600E00026E088012801D194
:1042B000022700E001276088A0B9A37AE288A188DC
:1042C000284600F0FDFA2189284601F030F8A37A4B
:1042D0003A463146284600F029FB2189284601F05C
:1042E0002FF813E0A37AE288A188284600F01EFB8D
:1042F0002189284601F024F8A37A3A463146284617
:1043000000F0DEFA2189284601F011F8BDE8F081BD
:10431000014908627047000000000E42014600207B
:10432000034A506820F44040084350607047000042
:104330000010024029B1064A52690243044B5A61F7
:1043400004E0034A52698243014B5A6170470000FE
:104350000010024029B1064AD2690243044BDA61D7
:1043600004E0034AD2698243014BDA6170470000DE
:104370000010024029B1064A12690243044B1A6137
:1043800004E0034A12698243014B1A61704700003E
:104390000010024029B1064A92690243044B9A6117
:1043A00004E0034A92698243014B9A61704700001E
:1043B0000010024029B1064AD2680243044BDA6079
:1043C00004E0034AD2688243014BDA607047000080
:1043D0000010024010B500F07FF84FF4803000F07C
:1043E00045F900F0A3F9374908700846007801281C
:1043F0002AD11020FDF788FF0220FDF793FF00204F
:1044000000F028F9002000F065F94FF4806000F01A
:1044100055F94FF40040FFF781FF4FF4E0114FF4DE
:10442000803000F069F9012000F060F900BF392008
:1044300000F0EAF80028FAD0022000F06BF900BF83
:1044400000F000F90828FBD101217C20FFF7A2FF32
:1044500001210846FFF79EFF01210520FFF79AFF83
:1044600001211948FEF77CF801210846FFF762FF99
:1044700001214802FFF78EFF01210420FFF76AFFA8
:1044800001210220FFF766FF01211048FEF768F8BE
:1044900001210846FFF75EFF0121C802FFF77AFFFE
:1044A00001210B48FEF75CF801210A48FEF758F895
:1044B00001214FF0C050FFF74DFF0120FFF728FF0B
:1044C00010BD0000C50000200004300000031800EB
:1044D000C0001600000C1A0000201349C8600861D3
:1044E0001420486100208861C8610846006840F0D7
:1044F00001000860084640680C4908400A494860C5
:10450000084600680A4908400749086008460068EC
:1045100020F4802008600846406820F4FE004860CF
:104520000020886070470000001002400000FFF883
:10453000FFFFF6FE30B500210022002400232D4DA0
:104540006D6805F00C0121B1042905D0082923D19B
:1045500005E0294D056022E0274D05601FE0254D4F
:104560006D6805F47012022505EB9242214D6D68CD
:1045700005F480341CB9214D554305600BE01D4DF9
:104580006D6815F4003F03D01C4D5543056002E0F3
:10459000194D5543056002E0174D056000BF00BF8F
:1045A000144D6D6805F0F0010909154D6B5C056847
:1045B000DD4045600F4D6D6805F4E061090A104D5E
:1045C0006B5C4568DD4085600A4D6D6805F460519F
:1045D000C90A0B4D6B5C4568DD40C560054D6D68D3
:1045E00005F44041890B074D6B5CC568B5FBF3F5DD
:1045F000056130BD0010024000127A0000093D0044
:104600001AD900082AD9000810B501460022002353
:1046100000204A11012A02D1094C236806E0022A2F
:1046200002D1074C236A01E0054C636A01F01F02C6
:10463000012494401C4201D0012000E0002010BD64
:10464000001002400248406800F00C007047000073
:104650000010024001460020034A506820F0F0009C
:10466000084350607047000000100240114909687B
:1046700021F480310F4A11601146096821F480212C
:104680001160B0F5803F03D0B0F5802F0ED106E069
:104690000849096841F48031064A116007E005497C
:1046A000096841F4A021034A116000E000BF00BF87
:1046B00070470000001002407047000001460020D3
:1046C000034A506820F4E0600843506070470000DF
:1046D0000010024001460020034A506820F4605058
:1046E00040EAC1005060704700100240014908666E
:1046F000704700000000424202460020044B586808
:1047000020F47C1042EA01031843014B58607047C3
:104710000010024001460020034A506820F00300C8
:1047200008435060704700000010024000B500BF11
:104730003120FFF769FF0B4908700B480068401CE7
:10474000094908600748007818B908460068FF283A
:10475000EED13120FFF758FF08B1012000BD002045
:10476000FCE70000CC000020C80000207047704724
:1047700008B54FF40060ADF8000003208DF802008A
:1047800004208DF8030069460148FDF75FFE08BD6F
:104790000008014008B54FF40060ADF800000320A8
:1047A0008DF8020014208DF8030069460148FDF7DA
:1047B0004DFE08BD000801407047704770B50546C2
:1047C0000026FDF711FF4020FDF74EFFFDF77CFFAF
:1047D000FDF724FFFDF708FFC020FDF745FFFDF7BB
:1047E00073FF002406E02846FDF73EFFFDF76CFF4F
:1047F000601CC4B2062CF6DBFDF710FFFDF7F4FEDB
:104800008F20FDF731FFFDF75FFFFDF707FF70BD5C
:1048100010B5FBF701FD06480078401C04490870FC
:10482000FBF703FDFFF7BEF9FEF772FE10BD0000B7
:10483000DC000020042808D14FF0E021096941F094
:1048400004014FF0E022116107E04FF0E021096917
:1048500021F004014FF0E0221161704720B90021DE
:104860004FF0E022916112E0012808D14FF0E021E1
:10487000096941F001014FF0E022116107E04FF0BA
:10488000E021096921F001014FF0E0221161704738
:1048900040B14FF0E021096941F002014FF0E02200
:1048A000116107E04FF0E021096921F002014FF0AA
:1048B000E022116170474FF0E02148617047704776
:1048C000F0B50C46154600210022018B028C068CA7
:1048D00043F232373E4006844FF60C76314045EACB
:1048E00003163143BE1E324044F001063243002617
:1048F000068301830284F0BD30B503460020094CD5
:1049000020880024084D2C604FF60C74204041EAAA
:1049100002142043034C20802C1D236001242C60B2
:1049200030BD0000182C014000842542F0B50C4633
:104930001546002100220026018B028C4FF6FF77DE
:1049400007EA0416078C43F2233C07EA0C070784A6
:1049500040F6FF4739404FF6FF7707EA0337394300
:104960004FF6FF7707EA0527394343F203373A400A
:1049700046F010073A4301830284F0BD30B5034688
:1049800000200D4C208800240C4D2C6040F6FF4484
:1049900020404FF6FF7404EA01244FF6FF7505EA44
:1049A00002352C432043044C2080044C241D2360FA
:1049B0000124024D2C6030BD182C0140108425428A
:1049C000F0B50C461546002100220026818B028C92
:1049D0004FF6FF7707EA0426078C43F2332C07EAE9
:1049E0000C0707844FF60C77394045EA0317394323
:1049F00043F233073A4046F480773A438183028496
:104A0000F0BD000030B503460020094C208800248A
:104A1000084D2C604FF60C74204041EA02142043EC
:104A2000034C20802C1D236001242C6030BD00002D
:104A30001C2C014020842542F0B50C46154600216F
:104A400000220026818B028C4FF6FF7707EA04369E
:104A5000078C42F2333C07EA0C07078440F6FF4715
:104A600039404FF6FF7707EA05274FF6FF7C0CEA3F
:104A7000033C47EA0C07394340F233373A4046F4E7
:104A800080573A4381830284F0BD000030B503466D
:104A900000200D4C208800240C4D2C6040F6FF4473
:104AA00020404FF6FF7404EA01244FF6FF7505EA33
:104AB00002352C432043044C2080044C241D2360E9
:104AC0000124024D2C6030BD1C2C01403084254255
:104AD0000149C861704700000080254210B5802060
:104AE00000F08AF810BD000010B5FBF795FB3A48BE
:104AF0000078401C38490870FBF797FB042000F051
:104B0000A9F838B3042000F07FF800F097F8334993
:104B100008600846006832490968884207D92F486A
:104B200000682F490968401A2E49086009E02B489F
:104B300000684FF6FF71084429490968401A29495D
:104B40000860264800682649086026480168052054
:104B500004F06CF8082000F07DF8002839D0082017
:104B600000F052F800F070F81F490860084600682D
:104B70001E490968884207D91B4800681B49096813
:104B8000401A1849086009E0174800684FF6FF719D
:104B9000084416490968401A12490860124800681A
:104BA000124908600F4800681149124A126841F81A
:104BB000220010480068401C0E4908600846006842
:104BC000802801D30020086006480168042004F012
:104BD0002DF8FEF79DFC10BDDC00002064000020D5
:104BE0006C0000207400002068000020700000208D
:104BF0007C06002078000020024909888143014A90
:104C000011807047102C0140024909888143014AF4
:104C100011807047102C0140014908607047000066
:104C20000080254210B50121C802FFF7C3FB002117
:104C30004FF40060FFF7BEFB10BD00000148008884
:104C400070470000382C0140014800887047000080
:104C50003C2C014010B50146002000220023074CE7
:104C6000248804EA0102054C241F248804EA010375
:104C700012B10BB1012000E0002010BD102C01404A
:104C800010B50446208840B9227AA1886088FFF7D1
:104C900033FEE08800F032F81FE02088012808D1B8
:104CA000227AA1886088FFF769FEE08800F034F876
:104CB00013E02088022808D1227AA1886088FFF7B3
:104CC000A1FEE08800F03AF807E0227AA188608827
:104CD000FFF7DCFEE08800F03FF810BD012905D1A8
:104CE000054A12880243044B1A8004E0024A1288E3
:104CF0008243014B1A8070470C2C01400146002072
:104D0000044A10884FF6F37210400843014A10809D
:104D100070470000182C014001460020064A108808
:104D20004FF2FF3210404FF6FF7202EA01221043A9
:104D3000014A108070470000182C014001460020F5
:104D4000044A10884FF6F37210400843014A10805D
:104D5000704700001C2C014001460020064A1088C4
:104D60004FF2FF3210404FF6FF7202EA0122104369
:104D7000014A1080704700001C2C014010B5FBF761
:104D80004BFA06480078401C04490870FBF74DFABE
:104D90002020FFF731FFFEF7BBFB10BDDC00002039
:104DA00081880E4A11800188121F11800B492C390D
:104DB000098801F09F01094A2C3A1180C188428874
:104DC0001143064A2C3A12881143044A2C3A1180A6
:104DD000017A024A121D1180704700002C2C0140FC
:104DE00010B5FBF719FA08480078401C064908700E
:104DF000FBF71BFA0120FFF72DFF10B10120FFF791
:104E0000FBFEFEF785FB10BDDC00002010B5FBF7B4
:104E100003FA69480078401C67490870FBF705FAF7
:104E20000121880700F051F918B10121880700F02D
:104E300003F90221480700F048F950B3022148075E
:104E400000F0FAF84FF0804000F032F95B4908605A
:104E5000084600685A490968884207D957480068D7
:104E600057490968401A5749086009E053480068E3
:104E70004FF6FF71084452490968401A51490860C9
:104E80004E4800684E4908604E480168002003F013
:104E9000CDFE0421080700F018F950B304210807DB
:104EA00000F0CAF84FF0804000F005F9464908606C
:104EB0000846006845490968884207D942480068A1
:104EC00042490968401A3F49086009E03E480068C5
:104ED0004FF6FF7108443D490968401A3949086096
:104EE000394800683949086036480168012003F0F4
:104EF0009DFE0821C80600F0E8F850B30821C80656
:104F000000F09AF84FF0804000F0D8F8304908607F
:104F1000084600682F490968884207D92C4800686C
:104F20002C490968401A2749086009E028480068A8
:104F30004FF6FF71084427490968401A2149086063
:104F400023480068234908601E480168022003F0D6
:104F50006DFE1021880600F0B8F850B310218806C5
:104F600000F06AF84FF0804000F0ABF81A49086092
:104F70000846006819490968884207D91648006838
:104F800016490968401A0F49086009E0124800688C
:104F90004FF6FF71084411490968401A0949086031
:104FA0000D4800680D49086006480168032003F0B9
:104FB0003DFEFEF7ADFA10BDDC0000207C000020B5
:104FC0008C0000209C000020800000209000002029
:104FD0008400002094000020880000209800002019
:104FE0007047000010B5FBF717F909480078401C1E
:104FF00007490870FBF719F91021064800F065F819
:1050000018B11021034800F017F8FEF781FA10BD1F
:10501000DC0000200008004002460020108811B18A
:1050200040F0800002E040F27F331840108070476B
:10503000028A8A4302827047028A8A430282704748
:1050400021B1028842F00102028004E0028840F2AD
:10505000FE331A400280704710B50446B4F1804F09
:1050600006D0124820180CD0B0F5806F1BD111E08B
:1050700001210846FFF77EF900210120FFF77AF9A8
:1050800012E001210220FFF775F900210220FFF74D
:1050900071F909E001210420FFF76CF900210420D7
:1050A000FFF768F900E000BF00BF10BD00FCFFBFC4
:1050B0000146888E70470146088F70470146888FE9
:1050C00070470146B1F84000704730B502460020F5
:1050D00000230024158A05EA0103958905EA0104E5
:1050E00013B10CB1012000E0002030BD70B50546C1
:1050F0000C462088072833D1608850B9A37AE2880B
:10510000A1882846FFF7DCFB2189284600F00FF92B
:105110002AE0608801280AD1A37AE288A18828467B
:10512000FFF704FC2189284600F00AF91CE060889A
:1051300002280AD1A37AE288A1882846FFF740FC1A
:105140002189284600F009F90EE0A37AE288A188B7
:105150002846FFF771FC2189284600F007F903E093
:1051600021462846FFF796F870BD1AB183890B4394
:10517000838102E083898B4383817047024600204C
:10518000108B4FF6F77318400843108370470246A0
:105190000020908B4FF6F7731840084390837047B8
:1051A00002460020908B4FF2FF7318404FF6FF73BA
:1051B00003EA0123184390837047000030B50023B1
:1051C0000022028C4C8814B14C88012C33D1038B03
:1051D0004C88394D35F8144023404C88374D35F80C
:1051E000144022404C888CB9048C43F232352C4058
:1051F00004840C8823438C8884860C890CB1012498
:1052000000E000242243CC88224312E0048C43F2C5
:1052100023352C4004840C8843EA04238C880487BB
:105220000C890CB1102400E000242243CC8842EA0F
:10523000041203833DE04C88022C02D04C88032CDE
:1052400037D1838B4C881C4D35F8144023404C8853
:105250001A4D35F8144022404C88022C13D1048C8E
:1052600043F233252C4004840C8823438C888487A4
:105270000C8914B14FF4807400E000242243CC88E0
:1052800042EA042214E0048C42F233352C400484B8
:105290000C8843EA04238C88A0F840400C8914B1A0
:1052A0004FF4805400E000242243CC8842EA0432C8
:1052B0008383028430BD00002ED9000836D900084F
:1052C0002DE9FE4107460E4615461C46DDF82480B2
:1052D000012E06D1A9000120884080B2ADF8080057
:1052E00002E00020ADF80800FF2C01DDFE2402E002
:1052F000052C00DA0524ADF80250ADF80080ADF8B9
:1053000004400220ADF8060069463846FFF756FF14
:10531000BDE8FE810185012A04D1838A43F001039F
:10532000838203E0838A03F001038382704702468D
:105330000020108B4FF6F37318400843108370471A
:1053400002460020108B4FF2FF3318404FF6FF73D8
:1053500003EA012318431083704702460020908B14
:105360004FF6F373184008439083704702460020BD
:10537000908B4FF2FF3318404FF6FF7303EA01237F
:105380001843908370470A8882854A88028502887C
:1053900002F08F0202808A88CB881A4303881A435E
:1053A0000280704710B5FFF715F8FDF74DFFFDF7C8
:1053B000D1FEFCF7C5FF10BD10B50420FFF73AFA87
:1053C0000448FFF778FA0120FFF762FA0120FFF79F
:1053D00045FA10BD683C010000B587B00121880383
:1053E000FEF7D8FF4FF40070ADF8180003208DF8D9
:1053F0001A0018208DF81B0006A91C48FDF726F896
:105400004FF48060ADF8180004208DF81B0006A949
:105410001648FDF71BF84FF4E13000900020ADF87E
:105420000400ADF80600ADF80800ADF80A000C2045
:10543000ADF80C000020ADF80E00ADF810004FF4F0
:105440000070ADF812000020ADF81400694608485D
:1054500000F0BCF8012240F22551054800F095F813
:105460000121034800F056F807B000BD00080140D4
:105470000038014010B5FAF7CFFE12480078401C02
:1054800010490870FAF7D1FE40F225510E4800F09D
:1054900056F898B10C4800F0EFF80C49087040F24B
:1054A0002551094800F02BF8084800780849087091
:1054B000012008490870002007490870FEF728F805
:1054C00010BD0000DC00002000380140C4000020B6
:1054D0001500002014000020A000002010B5FAF7ED
:1054E0009BFE05480078401C03490870FAF79DFEB2
:1054F000FEF70EF810BD0000DC000020704710B56C
:10550000002200230A12012404FA02F304889C43B7
:10551000048010BD21B1828942F40052828104E0EE
:1055200082894DF6FF731A4082817047024600203F
:1055300013880B4201D0012000E00020704770B5B5
:1055400002460B460024002100250020C3F342152B
:1055500003F01F01012606FA01F1012D02D19689FF
:10556000314006E0022D02D1168A314001E0968AD0
:1055700031401C12012606FA04F41688344011B199
:105580000CB1012000E0002070BDF0B503460024FE
:10559000002600250020C1F3421401F01F06012758
:1055A00007FA06F51846012C01D10C3004E0022C54
:1055B00001D1103000E014301AB107682F430760A2
:1055C00002E00768AF430760F0BD00002DE9F0433B
:1055D00085B006460D460024A14600BF00BF348AB0
:1055E0004CF2FF000440E888E9890843298A08430F
:1055F000698A0843A98A0843044334820024B48991
:105600004EF6F3100440A88829890843A989084365
:105610000443B4810024B48A4FF6FF4004406889F3
:105620000443B48200BF6846FEF784FF11488642F7
:1056300002D1DDF80C9001E0DDF8089009EBC9001B
:1056400000EB091029688900B0FBF1F76420B7FB73
:10565000F0F004012009642101FB1078322000EBF6
:105660000810B0FBF1F000F00F000443348105B0E6
:10567000BDE8F0830038014001468888C0F3080087
:105680007047000070B504460D462878A08000BF22
:1056900080210348FFF74AFF0028F9D070BD0000C1
:1056A000003801407047704770477047490050EA22
:1056B000C12018BF04204A0D18BF40F0010040F27D
:1056C000FF72B2EB515F08BF40F00200012808BF33
:1056D000052070472DE9F74F144696B00021C4E924
:1056E00002111799089121F00045CA498D4206DC44
:1056F0001799C4E9000119B00020BDE8F08FC64930
:10570000DFF818A3A9423CDD0899C54E0029C54F12
:10571000C54A1799534619DD07F0F4FB554506D0E5
:10572000C24AC34B07F0EEFBC4E900010AE04FF0A8
:10573000D352BF4B07F0E6FB32463B4607F0E2FB95
:10574000C4E9000119B00120BDE8F08F06F00AFF9E
:10575000554506D0B54AB64B06F004FFC4E9000132
:105760000AE04FF0D352B24B06F0FCFE32463B4605
:1057700006F0F8FEC4E9000119B04FF0FF30BDE8B3
:10578000F08FAC498D42179978DC21F000488346B0
:10579000A94AAA4B414607F08FF90022A84B06F010
:1057A000E1FE07F0F3F8099007F01FF906460F46EF
:1057B0009D4A534607F080F95A46434607F0B0FA2F
:1057C00080468A46994A9A4B3046394607F074F922
:1057D0002A0D01250B924246534607F0A1FA032DEC
:1057E000C4E9000139D00B98C1F30A51401A05EB06
:1057F00045111139884230DD9248C346784400EBA8
:105800000510CDF81CA00C90D0E900233046394695
:1058100007F052F9CDE9020102460B4658460799B6
:1058200007F070FB80468A4602460B4658460799A9
:1058300007F068FBDDE9022307F064FB83460C9860
:1058400003913946D0E90223304607F035F95A462C
:10585000039B07F057FB6D1CBDE708980028A2BF0B
:10586000099819B0BDE8F08F616881F0004161606E
:10587000099819B04042BDE8F08FFFE7C1F313016A
:1058800041F480110E911799C1F30A51A1F2F5323A
:10589000511102F01F08C8F12002129200220C924E
:1058A0000D92694A7A4402EB810101F1140C0DA9B1
:1058B0005FF00607DCF80020DCF8045002FA08F379
:1058C000129AD1F800A025FA02F21A430E9BA2FB0D
:1058D0000356A2FB00329A4415449A4534BF4FF058
:1058E000010B4FF0000B51F8043C05EB0B0E734419
:1058F000954234BF012200221644BBF1000F02D0B2
:10590000AB4202D903E0AB4201D2012200E0002207
:105910003244C1F800A041E90223091FACF1040C94
:105920007F1EC7D10898DDE90A6500F10050800F9D
:1059300011900898099F800007F057F880468A4622
:10594000384607F069F86FF01D0207F0A0FF074620
:105950003046059107F060F86FF03D0207F097FFC1
:10596000CDE90310284607F057F86FF05D0207F005
:105970008EFF064602460B460191DDE9031006F054
:10598000F1FD3A46059B06F0EDFD4246534606F012
:10599000E9FD00200D4683464246534607F0B2FA21
:1059A0003A46059B07F0AEFADDE9033207F0AAFAA2
:1059B0003246019B07F0B4F9DFF89480234A43464E
:1059C00007F07AF806460F46224A234B58462946E6
:1059D00007F072F832463B4606F0C4FD0F46064615
:1059E0004FF0A84243465846294607F065F832462C
:1059F0003B4606F0B7FD179A12F0004F04D0119AFB
:105A000081F0004152421192C4E90001119819B08D
:105A1000BDE8F08FFB21E93F7CD90240FB21F93F33
:105A20007370032E8A19A33B000040543163621A3D
:105A300061B4D03DFB21394183C8C96D305FE43F7B
:105A40000000E03F68900000F08F0000182D4454E3
:105A5000FB21F93D3326A611460B113C2DE9FF4DE4
:105A600021F0004807460C46B8F1795F08DA06F0E5
:105A70008DFF002801BF0020324904B0BDE8F08D41
:105A80003A4623461046194607F016F805460246E0
:105A90002D480E460B460621784400F05DF82A4654
:105AA000334607F009F8DDE9022382468B46384683
:105AB000214607F001F804460F4652465B46284649
:105AC000314606F0F9FF22463B4607F01BFA07462F
:105AD0008A464FF0FF322846314607F0D8FE1B4A6F
