:020000040800F2
:10000000403900200101000805010008070100082F
:10001000090100080B0100080D01000800000000A4
:1000200000000000000000000000000011010008B6
:100030000F0100080000000081020008B52A000836
:100040000D320008232300085D2B0008EB27000871
:10005000651000085D260008E50D0008610E000827
:10006000A10E0008A30E0008A50E0008050C00084C
:10007000070C0008090C00080B0C00080D0C000808
:100080000F0C0008110C0008710800080732000866
:1000900009320008CF090008D1090008A90E00089C
:1000A000CD2B0008DD2C00088D2C0008D32B000878
:1000B000092D0008BD2D0008C12D000803130008FC
:1000C000011300080713000805130008F1280008B1
:1000D000F3280008A5310008C5310008E531000803
:1000E000050E0008E927000805320008000000009E
:1000F0000000000000000000000000000000000000
:1001000004480047FEE7FEE7FEE7FEE7FEE7FEE7FE
:10011000FEE700001901000800F002F800F05CF8AA
:100120000AA090E8000C82448344AAF10107DA4552
:1001300001D100F051F8AFF2090EBAE80F0013F048
:10014000010F18BFFB1A43F001031847EC3B0100F5
:100150000C3C01000A444FF0000C10F8013B13F076
:10016000070408BF10F8014B1D1108BF10F8015B10
:10017000641E05D010F8016B641E01F8016BF9D103
:1001800013F0080F1EBF10F8014BAD1C0C1B09D15A
:100190006D1E58BF01F801CBFAD505E014F8016BCC
:1001A00001F8016B6D1EF9D59142D6D3704700005E
:1001B0000023002400250026103A28BF78C1FBD870
:1001C000520728BF30C148BF0B6070471FB512F0FF
:1001D000D6FC1FBD10B510BD00F0EEF91146FFF7BB
:1001E000F5FF08F065FA00F00CFA03B4FFF7F2FF30
:1001F00003BC00F013FA000002480349034A044B11
:100200007047000040350020403900204037002072
:100210004037002072B606B42E490A7802F1010276
:100220000A7006BC704706B42A490A78A2F1010296
:100230000A704FF00001002A81F3108806BC704755
:10024000254C264D25604FF0000484F30988244C8A
:100250004FF001052570234C4FF08055256062B6A4
:10026000FEE730B41F4C4FF08055256030BC70471E
:1002700030B41C4C4FF08055256030BC704700BF37
:10028000EFF3108372B6EFF3098030B1A0F12000D4
:1002900080E8F00F144C2468206000B513488047B4
:1002A0005DF804EB124C134D2E7826700E4C124E56
:1002B00036682660306890E8F00F00F1200080F387
:1002C00009884EF0040E83F31088704700BF72B6A1
:1002D000704700005000002020ED00E00000FFFF0C
:1002E0005800002004ED00E0680000206D1E0008AA
:1002F00056000020570000207000002010B54C1060
:1003000084EA530404D54042C1F1000138BF491EBC
:100310001B4204D55242C3F1000338BF5B1E00F0FC
:1003200097F814F0804F04D04042C1F1000138BF6B
:10033000491E14F0004F04D05242C3F1000338BFED
:100340005B1E10BD40EA010310B59B070AD1042AC9
:1003500008D310C808C9121F9C42F8D020BA19BA95
:10036000401A10BD1AB1D30703D0521C07E0002079
:1003700010BD10F8013B11F8014B1B1B07D110F801
:10038000013B11F8014B1B1B01D1921EF1D1184604
:1003900010BD10B5203AC0F00B80B1E81850203ADB
:1003A000A0E81850B1E81850A0E81850BFF4F5AF15
:1003B0005FEA027C24BFB1E81850A0E8185044BF9F
:1003C00018C918C0BDE810405FEA827C24BF51F80C
:1003D000043B40F8043B08BF7047D20728BF31F800
:1003E000023B48BF11F8012B28BF20F8023B48BF51
:1003F00000F8012B704702F0FF0343EA032242EAB0
:10040000024200F002B84FF000020429C0F012804E
:1004100010F0030C00F0A080CCF1040CBCF1020F32
:1004200018BF00F8012BA8BF20F8022BA1EB0C018C
:1004300000F092B85FEAC17C24BF00F8012B00F8FD
:10044000012B48BF00F8012B704770477047704779
:1004500053EA020C00F069802DE9F04B4FF00006E2
:10046000002B1FBFB3FA83F503FA05F424FA05F64F
:100470005E4012BF1643B2FA82F502FA05F4C5F1E6
:1004800020051EBF22FA05FC44EA0C04203556EA7A
:10049000044C4FEA144418BF641C4FF000084FF09E
:1004A0000009904271EB030C39D3002919BFB1FA4E
:1004B00081F701FA07F6B0FA80F700FA07F6C7F1FC
:1004C00020071EBF20FA07FC46EA0C062037B6FBC1
:1004D000F4FCA7EB0507103F07F01F0BCBF120063C
:1004E0000CFA0BFB2CFA06F644BFB3460026202F6D
:1004F000A4BF5E464FF0000B5BEA060C08BF4FF04E
:10050000010B19EB0B09ABFB027C48EB0608C01B87
:1005100006FB02CC0BFB03CC71EB0C01C1E70B46D5
:10052000024641464846BDE8F08B13B54FF0000047
:100530004FF00001AFF30080BDE81C40704710B5DC
:1005400000F030F8006810BD10B5044600F02AF83D
:10055000046010BD4FF0000200B513469446964665
:10056000203922BFA0E80C50A0E80C50B1F12001C6
:10057000BFF4F7AF090728BFA0E80C5048BF0CC074
:100580005DF804EB890028BF40F8042B08BF7047D2
:1005900048BF20F8022B11F0804F18BF00F8012B44
:1005A0007047000001487047704700BFE0340020EA
:1005B00000487047E03400207546FFF7F9FFAE466B
:1005C00005006946534620F00700854618B020B55F
:1005D000FFF712FEBDE820404FF000064FF0000785
:1005E0004FF000084FF0000B21F00701AC46ACE8DB
:1005F000C009ACE8C009ACE8C009ACE8C0098D4648
:1006000070470446AFF300802046FFF7EEFD000080
:1006100001487047704700BFE434002001491820AA
:10062000ABBEFEE726000200704710B5A02000F028
:10063000B5F80121022000F0C9F8022000F064F8AA
:1006400010F0010FF9D1222000F05EF813212420D0
:1006500000F0BCF83B21262000F0B8F800210F2064
:1006600000F0B4F80221084600F0B0F8022000F0D3
:100670004BF810F0020FF9D1252000F045F800F0FA
:100680000704A0210F2000F0A1F80221084600F085
:100690009DF8022000F038F810F0020FF9D1252063
:1006A00000F032F800F007012046BDE8104002F0EB
:1006B00087B9000070B5114D012435F81400C1B29E
:1006C000204600F083F8641CE4B2042CF5D907241A
:1006D00035F81400C1B2204600F078F8641CE4B28A
:1006E000222CF5D9242435F81400C1B2204600F09C
:1006F0006DF8641CE4B2312CF5D970BD4A2F0108A5
:10070000802000F04BB8000070B50E4D06464FF447
:10071000804400222146284600F0E9FD06F07F01D2
:1007200041F04001082011F00FFA012000F035FBE4
:100730000BF0E0FF064601222146284600F0D7FDD7
:10074000304670BD000801400021084600F03EB868
:1007500070B5114D4FF4804400222146284600F028
:10076000C6FD0621082011F0EFF95621082011F0EE
:10077000EBF95921082011F0E7F9A521082011F023
:10078000E3F9A921082011F0DFF921462846BDE848
:100790007040012200F0ABBD0008014070B50A4D69
:1007A00006464FF4804400222146284600F09FFD73
:1007B0003146042011F0C8F921462846BDE87040B2
:1007C000012200F094BD0000000801402DE9F04135
:1007D0000C4D07460E464FF4804400222146284621
:1007E00000F085FD07F07F01082011F0ADF93146DA
:1007F000082011F0A9F921462846BDE8F041012260
:1008000000F075BD0008014002688A43026070472D
:10081000026822EA1122026070470029816802D032
:1008200041F0010101E021F00101816070470029E0
:10083000816802D041F4807102E04FF6FF621140FE
:1008400081607047014600208968490700D5012072
:1008500070470246002012680A4200D0012070470B
:10086000014600208968090700D501207047000073
:1008700070B5124D01212846FFF7EBFF01281BD16F
:1008800001F040FB0E4CE06102F054F9A061012040
:1008900060610020A08001212846FFF7B5FF4FF4DA
:1008A000A07400222146284600F00CF82146284674
:1008B000BDE87040FFF7ACBF70BD000000240140F0
:1008C00004000020002A4268C9B201D00A4300E0B7
:1008D0008A4342607047000010B542680E4B0C79A5
:1008E0001A400B6842EA04221343436082680B4BB0
:1008F0001A40D1E9024323434C7942EA44021343AC
:100900008360C26A097C22F47002491EC9B242EABD
:100910000151C16210BD0000FFFEF0FFFDF7F1FFC5
:1009200070B5072609290AD9C568A1F10A0404EBA4
:100930004404A640B543A3401D43C56007E00569D4
:1009400001EB4104A640B543A3401D4305611F23AD
:10095000072A09D2446B521E02EB820293409C4349
:1009600091400C43446370BD0D2A09D2046BD21F21
:1009700002EB820293409C4391400C43046370BDA0
:10098000C46A0D3A02EB820293409C4391400C43AF
:10099000C46270BD816841F0080181607047002920
:1009A000816802D041F4A00101E021F4A00181603E
:1009B0007047816841F0040181607047010900F0CF
:1009C0000F0001EB810100EB4100C0B2704770479E
:1009D000704700002DE9F84FFF20ADF8000000251A
:1009E000574F8DF8035003248DF80240694638466E
:1009F00000F00AFC2F20ADF80000DFF848918DF8D8
:100A000003508DF802406946484600F0FDFB012086
:100A1000ADF80000DFF830A18DF803508DF80240EA
:100A20006946504600F0F0FBF814ADF800001426BB
:100A30008DF803608DF802406946384600F0E4FB0B
:100A40004FF48040ADF80000404F8DF803608DF802
:100A500002406946384600F0D7FB0425ADF8005047
:100A600010208DF803008DF802406946504600F0D2
:100A7000CBFBADF800508DF803608DF8024069465D
:100A8000384600F0C1FB4FF48140ADF80000DFF8BC
:100A9000C0808DF803508DF802406946404600F052
:100AA000B3FBA802ADF800008DF803508DF80240AA
:100AB0006946504600F0A8FB2603ADF800608DF8AB
:100AC00003508DF802406946384600F09DFB4020F7
:100AD000ADF8000048278DF803708DF80240694694
:100AE000484600F091FB0220ADF800008DF803703D
:100AF0008DF802406946404600F086FB6003ADF881
:100B000000008DF803508DF802406946484600F019
:100B10007BFBADF800608DF803508DF8024069460C
:100B2000404600F071FB2020ADF800008DF8035026
:100B30008DF802406946504600F066FBBDE8F88F2C
:100B40000008014000100140000C01400014014069
:100B500000180140F8B51025ADF8005003248DF8B9
:100B600002408DF803506946184800F04DFBE8023A
:100B7000ADF80000164E8DF802408DF8035069461E
:100B8000304600F041FB4020ADF800008DF80350E6
:100B90008DF8024069460F4800F036FB0120ADF8A1
:100BA00000008DF8024014258DF803506946304648
:100BB00000F02AFB0220ADF800008DF802408DF80D
:100BC00003506946304600F01FFBF8BD000C0140A1
:100BD000001401400018014010B50446522001F0F5
:100BE0006BFE302001F068FE022001F065FE062059
:100BF00001F062FE082001F05FFE2046BDE81040D3
:100C000003F008BF704770477047704770477047E0
:100C100070470029016802D041F0010101E021F094
:100C2000010101607047000000B502460021FFF796
:100C3000F0FF0020106050609060D060184B1848A2
:100C4000D11A44389A421ED00ADC1649511812D0E3
:100C5000142914D028290DD1416841F4706108E0AD
:100C6000142914D0282916D03C2903D1416841F019
:100C70007061416000BD416841F00F01F9E74168D2
:100C800041F0F001F5E7416841F47041F1E7416856
:100C900041F47021EDE7416841F47001E9E700009B
:100CA00044000240F8FFFDBF30B5036847F6F0721C
:100CB00093430C6A8A682243D1E904452C432243BA
:100CC0008C692243CC6922434C6A22438C6A2243BA
:100CD0001A430260CA6842600A6882604968C1605B
:100CE00030BD000038B50446062000F0C7FB00F018
:100CF0000700FFF763FE401CE070042000F0BEFB1D
:100D000000F03F00FFF75AFEA070032000F0B6FB92
:100D100000F07F00FFF752FE6070022000F0AEFB93
:100D200000F07F00FFF74AFE207000906378A27801
:100D3000E17808A00BF0A8F9A078182802D2607812
:100D40003C2806D30C488179A170C1796170407943
:100D5000E07038BD7765656B3A256409686F757218
:100D60003A256409096D696E3A2564097365636FF4
:100D70006E643A25640D0A00B02D00200A22B0FBF3
:100D8000F2F102FB110000EB0110C0B2704700202D
:100D9000401C80B20A28FBD3704700224FF49673A0
:100DA00006E00021491C89B29942FBD3521C92B241
:100DB0008242F6D37047000010B5084C20680F2817
:100DC00001D0002010BDFFF725FA05490E20096863
:100DD00088722060FFF727FA012010BDB4000020C0
:100DE000B000002010B5FFF715FA05480178491C3E
:100DF0000170FFF718FABDE8104000F00DBE0000CA
:100E00005400002010B5FFF705FA14490878401C7B
:100E10000870FFF708FA4FF48054204600F0A2F85B
:100E200040B1204600F098F8012005F0D7FF204699
:100E300000F092F84FF48044204600F093F840B15F
:100E4000204600F089F8022005F0C8FF204600F097
:100E500083F8BDE8104000F0DFBD00005400002022
:100E600010B5FFF7D7F90C490878401C0870FFF758
:100E7000DAF9022000F076F850B1022000F06CF8A8
:100E8000FFF7C8F905480168491C0160FFF7CBF975
:100E9000BDE8104000F0C0BD54000020DC0200207E
:100EA000704770477047000070B5FFF7B3F92449E9
:100EB0000878401C0870FFF7B6F94FF48075284693
:100EC00000F050F8C0B1284600F046F8FFF7A2F94C
:100ED0001C4C2178491C2170FFF7A5F920780728C0
:100EE00007D1002103200FF07FFE002103200FF027
:100EF0002EFE284600F030F8202000F033F810B124
:100F0000202000F029F8402000F02CF850B14020BB
:100F100000F022F8FFF77EF90B480168491C0160D8
:100F2000FFF781F9802000F01DF828B1802000F043
:100F300013F8002005F052FFBDE8704000F06CBDD2
:100F4000540000204F030020E00200200149086007
:100F50007047000014040140014908607047000018
:100F600014040140064B014600201A685B6902EA3E
:100F700001020B4202D0002A00D00120704700007D
:100F80000004014030B5194C017985790B190268CC
:100F9000D3F8001435B31143C3F80014D4F808147F
:100FA00002689143C4F80814D4F80C140268914301
:100FB000C4F80C144179102907D021440068D1F8F5
:100FC00000240243C1F8002430BD04F58164216887
:100FD000026841EA020121606168006841EA00019B
:100FE000616030BD9143C3F8001430BD0000014082
:100FF0000149C860704700000020024070B50546F6
:1010000040F6FF76304600F07FF8042813D10A4CF2
:10101000206940F0020020616561206940F04000D5
:101020002061304600F070F8012804D0216941F6B3
:10103000FD721140216170BD00200240084904206A
:10104000CA68D20701D001207047CA68520701D58B
:1010500002207047C968C906FBD50320704700000D
:1010600000200240704700000248016941F0800101
:10107000016170470020024004490A6822F0100212
:101080000A600A6802430A607047000000200240BC
:101090002DE9F04106460D460F2000F035F80428F2
:1010A00016D10C4C206940F00100206135800F20E2
:1010B00000F02AF841F6FE77042804D1280C70804D
:1010C0000F2000F021F8012802D021693940216168
:1010D000BDE8F0810020024004490A6802F03802AD
:1010E0000A600A6802430A6070470000002002405C
:1010F0000348024941600349416070472301674545
:1011000000200240AB89EFCD2DE9F0410446FFF706
:1011100095FF114D114E124FDFF8488012E000F09C
:101120007FFA2868401C28603068401C30603868AE
:10113000401C3860D8F80010491CC8F80010FFF7B0
:101140007DFF641E012804D0002C00D10520BDE8DD
:10115000F081002CE3D1F9E744030020A000002037
:1011600094000020AC0000201B4A10B5811A131512
:10117000904222D00BDC1949401817D098422AD14E
:101180000121082001F044F9002108200AE09942D9
:101190001AD0B1F5006F1ED10121402001F038F9BD
:1011A00000214020BDE8104001F032B901210420A7
:1011B00001F02EF900210420F4E70121102001F0B4
:1011C00027F900211020EDE70121202001F020F96E
:1011D00000212020E6E710BD0010014000F8FEBF0E
:1011E00010B58A0721F003040649120F21440F238A
:1011F0008C6893409C438C608B68904003438B6069
:1012000010BD000000000140F0B5CC78002204F0D1
:101210000F03E40601D58C7823430C884FF00F0CA4
:1012200014F0FF0F4FF0010E19D005680E880EFA6A
:1012300002F42640A6420ED196000CFA06F7BD43F2
:1012400003FA06F63543CE78282E00D14461CE78D5
:10125000482E00D10461521C082AE7D305600A8891
:10126000FF2A1DD94568002202F108060EFA06F48D
:101270000E882640A6420FD196000CFA06F725EA02
:10128000070703FA06F5CE783D43282E00D14461C6
:10129000CE78482E00D10461521C082AE4D3456060
:1012A000F0BD000070B50D4E7268C0F3034583B207
:1012B000840202D522F0E06207E0C40204D50324D0
:1012C00004FA05F4A24300E09A4329B1800202D552
:1012D00042EA034200E01A43726070BD0000014020
:1012E0000246002092680A4200D0012070471AB1DD
:1012F00002690A430261704742690A4342617047CA
:1013000070477047704770472DE9F0410546082443
:1013100000F0A2F9A04610270E4E11E000F06CF884
:101320002806404602D5C6F8100801E0C6F81408A1
:101330006806050E00F060F8C6F8107800F05CF85A
:101340002000A4F10104E4B2C6F81478E6D1BDE8A7
:10135000F08100000010014070B500F07DF9084CEC
:10136000082525604FF01006266000F045F86560FE
:1013700000F042F8656000F03FF86660012070BD43
:101380001018014070B500F067F9084C102666602F
:1013900000F032F80825656000F02EF8266000F0B5
:1013A0002BF82560BDE8704000F026B81018014009
:1013B00070B5002400F03CF90E4D0820C5F8100867
:1013C00000F01AF81026C5F8106800F015F809E0CA
:1013D000641CE0B2411CCCB2FA2803D9FFF7D2FF5B
:1013E000002070BDD5F808080007F1D4C5F81468CE
:1013F000012070BD001001400A20401EFDD1704741
:1014000070B5084C0025256001F044FA25610220E2
:1014100003F070FA01202060022003F06BFA2560CF
:1014200070BD0000A001214270B5084C0025256068
:1014300001F030FA01222261022003F05BFA2260FF
:10144000022003F057FA256070BD0000A001214280
:1014500008B54FF48850ADF8000003208DF8020065
:1014600014208DF8030069460348FFF7CDFE0021E4
:10147000084600F0BDF808BD0008014010B504465C
:1014800000F068F8A22000F041F800F08FF8204644
:1014900000F03CF800F08AF800F05CF8A32000F0BF
:1014A00035F800F083F8002000F006F8044600F05C
:1014B00065F8204610BD00002DE9F04105460024E6
:1014C00001F0D6F90022104B16460127C3F8A0619F
:1014D000022003F00FFAC3F8A0716006040ED3F8DF
:1014E000300108B1641CE4B2012003F003FA521C7D
:1014F000D2B2082AEAD325B1FFF782FF2046BDE821
:10150000F081FFF791FFF9E70000214270B5044632
:1015100001F0C0F90E4B0025C3F8A0512A46012660
:10152000E009C3F8B0016006040E022003F0E2F9FE
:10153000C3F8A061022003F0DDF9C3F8A051022036
:1015400003F0D8F9521CD2B2082AE9D370BD0000CA
:101550000000214210B501F09DF9074A01201061F9
:1015600010604FF0040003F0C5F90023136104205C
:1015700003F0C0F9136010BDA001214210B501F0C5
:1015800089F9094A0020106010614FF0040003F04F
:10159000B1F901231360042003F0ACF91361BDE835
:1015A0001040042003F0A6B9A001214210B5002488
:1015B00001F05EF90D4A0123C2F8B031184603F07C
:1015C00099F9C2F8A031012003F094F907E0641CF6
:1015D000E4B2FA2C03D9FFF7D1FF012010BDD2F8F5
:1015E00030010028F3D1C2F8A00110BD0000214253
:1015F00070B505460C46FFF7ADFFA220FFF786FF4A
:10160000FFF7D4FF2846FFF781FFFFF7CFFF204603
:10161000FFF77CFFFFF7CAFFBDE87040FFF7AEBFE2
:1016200002494AF6AA2008607047000000300040D6
:1016300008B50820ADF8000004208DF80300032051
:101640008DF8020069460348FFF7DEFDFFF7D4FE80
:1016500008BD00000018014008B50820ADF80000E2
:1016600014208DF8030003208DF80200694603481A
:10167000FFF7CAFDFFF7C0FE08BD000000180140DB
:10168000F8B5C020ADF8000018240C4E8DF80340CA
:1016900003258DF8025069463046FFF7B5FD60011D
:1016A000ADF800008DF803408DF8025069463046D1
:1016B000FFF7AAFD0BF0C8FFF8BD0000000C0140C9
:1016C0003EB5244D7F24284601F0B4FBA815002127
:1016D000ADF80400ADF80810ADF80610ADF80A102A
:1016E00001A9284601F01AFD01221421284601F023
:1016F000ECFC50230093002223461146284601F0BB
:10170000C5FC50230093234601220021284601F006
:10171000BDFC50230093234602220021284601F0FD
:10172000B5FC50230093234603220021284601F0F4
:10173000ADFC0021284601F02CFC0021284601F0D8
:101740002FFC0121284601F061FB0121284601F010
:1017500065FB3EBD0008004038B500214FF0006039
:1017600000F0A0F84FF4A06000F092F817208DF878
:10177000000001248DF801408DF802408DF80340EF
:10178000684600F04BF828208DF800008DF80140E5
:1017900002258DF802508DF80340684600F03EF8AF
:1017A00007208DF8000003208DF801008DF802401D
:1017B0008DF80340684600F031F81C208DF80000D9
:1017C0008DF801508DF802408DF80340684600F016
:1017D00025F803220121054800F06EF800200BF0E7
:1017E000EFFF01200BF0ECFF38BD00009AC30200B0
:1017F00000204FF0E021431EC1F880315A0DC1F89E
:101800008421C1F88032C1F88422024601EB8003B2
:10181000C3F80024401C0B28F8D37047F0B50F2400
:10182000C27801784FF0E023012742B3D3F80C2DA2
:1018300002F4E062C2F5E062120AC2F10405D4408B
:101840004278AA408578254015438A072C01D20E9C
:10185000944021F00301CE18D6F80054FF219140A6
:101860008D430C402543C6F80054007800F01F015A
:101870008F40400903EB8000C0F80071F0BD01F01B
:101880001F008740480903EB8000C0F88071F0BD5D
:101890000249084302490860704700000000FA0549
:1018A0000CED00E0024A114001430248016070471C
:1018B00080FFFF1F08ED00E070B54FF0E025FF242A
:1018C000D5F80C3D03F4E063C3F5E0631B0ADC408C
:1018D000C3F10406B14022400A43110100F0C002E6
:1018E0009209C0F30120C0008140FF23834005EB33
:1018F000820000F61850026822EA030202600268C1
:1019000042EA0102026070BD7047000030B587B046
:1019100000F080F8364C0023A3622370637063717B
:101920002371A36023613349E3801846401CC0B291
:1019300021F8023B0528F9D3A370E370E36140F27C
:10194000E4612D48636100F0CCFB2A484FF48271BA
:10195000D43000F0C6FB2848002100F154023F2596
:10196000426180F8445080F84530491C543054326C
:10197000C9B21429F4D3436180F8445080F845304B
:101980001D482362A0614FF43471A0F5956000F00A
:10199000A8FB1A48002100F1180203704260491C9C
:1019A0001830183289B21D29F7D3037043601348E9
:1019B000E06000F0A9FB0F4801AC032300223221B4
:1019C0000C300FC44FF6FF73009300F1C4024023A4
:1019D00000210B4800F014F905AA0AA1402000F0EC
:1019E00063F900F018F807B0BDE83040FFF78CBF8E
:1019F000540000209007002068090020C004002047
:101A0000F122000875432F4F532D49492049646C3A
:101A1000650000007047704710B5134C207901280D
:101A200020D1FEF7F7FB207820B1401E10F0FF0018
:101A3000207013D1607888B900F0AAFBE078A17813
:101A400088420BD0094951F82000E061016B491C24
:101A50000163A068401CA060FEF70AFCBDE81040CE
:101A6000FEF7E1BB10BD0000540000206408002018
:101A700070B50C4D0646287808B1002070BDFEF701
:101A8000C9FBEC680CB16068E860FEF7CCFB3CB1C8
:101A900001202070002020812046666000F016FBA7
:101AA000204670BD540000202DE9F047054600781F
:101AB00089461446012801D0012003E0234F3878DD
:101AC00010B1022010703EE0787808B11120F9E7DB
:101AD000FEF7A0FB6E684FF0000846B1C5F8048021
:101AE000FEF7A1FB84F800803046BDE8F0877869F6
:101AF00010F8261F41F00201017080F8018020F8E3
:101B0000029C284600F0BEFAFEF78DFB00F01EFB9B
:101B1000FEF780FB796991F8270001280CD00D6A47
:101B2000C1F8208081F82680C1F81C80FEF77BFB7D
:101B300084F800802846D8E7284600F033FAFEF7FC
:101B400072FB0A2020700020CFE700005400002024
:101B500070B5044600780D46012801D0012070BD03
:101B6000FEF758FB608948B102222946204600F062
:101B700035FAFEF758FB00F0E9FA08E0606818B1A2
:101B8000FEF751FB142070BD6560FEF74CFB002092
:101B900070BD000070B50C4D0646287808B10020D5
:101BA00070BDFEF737FBEC680CB16068E860FEF7CB
:101BB0003AFB3CB103202070268100206060204663
:101BC00000F084FA204670BD5400002010B5094C86
:101BD000207900280CD100F0DBFAE0780649A070EB
:101BE00051F82000E0616061BDE81040FEF728BBBD
:101BF00010BD000054000020640800207047000061
:101C00002DE9FF4F83B081468A4693461C46DDF896
:101C10005080119DFEF7FEFA1D4F387828B1FEF76F
:101C200002FB102007B0BDE8F08F1A4E56F82400D2
:101C300018B1FEF7F8FA2820F4E7012046F824004E
:101C4000FEF7F1FA42462846129900F05FFB434640
:101C50005A465146484600F093F8DDE912128DE8E5
:101C6000060101462A462046109B00F0D3FA0500E3
:101C700008D0FEF7CFFA002046F82400FEF7D3FA8A
:101C80002846CFE738790128FAD100F05FFAF7E764
:101C90005400002064080020704700000149012022
:101CA000086070470000002070B505460E461446D7
:101CB000FEF7B0FAFF2D03D11048406990F8285084
:101CC0000F4850F825300B2553B1012B08D0304672
:101CD00000F096FA0F2807D9FEF7A5FA0E200BE0C0
:101CE000FEF7A1FA257070BD314603F1440000F003
:101CF00079FAFEF798FA0020207070BD5400002099
:101D00006408002010B50446FEF784FA1A4951F819
:101D1000240058B101280DD090F826100A0727D5C5
:101D200031F0080180F8261008D009E0FEF77BFAB0
:101D3000642010BDFEF777FA0B2010BD818C19B11D
:101D4000FEF771FA002010BD0C49C28DCB881A43F2
:101D5000CA80094A90F82A10D43A808D32F811309E
:101D6000034322F81130FEF75EFA00F0EFF9E9E7DD
:101D7000FEF759FA652010BD6408002054000020C9
:101D80004FF080731360131FA2F1240218606FF0EC
:101D90000100D0614FF0123090614FF0033050617C
:101DA0004FF0023010614FF00130C2E902104FF0E5
:101DB000113050604FF0103042F804094FF00930F4
:101DC0001060A2F110004FF00831C1604FF00731F0
:101DD00081604FF0063141604FF0053140F8041941
:101DE0004FF004310160704770B50446FEF712FAF7
:101DF0001C4BFF2C586905D090F82800A04204D154
:101E0000012503E090F82840FAE70025164850F82D
:101E1000240068B101280FD0134C90F82A10D43C4C
:101E2000868D34F81120B24324F8112008D00BE03D
:101E3000FEF7F9F95A2070BDFEF7F5F90B2070BDD9
:101E4000C28DD9889143D98010F8261F41F008012E
:101E50000170FEF7E8F9012D01D100F077F90020BB
:101E600070BD00005400002064080020704700008E
:101E700070B5040018D0FEF7CDF90C4B0C4D596924
:101E800091F82A208E8D35F81200B04325F8120003
:101E900003D1CA8DD8889043D8808C84FEF7C3F9CB
:101EA000BDE8704000F052B970BD00005400002041
:101EB0009007002070B54FF47A746343B3FBF4F3DA
:101EC0004FF461646043C1EB011100EB81001044E9
:101ED00000EB4001C1EBC01003EBC000040C80B26A
:101EE000FFF7C6FF4FF4004507E02846FFF7C0FFA5
:101EF0002846FFF7BDFF641EA4B2002CF5D10020D8
:101F000070BD000010B5FEF785F90348846AFEF73E
:101F10008AF9204610BD00005400002070B5FEF77D
:101F200079F91E4DA86A401CA862FEF77CF9287951
:101F3000012831D12C6A2BE0FEF76CF9A08C20B37C
:101F4000A0F101000004000CA0841ED194F826002A
:101F500010F0370F05D020F0370084F8260001205C
:101F600000E0002084F8270094F8260000070CD435
:101F7000E08DE9880A4A0843E88094F82A00A38D96
:101F800032F81010194322F810106469FEF74BF96B
:101F900094F828004028CFD170BD000054000020E4
:101FA0009007002010B50C4C626992F82A10928DAF
:101FB00000EB410399899143998104D16269418978
:101FC000D28D914341816069002100F11C00C172F2
:101FD0008172016010BD000054000020F0B54389FB
:101FE000254D13F0FF0F02D0DBB2EB5C04E005EBF4
:101FF00013231B780833DBB24FF0010C0CFA03F407
:1020000000EB4307A6B2BC8914F0FF0F04D004F024
:10201000FF0E15F80E5004E005EB14252D78083559
:10202000EDB20CFA05FC1FFA8CFC05EB031534EA43
:102030000C04EDB2BC8102D14489B44344810F4801
:10204000002450F8250000F11C000481C0E9004183
:10205000C472817A914381720BD10948C18831439E
:10206000C1800648D43830F8131041EA0C0120F83A
:1020700013102846F0BD00004A2E01086408002015
:102080005400002070B50F4C0F4D6169C86191F884
:102090002A208E8D35F81230B34325F8123003D143
:1020A000CB8DE2889A43E28091F82A20898D00EB5B
:1020B000420293890B43938162694189D28D114316
:1020C000418170BD54000020900700200022428111
:1020D0000C301146491CC9B220F8022B0529F9D34E
:1020E0007047002203E0491E00F8012B89B2002945
:1020F000F9D1704705E011F8013B521E00F8013B91
:1021000092B2002AF7D1704730B54FF434710D48C0
:10211000FFF7E7FF0B48002103460A463F2401EB87
:10212000C10503EB85052435456004754275491CDE
:10213000243089B21329F2D34260047542750248F3
:10214000436230BD4C1000205400002010B5FEF753
:1021500061F80D4C207898B9607888B900F018F8CB
:10216000E078A17888420BD0084951F82000E0615E
:10217000016B491C0163A068401CA060FEF771F868
:10218000BDE81040FEF74FB854000020640800205E
:10219000114B10B5D888114A10F0FF0F02D0C0B211
:1021A000105C04E002EB102000780830C0B20C494B
:1021B00031F8101011F0FF0F04D0C9B2515C01EBDF
:1021C000001006E002EB11210822097802EB001052
:1021D0000844D87010BD0000540000204A2E0108A9
:1021E00090070020002204E0491C521C00F8013B2B
:1021F000D2B20B78002BF7D1002101701046704746
:102200000146002002E0491C401CC0B20A78002AA6
:10221000F9D170472DE9FF5F0646DDE90EBA0D469C
:1022200090469946FDF7F6FF2F4FBC69F4B304F1D1
:102230000C04A068B861FDF7F6FF44F80C5C267743
:102240000025A576E5762583201F44F808ACA0E894
:1022500000091098A080A4F806903009A077012109
:1022600001FA00F0608406F00F006077814021845D
:10227000256165616562E562A56225633F2065634E
:1022800084F8380084F83950A4F10C042046FFF794
:10229000B5FC2046FFF700FDFDF7BCFF134840F8F2
:1022A0002640386AC4E9050510B100E018E08461F1
:1022B0003C62E08DF9880D4A0843F88094F82A00C2
:1022C000D43AA38D32F81010194322F810107879FF
:1022D000401C7871FDF7A7FF002004B0BDE8F09F17
:1022E000FDF7A1FF4620F8E7540000206408002015
:1022F000054CFDF78FFF2069401C2061FDF793FF1F
:10230000FFF7CCFCF5E7000054000020D30707D00E
:10231000920705D50022002902D004C0491EFAE721
:10232000704770472DE9F0410C4600258988074623
:10233000012601B90225E288012A00D1022660881F
:10234000A37A0028384611D000F021FC21893846B4
:1023500000F0CDFEA37A32462946384600F0FFFB56
:1023600021893846BDE8F04100F0BABE00F0F7FB25
:102370002189384600F0B4FEA37A32462946384611
:1023800000F005FC21893846BDE8F04100F0AFBE01
:10239000014908627047000000000E42034A51687C
:1023A00021F4404101435160704700000010024099
:1023B000044A0029516901D0014300E08143516181
:1023C0007047000000100240044A0029D16901D082
:1023D000014300E08143D1617047000000100240DA
:1023E000044A0029116901D0014300E081431161D1
:1023F0007047000000100240044A0029916901D092
:10240000014300E0814391617047000000100240E9
:10241000044A0029D16801D0014300E08143D16022
:10242000704700000010024010B500F079F84FF43A
:102430008034204600F0F8F800F088F9334901288C
:10244000087025D11020FEF717FE0220FEF744FE8B
:10245000002000F0DFF8002000F00CF9A01100F0DF
:10246000FFF86010FFF79AFF4FF4E011204600F0EC
:1024700011F9012000F008F9392000F0ABF800282C
:10248000FAD0022000F058F900F0BCF80828FBD17F
:1024900001217C20FFF7B0FF01210846FFF7ACFFC8
:1024A00001210520FFF7A8FF01211948FEF7FAFED8
:1024B00001210846FFF77CFF01214802FFF79CFF3E
:1024C00001210420FFF780FF01210220FFF77CFF9C
:1024D00001210846FFF778FF01210E48FEF7E2FED2
:1024E00001214FF0C050FFF76FFF0121C802FFF735
:1024F00083FF01210848FEF7D5FE01210748FEF7BA
:10250000D1FEBDE810400120FFF742BF4600002089
:1025100000043000000C1A00C00016000003180070
:102520000E480021C1600161142242618161C161D4
:10253000026842F0010202604268094B1A404260A0
:102540000268084B1A400260026822F4802202608E
:10255000426822F4FE02426081607047001002402F
:102560000000FFF8FFFFF6FE10B500210120FFF785
:1025700043FF00214FF0C050FFF726FF0020FFF778
:1025800007FF00210120FFF737FF00210E48FEF76B
:1025900089FE00210D48FEF785FE00210120FFF78E
:1025A00007FF00214FF40070FFF726FF00210420F1
:1025B000FFF70AFF00210220FFF706FFBDE81040E9
:1025C00000210348FEF76EBE000430000002300018
:1025D00000081A00034600205909094A01290AD0B7
:1025E00002290AD0516A03F01F02012393400B42D3
:1025F00000D0012070471168F5E7116AF3E7000089
:10260000001002400248406800F00C0070470000D3
:1026100000100240034A516821F0F001014351606B
:1026200070470000001002400B490A6822F4803213
:102630000A600A6822F480220A60B0F5803F07D061
:10264000B0F5802F03D1086840F4A02008607047DF
:10265000086840F48030F9E700100240704700003D
:10266000034A516821F4E061014351607047000062
:1026700000100240034A516821F4605141EAC00051
:102680005060704700100240014908667047000022
:1026900000004242034B5A68084322F47C12104364
:1026A000586070470010024010B501217C20FFF7F0
:1026B000A3FE01210846FFF79FFE01210520FFF739
:1026C0009BFE01211848FEF7EDFD01210846FFF7AA
:1026D0006FFE01214802FFF78FFE01210420FFF762
:1026E00073FE01210220FFF76FFE01210846FFF76C
:1026F0006BFE01210D48FEF7D5FD01214FF0C050C2
:10270000FFF762FE0121C802FFF776FE01210848AB
:10271000FEF7C8FD01210748FEF7C4FDBDE81040E3
:102720000120FFF735BE000000043000000C1A0045
:10273000C000160000031800034A516821F003018D
:1027400001435160704700000010024010B50A4C70
:102750003120FFF73FFF20706068401C60602078E8
:1027600010B96068FF28F3D13120FFF733FF00284C
:1027700000D0012010BD00004800002008B54FF433
:102780008060ADF8000048208DF8030003208DF82C
:10279000020069460148FEF737FD08BD00180140F8
:1027A00008B54FF48060ADF8000004208DF80300F8
:1027B00003208DF8020069460148FEF725FD08BD9B
:1027C0000010014008B54FF48060ADF80000102003
:1027D0008DF8030003208DF8020069460148FEF7DA
:1027E00013FD08BD001001407047704710B5052467
:1027F0002046FFF787FA641CE4B20B2CF8D910BD11
:102800002DE9F0478046894663210F20FDF7DEFF62
:10281000F020FDF7C3FFC020FDF7C0FF0022022318
:1028200011461046FFF746FB0F4F104D00244FF4A2
:10283000806631463846FEF753FD78B10022022308
:1028400011461046FFF736FB2868641C401CE4B2B2
:1028500028600A2CEDD30020BDE8F08749464046A9
:1028600009F006FF0120F7E700180140940000205E
:1028700008B54FF48050ADF8000003208DF8020039
:1028800004208DF8030069460148FEF7BDFC08BD31
:102890000008014008B54FF48050ADF80000032057
:1028A0008DF8020014208DF8030069460148FEF7F8
:1028B000ABFC08BD0008014010B5044600F0C8F8A4
:1028C0000421802000F094F82046BDE81040082143
:1028D00000F08EB810B5044600F0BAF80421A0202C
:1028E00000F086F82046BDE81040052100F080B8D1
:1028F000704770470B4B00204FF0A531196302461B
:1029000083F8340003EB8001401C01F8352FC0B27E
:102910004A708A70CA700728F4D30248303000F039
:1029200003B80000BC3100202DE9F04389B0014616
:1029300024226846FDF72DFD1F496D4604260878C0
:102940000028FDD1012288460A70FEF7D1FB01273D
:102950003520FEF74DFB0024DFF860900AE00022EE
:10296000012311461046FFF7A5FA4846FEF746FB3D
:102970000646641CBC4201D2042EF0D00F4F4C46D8
:1029800028370DE00022012311461046FFF792FA86
:1029900002CD2046FEF77CFB241D0646BC4201D832
:1029A000042EEFD0FEF760FB002188F8001009B07C
:1029B0000846BDE8F0830000B900002000A001082F
:1029C000042801D3021F01E0C0F10402D2B204299D
:1029D00001D30B1F01E0C1F10403DBB29A4202D321
:1029E00040F0080101E041F008012520FDF7EEBEAE
:1029F0002DE9F047054688460024DFF84C904FF457
:102A00000046124F1CE0280601D4002200E00122FB
:102A100040214846FEF76BFCFEF7B9F9012231462A
:102A20003846FEF764FCFEF7B2F90022314638461C
:102A3000FEF75DFCFEF7ABF96806050E641CE4B218
:102A40004445E0D3BDE8F087001801400014014080
:102A500070B5154C012210212046FEF748FC0122DA
:102A6000124ED50329463046FEF741FC0122402193
:102A70000F48FEF73CFCFEF78AF9002210212046A1
:102A8000FEF735FC002210212046FEF730FC002224
:102A900029463046FEF72BFC29463046BDE87040FB
:102AA0000022FEF724BC0000000C0140001401408D
:102AB0000018014010B5FDF7ADFB0D490878401C2A
:102AC0000870FDF7B0FBFFF729FA0A480169491CB5
:102AD000016109480168491C01604168491C416065
:102AE0008168491C8160BDE81040FEF795BF000079
:102AF0005400002004000020B40400204FF0E02126
:102B00000428086903D020F004000861704740F0F1
:102B10000400FAE74FF0E02130B10128086906D03F
:102B200020F001000861704700208861704740F084
:102B30000100F7E74FF0E020806970474FF0E02197
:102B40000028086902D040F0020001E020F00200F5
:102B5000086170474FF0E021486170477047F0B559
:102B6000058B048C068C43F232373E40068442EAE1
:102B70000312BB1E4FF60C761C4035400C432A4313
:102B8000002344F00101038302830184F0BDF0B50A
:102B9000058B048C0E01018C43F2233739400184EC
:102BA00040F6FF410D4045EA033343EA022143F278
:102BB00003321440344344F0100201830284F0BD18
:102BC0000149C8617047000000802542802000F064
:102BD00001B8704702490A8822EA00020A80704759
:102BE000102C014001490860704700000080254218
:102BF0000149086070470000BC88254210B50121DA
:102C0000CC022046FFF704FC2046BDE8104000211E
:102C1000FFF7FEBB064B0246002099881B88114235
:102C200003EA020302D0002B00D00120704700000D
:102C30000C2C0140104A10B5138810494FF00004C5
:102C4000C1F86043048803F47F4344EA030414801A
:102C50004388C1F860338388C1F868330389C1F8B9
:102C600064334389C1F86C3383890B60C3894B603B
:102C7000C088908310BD0000182C0140A080254220
:102C800001490860704700000C83254210B5FDF72C
:102C9000C1FA06480178491C0170FDF7C4FA2020EA
:102CA000FFF798FFBDE81040FEF7B6BE54000020C5
:102CB000094982888A8502880A850A8802F09F026B
:102CC0000A80C288438842EA03020B8842EA030270
:102CD0000A80007A08867047002C014010B5FDF785
:102CE00099FA08490878401C0870FDF79CFA012001
:102CF000FFF790FF10B10120FFF76CFFBDE8104017
:102D0000FEF78ABE5400002070B5FDF783FA29490A
:102D10000878401C0870FDF786FA02214E073046FD
:102D200000F0B0F8244C012588B1FDF773FA657006
:102D3000304600F0A5F8A062FDF775FA0221304692
:102D400000F068F800220221304600F013F9042157
:102D5000304600F097F888B1FDF75CFAA570304670
:102D600000F08EF8E062FDF75EFA0421304600F0D4
:102D700051F800220421304600F0FCF810213046C2
:102D800000F080F888B1FDF745FA2570304600F074
:102D900077F86062FDF747FA1021304600F03AF804
:102DA00000221021304600F0E5F8BDE87040FEF743
:102DB00033BE0000540000200400002070470000D3
:102DC00010B5FDF727FA0A490878401C0870FDF78E
:102DD0002AFA084C1021204600F054F818B11021AE
:102DE000204600F017F8BDE81040FEF715BE0000C1
:102DF0005400002000080040028811B142F0800217
:102E000002E040F27F310A4002807047028A8A4322
:102E100002827047028A8A43028270470029018831
:102E200002D041F0010102E040F2FE321140018087
:102E30007047000010B5B0F1804F0FD00F49401817
:102E400013D0B0F5806F17D101210420FFF7C8FA25
:102E500000210420BDE81040FFF7C2BA0121084656
:102E6000FFF7BEFA00210120F4E701210220FFF75D
:102E7000B7FA00210220EDE710BD000000FCFFBF03
:102E8000808C704702460020138A92890B4202EA26
:102E9000010202D0002A00D0012070472DE9F04144
:102EA000054608880C46072804D02846BDE8F041AE
:102EB000FFF738BA608828B301282FD0022839D00C
:102EC000A188E288A37AA88BB5F820C02E8C42F2A4
:102ED00033373E402E8440F6FF461202304042EA2D
:102EE0000332024340F233300CEA000C4CEA013C5E
:102EF0004CF48050AA83288421892846BDE8F041FB
:102F000000F004B9A37AE288A1882846FFF727FEDB
:102F100021892846BDE8F04100F0E2B8A37AE288B2
:102F2000A1882846FFF733FE21892846BDE8F041F5
:102F300000F0DDB8A288E38894F80AC0A98B288C39
:102F40002E8C43F233273E402E844FF60C763140D0
:102F500043EA0C130B4343F23301084040EA0220DA
:102F600040F48070AB83288421892846BDE8F04175
:102F700000F0C5B8002A828901D00A4300E08A43E4
:102F800082817047028B4FF6F7731A400A4302831F
:102F90007047828B4FF6F7731A400A43828370475B
:102FA000828B4FF2FF731A4042EA012181837047FE
:102FB000F0B5038C344C4A8804F1080632B1012A7A
:102FC00004D0022A2FD0032A2DD049E0058B34F8F3
:102FD00012402C4036F812501D40002A028C11D0AD
:102FE00043F223331A4002840A888B8844EA02227F
:102FF00003870B8903B11023C9882B4343EA0113CC
:1030000002832DE043F232331A4002840A888B880F
:10301000224383860B890BB1012400E00024CB8876
:103020002C432343ECE7878B34F8125036F81240D8
:103030003D401C40022A028C14D042F233331A4025
:1030400002840A888B8845EA0222A0F840300B8966
:103050000BB14FF48053C988234343EA0133828381
:103060000384F0BD43F233231A4002840A888B881C
:103070002A4383870B890BB14FF48073C98823439C
:1030800043EA0123EBE700003A2E01083EB501298F
:10309000069C06D00021ADF80810FF2B05D9FE23B1
:1030A00006E095000121A940F5E7052B00D2052394
:1030B000ADF804300221ADF80220ADF80610ADF8ED
:1030C00000406946FFF774FF3EBD0185818A012AF1
:1030D00003D001F001018182704741F00101FAE75C
:1030E000028B4FF6F3731A400A4302837047028B38
:1030F0004FF2FF331A4042EA012101837047828B6D
:103100004FF6F3731A400A4382837047828B4FF263
:10311000FF331A4042EA0121818370470A88828581
:103120004A880285028802F08F0202808A88C98854
:103130000A4301880A4302807047000010B5FFF778
:1031400073F9FEF755FBFEF707FB0848FEF70CF88E
:103150000748FEF709F80748FEF706F80648FEF7A5
:1031600003F8BDE810400548FDF7FEBF0008014028
:10317000000C014000100140001401400018014003
:1031800010B50420FFF7BAFC0548FFF7E3FC012067
:10319000FFF7D4FCBDE810400120FFF7BBBC0000E6
:1031A000683C010010B5FDF735F805480178491C69
:1031B0000170FDF738F8BDE81040FEF72DBC0000A7
:1031C0005400002010B5FDF725F805480178491C8A
:1031D0000170FDF728F8BDE81040FEF71DBC0000A7
:1031E0005400002010B5FDF715F805480178491C7A
:1031F0000170FDF718F8BDE81040FEF70DBC0000A7
:10320000540000207047704770477047704749006E
:1032100050EAC12018BF04204A0D18BF40F0010039
:1032200040F2FF72B2EB515F08BF40F0020001288C
:1032300008BF052070472DE9F0414F1E00EBC70184
:103240000446D1E9000115461E4637F006020DD0AE
:103250002A4633460EF0F4FE7F1E04EBC703D3E983
:1032600000230EF0E7FC37F00602F1D1022F25D043
:10327000042F13D0062F18BFBDE8F0812A4633462D
:103280000EF0DEFED4E90A230EF0D4FC2A463346C3
:103290000EF0D6FED4E908230EF0CCFC2A463346C5
:1032A0000EF0CEFED4E906230EF0C4FC2A463346C7
:1032B0000EF0C6FED4E904230EF0BCFC2A463346C9
:1032C0000EF0BEFED4E902230EF0B4FC2A463346CB
:1032D0000EF0B6FED4E90023BDE8F0410EF0AABC22
:1032E000024A002011070FF038BD000001FDFFFF6A
:1032F000F8B54FF40060ADF800000324154F8DF8C9
:10330000024010258DF8035069463846FDF77CFFD2
:10331000AE01ADF800608DF803508DF802406946AB
:103320003846FDF771FFA802ADF800008DF8035094
:103330008DF8024069460848FDF766FFADF8006069
:1033400004208DF803008DF8024069460348FDF71C
:103350005BFFF8BD0010014000080140001801406B
:1033600010B509F03FFBFDF7EFF9002214231146D9
:103370001046FEF79FFDFDF7EBF9FDF79BF9FDF712
:1033800054F902230022BDE8104011461046FEF712
:1033900091BD00002DE9FE4F07468846002568468E
:1033A00002F06EFD00246FF00F0AE946012657F87F
:1033B000241058F82400081A00D540420FF0B8FA3B
:1033C00051460FF0FAFC59F8241011F0FF4F0BD0C2
:1033D0000FF0B0F94FF07E510FF018FC094920F0C2
:1033E0000040884205DC07E0074908440749884255
:1033F00002D306FA04F00543641C032CD7DB2846ED
:10340000BDE8FE8F295C0F3E666666C19A99D900B9
:103410002DE9F04D914F21F0004A86B005460C464B
:10342000BA452FDBAAEB070028430BD08C48824516
:1034300001DC1BD1D5B106B02846BDE8F04D012214
:103440000FF08BBC874A884B28460EF0F9FD0746E3
:103450000E46864A864B284621460EF0F1FD06B000
:103460003A463346BDE8F04D0EF0E4BB0120FDF7CF
:103470006BF806B00022BDE8F04D13461046114629
:103480000EF086BC7B48824543DABAF1795F0BDAED
:103490002846FFF7BCFE042808BFFFF721FF284697
:1034A00006B02146BDE8F08D0B462A462846214647
:1034B0000EF0C6FD834602466F480E460B460621B7
:1034C0007844FFF7B8FE5A4633460EF0B9FD804601
:1034D0006A488A465A46334604217844FFF7ABFED1
:1034E0005A4633460EF0ACFD00223B460EF0A2FBDE
:1034F00002460B46404651460EF04AFC2A462346F9
:103500000EF09EFD06B02A462346BDE8F04D0EF0B3
:1035100091BB284624F0004100223D463B460EF078
:103520008DFE4FF0FF320FF018FC0646024654485D
:103530000F460B4606217844FFF77DFE32463B4698
:103540000EF07EFDCDE900014E4832463B46042197
:103550007844FFF770FE32463B460EF071FD0022C4
:103560002B460EF067FB83460291304639460AF03F
:103570004FF9804644480D46504517DCDDE900010F
:103580005A46029B0EF004FC42462B460EF058FDB4
:1035900042462B460EF04EFB01220FF0DEFB314A75
:1035A000314B0EF03DFF314A314B4DE04FF0000AF8
:1035B0000B465246404629460EF03CFBCDE903102F
:1035C00052462B46504629460EF03AFD32463B46BF
:1035D0000EF034FEDDE903320EF0DAFB06460F464C
:1035E000DDE900015A46029B0EF0D2FB83460091B2
:1035F0000122304639460FF0B0FB1A4A1A4B0EF042
:103600001DFE06460F460122404629460FF0A5FB47
:103610005A46009B0EF014FD32463B460EF000FF6A
:1036200007460E460122504629460FF096FB0F4DE5
:10363000DFF858802A4643460EF000FE3A463346ED
:103640000EF0FCFD2A4643460EF0F8FD002CD8BFD4
:1036500081F0004106B0BDE8F08D00000000F03FB1
:103660000000F07F075C143326A6913C182D4454CB
:10367000FB21F93F0000E03F840701009A070100A9
:103680000E070100240701003333EF3FFB21E93F20
:103690002DE9F84F04460D4621F000400091744991
:1036A000884212DB7349884201DC07D134B12046DD
:1036B0002946BDE8F84F01220FF04FBB6E48002DA0
:1036C000CCBF6E496E49BDE8F88F6E49884211DA69
:1036D0006D498842A8BF4FF0FF366DDA2046294673
:1036E000FFF795FD042808BFFFF7FAFD204629469D
:1036F000BDE8F88F6549DFF898A125F000458842BC
:1037000032DA6449884219DA002632464FF08043A3
:10371000204629460EF08EFA0746884601222046AA
:1037200029460FF01AFB002253460EF079FE3A4666
:1037300043460EF02DFB04460D463DE001260022D7
:103740005346204629460EF075FA07468846002261
:103750005346204629460EF063FE43463A460EF095
:1037600017FB04460D4627E04B4988421BDADFF879
:103770002C81022600224346204629460EF060FC9A
:10378000002253460EF056FA82460F460022434668
:10379000204629460EF044FE52463B460EF0F8FA0B
:1037A00004460D4608E0032622462B4600203C49ED
:1037B0000EF0EEFA04460D4622462B4620462946D8
:1037C0000EF03EFC8B46824602460B460EF038FC5D
:1037D00007460246334888460B4606217844FFF7E1
:1037E0002AFD52465B460EF02BFC82462E488B4645
:1037F0003A46434605217844FFF71DFD3A464346C5
:103800000EF01EFC02460B46002E504659460CDABE
:103810000EF010FA22462B460EF012FC01B02246A2
:103820002B46BDE8F04F0EF009BD0EF003FA22461C
:103830002B460EF005FC1D4A7A4402EBC603D3E981
:1038400000230EF0EDFD22462B460EF0E9FD184A4E
:103850007A4402EBC603D3E900230EF0EFFC009A92
:10386000002AB4BF81F00041BDE8F88FBDE8F88FB1
:10387000000010440000F07F182D4454FB21F93F54
:10388000FB21F9BF0000DC3F0000203E0000F33FB9
:103890000000F03F0000E63F008003400000F83FDA
:1038A0000000F0BF20050100DE0401007C040100DF
:1038B000440401002DE9F04D9446CCF1000423F0BE
:1038C00000464CEA0404524F46EAD47498468A46AD
:1038D00021F00042BC4206D8454240EA050442EAD3
:1038E000D474BC4204D9BDE8F04D62460EF0A2B9D2
:1038F000A8F14055A5F17F6555EA0C040BD00224D0
:1039000004EAA874434DDFF810E144EADA7452EA9D
:10391000000B04D00CE0BDE8F04DFFF7B9BE002C61
:1039200014BF012CBDE8F08D022C30D0032C32D016
:1039300056EA0C0B0AD0BE4220D1BA4209D126F079
:10394000804622F080423346114617E000291ADBF8
:1039500025E0DFF8C8B0FB44002C04BFDBE9000120
:10396000BDE8F08D012C02BFDBE9000181F00041D0
:10397000BDE8F08D022C0AD0032C0CD0BA4212D133
:10398000BAF1000F0BDA23482549BDE8F08D28462F
:103990002449BDE8F08D28467146BDE8F08D1D48EC
:1039A0002149BDE8F08D921B12153C2AC4BF19486D
:1039B0001D490EDCB8F1000FBEBF12F13C0F002014
:1039C000014606DB62460EF0E3F921F00041FFF705
:1039D0005FFE002C08BFBDE8F08D012C04BF81F014
:1039E0000041BDE8F08D114A114B022C07D00EF0BA
:1039F00017FD2A46BDE8F04D0A4B0EF011BD0EF042
:103A00000FFD2A46BDE8F04D064B0EF017BC000036
:103A10000000F07F182D4454FB2109C0D60301009B
:103A2000FB21F9BFFB210940FB21F93F075C14335F
:103A300026A6A13C2DE9F84F040088464FF000006F
:103A40007ED003F0A1F94C48002606804B48068042
:103A50004B484D494FF0020906604A48DFF834B13F
:103A60000127066040F2252008604849484881F84F
:103A70000C900660CBF8007000F08CFF672020707F
:103A800084F8018084F80290E775A775267604F122
:103A90000C01E661201D009109F024FF3E480760FB
:103AA0003E48067004F0DAFF06F058FD06F032FDDD
:103AB0003B48DFF8F080067098F8070009F0D4FA68
:103AC00098F8060009F08AF837484FF008096FF0B7
:103AD00070480670607888267A2806D04FF00A0A67
:103AE00079280ED07B2818D037E030A008F0CCFA27
:103AF000201D03F0A6FF80BB65686E7285F80A90F2
:103B000007E0201D03F09DFF38BB65686E7285F8E5
:103B10000AA02F72C5F80C801BE0201D03F091FF56
:103B200050B965686E7285F80AA02F72C5F80C80CE
:103B30006068009903F096FF201D03F082FF00E00B
:103B400017E050B965681E486E7285F80A902F72AA
:103B5000E8606068009903F085FF0D480560A97A68
:103B6000CBF8001002F082FD02F094FD08F0A8FFEF
:103B70000120BDE8F88F0000E6000020E4000020EE
:103B8000D8020020D0020020F0020020FC2D0020EE
:103B9000B0000020B40000200403002039030020FE
:103BA000A4000020B02D00203D030020636F726E42
:103BB0006F72207461736B20696E6974200D0A0046
:103BC000400D03002DE9F0410446144D0020144F30
:103BD000012628603E6004F10C018846201D09F092
:103BE00081FE201D03F02DFF90B96068882141728D
:103BF00061787A290FD00A21817206724FF0FF3165
:103C0000C1602860807A38604146606803F02AFF0E
:103C10000120BDE8F0810821EEE70000B00000209F
:103C2000B400002070B50026344640F6FF753346D8
:103C300000EB410003EB430100EBC10131F8022C22
:103C4000944200D21446954200D915465B1C9BB2A3
:103C500016440C2BEED3301B401B0A21B0FBF1F0B5
:103C600080B270BD10B50A4803F0BEFE084808F0E7
:103C700017FE0021084609F074FD0021012009F01B
:103C800070FD0449002008600349086010BD000071
:103C9000FC2D0020E0020020DC0200202DE9F04194
:103CA0004E48807A892802D00020BDE8F0810721A3
:103CB0004B48FFF7B7FF07460C214948FFF7B2FF13
:103CC000484D044640F6FF766889A98950EA01020A
:103CD0004DD0B0427ED0B1427ED00DF0BFF9442825
:103CE0007AD041480078192876D06A894FF48076D6
:103CF000B24205D9B81A974200D8D01B402808DC38
:103D0000A889B04268D9211A844200D8011B4029F1
:103D100062DD394635A008F0B7F9AA8921463AA0F4
:103D200008F0B2F9002068706889B04207D9391AE2
:103D3000874200D8C11B402901DD01206870A88995
:103D4000B04209D9211A844200D8011B402903DD61
:103D5000687840F00200687032A008F095F90121FF
:103D600019200CF033FC34A008F08EF99CE70022F7
:103D70000A2311461046FEF79DF800240721184833
:103D8000FFF750FF6989084468810C211448FFF748
:103D900049FFA98900220844A8810A231146104638
:103DA000FEF788F8641CE4B20A2CE7D369890A207C
:103DB000B1FBF0F16981AA89B2FBF0F2AA8125A0DA
:103DC00008F062F96889FF2802D9A889FF2803D87A
:103DD0006E8100E000E0AE81012066E7FC2D00204E
:103DE000902C0020400400204C0300206C65667479
:103DF000206D61672C202564096F66667365743ACF
:103E00000925640D0A0000007269676874206D61FD
:103E1000672C202564096F66667365743A0925640A
:103E20000D0A0000626F756E6461727920646574BA
:103E30006563740D0A000000616674657220626F2C
:103E4000756E64617279206576656E742073657431
:103E50000D0A0000626F756E64206F66667365748C
:103E60003A092564092564090D0A000070B500228D
:103E7000052311461046FEF71DF81A4D0020044692
:103E80006881A88107211848FFF7CCFE698908449A
:103E900068810C211448FFF7C5FEA9890022084457
:103EA000A8810A2311461046FEF704F8641CE4B208
:103EB000032CE7D369890320B1FBF0F16981AA895A
:103EC000B2FBF0F2AA8109A008F0DEF86889FF28A9
:103ED00002D9A889FF2803D840F6FF706881A8811D
:103EE000002070BD40040020902C0020626F756E91
:103EF00064206F66667365743A0925640925640950
:103F00000D0A00002DE9F047040035D02A4DE8796C
:103F100009F0AAF8A87908F061FE28480025057084
:103F200002F0F4FB26480226DFF89C800570254845
:103F3000DFF8989001210673C8F80050C9F8001006
:103F400023480580234805802348254905602348E8
:103F5000056040F22520086009F002FC04F10C0124
:103F60008A46201D09F0BEFC6A202070A670201D24
:103F700003F067FD18B113E00020BDE8F087656825
:103F8000882010276872AF722E724FF0BE60E86012
:103F90005146606803F066FDC8F80050C9F800702B
:103FA00004F090F80021012009F0DBFB0021084615
:103FB00009F0D7FB0120E0E7B02D0020A40000208D
:103FC0003D030020FC2D0020B0000020B4000020A4
:103FD000E6000020E4000020D8020020D0020020EB
:103FE000F00200202DE9F041144F7879012801D822
:103FF000062403E0801EC4B2072C1DD8104E0125F4
:10400000A54096F83410224601EA05030DA008F0F9
:104010003BF896F8340028400CD006EB8400B979C0
:1040200090F83520914207D1F97990F83600814215
:1040300002D10120BDE8F0810020FBE7B02D002077
:10404000BC3100207765656B20636865636B3A203F
:104050007765656B2C203A25640925642C2025643E
:10406000200D0A0070B509F07BFB134D1148286044
:104070000121084609F075FB002214231146104661
:10408000FDF718FF0D4C21680DA007F0FDFF20681B
:10409000052805D90023012219461846FDF70AFF15
:1040A0000021012009F05DFB00202860BDE8704080
:1040B00009F056BB90B20800E4020020E0020020A4
:1040C0006C6566743A090925640D0A0010B511493A
:1040D00086B004001BD018226846FEF70BF80E4885
:1040E0000099814204D104984FEA3141884209D0B5
:1040F0000A4901200870204609F0DAFB204600F04A
:104100000FF804E0182269462046FDF7F3FF06B0D9
:10411000002010BD009001085555AAAAB800002043
:104120002DE9F04700283CD01F4905460426487871
:104130000028FDD1012289464A70FCF7D9FF0127EA
:104140003520FCF755FF0024DFF860800BE00022EB
:10415000012311461046FDF7ADFE08EBC420FCF725
:104160004DFF0646641CBC4201D2042EEFD00F4F17
:1041700044461C370DE00022012311461046FDF78E
:1041800099FE02CD2046FCF783FF241D0646BC4263
:1041900001D8042EEFD0FCF767FF002189F8011049
:1041A0000846BDE8F0870000B80000200090010834
:1041B00010B538210448FDF794FF03490120087029
:1041C0000249087010BD000050340020E5030020B3
:1041D00010B5044601F036FB0022142311461046A8
:1041E000FDF768FE204604F0F9FA00221423114678
:1041F0001046FDF75FFE204609F0EAF9142300227D
:10420000BDE8104011461046FDF754BE10B50446F7
:1042100011A007F039FF00F0BDFB5021204609F046
:10422000B5F90022322311461046FDF743FE204621
:1042300004F076FA00224FF4E17311461046FDF7C0
:1042400039FE204601F0AEFAC8230022BDE8104036
:1042500011461046FDF72EBE636C65616E5F6D6F93
:10426000746F72206F70656E0D0A000010B50A48F9
:10427000FDF7FEFB094C206138B107480C30FDF713
:10428000F7FB606118B1002010BD05A000E00BA095
:1042900007F0FAFE012010BDC42D00208800002088
:1042A0006372656165206B657920206D626F78208F
:1042B0006661696C6564200D0A00000063726561C7
:1042C0006520616374696F6E206D626F782066612E
:1042D000696C6564200D0A0010B504460120607108
:1042E00088782071487B2072887B6072087CE0733C
:1042F0000122091DE01DFDF7FDFE054820604FEA83
:10430000304020612046BDE81040FFF709BF0000A3
:104310005555AAAA2DE9F0410546424801680829E9
:1043200011D001680F290ED000680A2803D13E4839
:104330008078022807D0002000280AD03B4C607902
:10434000032805D101E00120F6E73948007810B1D3
:104350000020BDE8F081E079364FDFF8DC800126EF
:1043600070B12846A16A0EF00FFBA16A28461BD245
:104370000EF00AFBA16A284606D20EF03DFC05E0CD
:10438000E671A562E562E4E70EF040FCA16AB8427E
:1043900006DD40460EF03AFC29460EF057F923E0C0
:1043A00028460EF029FC17E00EF0F5FB20D2284637
:1043B000A16A0EF0E9FAA16A284602D20EF01CFCAE
:1043C00001E00EF023FCB8420ADD4146A06A0EF07F
:1043D0003DF929460EF01AFC216B0EF00DFC06E0AB
:1043E0002846A16A0EF012FC216B0EF02FF9206313
:1043F000A5621249206B884204DD41460EF006FC9E
:104400002063A6E70E498842A3D90020E071A0628C
:10441000E0622063667101211D200CF0D7F80120B5
:1044200097E70000B400002050340020E003002093
:104430004D030020000034430000B4430000074453
:104440000000B4C3704770477047000010B50020EB
:10445000FDF7A0FB0149086010BD000080000020AE
:1044600030B585B0554801AC0323002260210FC44C
:10447000072300F5BE72002151480093FDF7C0FBF1
:104480000546504C05E000220A2311461046FDF770
:1044900011FD2278002AF6D01DB129464AA007F066
:1044A000F3FD4F4801AC032300224FF49C710FC46D
:1044B000082300F2DC4200214A480093FDF7A0FBEC
:1044C000010002D040A007F0DFFD474801AC032304
:1044D000002240210FC40A2300F1FC0200214348BE
:1044E0000093FDF78DFB010002D037A007F0CCFD53
:1044F0003F4801AC0323002240210FC40C2300F1EC
:10450000FC0200213B480093FDF77AFB010002D03A
:104510002DA007F0B9FD384801AC0323002240214B
:104520000FC40B2300F1FC02002134480093FDF777
:1045300067FB010002D032A007F0A6FD364801ACAF
:10454000032300224FF4A2710FC4062300F20C5281
:10455000002132480093FDF753FB010002D01AA05E
:1045600007F092FD2E4801AC032300224FF4807126
:104570000FC4092300F57F7200212A480093FDF73C
:104580003FFB010002D010A007F07EFD0323264868
:1045900001AC0022D9010FC4052300F2FC52002116
:1045A00022480093FDF72CFB010005D005B006A0C2
:1045B000BDE8304007F068BD05B030BD20150020D3
:1045C000516C000888000020637265617465206585
:1045D000786974206661696C3A09256400000000FE
:1045E000A0160020A9A50008801C0020CDBF00084F
:1045F0002014002025710008801B0020FD87000882
:104600006372656174652065786974206661696CA0
:104610003A0925640A000000801D00205D0A010897
:1046200090220020C117010890260020B9A600089A
:104630007047704770B50B4D4FF400542146284623
:10464000FCF74EFE30B161102846FCF749FE08B178
:10465000022070BD21462846FCF742FE0028F8D013
:10466000012070BD001401402DE9F04104003CD050
:10467000207A022839D11E4DA86C50B1401EA86482
:1046800007D1012085F84400024602211948FCF7B1
:104690002EFE686B401C6863B0F5C87F25DB0026E2
:1046A000012115486E63FFF7BDFA0746014613A0C6
:1046B00007F0EAFC164D6A68974207D92B883946FD
:1046C00014A007F0E1FC6F602E800EE029881CA08A
:1046D00007F0DAFC2888411C2980C82805D92E80DB
:1046E000072120466E6000F087F80020BDE8F081C9
:1046F000FC2D002000140140902C002062617420E9
:10470000766F6C746167653A0925640D0A000000D4
:10471000F802002062617420766F6C203A25642CC8
:104720006C6173742062696720766F6C203A25642F
:104730002C2074696D65733A0925640D0A00000028
:104740006D617820766F6C2074696D656F75743A51
:104750000925640D0A0000000B4810B50078662892
:104760000FD00A48007B02280BD105F00BFD05F0A5
:10477000FDFB04F0ABFE06480078882801D005F068
:104780008DFC002010BD0000482E0020FC2D0020D4
:104790000C03002010B505F05DFB002010BD0000EB
:1047A000F0B4144E96F8354096F83630601CC5B219
:1047B0000020012796F8342007FA00F10A4207D0BA
:1047C00006EB800101F8354F4B708D70CB7007E020
:1047D00006EB8001002201F8352F4A708A70CA70FA
:1047E000401CC0B20728E5D3F0BC02483030FEF7C9
:1047F0009BB80000BC3100202DE9F0412E4D040093
:104800000F4650D02DA007F03FFC207A334E0228EF
:1048100002D1012030732772B07B022843D0304888
:104820000078012801D02879F0B3002486F84440AC
:10483000224602212B48FCF75AFD2C71002008F07B
:10484000BBF9B47300F0A6F80121142003F094F929
:10485000254801F005FE7B212348FFF7EBF80122F4
:10486000224B114642200CF04BFA0122B4210020C9
:1048700003F0C8FC1E4C01221146402023680CF0B6
:104880003FFA002003F016FC1448FFF7BFFC03F0CA
:10489000EFFF40B901221146402023680CF030FAA6
:1048A000002003F007FC00E002E00020BDE8F081FA
:1048B000032008F0E7F8F6E7B02D002073746F705E
:1048C00020636861722065766E65742C2072656164
:1048D000736F6E3A25640D0A00000000FC2D002065
:1048E0003903002000140140482E0020000034430A
:1048F000443C010804E00021491CC9B22829FBD32B
:10490000401EF8D270470000002210B50523114662
:104910001046FDF7CFFA0021084608F022FF0021DB
:10492000012008F01EFF0122D1020A48FCF7DFFC3B
:10493000094C012204212046FCF7D9FC01229103F5
:104940002046FCF7D4FC054900200870BDE8104063
:104950000BF00EBF0008014000140140850000204C
:1049600010B5FCF737F800F079FE094C002204215D
:104970002046FCF7BCFC00220A2311461046FDF736
:1049800099FA20460122BDE810409103FCF7AFBC24
:1049900000140140002210B5022311461046FDF715
:1049A00089FA0121002002F0C5FA0121084602F02F
:1049B000C1FA0121022002F0BDFA0121032002F018
:1049C000B9FA104C002204212046FCF790FC00228A
:1049D0000F2311461046FDF76DFA20210A48FCF717
:1049E0007FFC0A4A012150B1117009480022017070
:1049F0002046BDE810404FF48041FCF778BC002011
:104A00001070F2E700140140000C01403803002050
:104A10008500002070B505460020FDF75BFF0024EF
:104A200008212846FDF7E4FF641CE4B2202CF7D3EC
:104A300070BD000070B50B48806984B2B4F57A7F10
:104A400001D340F2E7340A26B4FBF6F5E8B20021C0
:104A500008F034FA06FB1540BDE87040432108F029
:104A6000F5BB0000BC31002070B51248C2698168F6
:104A700040681144084480B2B0F5E16F01D20024CF
:104A80000AE04FF46161B0FBF1F0401C84B2B4F570
:104A90007A7F01D340F2E7340A26B4FBF6F5E8B298
:104AA000002108F00BFA06FB1540BDE870404821D4
:104AB00008F0CCBBBC31002010B50446192008F02A
:104AC0008DF82046BDE8104008F0CEBA70B50E4D06
:104AD0000446A868002816D00CF0C0FA442812D06A
:104AE000A868807A10280ED0207C4FF4006190F0E6
:104AF00001020648227401D0002200E00122BDE834
:104B00007040FCF7F4BB70BDA80000200008014015
:104B100008B560B120208DF8000028208DF8010034
:104B200030208DF8020038208DF8030004E0A32225
:104B300004216846FBF75FFC6A46042140F69E208C
:104B400007F056F906F018FE08BD00003EB5044611
:104B500002208DF80000CA208DF80100E3208DF8B6
:104B6000020009208DF803006A460421682007F03E
:104B70003FF9A3208DF80000610609D5C0218DF80A
:104B80000110C8218DF80210C2218DF8031005E034
:104B90008DF801008DF802008DF8030014F4C07F39
:104BA00009D0C4218DF80410CC218DF80510C62140
:104BB0008DF8061005E08DF804008DF805008DF8DD
:104BC00006008DF808008DF807008DF809006A4688
:104BD0000A2140F6A72007F00BF9A0074FF0D805EF
:104BE00003D020208DF8000001E08DF800506A46C7
:104BF000012140F6B62007F0FBF8A00601D5012000
:104C000000E0002000F090F814F4C07F1ED0E00512
:104C10000AD5B2208DF800008B208DF80100B62057
:104C20008DF802009B2009E0B0208DF80000802064
:104C30008DF80100B4208DF8020090208DF803005B
:104C40006A46042140F6A22007F0D2F8E0074FF4AC
:104C50000B6323D0F8208DF800006A460121184626
:104C600007F0C6F8FA21072000F04AFB072000F001
:104C700015FB012000F032FB642000F0D5FB4FF45F
:104C8000FA7000F0E1FBC821254800F0CFFA282097
:104C900000F0E4FA0A2000F0F1FA06E08DF8005086
:104CA0006A460121184607F0A3F8A00703D5D920CA
:104CB0008DF8000001E08DF800506A46012140F2B5
:104CC0003D7007F095F8600701D5012000E0002055
:104CD00000F04AF8E00601D5012000E00020FFF7CF
:104CE00017FF104D44F00800688106F045FD0020D4
:104CF000A873600601D50620A87314F4C07F02D003
:104D0000A87B801DA87314F0140F02D0A87B10306C
:104D1000A873A00702D0A87B001DA87300203EBD89
:104D200009E3CA02D03400200EB54FF4976308B1EE
:104D300007A000E009A0D0E9001280680091CDE949
:104D400001206A460921184607F052F80EBD0000FE
:104D5000B8AAB38DB4980D355D000000B8AAAAAA10
:104D6000B088C3C5C700000008B560B1C0208DF889
:104D70000000C2208DF80100C4208DF80200C6207A
:104D80008DF8030004E08B2204216846FBF733FB17
:104D90006A46042140F6982007F02AF806F0ECFC59
:104DA00008BD0000C8234FF48062024940F6F63087
:104DB00006F0B6BB4E3001082DE9FF4F89B016460C
:104DC000DDE916520024DFF83881074689462C8039
:104DD000A24698F80E00694606F05CFC4FF0FF3BD7
:104DE00018B158460DB0BDE8F08FB8F80A0010F0C1
:104DF000140F3CD000999DF8032009BA21F0FF015F
:104E000011433160019A091412BA22F0FF0C9DF887
:104E1000072049434CEA020CC6F804C0029A9DF8E8
:104E20000B3012BA22F0FF021A43B260039B9DF8C6
:104E30000F401BBA23F0FF032343F36012144FEA21
:104E40002C461B14524306FB061103FB032211449C
:104E50001024A1F17061B1F1007F04D906F08CFC3F
:104E6000A5F800A0BDE7298841F48071298041069A
:104E70006A4612D51119A41D0B88E4B25BBAA9F8D1
:104E800000304B885BBAA9F80230898849BAA9F882
:104E90000410298841F00801298010F4C07F0FD048
:104EA0001119A41D0B88E4B25BBA3B804B885BBA36
:104EB0007B80898849BAB980298841F070012980AE
:104EC000800718D01444E07800F0C00500F03F01DE
:104ED0006078C00707D0C80801F00701D8F80020A3
:104EE000491C02B190476078000704D5D8F8041037
:104EF00009B1A80988470C9808F0D3FC002071E795
:104F0000D03400202DE9FF41054603A806F0BCF887
:104F1000BDF80C0000214FEAC13141EA50414FEA8F
:104F2000C0323048008900F0030355F8234043079E
:104F300001D5C4F10004C0F3C103860655F823303F
:104F400001D5C3F10003C0F38116C00555F82670E2
:104F500000D57F42A4FB0256E01700FB026004FB71
:104F60000100840044EA9570A3FB0256DC1704FBA1
:104F7000026403FB01439C0044EA9573A7FB0256BD
:104F8000FC1704FB026207FB01218A0042EA9571CB
:104F9000020E8DF80020020C8DF80120020A8DF817
:104FA00002208DF80300180E8DF80400180C8DF8FF
:104FB0000500180A8DF80600080E8DF80800080C88
:104FC0008DF80900080A8DF80A008DF80B108DF88D
:104FD00007306A460C214FF4257006F009FF04B033
:104FE000BDE8F081D034002030B5044614A185B06E
:104FF000D1E900028968CDE900024FF0FF35029146
:10500000C82C16D8C820B0FBF4F1491E080A8DF848
:105010000C008DF80D1003AA022140F2162006F0B4
:10502000E7FE30B96A460C2140F6C12006F0E0FEEA
:1050300010B1284605B030BD044884810020F9E74E
:10504000FEF2ABC4AAF1DFDFBBAFDFDFD03400205C
:10505000F8B53149098901F0030250F822404A07A6
:1050600001D5C4F10004C1F3C10250F822308A0610
:1050700001D5C3F10003C1F3811250F82220C80505
:1050800000D55242254984FB0104800F40EA840088
:1050900083FB014382FB01128D0F010E8DF800107E
:1050A000010C8DF80110010A8DF80210A40F45EAD9
:1050B00082058DF8030044EA83046A4604214FF414
:1050C000747006F095FE4FF0FF3688B9200E8DF80B
:1050D0000000200C8DF80100200A8DF802008DF8E8
:1050E00003406A4604214FF4757006F081FE08B152
:1050F0003046F8BD280E8DF80000280C8DF8010010
:10510000280A8DF802008DF803506A4604214FF4F6
:10511000767006F06DFEF8BDD034002009E3CA02B7
:105120002DE9FF4104463CA004F003020068029010
:105130003AA002A90068039039A0066839A0056862
:10514000885C8DF80000C4F3C1000B5C8DF8013061
:10515000C4F38113C95C8DF8021003A98A5C8DF831
:105160000420085C8DF80500C85C8DF806006A46CE
:10517000032140F2264006F03BFE4FF0FF37F0BB24
:1051800001AA032140F22A4006F032FEB8BBCDE965
:10519000006560070BD59DF8000040F001008DF818
:1051A00000009DF8040040F001008DF80400A00606
:1051B0000BD59DF8010040F001008DF801009DF82D
:1051C000050040F001008DF80500E0050BD59DF8C5
:1051D000020040F001008DF802009DF8060040F04A
:1051E00001008DF806006A4603214FF4886006F03E
:1051F000FFFD20B901AA032140F2314000E002E0A6
:1052000006F0F6FD18B1384604B0BDE8F081064856
:1052100004810020F8E700004CCD6C000CC92C0084
:105220003656760026466600D03400204FF47A7257
:1052300090FBF2F008B54843010E8DF80010010C08
:105240008DF80110010A8DF802108DF803006A46EE
:1052500004214FF4AE7006F0CBFD08BD0521B0FB74
:10526000F1F008B5010A8DF800108DF801006A46CA
:1052700002214FF4AD7006F0BBFD08BD0521B0FB67
:10528000F1F008B5010A8DF800108DF801006A46AA
:1052900002214FF4AC7006F0ABFD08BD08B500214B
:1052A0008DF80010C10702D030218DF80010810761
:1052B00005D59DF8001041F00C018DF80010400755
:1052C00005D59DF8000040F003008DF800006A4607
:1052D00001214FF4A47006F08BFD08BD08B560B144
:1052E000042800D90420401E8DF800006A460121E0
:1052F00040F24F1006F07CFD08BD0120F3E70000EE
:105300002DE9FC410546084669074FF0FF367BD082
:10531000B0F5C86F78D80DF023FB3E490DF00AFABE
:10532000074601A805F092FE9DF80400022806D069
:1053300004280DD008282ED0102865D134E00E2185
:1053400038460DF03AFD0DF0D3FA84B2324907E049
:105350000D2138460DF031FD0DF0CAFA2F4984B207
:1053600038460DF045FB0DF0C3FA210A8DF8001008
:1053700080B28DF80140010A8DF802108DF803000B
:10538000E8076C4620D0224602214FF4EA7006F06E
:105390002FFDC8BB11E00C2138460DF00EFD0DF0BD
:1053A000A7FA84B21E49DBE70B2138460DF005FD54
:1053B0000DF09EFA84B21B49D2E7A21C02214FF4E1
:1053C000927006F015FDF8B9A8070DD56A460221BE
:1053D0004FF4EC7006F00CFDB0B9A21C02214FF4A2
:1053E000947006F005FD78B9680710D56A46022169
:1053F0004FF4EE7006F0FCFC30B9A21C02214FF411
:10540000967006F0F5FC10B13046BDE8FC81002036
:10541000FBE7000000004843000040460000C04594
:10542000000040450000C0440521B0FBF1F008B584
:10543000010A8DF800108DF801006A4602214FF430
:10544000EF7006F0D5FC08BD0521B0FBF1F008B502
:10545000010A8DF800108DF801006A4602214FF410
:10546000ED7006F0C5FC08BD2DE9F05F04003CD0EE
:105470003A483B4F0226DFF8EC80067300250121F5
:105480003D60C8F80010FEF7A3FEFFF783FA364828
:10549000058036480580364837490560354805603F
:1054A00040F22520086008F05BF9DFF8D09099F809
:1054B000070007F0D9FD99F8060007F08FFB304888
:1054C00005703048057001F021F904F10C018B469C
:1054D000201D08F007FA6A202070A670201D02F037
:1054E000B0FA4FF0880A18B113E00020BDE8F09F31
:1054F00065684FF00E09244885F809A085F80A90E0
:105500002E72E8605946606802F0ACFA3D60C8F857
:105510000090201D02F095FA80B965684FF00F09E0
:105520001A4885F809A085F80A902E72E860594655
:10553000606802F097FA3D60C8F80090002001F022
:1055400023FC02F0BFFD0021012008F00AF9002130
:10555000084608F006F90120C8E70000FC2D0020ED
:10556000B0000020B4000020E6000020E40000208D
:10557000D8020020D0020020F0020020B02D002030
:10558000A40000203D03002090D003004054890077
:105590002DE9F04704004FF0000021D0114E124FCA
:1055A00030600120386004F10C018946201D08F0AC
:1055B00099F9201D02F045FA88B9656888204FF0F6
:1055C0000F08687285F80A80022028720748E86090
:1055D0004946606802F046FA3560C7F8008001204D
:1055E000BDE8F087B0000020B400002040548900DE
:1055F00070B504000D46104601D0641EE4B2FBF7FE
:10560000BDFB01460320FBF7F3FF2846FBF7B6FB83
:1056100001460420FBF7ECFF2046FBF7AFFBBDE89B
:10562000704001460620FBF7E3BF000010B50021E3
:105630000848FBF7EEFA084C00212046FBF7F7F884
:1056400000212046FBF7E9F82046BDE81040002184
:10565000FBF7A5B9080002400024014030B54D4DCC
:1056600091B02846FBF7E0FA4B4800904B480024E5
:10567000CDE901049020CDE903048020059040008D
:10568000069080000790202008900002CDE90904D0
:1056900069462846FBF708FB01212846FBF7B9FAC3
:1056A00001208DF830008DF831000B944FF460200C
:1056B000CDE90D04384C0C208DF83C004C3C0BA976
:1056C0002046FBF709F90623012200212046FBF7BB
:1056D00027F90623022201212046FBF721F90623A0
:1056E000032202212046FBF71BF906230422032193
:1056F0002046FBF715F90623052219462046FBF73D
:105700000FF906231A4607212046FBF709F906235D
:10571000072208212046FBF703F9062308220A2165
:105720002046FBF7FDF8062309220B212046FBF754
:10573000F7F806230A220C212046FBF7F1F806238E
:105740000B220D212046FBF7EBF806230C220F213C
:105750002046FBF7E5F801212046FBF768F8012118
:105760002046FBF75AF82046FBF714F92046FBF7D2
:1057700077F80028FAD12046FBF71BF92046FBF703
:1057800061F80028FAD101212046FBF708F911B091
:1057900030BD0000080002404C240140902C002045
:1057A00070470000F8B50646002401211A48FEF7AC
:1057B00039FA05461948407800B11E24294618A038
:1057C00006F062FC1E48B5F5016F02D8B5F5F46F1E
:1057D00003D970236434009316E0B5F5E66F03D95E
:1057E00070236E3400930FE0B5F5D86F03D97023A2
:1057F0007834009308E04FF07003B5F5D06F009354
:1058000001D9823400E096340122A3B21146FDF79B
:105810003DFC89207072F8BD902C0020B02D002036
:1058200064757374206D6F746F72202C20626174C4
:1058300020766F6C203A20092564200D0A000000B4
:105840000004004038B55023044600930122C023D1
:1058500011460348FDF71AFC8821617238BD00002B
:10586000000400402DE9F0473D4F3868002875D00E
:105870003C4800680E2803D13B48008800286DD1C1
:10588000DFF8E890012189F800100BF0EDFB1FFA1A
:1058900080F8002004F05EFD00285FD13868807A2F
:1058A000334C344D00260E281BD008DC06280CD0C3
:1058B000072816D008283AD00A284DD132E00F2800
:1058C00035D0112843D0782846D101222A4B1146E1
:1058D00043200BF015FA01221E21002002F018FDD2
:1058E00016E068680A27B0FBF7F107FB11003C30AF
:1058F0000DF036F803460122114642200BF000FA63
:105900006868B0FBF7F107FB11013C3101221AE096
:1059100001221146402023680BF0F2F9002002F02A
:10592000C9FB19E04146002000F068F914E0134873
:105930006E802E7006750122114B114642200BF02D
:10594000DFF901225A21002002F05CFCE0E702F0BE
:10595000B9FB3968B420C86089F80060BDE8F087F9
:10596000B0000020B4000020E6000020DC00002091
:10597000443C0108000300200000F041482E0020B4
:105980000000B4422DE9F0412F4E3068002858D075
:105990000BF06AFB1FFA80F82C4800680E2803D130
:1059A0002B48008800284CD1002004F0D3FC0028AC
:1059B00047D1284F012038703068807A264C274B19
:1059C00000250E2818D008DC06280CD0072813D094
:1059D00008282AD00A2833D122E00F2825D0112800
:1059E00029D078282CD101221D4B114642200BF0E2
:1059F00087F901221E2106E00122114642200BF008
:105A00007FF901225A21002002F0FCFB01221146FD
:105A1000402023680BF074F9002002F04BFB0FE0EC
:105A20004146022000F0EAF80AE00E484580057081
:105A30000D480575E0E702F045FB3168B420C86009
:105A40003D70BDE8F0810000B0000020B4000020EF
:105A5000E6000020DC000020443C01080000B442C5
:105A60000000F04100030020482E00202DE9F047FF
:105A7000424F386800287ED00BF0F6FA1FFA80F803
:105A80003F4800680E2803D13E480088002872D1A4
:105A900002F018FB00223C2311461046FCF70AFADC
:105AA000002004F057FC002865D1DFF8DC900121CC
:105AB00089F800103868807A344C354D00260E285D
:105AC00018D008DC06280CD0072813D008283DD0B1
:105AD0000A284ED135E00F2838D0112844D0782834
