:020000040800F2
:10000000301D00200101000805010008070100085B
:10001000090100080B0100080D01000800000000A4
:1000200000000000000000000000000011010008B6
:100030000F010008000000003D020008C51F000875
:10004000AB2B0008E31A000841200008D71E000867
:10005000D5090008451E000875080008D9080008E1
:10006000F9080008FB080008FD080008BD060008A4
:10007000C1060008D9060008F506000811070008A7
:10008000130700081507000871030008A72B0008D4
:10009000A92B00086B0400086D0400080109000882
:1000A0001D210008C123000869230008252100083C
:1000B000ED23000811250008152500089F0B0008F6
:1000C0009D0B0008A30B0008A10B0008211F0008CE
:1000D000231F0008B9290008252A0008452A00081E
:1000E00095080008D51E0008A52B00080000000098
:1000F0000000000000000000000000000000000000
:1001000004480047FEE7FEE7FEE7FEE7FEE7FEE7FE
:10011000FEE700001901000800F002F800F03AF8CC
:100120000AA090E8000C82448344AAF10107DA4552
:1001300001D100F02FF8AFF2090EBAE80F0013F06A
:10014000010F18BFFB1A43F001031847EC4A0000E7
:100150000C4B0000103A24BF78C878C1FAD8520777
:1001600024BF30C830C144BF04680C607047000031
:100170000023002400250026103A28BF78C1FBD8B0
:10018000520728BF30C148BF0B6070471FB51FBD65
:1001900010B510BD00F093F81146FFF7F7FF03F01C
:1001A0000BFE00F0B1F803B4FFF7F2FF03BC00F060
:1001B000B5F8000002480349034A044B70470000A9
:1001C00030190020301D0020301B0020301B002083
:1001D00072B606B42E490A7802F101020A7006BC12
:1001E000704706B42A490A78A2F101020A704FF05A
:1001F0000001002A81F3108806BC7047254C264D6B
:1002000025604FF0000484F30988244C4FF0010569
:100210002570234C4FF08055256062B6FEE730B460
:100220001F4C4FF08055256030BC704730B41C4CDB
:100230004FF08055256030BC704700BFEFF310834E
:1002400072B6EFF3098030B1A0F1200080E8F00F22
:10025000144C2468206000B5134880475DF804EB17
:10026000124C134D2E7826700E4C124E36682660B6
:10027000306890E8F00F00F1200080F309884EF01C
:10028000040E83F31088704700BF72B670470000F9
:100290007400002020ED00E00000FFFF7C00002043
:1002A00004ED00E08C000020711700087A000020A7
:1002B0007B0000209400002070477047704775460F
:1002C00000F028F8AE4605006946534620F00700C6
:1002D000854618B020B5FFF76DFFBDE820404FF010
:1002E00000064FF000074FF000084FF0000B21F020
:1002F0000701AC46ACE8C009ACE8C009ACE8C009ED
:10030000ACE8C0098D4670470446AFF30080204634
:10031000FFF749FF00487047D01800200149182016
:10032000ABBEFEE72600020070470029816802D0BC
:1003300041F0010101E021F00101816070470029D5
:10034000816802D041F4807102E04FF6FF621140F3
:1003500081607047014600208968490700D5012067
:100360007047014600208968090700D501207047C1
:100370007047000010B542680E4B0C791A400B68AC
:1003800042EA04221343436082680B4B1A40D1E9CE
:10039000024323434C7942EA440213438360C26A16
:1003A000097C22F47002491EC9B242EA0151C162BD
:1003B00010BD0000FFFEF0FFFDF7F1FF70B507264E
:1003C00009290AD9C568A1F10A0404EB4404A6402E
:1003D000B543A3401D43C56007E0056901EB410437
:1003E000A640B543A3401D4305611F23072A09D238
:1003F000446B521E02EB820293409C4391400C439B
:10040000446370BD0D2A09D2046BD21F02EB820235
:1004100093409C4391400C43046370BDC46A0D3A01
:1004200002EB820293409C4391400C43C46270BD36
:10043000816841F00801816070470029816802D01D
:1004400041F4A00101E021F4A001816070478168BE
:1004500041F0040181607047010900F00F0001EBD9
:10046000810100EB4100C0B2704770477047000047
:100470002DE9F84FFF20ADF8000000258DF803505E
:1004800003248DF802406946604800F00DFB3F20D0
:10049000ADF800008DF803508DF8024069465C48C5
:1004A00000F002FBADF800408DF803508DF80240DB
:1004B0006946584800F0F8FA4FF48070ADF8000033
:1004C00014268DF803608DF802406946524800F00A
:1004D000EBFA4FF4004AADF800A08DF803608DF8F8
:1004E000024069464B4800F0DFFA4FF48049ADF80E
:1004F00000908DF803608DF802406946454800F091
:10050000D3FA4FF40065ADF8005010208DF80300C9
:10051000DFF808B18DF802406946584600F0C4FA89
:1005200000222946584600F030FB0425ADF8005063
:100530008DF803608DF802406946584600F0B4FA21
:100540006003ADF800008DF803508DF80240694655
:10055000584600F0A9FAE801ADF8000048278DF8E8
:1005600003704FF001088DF8028069462A4800F0B8
:100570009BFAADF800908DF803708DF80280694603
:10058000254800F091FA0220ADF800008DF80350E4
:100590008DF802406946204800F086FAA802ADF8BE
:1005A00000008DF803508DF802406946584600F06F
:1005B0007BFA2003ADF800008DF803508DF802405F
:1005C0006946144800F070FAADF800A08DF8036099
:1005D0008DF8024069460F4800F066FA2020ADF819
:1005E00000008DF803508DF802406946094800F07C
:1005F0005BFA8020ADF800008DF803508DF80240C2
:100600006946054800F050FABDE8F88F000801403F
:1006100000100140000C014000180140001401408E
:10062000F8B50820ADF800000324224E8DF80240F2
:1006300014258DF803506946304600F035FA200243
:10064000ADF800008DF802408DF803506946304641
:1006500000F02AFA0120ADF800008DF802401025C4
:100660008DF803506946304600F01EFAE002ADF8FE
:1006700000008DF80240104C8DF80350694620466A
:1006800000F012FA01221103204600F07EFA012246
:100690001146304600F079FA0122D102204600F0DE
:1006A00074FA0121022003F0A1FC03F0BFFA03F069
:1006B000DBFAF8BD00140140001001407047000053
:1006C00010B5202000F028F8BDE8104000210148B6
:1006D00000F028B81C00024010B54FF4007000F084
:1006E0001BF8BDE810400021014800F01BB80000D5
:1006F0003000024010B54FF4005000F00DF8BDE896
:1007000010400021014800F00DB8000044000240F4
:10071000704770477047000001494860704700000B
:10072000000002400029016802D041F0010101E00F
:1007300021F001010160704700B502460021FFF77A
:10074000F1FF0020106050609060D060184B184896
:10075000D11A44389A421ED00ADC1649511812D0D8
:10076000142914D028290DD1416841F4706108E0A2
:10077000142914D0282916D03C2903D1416841F00E
:100780007061416000BD416841F00F01F9E74168C7
:1007900041F0F001F5E7416841F47041F1E741684B
:1007A00041F47021EDE7416841F47001E9E7000090
:1007B00044000240F8FFFDBF30B5026847F6F07311
:1007C0009A430C6A8B682343D1E904452C432343A5
:1007D0008C692343CC6923434C6A23438C6A2343AB
:1007E00013430360CA6842600A6882604968C16056
:1007F00030BD000010B50446062000F03BFB00F0C1
:100800000700FFF729FE401CE070042000F032FBD7
:1008100000F03F00FFF720FEA070032000F02AFB4D
:1008200000F07F00FFF718FE6070022000F022FB4E
:1008300000F07F00FFF710FE2070A078182802D289
:1008400060783C2806D30448017AA170417A61702F
:10085000C079E07010BD0000C0170020002101E049
:10086000491C89B28142FBD30020401C80B2C828B9
:10087000FBD3704710B5FFF7ABFC05480178491C66
:100880000170FFF7AEFCBDE8104000F011BE0000A3
:100890007800002010B5FFF79BFC0D490878401C3C
:1008A0000870FFF79EFC4FF48044204600F056F895
:1008B00050B1204600F04CF8FFF78AFC054841682B
:1008C000491C4160FFF78DFCBDE8104000F0F0BD11
:1008D000780000200400002010B5FFF779FC0548DF
:1008E0000178491C0170FFF77CFCBDE8104000F066
:1008F000DFBD00007800002070477047704700009F
:1009000010B5FFF765FC0D490878401C0870FFF72B
:1009100068FC4FF40074204600F020F850B12046E7
:1009200000F016F8FFF754FC05488168491C816007
:10093000FFF757FCBDE8104000F0BABD780000207A
:1009400004000020014908607047000014040140C1
:10095000014908607047000014040140064A01463E
:1009600000201268044B0A4014331B680B4202D06B
:10097000002A00D0012070470004014030B5144C1B
:10098000017985790B1902681968F5B11143104A8C
:10099000196008321168036899431160131D1968C2
:1009A0000568A94319604179102905D021440068E0
:1009B0000A6802430A6030BD11680468214311606F
:1009C000196800680143196030BD9143FBE70000DE
:1009D000000401407047000004490A6822F0100238
:1009E0000A600A6802430A60704700000020024063
:1009F00004490A6802F038020A600A6802430A6081
:100A000070470000002002401B4A10B5811A1315E0
:100A1000904222D00BDC1949401817D098422AD1B5
:100A20000121082001F0D4F8002108200AE09942B1
:100A30001AD0B1F5006F1ED10121402001F0C8F895
:100A400000214020BDE8104001F0C2B8012104207F
:100A500001F0BEF800210420F4E70121102001F08C
:100A6000B7F800211020EDE70121202001F0B0F8B7
:100A700000212020E6E710BD0010014000F8FEBF75
:100A800010B58A0721F003040649120F21440F23F1
:100A90008C6893409C438C608B68904003438B60D0
:100AA00010BD000000000140F0B5CC78002204F039
:100AB0000F03E40601D58C7823430C784FF00F0C1C
:100AC0004FF0010ED4B105680E880EFA02F42640EC
:100AD000A6420FD196000CFA06F725EA070703FA9B
:100AE00006F5CE783D43282E00D14461CE78482EBD
:100AF00000D10461521C082AE6D305600A88FF2A47
:100B00001CD94468002202F108060EFA06F50E8888
:100B10002E40AE420ED196000CFA06F7BC4303FA03
:100B200006F7CE783C43282E00D14561CE78482E7A
:100B300000D10561521C082AE5D34460F0BD0000D5
:100B400070B50D4E7268C0F3034583B2840202D5BE
:100B500022F0E06207E0C40204D5032404FA05F49D
:100B6000A24300E09A4329B1800202D542EA03423F
:100B700000E01A43726070BD000001400246002090
:100B800092680A4200D0012070471AB102690A43F4
:100B90000261704742690A4342617047704770477B
:100BA0007047704710B50122D1030A48FFF7EDFFE7
:100BB00000F044FA084C012240212046FFF7E5FFEF
:100BC0000220FFF74BFE20460022BDE810404021E6
:100BD000FFF7DBBF001401400010014070B500F0CA
:100BE0002DFA114D4FF40044002221462846FFF70C
:100BF000CCFF0220FFF732FE0C4E0022402130468F
:100C0000FFF7C3FF0220FFF729FE012221462846F5
:100C1000FFF7BBFF0220FFF721FE3046BDE8704022
:100C200001224021FFF7B1BF001401400010014034
:100C30002DE9F041054600F001FADFF84C80134F32
:100C400000244FF40046002231463846FFF79DFF4E
:100C5000E80701D0012200E0002240214046FFF7D2
:100C600094FF0320FFF7FAFD6D0801223146384654
:100C7000FFF78BFF0320FFF7F1FD641CE4B2082CA3
:100C8000E1D3BDE8F08100000010014000140140F4
:100C90002DE9F0470546082400F0F6F90F4F4FF014
:100CA00010080826A7F1040910E000F06DF82806E6
:100CB000404602D5C9F8000000E038606806050E1D
:100CC00000F062F8C9F8006000F05EF82000A4F1BE
:100CD0000104E4B23E60E8D1BDE8F0871418014099
:100CE00070B500F0D1F909481024046008260660A8
:100CF00000F04AF8054D2D1D2C6000F045F82C60E1
:100D000000F042F82E60012070BD00001018014074
:100D100070B500F0B9F9094D08242C6000F034F8E2
:100D200010262E6000F030F82D1F2C6000F02CF8FB
:100D30002E60BDE8704000F027B800001418014094
:100D400070B5002400F08CF90E4E1020306000F0D9
:100D50001BF80825356000F017F80A4A083A09E040
:100D6000641CE0B2411CCCB2FA2803D9FFF7D0FFD3
:100D7000002070BD1068C006F2D40248001D056056
:100D8000012070BD1018014008B50A200090401ED7
:100D90000090FCD108BD00002DE9F041144F002463
:100DA0004FF40046224631463846FFF7EEFE00F08B
:100DB00033F94FF4FA65DFF83C8003E0641CA4B219
:100DC000AC4205D840214046FFF7D8FE0028F5D1B7
:100DD000012231463846FFF7D8FE0520FFF73EFDD9
:100DE00031463846BDE8F0410022FFF7CEBE000094
:100DF000001401400010014070B5084C00256560EA
:100E000001F07CF82560022001F074FF0120606091
:100E1000022001F06FFF656070BD0000AC0121424F
:100E200070B5084C0025656001F068F80122226069
:100E3000022001F05FFF6260022001F05BFF65604D
:100E400070BD0000AC01214208B54FF4C050ADF8B0
:100E5000000003208DF8020014208DF8030069467D
:100E60000348FFF721FE0021084600F0BDF808BD49
:100E70000008014010B5044600F068F8A22000F018
:100E800041F800F08FF8204600F03CF800F08AF8B6
:100E900000F05CF8A32000F035F800F083F80020A3
:100EA00000F006F8044600F065F8204610BD00008A
:100EB0002DE9F0410546002401F00EF80022104B08
:100EC00016460127C3F8B061022001F013FFC3F8F2
:100ED000B0716006040ED3F82C0108B1641CE4B2B2
:100EE000012001F007FF521CD2B2082AEAD325B133
:100EF000FFF782FF2046BDE8F081FFF791FFF9E799
:100F00000000214270B5044600F0F8FF0E4B0025AA
:100F1000C3F8B0512A460126E009C3F8AC016006C7
:100F2000040E022001F0E6FEC3F8B061022001F0D9
:100F3000E1FEC3F8B051022001F0DCFE521CD2B237
:100F4000082AE9D370BD00000000214210B500F06E
:100F5000D5FF074A012010605060042001F0CAFE4E
:100F600000231360042001F0C5FE536010BD000093
:100F7000AC01214210B500F0C1FF094A00205060C9
:100F80001060042001F0B6FE01235360042001F03C
:100F9000B1FE1360BDE81040042001F0ABBE0000BC
:100FA000AC01214210B5002400F096FF0D4A012348
:100FB000C2F8AC31184601F09DFEC2F8B0310120F4
:100FC00001F098FE07E0641CE4B2FA2C03D9FFF7A5
:100FD000D1FF012010BDD2F82C010028F3D1C2F8B6
:100FE000B00110BD0000214270B50D460446FFF768
:100FF000ADFFA220FFF786FFFFF7D4FF2046FFF7E3
:1010000081FFFFF7CFFF2846FFF77CFFFFF7CAFFFE
:10101000BDE87040FFF7AEBF08B54020ADF8000056
:1010200004208DF8030003208DF802006946024871
:10103000FFF73AFD08BD00000010014008B5402050
:10104000ADF8000010208DF8030003208DF8020099
:1010500069460248FFF728FD08BD00000010014066
:1010600008B51020ADF8000004208DF8030003201F
:101070008DF8020069460348FFF716FDFFF784FE6E
:1010800008BD00000018014008B51020ADF80000B0
:1010900014208DF8030003208DF8020069460348F0
:1010A000FFF702FDFFF770FE08BD000000180140C9
:1010B000F8B5C020ADF800001824144E8DF8034098
:1010C00003258DF8025069463046FFF7EDFC6001BC
:1010D000ADF800008DF803408DF8025069463046A7
:1010E000FFF7E2FC03F09CFA7415ADF80040102005
:1010F000074D8DF8030069462846FFF7D5FC00220E
:1011000021462846FFF741FDF8BD0000000C0140D4
:1011100000100140FEB5234E7F25304601F034FA21
:10112000B0150021ADF80400ADF80810ADF80610B8
:10113000ADF80A1001A9304601F0AEFB01221621DC
:10114000304601F07AFB502400222B4611463046EF
:10115000009401F053FB2B460122002130460094FD
:1011600001F04CFB2B46022200213046009401F096
:1011700045FB2B46032200213046009401F03EFB44
:101180000021304601F0B9FA0021304601F0BCFAE6
:101190000121304601F0E4F90121304601F0E8F97F
:1011A000FEBD000000080040F8B500214FF00060CF
:1011B00000F0C6F84FF4A06000F0B8F825208DF8D4
:1011C000000002258DF8015003268DF80260684664
:1011D00000F06EF80C208DF800008DF8015004200E
:1011E0008DF8020001248DF80340684600F060F895
:1011F00017208DF800008DF801508DF802508DF801
:101200000340684600F054F828208DF800008DF85F
:1012100001508DF802408DF80340684600F048F810
:1012200007208DF800008DF801608DF802508DF8D0
:101230000340684600F03CF81B208DF800008DF854
:1012400001408DF802508DF80340684600F030F8F8
:101250001C208DF800008DF801408DF802408DF8BB
:101260000340684600F024F803220121044800F0FE
:1012700071F8002003F050FA012003F04DFAF8BD98
:101280009AC3020008490020431E0B605A0D4A60B1
:10129000C1F80031C1F80421044A014642F8201087
:1012A000401C0B28FAD3704780E100E000E400E026
:1012B000F0B50F24C278017801264FF0E0273AB349
:1012C000184A1268457802F4E062C2F5E062120A38
:1012D000C2F10403D44082789D4022402A43130186
:1012E0008A0721F00304D20E0F49934065182C6839
:1012F000FF2191408C430B401C432C60007800F090
:101300001F018E40400907EB8000C0F80061F0BD6E
:1013100001F01F008640480907EB8000C0F880619B
:10132000F0BD00000CED00E000E400E002490843DD
:1013300002490860704700000000FA050CED00E06B
:10134000024A1140014302480160704780FFFF1FBD
:1013500008ED00E030B5114BFF251B6803F4E06396
:10136000C3F5E0631B0ADD40C3F10404A1402A4039
:101370000A431101032202EA9012C0F30120C000C7
:101380008140FF23834005480C3000EB8200026857
:101390009A43026002680A43026030BD0CED00E02F
:1013A0007047000030B587B000F080F8364B00245D
:1013B0009C621C705C705C711C719C601C61334988
:1013C000DC802046401CC0B221F8024B0528F9D32E
:1013D0009C70DC70DC6140F2E4612D485C6100F0DF
:1013E0006EFA2A484FF48271D43000F068FA284827
:1013F000002200F154013F25416180F8445080F8FB
:101400004540521C54305431D2B2142AF4D34461B2
:1014100080F8445080F845401D481C6298614FF4A4
:101420003471A0F5956000F04AFA1A48002200F1E4
:10143000180104704160521C1830183192B21D2AF4
:10144000F7D3047044601348D86000F041FA3221A9
:1014500002910320CDE903400C4A4FF6FF700C3295
:10146000CDE900024023C43200210B4800F082F88D
:1014700005AA0AA1402000F0D1F800F018F807B042
:10148000BDE83040FFF78CBF78000020A8060020A0
:1014900080080020D8030020B11A000875432F4FA0
:1014A000532D49492049646C65000000704770471E
:1014B00010B5134C2079012820D1FEF789FE207841
:1014C00020B1401E10F0FF00207013D1607888B961
:1014D00000F042FAE078A17888420BD0094951F82F
:1014E0002000E061016B491C0163A068401CA06002
:1014F000FEF79CFEBDE81040FEF773BE10BD000075
:10150000780000207C07002070B50C4D0646287836
:1015100008B1002070BDFEF75BFEEC680CB160689E
:10152000E860FEF75EFE3CB10320207026810020BB
:101530006060204600F0B8F9204670BD78000020B9
:1015400010B5094C207900280CD100F005FAE0789C
:101550000649A07051F82000E0616061BDE81040CC
:10156000FEF74CBE10BD0000780000207C07002074
:10157000704700002DE9FF4F83B01C46DDE913954D
:10158000DDE911A89346FEF723FE1E4F387828B1F7
:10159000FEF727FE102007B0BDE8F08F1A4E56F870
:1015A000240018B1FEF71DFE2820F4E7012046F8BC
:1015B0002400FEF716FE2A464146504600F086FA01
:1015C000DDE903012B465A4600F056F8CDF80080BD
:1015D000CDE90195014652462046109B00F0FEF9E8
:1015E000050008D0FEF7F4FD002046F82400FEF7C1
:1015F000F8FD2846CFE738790128FAD100F08AF9BA
:10160000F7E70000780000207C070020704700000A
:1016100001490120086070470000002070B51446A1
:101620000E460546FEF7D4FDFF2D03D11048406954
:1016300090F828500F4850F825300B2553B1012B56
:1016400008D0304600F0C0F90F2807D9FEF7C9FDD1
:101650000E200BE0FEF7C5FD257070BD314603F18D
:10166000440000F0A3F9FEF7BCFD0020207070BD1F
:10167000780000207C0700204FF080731360131F58
:101680001860A2F108006FF001030360001F4FF023
:1016900012330360001F4FF003330360001F4FF04D
:1016A00002330360001F5B100360001F0160001F16
:1016B0004FF011310160001F19010160001F4FF050
:1016C00009310160001FD9000160001F4FF0073190
:1016D0000160001F4FF006310160001F4FF005311F
:1016E00001609900001F01607047000070B504465A
:1016F000FEF76EFD1C4BFF2C586905D090F82800B2
:10170000A04204D1012503E090F82840FAE7002523
:10171000164850F8240068B101280FD0134C90F8F7
:101720002A10D43C868D34F81120B24324F81120BD
:1017300008D00BE0FEF755FD5A2070BDFEF751FDB5
:101740000B2070BDC28DD9889143D98010F8261F17
:1017500041F008010170FEF744FD012D01D100F0B8
:10176000D9F8002070BD0000780000207C07002020
:101770007047000070B5040018D0FEF729FD0C4B2F
:101780000C4D596991F82A208E8D35F81200B0431E
:1017900025F8120003D1CA8DD8889043D8808C8454
:1017A000FEF71FFDBDE8704000F0B4B870BD00004A
:1017B00078000020A806002070B54FF47A746343C7
:1017C000B3FBF4F34FF461646043C1EB011100EB30
:1017D0008100104400EB4001C1EBC01003EBC000DE
:1017E000040C80B2FFF7C6FF4FF4004507E028461F
:1017F000FFF7C0FF2846FFF7BDFF641EA4B2002C10
:10180000F5D1002070BD000010B5FEF7E1FC0348E3
:10181000846AFEF7E6FC204610BD00007800002038
:1018200070B5FEF7D5FC1E4DA86A401CA862FEF7F5
:10183000D8FC2879012831D12C6A2BE0FEF7C8FCAE
:10184000A08C20B3A0F101000004000CA0841ED1E4
:1018500094F8260010F0370F05D020F0370084F8F8
:101860002600012000E0002084F8270094F82600DC
:1018700000070CD4E08DE9880843E88094F82A003A
:101880000849A38D31F810201A4321F8102064690B
:10189000FEF7A7FC94F828004028CFD170BD0000C7
:1018A00078000020A8060020002242810C3011465A
:1018B000491CC9B220F8022B0529F9D37047002230
:1018C00003E0491E00F8012B89B20029F9D17047C5
:1018D00030B54FF434710D48FFF7F1FF0B4800218C
:1018E0000B4604463F2501EBC10204EB8202243281
:1018F000426005754375491C243089B21329F2D31F
:101900004360057543750248446230BD640F002092
:101910007800002010B5FEF75BFC0D4C207898B9DC
:10192000607888B900F018F8E078A17888420BD088
:10193000084951F82000E061016B491C0163A0686F
:10194000401CA060FEF76BFCBDE81040FEF749BCF0
:10195000780000207C070020114B10B5D888114A70
:1019600010F0FF0F02D0C0B2105C04E002EB1020B8
:1019700000780830C0B20C4931F8101011F0FF0F98
:1019800004D0C9B2515C01EB001006E002EB11215A
:101990000822097802EB00100844D87010BD00003E
:1019A00078000020E84A0008A8060020002204E091
:1019B000491C521C00F8013BD2B20B78002BF7D126
:1019C00000210170104670470146002002E0491CCA
:1019D000401CC0B20A78002AF9D170472DE9F05FA7
:1019E0009846DDE90ABA91460D460646FEF7F0FB39
:1019F0002D4FBC69002C52D00C34A068B861FEF7A2
:101A0000F0FB44F80C5C26770025A576E576258367
:101A1000C4F800B044E902A90C98A080A4F806809C
:101A20003009A077012101FA00F0608406F00F0070
:101A3000607781402184256165616562E562A56208
:101A400025633F20656384F8380084F839500C3CE6
:101A50002046FFF78DFD2046FFF7D8FDFEF7B8FBC7
:101A6000124840F82640386AC4E9050500B184618F
:101A70003C62E08DF9880843F8800C4994F82A000C
:101A8000D439A38D31F810201A4321F81020787929
:101A9000401C7871FEF7A5FB0020BDE8F09FFEF723
:101AA000A0FB4620F9E70000780000207C0700201A
:101AB000054CFEF78DFB2069401C2061FEF791FB71
:101AC000FFF7A6FDF5E7000078000020D30707D058
:101AD000920705D50022002902D004C0491EFAE76A
:101AE000704770472DE9F0410C460026898807466B
:101AF000012501B90226E288012A00D10225608869
:101B0000A37A0028384611D000F0CAFA2189384655
:101B100000F0A5FEA37A2A463146384600F091FA35
:101B200021893846BDE8F04100F092BE00F089FA04
:101B30002189384600F08CFEA37A2A463146384681
:101B400000F0AEFA21893846BDE8F04100F087BECA
:101B5000014908627047000000000E42034A5168C4
:101B600021F44041014351607047000000100240E1
:101B7000044A0029516901D0014300E081435161C9
:101B80007047000000100240044A0029D16901D0CA
:101B9000014300E08143D161704700000010024022
:101BA000044A0029116901D0014300E08143116119
:101BB0007047000000100240044A0029916901D0DA
:101BC000014300E081439161704700000010024032
:101BD000044A0029D16801D0014300E08143D1606B
:101BE000704700000010024010B500F079F84FF483
:101BF0008034204600F00CF900F054F933490128F4
:101C0000087025D11020FEF7E7FE0220FEF7F0FE57
:101C1000002000F0F3F8002000F020F9A01100F0FF
:101C200013F96010FFF79AFF4FF4E011204600F01F
:101C300025F9012000F01CF9392000F0BFF8002838
:101C4000FAD0022000F024F900F0D0F80828FBD1E7
:101C500001217C20FFF7B0FF01210846FFF7ACFF10
:101C600001210520FFF7A8FF01211948FEF768FFB1
:101C700001210846FFF77CFF01214802FFF79CFF86
:101C800001210420FFF780FF01210220FFF77CFFE4
:101C900001211048FEF754FF01210846FFF774FFA9
:101CA0000121C802FFF788FF01210B48FEF748FF1A
:101CB00001210A48FEF744FF01214FF0C050FFF711
:101CC00063FFBDE810400120FFF742BF680000201D
:101CD0000004300000031800C0001600000C1A00B9
:101CE0000E480021C1600161142242618161C1611D
:101CF000026842F0010202604268094B1A404260E9
:101D00000268084B1A400260026822F480220260D6
:101D1000426822F4FE024260816070470010024077
:101D20000000FFF8FFFFF6FE30B5204A5168204B57
:101D300011F00C0103D0042901D0082901D003605F
:101D400011E05168022301F4701103EB91415368D3
:101D500013F4803F02D053689B0301D5154B00E07C
:101D6000134B5943016051680F2303EA1111124BC1
:101D70005C5C0168E14041605468072505EA142471
:101D80001C5D21FA04F48460546805EAD4241B5DC8
:101D9000D940C1605268032303EA9232064B1B1FED
:101DA0009A5CB1FBF2F1016130BD0000001002400D
:101DB00000127A0000093D00C84A000803460020CE
:101DC0005909094A01290AD002290AD0516A03F0A7
:101DD0001F02012393400B4200D00120704711687D
:101DE000F5E7116AF3E7000000100240024840687E
:101DF00000F00C007047000000100240034A5168D8
:101E000021F0F001014351607047000000100240D2
:101E10000B490A6822F480320A600A6822F48022A0
:101E20000A60B0F5803F07D0B0F5802F03D1086875
:101E300040F4A02008607047086840F48030F9E75B
:101E40000010024070470000034A516821F4E0612D
:101E5000014351607047000000100240034A51687E
:101E600021F4605141EAC000506070470010024008
:101E7000014908667047000000004242034B5A685F
:101E8000084322F47C12104358607047001002404F
:101E9000034A516821F0030101435160704700007B
:101EA0000010024010B50A4C3120FFF787FF207068
:101EB0006068401C6060207810B96068FF28F3D12A
:101EC0003120FFF77BFF002800D0012010BD00006B
:101ED0006C0000207047704708B54FF40060ADF803
:101EE000000003208DF8020004208DF803006946ED
:101EF0000148FEF7D9FD08BD0008014008B54FF4C0
:101F00000060ADF8000003208DF8020014208DF869
:101F1000030069460148FEF7C7FD08BD00080140FF
:101F20007047704770B50546FEF73CFE4020FEF74F
:101F30007FFEFEF731FFFEF751FEFEF733FEC020B5
:101F4000FEF776FEFEF728FF00242846FEF770FE17
:101F5000FEF722FF641CE4B2062CF6D3FEF73EFE29
:101F6000FEF720FE8F20FEF763FEFEF715FFBDE8AB
:101F70007040FEF733BE70B50D460446FEF712FE04
:101F80004020FEF755FEFEF707FFFEF727FEFEF79F
:101F900009FEC034E0B2FEF74BFEFEF7FDFE284618
:101FA000FEF746FEFEF7F8FEFEF718FEFEF7FAFD16
:101FB0008F20FEF73DFEFEF7EFFEBDE87040FEF716
:101FC0000DBE000010B5FEF703F906480178491C64
:101FD0000170FEF706F9FFF723FCBDE81040FFF79C
:101FE00067BA0000780000204FF0E021042808695B
:101FF00003D020F004000861704740F00400FAE7C5
:102000004FF0E02130B10128086906D020F001002E
:102010000861704700208861704740F00100F7E7D1
:102020004FF0E0210028086902D040F0020001E0F2
:1020300020F00200086170474FF0E02148617047CE
:102040007047F0B5058B048C068C43F232373E4066
:10205000068442EA0312BB1E4FF60C761C40354044
:102060000C432A43002344F00101038302830184CB
:10207000F0BD000070B5084C2388084D00262E6086
:102080004FF60C76334041EA021119432180291D95
:1020900008600120286070BD182C01400084254292
:1020A000F0B5068B058C4FF6FF7404EA0117018C1E
:1020B00043F2233C01EA0C01018440F6FF410E404B
:1020C00004EA022104EA03333343194343F203329F
:1020D00015403D4345F0100201830284F0BD00002D
:1020E00070B5094C2388094D00262E6040F6FF4646
:1020F0000902334041EA023119432180291D086059
:102100000120286070BD0000182C01401084254279
:102110000149C8617047000000802542802000F01E
:1021200057B8000070B5FEF753F826490878401CF0
:102130000870FEF756F8042000F078F8224C4FF6AD
:10214000FF75A8B1042000F04BF800F063F820619F
:102150002069A16988422069A169A0EB010000D82B
:10216000284420622069A061216A052001F078FBE3
:10217000082000F05BF800B3082000F031F800F010
:102180004FF860616069E16988426069E169A0EBCC
:10219000010000D8284420626069E061216A0B4A8E
:1021A000606A42F82010401C6062802801D3002041
:1021B0006062216A042001F053FBBDE87040FFF724
:1021C00077B900007800002004000020D80100202A
:1021D00002490A8882430A8070470000102C01409F
:1021E00002490A8882430A8070470000102C01408F
:1021F00001490860704700000080254210B50121A8
:10220000CC022046FFF7E4FC2046BDE81040002148
:10221000FFF7DEBC0148008870470000382C014001
:1022200001480088704700003C2C014007490246E5
:1022300000200B88A1F104011342098801EA020180
:1022400002D0002900D0012070470000102C01406E
:102250002DE9F041044603884088A188227AEBB139
:10226000012B22D0204D00270126022B2B8823D0C2
:10227000DFF878C0CCF8007040F6FF4709023B4019
:1022800041EA0231194329800CF104010860CCF8BD
:102290000060E088BDE8F04100F058B8FFF7EAFEC2
:1022A000E088BDE8F04100F02FB8FFF719FFE088A3
:1022B000BDE8F04100F032B8DFF830C0ACF1100CEE
:1022C000CCF800704FF60C773B4041EA02111943FD
:1022D00029800CF104010860CCF80060E088BDE8BA
:1022E000F04100F029B800001C2C01403084254248
:1022F000044A0129118802D08143118070470143AB
:10230000FBE700000C2C0140034A11884FF6F373E1
:102310001940014311807047182C0140054A11886B
:102320004FF2FF3319404FF6FF7303EA00200843D2
:1023300010807047182C0140034A11884FF6F37340
:1023400019400143118070471C2C0140054A118837
:102350004FF2FF3319404FF6FF7303EA00200843A2
:10236000108070471C2C014010B5FDF731FF064866
:102370000178491C0170FDF734FF2020FFF728FF8A
:10238000BDE81040FFF794B8780000200B4A818820
:102390001180121F0188118008492C390A8802F027
:1023A0009F020A80C28843881A430B881A430A8016
:1023B0000249007A091D0880704700002C2C01405A
:1023C00010B5FDF705FF08490878401C0870FDF7B7
:1023D00008FF0120FFF72AFF10B10120FFF7F8FEE8
:1023E000BDE81040FFF764B87800002070B5FDF735
:1023F000EFFE45490878401C0870FDF7F2FE012108
:102400008E07304600F0EFF818B10121304600F099
:10241000ABF80221304600F0E6F83C4C4FF6FF7571
:10242000B8B10221304600F09FF8304600F0D2F8F3
:10243000A062A06AA16B8842A06AA16BA0EB010018
:1024400000D82844A064A06AA063A16C002001F019
:1024500007FA0421304600F0C6F8B8B1042130462E
:1024600000F082F8304600F0B7F8E062E06AE16B15
:102470008842E06AE16BA0EB010000D82844A06428
:10248000E06AE063A16C012001F0EAF9082130461E
:1024900000F0A9F8B8B10821304600F065F83046E0
:1024A00000F09CF82063206B216C8842206B216C2B
:1024B000A0EB010000D82844A064206B2064A16C2C
:1024C000022001F0CDF91021304600F08CF8B8B1AF
:1024D0001021304600F048F8304600F081F8606383
:1024E000606B616C8842606B616CA0EB010000D88E
:1024F0002844A064606B6064A16C032001F0B0F913
:10250000BDE87040FEF7D4BF780000200400002032
:102510007047000010B5FDF75BFE0A490878401CC3
:102520000870FDF75EFE084C1021204600F05BF8B5
:1025300018B11021204600F017F8BDE81040FEF752
:10254000B7BF00007800002000080040028811B1E9
:1025500042F0800202E040F27F310A400280704780
:10256000028A8A4302827047028A8A430282704743
:102570000029018802D041F0010102E040F2FE3260
:10258000114001807047000010B5B0F1804F0FD0AE
:102590000F49401813D0B0F5806F17D101210420E6
:1025A000FFF7FEFA00210420BDE81040FFF7F8BA5B
:1025B00001210846FFF7F4FA00210120F4E7012188
:1025C0000220FFF7EDFA00210220EDE710BD000028
:1025D00000FCFFBF808E7047008F7047808F704770
:1025E000B0F84000704702460020138A92890B42DF
:1025F00002EA010202D0002A00D0012070472DE932
:10260000F041054608880C46072804D02846BDE856
:10261000F041FFF767BA608838B3012831D04FF630
:10262000FF73022839D02779A679A27AA98B288C42
:1026300003EA07332F8C42F2333C07EA0C072F845E
:1026400040F6FF473602394046EA02320A4340F27A
:1026500033310840184340F48050AA8328842189EC
:102660002846BDE8F04100F00CB9A37AE288A188C1
:102670002846FFF7E6FC21892846BDE8F04100F036
:10268000E7B8A37AE288A1882846FFF709FD2189E7
:102690002846BDE8F04100F0E2B82679E788A27A42
:1026A000A98B288C03EA06232E8C43F2332C06EAEE
:1026B0000C062E844FF60C76314047EA02120A438C
:1026C00043F233010840184340F48070AA83288401
:1026D00021892846BDE8F04100F0CCB8002A828963
:1026E00001D00A4300E08A4382817047028B4FF693
:1026F000F7731A400A4302837047828B4FF6F773D1
:102700001A400A4382837047828B4FF2FF731A404C
:102710004FF6FF7303EA01211143818370470000E4
:1027200070B5038C344C4A8804F1080632B1012A92
:1027300004D0022A2FD0032A2DD049E0058B34F88B
:1027400012402C4036F812501D40002A028C11D045
:1027500043F223331A4002840A888B8844EA022217
:1027600003870B8903B11023C9882B4343EA011364
:1027700002832DE043F232331A4002840A888B88A8
:10278000224383860B890BB1012400E00024CB880F
:102790002C432343ECE7858B34F812402C4036F869
:1027A00012501D40022A028C14D042F233331A40D8
:1027B00002840A888B8844EA0222A0F840300B8900
:1027C0000BB14FF48053C9882B4343EA0133828312
:1027D000038470BD43F233231A4002840A888B8835
:1027E000224383870B890BB14FF48073C9882B4335
:1027F00043EA0123EBE70000D84A00083EB501296F
:10280000069C06D00021ADF80810FF2B05D9FE2349
:1028100006E095000121A940F5E7052B00D205232C
:10282000ADF804300221ADF80220ADF80610ADF885
:1028300000406946FFF774FF3EBD0185818A012A89
:1028400003D001F001018182704741F00101FAE7F4
:10285000028B4FF6F3731A400A4302837047028BD0
:102860004FF2FF331A404FF6FF7303EA0121114381
:1028700001837047828B4FF6F3731A400A438283B9
:102880007047828B4FF2FF331A404FF6FF7303EA13
:1028900001211143818370470A8882854A88028515
:1028A000028802F08F0202808A88C9880A43018860
:1028B0000A4302807047000010B5FFF795F9FEF754
:1028C000E1FCFEF771FC0848FEF79EF80748FEF7AA
:1028D0009BF80748FEF798F80648FEF795F8BDE81C
:1028E00010400548FEF790B800080140000C014078
:1028F00000100140001401400018014010B50420F0
:10290000FFF772FB0548FFF797FB0120FFF788FBF5
:10291000BDE810400120FFF773BB0000683C0100D8
:1029200030B5012187B08803FFF746F94FF40074F2
:10293000ADF8184003208DF81A0018201C4D8DF8B2
:102940001B0006A92846FEF7AFF86100ADF8181085
:1029500004218DF81B1006A92846FEF7A5F84FF4B0
:10296000E130009000200C21ADF81000ADF80C1003
:10297000ADF81240ADF80400ADF808000D4CADF80C
:102980000600ADF80A00ADF80E00ADF81400694677
:10299000204600F0A7F8012240F22551204600F021
:1029A00089F80121204600F055F807B030BD00003D
:1029B00000080140003801402DE9F041FDF708FC16
:1029C00015490878401C0870FDF70BFC134F40F2C6
:1029D00025563146384600F04EF8C0B1384600F072
:1029E000CFF80F4D0146EC1E20782954401C207072
:1029F0003146384600F027F800223146384600F0CC
:102A000059F800202070012060702878A070BDE87F
:102A1000F041FEF74DBD0000780000200038014075
:102A20000700002010B5FDF7D3FB05480178491CCD
:102A30000170FDF7D6FBBDE81040FEF739BD000080
:102A4000780000207047090A01228A4001889143DA
:102A5000018070470029818902D041F4005101E0D2
:102A600021F40051818170470246002012880A42F9
:102A700000D00120704770B501F01F050126002429
:102A8000C1F3421306FA05F2012B0FD0022B0FD02F
:102A9000838A4FEA11210088134206FA01F600EA00
:102AA000060001D000B10124204670BD8389F0E703
:102AB000038AEEE710B5C1F3421301F01F040121B0
:102AC000A140012B07D0022B07D01430002A026846
:102AD00005D00A4304E00C30F8E71030F6E78A43EB
:102AE000026010BD30B50C46018A85B005464CF237
:102AF000FF000140E088E289638A1043228A1A437A
:102B00001043A28A104308432882A9894EF6F31085
:102B10000140A08822891043A2890A431043A8815A
:102B2000A88A4FF6FF41084061890143A98268469F
:102B3000FFF7FAF81148854201D1039800E00298A6
:102B4000642200EBC00101EB001021686FF0180453
:102B50008900B0FBF1F0B0FBF2F109010B0963430E
:102B600000EB8300322303EB0010B0FBF2F000F027
:102B70000F000843288105B030BD00000038014037
:102B80008088C0F30800704710B509788180044C34
:102B900080212046FFF768FF0028F9D010BD000013
:102BA00000380140704770477047704770B5002685
:102BB000354640F6FF74334600EB410000EB43110D
:102BC00031F8022C954200D21546944200D91446A1
:102BD0005B1C9BB216440C2BF0D3701B001B0A210C
:102BE000B0FBF1F080B270BD7047704770470000D5
:102BF00010B50020FEF788FC0149086010BD0000F8
:102C0000A40000202DE9F04186B060271C48CDE9E2
:102C100001070720002600900325CDE90365034640
:102C2000184A31461848FEF7A5FC044617A001F0E3
:102C30006FFADFF8688005E000220A23114610468B
:102C4000FEF7BAFD98F800000028F5D01CB1214627
:102C500013A001F05DFA0B48174A001DCDE90107EA
:102C600010200090CDE90365034600211348FEF7CC
:102C700081FC06B012A0BDE8F04101F049BA0000A5
:102C800034130020B014002075370008BFAACABC56
:102C9000C6F4B6AFB2E2CAD4210A0000AC000020EC
:102CA0006372656174652065786974206661696C1A
:102CB0003A0925640000000030160020D52C0008D9
:102CC000B2E2CAD4D2D1BEADC6F4B6AF210A00007A
:102CD00070477047064C05E000220A231146104653
:102CE000FEF76AFD20780028F6D001F0C7FA000050
:102CF000AC00002004E00021491CC9B22829FBD304
:102D0000401EF8D27047000070B5FDF7B1FB00F02F
:102D10009FF9134C002204212046FDF736FF0022C4
:102D20000A2311461046FEF747FD0E4E4FF40045AC
:102D3000002229463046FDF728FF0121002000F03F
:102D400079FE012229463046FDF71FFF00220221AD
:102D50002046FDF71AFFBDE8704003A001F0D8B986
:102D600000140140000C01400A206C617365722060
:102D7000636D6F7320706F77657220656E61626C32
:102D800065200D0A00000000002210B50223114644
:102D90001046FEF711FD0121002000F04BFE00223D
:102DA00004210948FDF7F1FE00220F2311461046C9
:102DB000FEF702FD0549012000220870C103BDE8AD
:102DC00010400348FDF7E1BE00140140A8000020B8
:102DD000000C01402DE9F05F092001F0D5FA002038
:102DE00001F030FBFFF7D0FF61A001F091F969A07D
:102DF00001F08EF901226D4E140221463046FDF796
:102E0000C4FE0022C82311461046FEF7D5FC02215D
:102E10006748FFF7CBFE0FFA80F903216448FFF7FC
:102E2000C5FE0FFA80F804216148FFF7BFFE05B226
:102E300010215F48FFF7BAFE834600222146304644
:102E4000FDF7A3FE0022C82311461046FEF7B4FC8E
:102E500002215748FFF7AAFE07B203215448FFF7A3
:102E6000A5FE06B204215248FFF7A0FE0FFA80FA31
:102E700010214F48FFF79AFE0446B94502DDA9EB41
:102E8000070301E0A7EB09033A46494649A001F0D0
:102E90003FF94046B04502DDA8EB060301E0A6EB92
:102EA0000803014632464EA001F032F9504655451E
:102EB00002DDA5EB0A0301E0AAEB05030246294661
:102EC00052A001F025F95846A34502D9ABEB040303
:102ED00001E0A4EB0B030146224657A001F018F9CC
:102EE0004F4508DCB94502DDA9EB070001E0A7EB7F
:102EF0000900182805DA092001F046FA212001F01E
:102F0000A1FA464508DCB04502DDA8EB060001E069
:102F1000A6EB0800182805DA092001F035FA2C2064
:102F200001F090FAAA4508DC554502DDA5EB0A0040
:102F300001E0AAEB0500182805DA092001F024FABF
:102F4000372001F07FFA5C4508D8A34502D9ABEBE6
:102F5000040001E0A4EB0B00302807DA092001F09F
:102F600013FABDE8F05F162001F06CBABDE8F09FDF
:102F70002D2D2D2D2D2D2D2D2D2D2D2D2D2D2D2D81
:102F80002D2D2D2D2D2D2D2D2D2D2D2D2D2D2D207E
:102F90000D0A0000636C6F73652064726F7020749B
:102FA00078207369676E616C0D0A0000001801409B
:102FB00040160020D7F3B2E0B5F8C2E4A3ACB9D80C
:102FC000B1D53A2025642C20B4F2BFAA3A09256471
:102FD0002C20B2EED6B53A0925640D0A0000000097
:102FE000D6D0BCE4B5F8C2E4A3ACB9D8B1D53A2088
:102FF00025642C20B4F2BFAA3A0925642C20B2EE35
:10300000D6B53A0925640D0A00000000D3D2B2E01B
:10301000B5F8C2E4A3ACB9D8B1D53A2025642C20C8
:10302000B4F2BFAA3A0925642C20B2EED6B53A090B
:1030300025640D0A00000000C7B0C2D60925640946
:103040000925642C20B2EED6B53A0925640A0000A1
:1030500030B5594D91B02846FDF76EFB57480090AA
:1030600057480024CDE90104C020CDE903048020A5
:1030700005904000069080000790202008900002F4
:10308000CDE9090469462846FDF796FB012128464B
:10309000FDF748FB01208DF830008DF831000B94CE
:1030A0004FF46020CDE90D04444C10208DF83C0015
:1030B0004C3C0BA92046FDF75DF9062301220021B7
:1030C0002046FDF77BF90623022201212046FDF769
:1030D00075F90623032202212046FDF76FF9062326
:1030E000042203212046FDF769F906230522042165
:1030F0002046FDF763F906231A4605212046FDF711
:103100005DF90623072219462046FDF757F90623E5
:10311000082207212046FDF751F90623092208213C
:103120002046FDF74BF906230A2209212046FDF728
:1031300045F906230B220A212046FDF73FF9062315
:103140000C220B212046FDF739F906230D220C2114
:103150002046FDF733F906230E220D212046FDF708
:103160002DF906230F220E212046FDF727F906230D
:1031700010220F212046FDF721F901212046FDF7FD
:10318000DEF801212046FDF7D0F82046FDF750F982
:103190002046FDF7E6F80028FAD12046FDF757F95A
:1031A0002046FDF7D7F80028FAD101212046FDF787
:1031B00044F911B030BD0000080002404C24014029
:1031C0004016002038B5044601210948FFF7EEFCFF
:1031D000014608A000F09CFF702001220090FA2315
:1031E00011460C48FFF70AFB8920607238BD0000C9
:1031F0004016002064757374206D6F746F72202CFC
:103200002062617420766F6C203A20092564200DBD
:103210000A0000000004004038B550210446012295
:103220000091C02311460348FFF7E8FA8821617234
:1032300038BD00000004004070B50024082001F0F3
:10324000A3F8002001F0FEF82D48FFF7E5FF0B2161
:103250002C48FFF7ABFC00252B4E0146802809D9EE
:103260002AA000F055FF7576082001F08DF8372070
:1032700001F0E8F80022642311461046FEF79CFA9C
:103280001F48FFF79FFF00224FF4FA7311461046C4
:10329000FEF792FA00221E2311461046FEF78CFA22
:1032A0000B211848FFF782FC0146802808D91CA092
:1032B00000F02EFF7576082001F066F82C201CE047
:1032C00058B900220A2311461046FEF775FA0B2161
:1032D0000C48FFF76BFC010008D0641CE4B2032C1F
:1032E000D8D3BDE870400648FFF796BF11A000F0A4
:1032F0000FFF082001F048F8372001F0A3F8F0E7AD
:10330000D41700204016002094180020CEFCB7E708
:103310003A0909C9CFB5E7D7D4D7AA3A256400003E
:10332000CEFCB7E73A0909B5E7C1F7B9FDC1F73AED
:1033300025640000CEFCB7E73A0909B5E7C1F7BC40
:10334000ECB2E2CAA7B0DCA3ACD5FDB3A3D6B530CE
:10335000783330D7F3D3D2A3ACBCECB2E2B5BD3AEC
:10336000256400002DE9FC5F0A2001F00DF8002023
:1033700001F068F874A000F0CBFE7BA000F0C8FE5E
:103380000122844D940321462846FDF7FEFB0022CE
:10339000322311461046FEF70FFA05217E48FFF74B
:1033A00005FC82460F217C48FFF700FC00900A21B3
:1033B0007948FFF7FBFB814607217748FFF7F6FBCB
:1033C000019008217448FFF7F1FB83460022214653
:1033D0002846FDF7DAFB0022322311461046FEF79D
:1033E000EBF905216C48FFF7E1FB80460F216A48A5
:1033F000FFF7DCFB06460A216748FFF7D7FB0546C7
:1034000007216548FFF7D2FB074608216248FFF70E
:10341000CDFB0446C24502D9AAEB080301E0A8EBA4
:103420000A03424651465DA000F072FE5846A3458D
:1034300002D9ABEB040301E0A4EB0B0301462246E7
:103440005CA000F065FE0198B84201D9C31B00E002
:103450003B1A01463A465DA000F05AFE0098B04281
:1034600001D9831B00E0331A014632465EA000F00A
:103470004FFE4846A94502D9A9EB050301E0A5EB9B
:10348000090301462A465FA000F042FE2EA000F08C
:103490003FFED04508D8C24502D9AAEB080001E09A
:1034A000A8EB0A00402805DA0A2000F06DFF0B2087
:1034B00000F0C8FF0198874206D8B84201D9C01B66
:1034C00000E0381A402805DA0A2000F05DFF1620D7
:1034D00000F0B8FF5C4508D8A34502D9ABEB040067
:1034E00001E0A4EB0B00402805DA0A2000F04CFFB5
:1034F000212000F0A7FF0098864206D8B04201D9EB
:10350000801B00E0301A402805DA0A2000F03CFF5A
:103510002C2000F097FF4D4508D8A94502D9A9EB0A
:10352000050001E0A5EB0900402805DA0A2000F0BB
:103530002BFF372000F086FF39A000F0E9FDBDE841
:10354000FC5F42A000F0E4BD2D2D2D2D2D2D2D2D45
:103550002D2D2D2D2D2D2D2D2D2D2D2D2D2D2D2D9B
:103560002D2D2D2D2D2D2D00CBAEC6BDBAECCDE2CF
:10357000D3D0D5DAB5B2B2E2CAD4A3ACC7EBB1A30B
:10358000B3D6CBAEC6BDCCF5C7B0D3D0D5DAB5B2C5
:1035900000000000000C014040160020CBAEC6BD6C
:1035A000D7F3092564090925642C20B2EED6B53A73
:1035B00009256400CBAEC6BDD6D00925640909250E
:1035C000642C20B2EED6B53A09256400CBAEC6BD58
:1035D000D6D0D7F3202564200925642C20B2EED65E
:1035E000B53A092564000000CBAEC6BDD6D0D3D213
:1035F000202564200925642C20B2EED6B53A092591
:1036000064000000CBAEC6BDD3D2092564090925EC
:10361000642C20B2EED6B53A0925640A00000000F9
:103620002D2D2D2D2D2D2D2D2D2D2D2D2D2D2D2DCA
:103630002D2D2D2D2D2D2D2D2D2D2D2D2D2D2D2DBA
:103640002D2D2D2D2D2D2D2D2D2D0000B2E2CAD486
:10365000BDE1CAF80000000038B50420ADF8000054
:1036600003248DF802404820114D8DF8030069466F
:103670002846FDF719FA012204212846FDF785FAAC
:103680001821ADF800108DF8024014208DF80300C9
:1036900069462846FDF708FA012208212846FDF769
:1036A00074FA012210212846FDF76FFA38BD000098
:1036B000001801402DE9F0411D4616460C4607460C
:1036C000FDF70EFB002819D07806000EFDF7E0FA92
:1036D000FDF736FBA0B12046FDF7DAFAFDF730FB27
:1036E000002406E0285DFDF7D3FAFDF729FB38B189
:1036F000641CB442F6DBFDF70BFB0120BDE8F08152
:10370000FDF706FB0020F9E710B5FFF7D3FF08B17E
:10371000002010BDFF2010BDFFF702F9FFF772FA7D
:10372000FFF7D7FAFFF764FAFFF75FFAFFF75CFAE3
:10373000FFF75CFAFFF7CCFA03A000F0E9FCFF20EA
:10374000FDF7D4FFF8E7000053544D3332463130D3
:10375000782053444B2C206D756C74692074617310
:103760006B2073746172742072756E6E696E67215E
:103770000D0A0000FCF77CFEFDF766FBFCF750FF2E
:1037800000F04AFA154C01202070FDF791FCFDF77E
:10379000C1FCFFF7B9FA00220F2311461046FEF7CD
:1037A0000BF80025A0680022401CA06014231146DD
:1037B0001046FEF701F8207910B1257100F0CAFF1C
:1037C00000F030FC0146FF28ECD0A0780028E9D0BA
:1037D00003A000F09DFCE580E4E70000AC000020C1
:1037E0007266206B6579203A25640D0A000000009E
:1037F0002DE9F041184D044655F82400002824D046
:10380000FEF702F805F1180656F824100027401AB2
:103810001249FF28C8601AD8FDF7F6FF46F82400C1
:10382000A5F1480040F824700C484C30075555F875
:10383000240005F1780141F82400084901205E3197
:103840000855A5F1180040F82470BDE8F08146F84D
:10385000247045F82470F8E7480100200400002097
:103860002DE9F05F044671480D4650F82410491CBC
:1038700040F824106E4F385DDFF8B0A14FF001081A
:103880000AF1180AAAF1300B4FF000090AF14806B4
:1038900030B1FCF79DFC042C26D34FF4C07025E01A
:1038A000042C02D34FF4C07001E04FF48060A842B2
:1038B00015D2042C02D34FF4107001E04FF4B6601F
:1038C000A8420CD907F804804BF8249046F82490BD
:1038D0004AF824902046BDE8F05FFFF789BF2046F4
:1038E000BDE8F05F01F0E0B84FF48060A8421BD261
:1038F000042C02D34FF4107001E04FF4B660A842DC
:103900000BD907F804804BF8249046F824904AF825
:1039100024902046FFF76CFF02E0204601F0C4F837
:10392000BDE8F05FFCF75DBCA02D05D956F824007A
:1039300040F0010046F824005BF824005D46401C7E
:103940004BF82400FCF74DFC55F82400202804D047
:1039500055F82400082836D041E0FCF739FC45F83A
:10396000249007F8049056F82410304DA83545F8F7
:1039700024102F4A123202F804804AF82490FCF7EF
:1039800030FC55F82400C0B217280ED055F824009A
:10399000C0B2972809D055F82400C0B20D2804D031
:1039A00055F82400C0B275280BD155F824001F49E2
:1039B000303141F82400FDF727FF1C49483141F818
:1039C0002400BDE8F09F56F82400F5280DD056F8E5
:1039D0002400FA2809D056F82400FF2805D056F80C
:1039E0002400400046F82400EBE7FCF7F1FB4846D2
:1039F00045F8249007F8049056F82410FF2956F84B
:103A000024100AD0094A783242F82410084A414664
:103A1000921D11554AF8240082E7044A903242F878
:103A20002410034A41460C32F3E70000180100203D
:103A3000500000202DE9F04701218CB00846FEF728
:103A4000A3F801217048FDF77BF84FF42050ADF842
:103A50000C0004248DF80F4003258DF80E5003A9A7
:103A60006A48FDF721F840F60840ADF80C008DF8E3
:103A70000F408DF80E5003A96548FDF715F8600357
:103A8000ADF80C008DF80F408DF80E5003A9614879
:103A9000FDF70AF8FEF7B2FB002440F2F3284FF6D8
:103AA000FF79ADF81C80ADF82090ADF81E40ADF860
:103AB00022408DF8244007A8FEF768FC0120FEF79D
:103AC00027FB01270226ADF81260ADF81470ADF89F
:103AD00016408DF81840ADF8107004A8FEF7B8FB3A
:103AE000ADF8106004A8FEF7B3FB01210420FEF737
:103AF000FFFB01210820FEF7FBFB0420FEF770FB13
:103B00000820FEF76DFB0120FEF762FB0120FEF7A7
:103B10006FFB4FF0804A5046FEF736FDADF82A8025
:103B2000ADF82E40ADF82890ADF82C400AA95046CB
:103B3000FEF7B2FE01215046FEF708FD0720ADF862
:103B40000000ADF80460ADF80840ADF806708DF8DF
:103B50000A40ADF8024069465046FEF750FDADF808
:103B6000027069465046FEF74AFDADF802606946AC
:103B70005046FEF744FDADF8025069465046FEF748
:103B80003EFD002202215046FEF7A8FD002204213E
:103B90005046FEF7A3FD002208215046FEF79EFD89
:103BA000002210215046FEF799FD02215046FEF7F3
:103BB000DBFC04215046FEF7D7FC08215046FEF7F7
:103BC000D3FC10215046FEF7CFFC01215046FEF7F2
:103BD000C7FC01215046FEF7CBFC012202215046D2
:103BE000FEF77CFD012204215046FEF777FD0122FD
:103BF00008215046FEF772FD012210215046FEF7C3
:103C00006DFD0CB0BDE8F0870003180000180140FE
:103C1000000C0140000801400348002101600171CF
:103C20000846FEF77FB90000CC00002038B54FF4FD
:103C30000040ADF8000003208DF8020010248DF83C
:103C4000034069460648FCF72FFF4020ADF800000E
:103C50008DF8034069460348FCF726FF38BD000095
:103C6000001401400010014010B5FFF7DFFF00F025
:103C700015F80948002101600171FF20FEF752F993
:103C800000214FF4FA7302220846FDF795FDBDE8C6
:103C900010400020FEF746B9CC00002010B5FCF71C
:103CA00081FF8F20FCF7C4FFFDF776F8BDE81040D8
:103CB000FCF794BF0149095CFEF75DB9CC00002018
:103CC0002DE9F843064615480C460068FA2900D944
:103CD000FA24F079DFF84880882810D14027C4F111
:103CE000FF05ABB20222012140460097FEF786FD98
:103CF000ABB20322012140460097FEF77FFD702002
:103D00000090C4F1FF0083B2032201214046FEF778
:103D100075FD8A20B071BDE8F88300000C0000201A
:103D2000000800402DE9F843064615480C46006897
:103D3000FA2900D9FA24B079DFF84880882810D110
:103D40004027C4F1FF05ABB2032201214046009792
:103D5000FEF754FDABB20222012140460097FEF768
:103D60004DFD70200090C4F1FF0083B202220121BA
:103D70004046FEF743FD8920B071BDE8F88300009E
:103D80000C00002000080040F8B50A4E044640250B
:103D900000230222012130460095FEF72FFD00236B
:103DA0000322012130460095FEF728FD8821A171EC
:103DB000F8BD00000008004000B587B0FEF77CFDAC
:103DC000FDF7F0FAFEF79AFD0F480DF1040C0323FE
:103DD00000224021ACE80F0001200B4A034600906E
:103DE000FC3200210948FDF7C5FB05AA08A14020C7
:103DF000FDF714FC05AA09A10120FDF70FFCFDF752
:103E00009FFB07B0002000BD3412002019370008C6
:103E100049646C65207461736B000000496E6974BD
:103E2000207461736B00000010B50446012251023A
:103E30000648FCF7AAFE892121720A230022BDE868
:103E4000104011461046FDF7B7BC000000100140BD
:103E500010B5044600224FF400710348FCF795FEAC
:103E60008821217210BD00000010014070B50520AE
:103E700000F08AFA002000F0E5FA1F48FFF7E8FF9B
:103E80000022012311461046FDF796FC1A48FFF761
:103E9000CBFF00224FF4FA7311461046FDF78CFC5D
:103EA00000244FF4807500221E2311461046FDF7B2
:103EB00083FC0C211148FEF779FE0146A84207D980
:103EC0000FA000F025F9052000F05EFA2C2008E094
:103ED000052909D20FA000F01BF9052000F054FAC3
:103EE000372000F0AFFA03E0641CE4B2032CDAD30D
:103EF0000148FFF7ADFF70BDD41700204016002029
:103F0000D6F7C9A83A0909B5E7BBFAB9FDC1F73A2E
:103F100025640000D6F7C9A83A0909B5E7BBFAB588
:103F2000E7C1F7BCECB2E2CAA7B0DCA3ACD6F7C9D4
:103F3000A8B5E7BBFAB2BBD4DACEBB3F3A256400E2
:103F40007CB5124C80208DF8000020686B46012261
:103F5000817C60680078FFF7D7FB4FF0FF3518B120
:103F60000BA000F0D5F80FE0642000F00BFC00205F
:103F70008DF8000020686B460122817C6068007823
:103F8000FFF7C2FB002800D028467CBDD4000020EB
:103F90006932632066697273742077726974652070
:103FA0006661696C0D0A000010B5012000F0ECF9A3
:103FB000002000F047FAFFF74FFB00221E231146B6
:103FC0001046FDF7F9FBFFF7BBFF064910F0FF00B5
:103FD000087006D0044901200870372000F032FA3A
:103FE000002010BDBD000020B000002070B54FF4CF
:103FF000807045000A4C01290BD001460122204661
:10400000FCF7C3FD012229462046BDE87040FCF7BD
:10401000BCBD014600222046FCF7B7FD0022F2E7B6
:10402000001401402DE9FC470024DFF8B09026463B
:1040300000942546E846019419F8041048460129E1
:1040400019D10655FDF7E0FB254F024657F82430FD
:10405000214624A000F05CF857F824004FF4CC71FE
:10406000B1EB104F07D1C1B2C0F307200844FF28BD
:1040700001D108F80410641CA4B2062CDCD3002083
:10408000214A44460123215CF52902D0672904D046
:1040900006E022F81030F52502E022F810306725FE
:1040A000401C80B20628EED39DB1002004E032F817
:1040B000101071B1401C80B2F52D0DD00421814249
:1040C000F5D812480370168056809680D6801681E7
:1040D0005681FF20BDE8FC870621F0E76200002042
:1040E000C0010020696E6465783A0925642C206F50
:1040F0007374696D653A092564207368756A753A49
:1041000025640D0A0000000034160020B0000020D5
:104110000FB40020F0B585B00BAD00900190029077
:104120000D208DF80C000A208DF810006E462D4FE2
:104130002BE0252805D0481C0A903846FEF724FDC0
:1041400023E0491C0A910878632816D006DC43282E
:1041500013D0442829D0532811D103E0642824D057
:1041600073280CD110CD04E021463846FEF70CFD33
:10417000641C20780028F7D104E015F8041B3846A9
:10418000FEF702FD0A98401C0A900A990878002858
:10419000CFD103A93846FEF7F7FC04A93846FEF74D
:1041A000F3FC05B0F0BC5DF814FB04CD002002F078
:1041B0000F0130313154392901D9C91D315412113F
:1041C000401C0828F3D378213154401C302131544D
:1041D0000A243119491E3846FEF7D6FC641E002C0D
:1041E000F7DCCFE7003801402DE9F84306461548D3
:1041F0000C460068FA2900D9FA24F079DFF84880E3
:10420000882810D14027C4F1FF05ABB2002201215C
:1042100040460097FEF7F2FA0122ABB21146404643
:104220000097FEF7EBFA70200090C4F1FF0083B214
:10423000012211464046FEF7E1FA8A20F071BDE8FE
:10424000F88300000800002000080040F8B50A4E7E
:104250000446402500231A46012130460095FEF70A
:10426000CDFA01220023114630460095FEF7C6FA2A
:104270008821E171F8BD0000000800403C2123487E
:10428000FDF71DFB0023012219461846FDF794FA9D
:10429000FEF77AFD1E4C1F4EDFF87C90002540F2A1
:1042A00025580022642311461046FDF785FA207830
:1042B0000028F6D03778012241464846FEF7FAFB3F
:1042C0002570613F092FECD2DFE807F005080B0EDF
:1042D0001114171A1D00FFF767FEE2E700F01EF841
:1042E000DFE700F071FADCE7FFF7C0FDD9E700F087
:1042F000FBF8D6E7FEF7A0FFD3E7FEF76BFDD0E7AC
:10430000FFF730F8CDE700F049FACAE7941800202B
:104310000500002006000020003801401CB50220E6
:1043200000F032F8002000F08DF801A8FCF762FAE6
:104330000023022219461846FDF73EFA6846FCF7AC
:1043400059FA9DF800009DF80410884209D105A093
:10435000FFF7DEFE0B4901200870372000F072F8ED
:1043600000201CBDCAB1D6D3C4A3BFE93A090909CC
:10437000CAB1D6D3D0BEC6ACB6C1C8A1CAA7B0DC3C
:1043800000000000B00000200A21B0FBF1F210B5DF
:1043900001FB1201182802D0192805D102E045229C
:1043A000722101E053220721244B1C7824F07F0462
:1043B0001C705C7824F07F045C70FF2835D02048A6
:1043C000022A09D003DC3AB1012A12D104E0452ABD
:1043D0000BD0532A0DD104E01C78825C14431C706E
:1043E00007E01A7842F06D0202E01A7842F0790292
:1043F0001A70052910D002DC042916D80CE008290F
:104400000AD004DC062907D007290ED104E00929C7
:1044100002D0722909D104E05A78405C02435A70F4
:1044200003E0587840F0500058700020FFF742FC3D
:10443000BDE810400120FFF73DBC0000CC0000208B
:10444000C200002010B53B2807D80A22B0FBF2F1C9
:1044500002FB11030F4C0022E2700F4A947824F003
:104460007F049470D47824F07F04D470FF2808D09F
:1044700094780A48415C0C439470D178C05C014345
:10448000D1700220FFF716FCBDE810400320FFF7B3
:1044900011BC0000BE000020CC000020C2000020A3
:1044A00038B5074A0446702011700B46009002226E
:1044B00001210448FEF7A2F98920A07238BD00004E
:1044C000BC0000200004004038B550210446009193
:1044D0008223022201210348FEF790F98821A1726C
:1044E00038BD00000004004010B50620FFF74CFF67
:1044F0000020FFF7A7FF2A48FFF7E6FF00221E2350
:1045000011461046FDF758F906212648FEF74EFBE6
:10451000044609212348FEF749FBC0B20A2C03D9FF
:1045200021A0FFF7F5FD1EE00A2803D923A0FFF71D
:10453000EFFD1EE0F0211A48FFF7B2FF0023012231
:1045400019461846FDF738F906211648FEF72EFBE6
:10455000044609211348FEF729FBC1B2202C04D9D7
:1045600021461BA018E0062004E020290BD91DA03D
:104570000DE00720FFF708FF3720FFF763FF08482B
:10458000FFF7A2FF10BD2CB10029F8D11AA0FFF748
:10459000BFFDEEE721461DA0FFF7BAFDE3E70000EF
:1045A000D417002040160020D7F3B1DFC9A83A097C
:1045B00009C9CFB5E7D7D4D7AA000000D3D2B1DF5D
:1045C000C9A83A0909C9CFB5E7D7D4D7AA000000CE
:1045D000D7F3B1DFC9A83A0909B9FDC1F73A0925EE
:1045E00064000000D3D2B1DFC9A83A0909B9FDC1FE
:1045F000F73A092564000000D3D2B1DFC9A83A090F
:1046000009B2BBD7AA09256400000000D7F3B1DFC7
:10461000C9A83A0909B2BBD7AA092564000000005D
:104620007FB5962423A0FFF773FD4FF4C070ADF85B
:104630000C0018208DF80F0003208DF80E0003A940
:104640002248FCF731FA224E3046FDF79DFFB015A7
:104650000021ADF80400ADF80810ADF80610ADF873
:104660000A1001A93046FEF717F901220C21304645
:10467000FEF7E3F850250122234611463046009507
:10468000FEF7BCF823460222012130460095FEF7D2
:10469000B5F801213046FDF763FF00213046FDF7F4
:1046A00055FF00213046FEF721F801213046FDF785
:1046B0005FFF7FBD73696465207370656564206307
:1046C0006F6E666967757265200D0A000010014003
:1046D000000400407CB50C460546FBF779FD002040
:1046E0000C21012D09D04FF480458DF80400009570
:1046F0008DF8051024B1012103E04FF40075F4E7B3
:1047000000218DF806106846FCF738F92846FCF7BA
:104710001FF9FBF766FD7CBD7CB50024082628B197
:1047200009210420FCF7ACF9B50105E00E210420B5
:10473000FCF7A6F94FF480458DF804408DF805602C
:1047400000958DF806406846FCF718F92846FCF7F6
:10475000F9F87CBD70B50122094DD40221462846E6
:10476000FCF713FA0022C82311461046FDF724F87F
:1047700021462846BDE870400022FCF706BA00003A
:10478000001401404FF47A72B0FBF2F102FB110306
:10479000CAB200210846FDF70FB8000010B501218C
:1047A0000848FEF703FAA0F5A060B0F5206F07D91E
:1047B0000B20FFF7E9FDBDE810403720FFF742BEB0
:1047C00010BD00004016002070B500247C48FFF7A3
:1047D000DBFA7B48FFF73AFD0320FFF7D5FD002009
:1047E000FFF730FE0022012311461046FCF7E4FFDC
:1047F000EF217348FFF796FAEF217148FFF7F4FCB9
:104800000022642311461046FCF7D6FF00221E2327
:1048100011461046FCF7D0FF0E216A48FEF7C6F994
:1048200005460D216748FEF7C1F90146022D02D267
:10483000294665A071E0702D0ED929466BA0FFF7BF
:1048400067FC5F48FFF702FD5D48FFF79DFA032014
:10485000FFF79AFD21206CE002290DD268A0FFF736
:1048600057FC5748FFF7F2FC5548FFF78DFA032035
:10487000FFF78AFD2C205CE070290DD969A0FFF7B5
:1048800047FC4F48FFF7E2FC4D48FFF77DFA032055
:10489000FFF77AFD37204CE0641CE4B20A2CB5D354
:1048A0004748FFF7D3FC4648FFF76EFA002264231F
:1048B00011461046FCF780FF01210846FFF70AFF6A
:1048C00001210020FFF706FF0022012311461046B8
:1048D000FCF772FFEF213A48FFF7F2F9EF21384871
:1048E000FFF782FC0022642311461046FCF764FFA8
:1048F000002400221E2311461046FCF75DFF0E2106
:104900003048FEF753F905460D212E48FEF74EF9C3
:104910000146022D11D2294647A0FFF7F9FB28488E
:10492000FFF794FC2648FFF72FFA0320FFF72CFD32
:104930001620FFF787FD012070BD702D3FF67DAF7B
:1049400002298BD3702999D8641CE4B20A2CD0D3E5
:10495000424801684FF4C074A14209D2016840A0E6
:10496000FFF7D6FB0320FFF70FFD0B20FFF76AFDD3
:1049700040480168A14209D201683FA0FFF7C8FB87
:104980000320FFF701FD1220FFF75CFD002101204D
:10499000FFF7A0FE00210846FFF79CFE0848FFF73E
:1049A00055FC0748FFF7F0F939A0FFF7B1FB0022EB
:1049B000322311461046FCF7FFFE002070BD0000B8
:1049C000D417002040160020D7F3C2D63A0909B503
:1049D000E7C1F7BCECB2E2CAA7B0DCA3ACB5E7C153
:1049E000F7C6ABB5CD3A256400000000D7F3C2D6B8
:1049F0003A0909B9FDC1F7212121203A25640000B7
:104A0000D3D220C2D63A0909B5E7C1F7BCECB2E26D
:104A1000CAA7B0DCA3ACB5E7C1F7C6ABB5CD3A25A4
:104A200064000000D3D2C2D63A0909B9FDC1F7210A
:104A30002121203A25640000D7F3C2D63A0909B5EE
:104A4000E7C1F7BCECB2E2CAA7B0DC3B20B5E7C1D6
:104A5000F7C6ABB5CD3A2564000000000C0000207D
:104A6000D7F3C2D63A0909B2E2CBD9B2BBD5FDB36E
:104A7000A325640008000020D3D2C2D63A0909B2A7
:104A8000E2CBD9B2BBD5FDB3A33A25640000000048
:104A900077616C6B20776865656C20746573742032
:104AA000656E64200D0A0000044A002142F82010BF
:104AB000034A1154123211547047000000010020C3
:104AC0005000002002040608000000000102030458
:104AD000010203040607080900FFFF0000FFFF00B2
:104AE000313313333331331300000100020001006E
:104AF00003000100020001000400010002000100A7
:104B00000300010002000100050001000200010095
:104B10000300010002000100040001000200010086
:104B20000300010002000100060001000200010074
:104B30000300010002000100040001000200010066
:104B40000300010002000100050001000200010055
:104B50000300010002000100040001000200010046
:104B60000300010002000100070001000200010033
:104B70000300010002000100040001000200010026
:104B80000300010002000100050001000200010015
:104B90000300010002000100040001000200010006
:104BA00003000100020001000600010002000100F4
:104BB00003000100020001000400010002000100E6
:104BC00003000100020001000500010002000100D5
:104BD00003000100020001000400010002000100C6
:104BE0000300010002000100680000047600540187
:104BF000F7FD000175191A0C6A231B1C1F20727423
:104C0000433B4138393A6B6C376F06246D6E700048
:104C100083000000000800000001001832000500B9
:104C2000000020410000D242295C0F3E9A99993E33
:104C30003333733F295C0F3E584C000800000020BE
:104C40000001000054010008584D00080001002038
:104C5000301C00007001000801000000000000008E
:104C60000000000000000000000000000000000044
:104C70000000000000000000000000000000000034
:104C80000000000000000000000000000000000024
:104C90000000000000000000000000000000000014
:104CA0000000000000000000000000000000000004
:104CB00000000000000000000000000000000000F4
:104CC00000000000000000000000000000000000E4
:104CD00000000000000000000000000000000000D4
:104CE00000000000000000000000000000000000C4
:104CF00000000000000000000000000000000000B4
:104D000000000000000001000000000000000000A2
:104D1000000000000000000000003F305B4F666DA7
:104D20007D077F6F0000000000000000F44B0008CA
:104D3000E84B000800000000000000000000000038
:104D40000000000000000000000000000000000063
:084D500000000000104C0008F7
:0400000508000119D5
:00000001FF
