:0400000508000000EF
:020000040800F2
:10000000A81F0020010100080501000807010008E1
:10001000090100080B0100080D01000800000000A4
:1000200000000000000000000000000011010008B6
:100030000F010008000000005B02000831280008E2
:10004000D52B0008391E0008D528000851230008C8
:10005000A90C000839210008D3090008250A000866
:10006000270A0008290A00082D0A0008CD08000800
:10007000CF080008D1080008D3080008D5080008F8
:10008000D7080008D9080008570500088B2B00087E
:100090008D2B00087106000873060008C90A0008C5
:1000A000D7280008DD280008DB280008D928000828
:1000B000DF280008E1280008E3280008330F0008C3
:1000C000310F0008370F0008350F0008AD26000873
:1000D000AF260008652B0008852B0008872B000839
:1000E000D509000879220008892B000800000000CB
:1000F0000000000000000000000000000000000000
:1001000004480047FEE7FEE7FEE7FEE7FEE7FEE7FE
:10011000FEE700001901000800F002F800F022F9E3
:100120000AA090E8000C82448344AAF10107DA4552
:1001300001D100F017F9AFF2090EBAE80F0013F081
:10014000010F18BFFB1A43F001031847889C0000F9
:10015000A89C00000A444FF0000C10F8013B13F07B
:10016000070408BF10F8014B1D1108BF10F8015B10
:10017000641E05D010F8016B641E01F8016BF9D103
:1001800013F0080F1EBF10F8014BAD1C0C1B09D15A
:100190006D1E58BF01F801CBFAD505E014F8016BCC
:1001A00001F8016B6D1EF9D59142D6D3704700005E
:1001B0000023002400250026103A28BF78C1FBD870
:1001C000520728BF30C148BF0B60704700F098B994
:1001D00002480349034A044B70470000A81B002053
:1001E000A81F0020A81D0020A81D002072B606B47C
:1001F0002E490A7802F101020A7006BC704706B463
:100200002A490A78A2F101020A704FF00001002A7F
:1002100008BF81F3108806BC7047254C254D25602A
:100220004FF0000484F30988234C4FF0010525703A
:10023000224C4FF08055256062B6FEE730B41F4C6B
:100240004FF08055256030BC704730B41B4C4FF0E8
:100250008055256030BC704700BFEFF3108372B645
:10026000EFF3098030B1A0F1200080E8F00F144CCA
:100270002468206000B5134880475DF804EB124CF9
:10028000124D2E7826700E4C114E3668266030685E
:1002900090E8F00F00F1200080F309884EF0040E82
:1002A00083F31088704700BF72B670473800002093
:1002B00020ED00E00000FFFF4100002004ED00E021
:1002C000540000209D1900083E0000203F0000203F
:1002D0005C00002010B5203AC0F00E8021BFB1E8CC
:1002E0001850A0E81850B1E81850A0E8185028BFDE
:1002F000B2F12002BFF4F2AF5FEA027C24BFB1E8A2
:100300001850A0E8185044BF18C918C0BDE81040E4
:100310005FEA827C24BF51F8043B40F8043B08BFED
:100320007047D20728BF31F8023B48BF11F8012BB4
:1003300028BF20F8023B48BF00F8012B70477047E8
:10034000744600F02EF8A6460DB500F04FF80400F4
:10035000BDE80D4011007047020010B50020AFF35A
:10036000008010BDAFF30080FFF7EAFF03B400F098
:10037000B7F803BC00F054F80FB400F0B6F80FBCA7
:1003800007F014F800F046F801B5AFF3008000F074
:100390009EF8BDE8014000F002F86FF0000000F0A8
:1003A0002BF8754600F032F8AE4605006946534614
:1003B00020F00700854618B020B5FFF709FFBDE81B
:1003C00020404FF000064FF000074FF000084FF0BC
:1003D000000B21F00701AC46ACE8C009ACE8C0094D
:1003E000ACE8C009ACE8C0098D46704701487047C9
:1003F00070470000541B002003494FF01800ABBEAB
:1004000070470000EF00000026000200004870471F
:10041000441B00200446AFF300802046FFF7B4FFE2
:100420002DE9FE4304460D4609F0B0FB0020CDE95E
:100430000045AFF3008002906846FFF7C7FE044610
:100440000D46DDE9000117461E46AFF30080AFF30D
:100450000080AFF3008000210846AFF300808046A3
:1004600000F048F800218146C0F800800846AFF34C
:100470000080411CC9F8041000210846AFF3008039
:100480000021C9F808000846AFF300800021C9F830
:100490000C000846AFF30080C9F81000AFF30080ED
:1004A000AFF30080AFF30080AFF30080AFF30080C4
:1004B000AFF30080AFF30080AFF30080AFF30080B4
:1004C00003B0204629463A463346BDE8F08310B5CE
:1004D0000020AFF30080AFF30080AFF3008010BDC9
:1004E0006FF000006FF00201704710B5AFF30080AD
:1004F00010BD70470148704770470000641B002022
:10050000704700000148704770470000481B0020FA
:100510000029816802D041F0010101E021F00101D0
:10052000816070470029816802D041F4807102E047
:100530004FF6FF62114081607047014689680020D4
:10054000490700D501207047014689680020090746
:1005500000D501207047704710B542680E4B0C79EA
:100560001A400B6842EA04221343436082680B4B33
:100570001A40D1E9024323434C7942EA440213432F
:100580008360C26A097C22F47002491EC9B242EA41
:100590000151C16210BD0000FFFEF0FFFDF7F1FF49
:1005A00070B5072609290AD9C568A1F10A0404EB28
:1005B0004404A640B543A3401D43C56007E0056958
:1005C00001EB4104A640B543A3401D4305611F2331
:1005D000072A09D2446B521E02EB820293409C43CD
:1005E00091400C43446370BD0D2A09D2046BD21FA5
:1005F00002EB820293409C4391400C43046370BD24
:10060000C46A0D3A02EB820293409C4391400C4332
:10061000C46270BD816841F00801816070470029A3
:10062000816802D041F4A00101E021F4A0018160C1
:100630007047816841F004018160704710B5012066
:1006400001F048FCBDE81040002001F043BC000070
:1006500002490844B0F8000C7047000000600040F8
:10066000024A1044A0F8001C7047000000600040DF
:10067000704770472DE9F84FFF20ADF800000025C6
:10068000DFF880818DF8035003248DF8024069461D
:10069000404600F0CFFBADF80040DFF86CA18DF8CC
:1006A00003508DF802406946504600F0C3FB3D20E0
:1006B000ADF80000554E8DF803508DF802406946A4
:1006C000304600F0B7FB7015ADF8000004258DF83A
:1006D00003508DF802406946304600F0ABFB10270E
:1006E000ADF8007014268DF803608DF8024069465D
:1006F000474800F09FFBA802ADF800008DF80360AA
:100700008DF802406946404600F094FB4FF08009A6
:10071000ADF80090DFF8FCB08DF803608DF8024072
:100720006946584600F086FB2003ADF800008DF8BE
:1007300003508DF802406946584600F07BFB4FF0AD
:100740002008ADF800808DF803508DF8024069460E
:10075000584600F06FFBADF800908DF803508DF80F
:10076000024069462A4800F065FBADF800808DF82C
:1007700003608DF802406946254800F05BFBADF848
:1007800000808DF803508DF802406946504600F015
:1007900051FBE802ADF800008DF803708DF80240BF
:1007A00069461B4800F046FB4FF47060ADF800004E
:1007B0008DF803508DF802406946584600F03AFB28
:1007C000E002ADF800008DF803508DF80240694654
:1007D0000F4800F02FFB4020ADF800008DF80350CB
:1007E0008DF8024069460A4800F024FBADF800701D
:1007F0008DF803508DF802406946584600F01AFB08
:10080000BDE8F88F00080140000C014000100140D5
:100810000014014000180140F8B54FF40070ADF825
:10082000000003241C4E8DF8024010258DF8035063
:100830006946304600F0FEFA2801ADF800008DF858
:1008400002408DF803506946304600F0F3FAE802A2
:10085000ADF800008DF803508DF8024069460F484E
:1008600000F0E8FAA801ADF800008DF80240142568
:100870008DF803506946304600F0DCFA4FF48040B2
:10088000ADF800008DF802408DF8035069463046FF
:1008900000F0D0FAF8BD000000140140000C014047
:1008A00010B50446522001F0E5FE302001F0E2FED2
:1008B000022001F0DFFE062001F0DCFE082001F03E
:1008C000D9FE2046BDE8104003F06CB87047704771
:1008D000704770477047704770470029016802D021
:1008E00041F0010101E021F00101016070470000C9
:1008F00000B502460021FFF7F0FF002010605060B5
:100900009060D060184B1848D11A44389A421ED0D3
:100910000ADC1649511812D0142914D028290DD1F7
:10092000416841F4706108E0142914D0282916D0D8
:100930003C2903D1416841F07061416000BD4168CC
:1009400041F00F01F9E7416841F0F001F5E7416836
:1009500041F47041F1E7416841F47021EDE74168ED
:1009600041F47001E9E7000044000240F8FFFDBFD8
:1009700030B5026847F6F0739A430C6A8B682343DC
:10098000D1E904452C4323438C692343CC69234399
:100990004C6A23438C6A234313430360CA68426052
:1009A0000A6882604968C16030BD00204FF49671CA
:1009B000401C80B28842FBD37047002206E0002131
:1009C000491C89B26429FBD3521C92B28242F6D3ED
:1009D0007047704710B5FFF709FC11480178491CB2
:1009E0000170FFF70CFC4FF48064204600F0E0F843
:1009F00028B1204600F0D6F8022004F03DFB4FF469
:100A00000064204600F0D4F828B1204600F0CAF86F
:100A1000032004F031FBBDE8104000F067BD00008A
:100A20003C000020704770477047000070B5FFF72A
:100A3000DDFB1E480178491C0170FFF7E0FB102028
:100A400000F0B6F870B3102000F0ACF8184D28682C
:100A5000184C08B9E06821E02868174909688842FD
:100A60001DD30021084608F0F9FE1448008801282B
:100A700001D108F03BFA1248008801280BD1114837
:100A80000178012902D104F0ADFF02E000780228CC
:100A900001D108F02BFA6168E068401A60602868AC
:100AA000401C2860BDE8704000F020BD3C000020E4
:100AB000F800002000000020000100209400002029
:100AC000920000209600002070B5FFF78FFB2B49A5
:100AD0000878401C0870FFF792FB4FF480742046A2
:100AE00000F066F828B1204600F05CF8002004F021
:100AF000C3FA4FF40074204600F05AF828B120469B
:100B000000F050F8012004F0B7FA402000F050F84F
:100B100080B3402000F046F8194D2868194C08B9F8
:100B2000E06823E028681849096888421FD300213B
:100B3000012008F093FE15480088012801D104F037
:100B400051FF1348008801280DD11248017801296E
:100B500004D104F047FF08F0C9F904E00078022846
:100B600001D104F03FFFD4E90210401AA0602868C8
:100B7000401C2860BDE8704000F0B8BC3C0000207C
:100B8000FC00002000000020000100209400002054
:100B90009200002096000020014908607047000084
:100BA000140401400149086070470000140401402A
:100BB000054B01461A6800205B690A400B4202D0CF
:100BC000002A00D0012070470004014030B5184CC5
:100BD000017985790A19D2F80014036825B31943FD
:100BE000C2F80014D4F8081402689143C4F8081439
:100BF000D4F80C1402689143C4F80C1441791029FC
:100C00000AD104F58164216802681143216061689A
:100C100000680143616030BD2144D1F800240068C0
:100C20000243C1F8002430BD9943C2F8001430BD1E
:100C3000000001400149C8607047000000200240E8
:100C400070B5054640F6FF76304600F073F804288C
:100C500013D10A4C206940F00200206165612069CF
:100C600040F040002061304600F064F8012804D0D4
:100C7000216941F6FD721140216170BD00200240E2
:100C800008490420CA68D20701D001207047CA6809
:100C9000520701D502207047C968C906FBD5032059
:100CA00070470000002002407047000002480169C0
:100CB00041F0800101617047002002402DE9F041C0
:100CC00005460E460F2000F035F8042816D10C4CCE
:100CD000206940F0010020612E800F2000F02AF8EA
:100CE00041F6FE77042804D1300C68800F2000F014
:100CF00021F8012802D0216939402161BDE8F08145
:100D00000020024004490A6802F038020A600A68BA
:100D100002430A6070470000002002400348024975
:100D2000416003494160704723016745002002404C
:100D3000AB89EFCD2DE9F0410446FFF7A1FF114E3D
:100D4000114FDFF84880124D12E000F001F93068D1
:100D5000401C30603868401C3860D8F80000401CE7
:100D6000C8F800002868401C2860FFF789FF641E4F
:100D7000012802D1002CE8D101E0002C00D105208F
:100D8000BDE8F08188000020840000208C00002055
:100D9000E00000201B4A10B5811A1315904222D0A2
:100DA0000BDC1949401817D098422AD1012108209C
:100DB00001F084F8002108200AE099421AD0B1F528
:100DC000006F1ED10121402001F078F80021402061
:100DD000BDE8104001F072B80121042001F06EF866
:100DE00000210420F4E70121102001F067F8002120
:100DF0001020EDE70121202001F060F800212020E3
:100E0000E6E710BD0010014000F8FEBF10B58A07EC
:100E100021F003040649120F21440F238C689340EC
:100E20009C438C608B68904003438B6010BD000036
:100E300000000140F0B5CC78002204F00F03E40676
:100E400001D58C7823430C884FF00F0714F0FF0F67
:100E50004FF0010C1BD005680E880CFA02F42640F6
:100E6000A64210D1960007FA06FE25EA0E0E03FAF6
:100E700006F5CE7845EA0E05282E00D14461CE78DD
:100E8000482E00D10461521C082AE5D305600A8867
:100E9000FF2A1ED94568002202F108060CFA06F462
:100EA0000E882640A64210D1960007FA06FE25EAD3
:100EB0000E0E03FA06F5CE7845EA0E05282E00D16F
:100EC0004461CE78482E00D10461521C082AE3D335
:100ED0004560F0BD70B50D4E7268C0F3034583B236
:100EE000840202D522F0E06206E0C40203D50324A6
:100EF000AC40A24300E09A4329B1800202D542EA05
:100F0000034200E01A43726070BD0000000001401F
:100F10000246926800200A4200D0012070471AB1B0
:100F200002690A430261704742690A43426170479D
:100F300070477047704770470021072001F04CBE92
:100F400002494CF6CC400860704700000030004079
:100F500002494AF6AA2008607047000000300040AD
:100F60000149486070470000003000400149886036
:100F700070470000003000400149086070470000E1
:100F80000030004010B508F089FD00F019FF00F0B6
:100F900037F8FFF7DDFF1A20FFF70FFD00F00CF820
:100FA000FFF7D6FF1A20FFF708FDFFF7D1FFBDE8D6
:100FB00010403420FFF701BD70B58CB030220F49CE
:100FC0006846FFF787F900252C466E4609E0012C9C
:100FD0000ED0032C0CD0062C0AD0112C08D01B2CC0
:100FE00006D036F81510204601F0F6FD6D1CEDB266
:100FF000641CE4B21D2CEAD30CB070BDA49D0008A3
:1010000070B586B018220B496846FFF763F90024D3
:1010100030256E4636F81410284601F0DDFDFFF746
:1010200097FF641C6D1CE4B2EDB20B2CF2D306B03A
:1010300070BD00008C9D00082DE9F84F4FF48077BB
:10104000ADF8007010244A4E8DF8034003258DF84A
:10105000025069463046FFF7EDFE00223946304621
:10106000FFF75DFF0C20ADF80000DFF808911426B3
:101070008DF8036069464846FFF7DCFE0122042133
:101080004846FFF74CFF012208214846FFF747FF7B
:10109000C020ADF800004FF01808DFF8DCA08DF894
:1010A00003808DF8025069465046FFF7C3FEADF845
:1010B00000508DF8036069464846FFF7BBFE0122E9
:1010C00011464846FFF72BFF012202214846FFF751
:1010D00026FF2802ADF800008DF803808DF802503D
:1010E00069465046FFF7A6FE244DADF800708DF816
:1010F000034069462846FFF79DFE002239462846F0
:10110000FFF70DFFA701ADF800708DF803406946A9
:101110005046FFF78FFE002239465046FFF7FFFE8C
:10112000A702ADF800708DF8036069464846FFF7E6
:1011300081FE012239464846FFF7F1FEE702ADF88D
:1011400000708DF8036069464846FFF773FE012280
:1011500039464846FFF7E3FE8020ADF800008DF8E1
:10116000034069462846FFF765FEBDE8F88F00009A
:101170000008014000180140000C0140001001402F
:101180003EB52F4D01227F2411462846FFF7C7FEAA
:10119000012202212846FFF7C2FE0122042128462F
:1011A000FFF7BDFE012208212846FFF7B8FE254DB6
:1011B000284601F0B1FBA815ADF804000020ADF8F9
:1011C0000800ADF80600ADF80A0001A9284601F0B4
:1011D00072FC01224021284601F062FC502300935A
:1011E000234600220121284601F040FC50230093B1
:1011F000012223461146284601F038FC5023009373
:10120000234602220121284601F030FC502300939E
:10121000234603220121284601F028FC002128460C
:1012200001F0A8FB0021284601F0ABFB0121284674
:1012300001F062FB0121284601F062FB3EBD000087
:10124000001801400008004038B500214FF0006050
:1012500000F096F84FF4C06000F088F817208DF881
:10126000000001248DF8014002208DF802008DF865
:101270000340684600F040F828208DF800008DF803
:10128000014003258DF802508DF80340684600F0B8
:1012900033F88DF800508DF8014004208DF80200DD
:1012A0008DF80340684600F027F805220121024826
:1012B00000F070F838BD00009AC302000020431E01
:1012C0004FF0E021C1F880315A0DC1F88421C1F8F6
:1012D0008032C1F88422024601EB8003C3F8002467
:1012E000401C0B28F8D3704702490148086070473A
:1012F0000400FA050CED00E0F0B50F23C278017888
:101300004FF0E024012742B3D4F80C2D02F4E06240
:10131000C2F5E062120AC2F10405D3404278AA4045
:1013200085781D4015438A072D01D20E954021F086
:1013300003010B19D3F80064FF2191408E430D4047
:101340002E43C3F80064007800F01F018F4040096D
:1013500004EB8000C0F80071F0BD01F01F00874071
:10136000480904EB8000C0F88071F0BD02490843D1
:1013700002490860704700000000FA050CED00E02B
:10138000024A1140014302480160704780FFFF1F7D
:1013900008ED00E070B54FF0E026D6F80C3DFF24D4
:1013A00003F4E063C3F5E0631B0ADC40C3F104050A
:1013B000A94022400A43110100F0C0029209C0F383
:1013C0000120C0008140FF23834006EB820000F62D
:1013D000185002689A43026002680A43026070BDB6
:1013E0007047000030B587B000F07EF8364C00231F
:1013F000E36223706370A3716371E36063612371BF
:10140000E11D1846401CC0B201F8013B0228F9D387
:10141000A370E37023624FF47C712C48A36100F049
:10142000CAFB2A483421343800F0C5FB2748002184
:1014300000F154023F25426180F8445080F8453065
:10144000491C54305432C9B20B29F4D3436180F89B
:10145000445080F845301D486362E0614FF4F071FC
:10146000A0F5377000F0A7FB1948002100F1100229
:1014700003704260491C1030103289B21D29F7D325
:10148000037043601248206100F0A8FB0F4803235B
:1014900000223221FC3801AC0FC44FF6FF730093D9
:1014A00000F1C4020C2300210A4800F03FF906AA0B
:1014B00009A10C2000F08CF900F017F807B0BDE886
:1014C0003040FFF78DBF00003C00002018050020D1
:1014D0003C0200208D1D000875432F4F532D4949B4
:1014E0002049646C650000007047704710B5134CCC
:1014F0006079012820D1FEF779FE207820B1401EC6
:1015000010F0FF00207013D1607888B900F0AAFBBA
:10151000E078A17888420BD0094951F82000206278
:10152000016B491C0163E068401CE060FEF78DFE22
:10153000BDE81040FEF763BE10BD00003C00002077
:10154000E404002070B50C4D0646287808B1002050
:1015500070BDFEF74BFE2C690CB160682861FEF788
:101560004EFE3CB1012020700020208120466660A4
:1015700000F016FB204670BD3C0000202DE9F0472E
:101580000546007889461446012801D0012036E03E
:10159000DFF8848098F8000008B102202FE098F866
:1015A000010008B111202AE0FEF720FE6E68002736
:1015B00036B16F60FEF723FE27703046BDE8F08736
:1015C000D8F8180010F8261F41F00201017047708A
:1015D00020F8029C284600F0BFFAFEF710FE00F04B
:1015E0001FFBFEF703FED8F8180090F8271001291A
:1015F00008D1284600F05AFAFEF701FE0A202070B2
:101600000020DBE7056A076280F82670C761FEF7F5
:10161000F6FD27702846D1E73C00002070B504464F
:1016200000780D46012801D0012070BDFEF7DEFDD7
:10163000A07A48B102222946204600F053FAFEF76C
:10164000DEFD00F0EDFA08E0606818B1FEF7D7FDA6
:10165000142070BD6560FEF7D2FD002070BD000053
:101660002DE9F0470646884617469946FEF7BEFD27
:101670001248846A0CB161688162FEF7C0FD2CB922
:101680006E2089F800000020BDE8F087F01935468B
:101690000021A8F1010203E0286005463844491CF6
:1016A0009142F9D3002028602660C4F81080C4E974
:1016B0000278666089F800002046E5E73C000020DB
:1016C00070B50C4D0646287808B1002070BDFEF7B5
:1016D0008DFD2C690CB160682861FEF790FD3CB16E
:1016E00003202070268100206060204600F058FA18
:1016F000204670BD3C00002010B5094C60790028E0
:101700000CD100F0AFFAE0780649A07051F8200043
:101710002062A061BDE81040FEF77FBD10BD000053
:101720003C000020E4040020704700002DE9FE4F3B
:10173000DDE90C5881468A4693461C46FEF756FD65
:101740001D4E307820B1FEF75AFD1020BDE8FE8F07
:101750001A4F57F8240050BB012047F82400FEF729
:101760004EFD4046109A0E9900F01EFB5A46514617
:101770004846109B00F096F80EA90EC98DE80E00A1
:1017800001462B464246204600F094FA050005D15A
:101790007079012809D100F043FA06E0FEF726FD32
:1017A000002047F82400FEF72AFD2846CEE7FEF782
:1017B00026FD2820CAE700003C000020E4040020A9
:1017C0007047000001490120086070472800002090
:1017D00070B505460E461446FEF708FDFF2D03D1F1
:1017E0001048806990F828500F4850F825300B2594
:1017F0000BB1012B03D1FEF702FD257070BD304601
:1018000000F04EFA0F2803D9FEF7F9FC0E2007E08E
:10181000314603F1440000F035FAFEF7F0FC0020F9
:10182000207070BD3C000020E404002010B5044688
:10183000FEF7DCFC194850F8240018B9FEF7DFFC6D
:10184000642010BD012803D1FEF7D9FC0B2010BD88
:1018500090F826100A071DD521F0080180F82610FF
:10186000C9B299B9818C89B90D492A3082780B792E
:101870001A430A710A4A0178D21D535C4078034327
:101880005354FEF7BCFC00F0CBF901E0FEF7B7FCC7
:10189000002010BDFEF7B3FC652010BDE40400205D
:1018A0003C0000204FF0807342F8043942F80409EC
:1018B0006FF00103104613604FF0123240F8042D10
:1018C0004FF0033240F8042D4FF0023240F8042D5F
:1018D000521040F8042D40F8041D4FF0113140F82B
:1018E000041D110140F8041D4FF0093140F8041D9A
:1018F000D10040F8041D4FF0073140F8041D4FF0AF
:10190000063140F8041D4FF0053140F8041D9100E8
:1019100040F8041D7047000070B50546FEF766FCF0
:101920001C4AFF2D906902D190F8285003E090F8EE
:101930002800A84201D1012400E00024164850F8F4
:10194000250018B9FEF75BFC5A2070BD012803D1B1
:10195000FEF755FC0B2070BD0E4B90F82A10DB1DD6
:101960005D5C90F82B60B5435D54595C21B990F8EB
:101970002C3011799943117110F8261F41F008019C
:101980000170FEF73CFC012C01D100F049F9002068
:1019900070BD00003C000020E404002070470000FF
:1019A00070B5040019D0FEF721FC0C4B9969DA1DC3
:1019B00091F82A0091F82B60155CB5431554105C22
:1019C00020B991F82C201879904318718C84FEF777
:1019D00016FCBDE8704000F023B970BD3C0000204B
:1019E00070B54FF47A746343B3FBF4F34FF461645E
:1019F0006043C1EB011100EB810010447D2148439D
:101A000003EBC000040C80B2FFF7CAFF4FF400459F
:101A100007E02846FFF7C4FF2846FFF7C1FF641E12
:101A2000A4B2002CF5D1002070BD000070B5FEF707
:101A3000DDFB1D4DE86A401CE862FEF7E0FB6879BB
:101A4000012830D16C6A2AE0FEF7D0FBA08C18B3D5
:101A5000401E0004000CA0841ED194F8260010F053
:101A6000370F05D020F0370084F82600012000E071
:101A7000002084F8270094F8260000070CD42A34AC
:101A8000A07829790843287107492078C91D0A5C84
:101A900063782A3C1A430A546469FEF7B0FB94F851
:101AA00028000C28D0D170BD3C00002010B50C4B94
:101AB0009A6912F82A1F52780144CC7A9443CC7266
:101AC000E1B229B99A69817A92F82C209143817206
:101AD000986900211C30C1728172016010BD000044
:101AE0003C000020F0B5837A184C0125E35C05FA30
:101AF00003F6C71897F80BC0F6B214F80C40A540CF
:101B0000EDB22CEA050C04EBC30487F80BC0E4B279
:101B10000CF0FF0717B9877AB74387720C48002784
:101B200050F824001C300781C0E90071C772817A27
:101B300091438172C8B238B90648017931430171C5
:101B4000C01DC15C2943C1542046F0BDAA9B0008BA
:101B5000E40400203C00002070B5104CA169E31D96
:101B6000C86191F82A2091F82B609D5CB5439D5483
:101B70009A5C22B991F82C3022799A43227111F89B
:101B80002A3F00F10B029D5C49780D439D54A269E8
:101B9000817A92F82C201143817270BD3C000020A4
:101BA000002282720B301146491CC9B200F8012B89
:101BB0000229F9D37047002203E0491E00F8012BE7
:101BC00089B20029F9D1704705E011F8013B521E96
:101BD00000F8013B92B2002AF7D1704730B54FF4BC
:101BE00034710D48FFF7E7FF0B48002104460D460E
:101BF0003F2301EBC10204EB8202243242600375F1
:101C00004575491C243089B21329F2D34560037508
:101C100045750248846230BD080900203C00002060
:101C200010B5FEF7E3FA0D4C207898B9607888B9C2
:101C300000F018F8E078A17888420BD0084951F8F4
:101C400020002062016B491C0163E068401CE060D9
:101C5000FEF7F4FABDE81040FEF7D1BA3C000020D0
:101C6000E40400200649054A0879CB1D105C1B5C82
:101C7000D25C02EBC000C87070470000AA9B00084D
:101C80003C000020002204E0491C521C00F8013BEB
:101C9000D2B20B78002BF7D10021017010467047AB
:101CA000002102E0401C491CC9B20278002AF9D187
:101CB000084670472DE9FF5FDDE90FAB06460D468C
:101CC0009046DDF83890FEF791FA2E4FFC69002C13
:101CD00054D010346068F861FEF791FA44F8105C53
:101CE00026760025A575E575A58244F80CAC44F868
:101CF000049C44F8088CA4F800B003986080F008B5
:101D0000A076C2B2012101FA02F0207706F00700A6
:101D100060768140E176E56025612562A5626562B5
:101D2000E5623F20256384F8340084F83550103C88
:101D30002046FFF7F9FC2046FFF742FDFEF756FA72
:101D4000114840F82640786AC4E9050500B184616D
:101D50007C622A34A078397908433871094920789F
:101D6000C91D0A5C63781A430A54B879401CB871DB
:101D7000FEF745FA002004B0BDE8F09FFEF73FFAF9
:101D80004620F8E73C000020E404002010B5054C94
:101D9000FEF72CFA6069401C6061FEF730FAFFF72D
:101DA00011FDF5E73C000020D30707D0920705D5C9
:101DB000002201E004C0491E0029FBD17047000049
:101DC00070B50122D1021A48FFF7A9F8194C012277
:101DD00091022046FFF7A3F8A514002229462046C9
:101DE000FFF79DF8FFF7B4F81E20FEF7E6FD01228D
:101DF00029462046FFF793F8FFF7AAF81E20FEF7C2
:101E0000DCFD002229462046FFF789F8FFF7A0F8FD
:101E10004620FEF7D2FD012229462046FFF77FF833
:101E20001A20FEF7CAFDBDE87040FFF791B8000028
:101E3000000801400010014070470000014908629D
:101E40007047000000000E42034A516821F44041EF
:101E5000014351607047000000100240044A00290D
:101E6000516901D0014300E0814351617047000096
:101E700000100240044A0029D16901D0014300E06A
:101E80008143D1617047000000100240044A0029DC
:101E9000116901D0014300E08143116170470000E6
:101EA00000100240044A0029916901D0014300E07A
:101EB000814391617047000000100240044A0029EC
:101EC000D16801D0014300E08143D1607047000038
:101ED000001002400149086070470000400442427F
:101EE0000248416A41F0807141627047001002402F
:101EF00010B500F07FF84FF48034204600F002F96E
:101F000000F0A2F92E490870C0B2012825D12DA0F9
:101F100006F08CFD002000F0EBF8002000F028F91E
:101F2000A01100F01BF9A010FFF78EFF0220FEF7B2
:101F3000E9FE4FF4E011204600F02AF9012000F0FC
:101F400021F9392000F0B4F80028FAD0022000F07E
:101F500071F900F0C5F80828FBD101217C20FFF7BA
:101F6000A1FF01210846FFF79DFF01210520FFF792
:101F700099FF01211C48FEF7ADFF01211B48FEF728
:101F8000A9FF01210846FFF769FF01214802FFF779
:101F900089FF01210420FFF76DFF01210220FFF7D7
:101FA00069FF01211248FEF795FF01214FF0C05053
:101FB000FFF760FFBDE810400120FFF73FBF0000C2
:101FC0002D000020726363207761697420666F7250
:101FD000206873652073746172747570206661691E
:101FE0006C6564200A00000000043000000230002C
:101FF000000C1A000E480021C160016114224261E8
:102000008161C161026842F0010202604268094BCD
:102010001A4042600268084B1A400260026822F4CB
:1020200080220260426822F4FE02426081607047B2
:10203000001002400000FFF8FFFFF6FE10B500217F
:102040004820FFF72FFF00210120FFF72BFF002181
:102050004FF0C050FFF70EFF0020FFF7EFFE00210A
:102060000120FFF71FFF00210E48FEF733FF00217C
:102070000D48FEF72FFF00210120FFF7EFFE0021A2
:102080004FF40070FFF70EFF00210420FFF7F2FE6F
:1020900000210220FFF7EEFEBDE8104000210348BA
:1020A000FEF718BF0004300000023000000C1A00D8
:1020B000034600205909094A012901D1116804E0A9
:1020C000022901D1116A00E0516A03F01F020123C5
:1020D00093400B4200D001207047000000100240E6
:1020E0000248406800F00C007047000000100240F9
:1020F000034A516821F0F00101435160704700002C
:10210000001002400B490A6822F480320A600A6813
:1021100022F480220A60B0F5803F07D0B0F5802F0E
:1021200003D1086840F4A02008607047086840F4B4
:102130008030F9E700100240704700000649002295
:102140000A7001F82029012802D0042802D10520B4
:1021500081F820007047000020100240034A5168B7
:1021600021F4E0610143516070470000001002401B
:10217000034A516821F4605141EAC0005060704741
:10218000001002400149086670470000000042420A
:10219000034B5A68084322F47C121043586070477E
:1021A0000010024001490860704700003C044242B0
:1021B000024A116A01431162704700000010024098
:1021C00010B501214820FFF76DFE01210846FFF7F9
:1021D00069FE01214FF0C050FFF74CFE0120FFF7D0
:1021E0002DFE01210846FFF75DFE01210E48FEF796
:1021F00071FE01210D48FEF76DFE01210846FFF733
:102200002DFE01214802FFF74DFE01210420FFF7BA
:1022100031FE01210220FFF72DFEBDE81040012113
:102220000348FEF757BE00000004300000023000F3
:10223000000C1A00034A516821F003010143516068
:10224000704700000010024010B50A4C3120FFF723
:102250002FFF20706068401C6060207810B96068B3
:10226000FF28F3D13120FFF723FF002800D0012001
:1022700010BD00003000002070470000024A1188A5
:1022800081431180704700000428004010B50024ED
:1022900001214FF0C050FFF7EDFD0120FFF7CEFD0B
:1022A000FEF7CCF90120FFF749FF08E000220A23DE
:1022B00011461046FFF794FB641C142C04DC4120EB
:1022C000FFF7F6FE0028F1D04FF48070FFF770FFA3
:1022D0000120FFF767FF00F09DF800F095F801215D
:1022E000084600F065F800F08FF847F6FF7000F040
:1022F0007BF8BDE8104000F087B800000248018874
:1023000041F0100101807047042800400248018814
:1023100021F010010180704704280040024988889C
:10232000098840EA0140704718280040074AB2F87F
:102330000418014000D00121B2F80028024202D066
:1023400009B10120704700207047000000200040C4
:1023500010B5FDF74BFF12480178491C0170FDF7DD
:102360004EFF0120FFF7E2FFB0B10120FFF786FF2B
:102370000C490878401CC0B208703C2804D30020E7
:102380000870094901200860FFF7C8FF0749884223
:1023900002D1002000F01AF8BDE81040FFF7A6B8FF
:1023A0003C000020000000201802002080510100A5
:1023B000054A0029B2F8001801D0014300E081432A
:1023C000A2F80018704700000020004000B5024647
:1023D000FFF794FF0348110C018082805DF804EB45
:1023E000FFF794BF1828004000B50246FFF786FFAC
:1023F0000448C2F30341018082805DF804EBFFF7DB
:1024000085BF0000082800400020401CC0B22828DA
:10241000FBD370470548018821F0080101800020A6
:10242000401CC0B23228FBD3704700000428004093
:1024300070B5184E04464FF4006500222946304618
:10244000FEF76DFD44F0800000F094F90120FEF7E6
:10245000B4FA0120FEF7B1FA0120FEF7AEFA01202E
:10246000FEF7ABFA0120FEF7A8FA0120FEF7A5FA65
:1024700000F052F9044600F04FF903460D20FEF734
:102480009CFA43EA0424012229463046FEF747FD20
:10249000204670BD0008014070B50C4D4FF400643B
:1024A000002221462846FEF73AFD522000F062F94C
:1024B000002000F05FF9802000F05CF921462846FA
:1024C000BDE870400122FEF72ABD0000000801406F
:1024D00010B5052406E0072C04D0052C02D02046B8
:1024E000FFF7A4F9641CE4B20A2CF4D910BD000073
:1024F0002DE9F0474FF00009DFF8348106460D461C
:1025000080F800904FF400674A4639464046FEF78F
:1025100006FD072000F02EF9002000F02BF9902096
:1025200000F028F9012239464046FEF7F8FC002465
:102530004FF4004A0022022311461046FFF750FADA
:1025400051464046FEF7E4FC00286BD14020FFF7DF
:102550006FFF0C2104464FF00D0AB1EB103F19D06C
:10256000BAEB143F16D020040BD4FEF70BFD00226B
:102570000F2311461046FFF733FA2EA006F056FA45
:1025800003E0FEF7D9FCFFF787FF214634A006F0F1
:102590004DFA4BE0BAEB143F17D10024002202237E
:1025A00011461046FFF71CFA4020FFF741FFBAEB37
:1025B000103F03D1641CE4B2032CEFD3032C04D1ED
:1025C000FEF7BAFCFFF768FF30E0002239464046CC
:1025D000FEF7A5FCD02000F0CDF80120FEF7EDF9C4
:1025E00000F09AF882463070062809D1002400F0E5
:1025F00093F8641CE4B205F8010B5445F7D301E0ED
:1026000086F80090012239464046FEF788FC307873
:10261000062802D10120BDE8F087FFF73DFFFEF755
:102620008BFC03E0641CE4B2022C83D30020F2E7AD
:10263000000801407266206368697020656E7465E9
:1026400072206F6666207374617475732C206861E4
:10265000766520746F2072657365742069742E002E
:10266000637263206572726F72206F636375726448
:102670003A25640010B5044600F0AAF80421802031
:1026800000F016F82046BDE81040082100F010B810
:1026900010B5044600F09CF80421A02000F008F8D2
:1026A0002046BDE81040052100F002B87047704791
:1026B0002DE9F04705460E4600244FF40049DFF8A7
:1026C00050A04FF48077DFF84C801CE0280601D43E
:1026D000002200E0012249465046FEF720FCFEF7AA
:1026E00064F9012239464046FEF719FCFEF75DF910
:1026F000002239464046FEF712FCFEF756F96806FE
:10270000050E641CE4B2B442E0D3BDE8F0870000DB
:10271000000C0140001401402DE9F0410024DFF8D5
:102720004C80134F25464FF400666006040E0122CC
:1027300031463846FEF7F3FB0220FEF73EF9012151
:102740004046FEF7E5FB08B1641CE4B200223146C6
:102750003846FEF7E4FB0220FEF72FF96D1CEDB2C0
:10276000082DE2D32046BDE8F081000000140140AE
:10277000001001402DE9F041144E002405464FF4AD
:102780008068F714280601D5012200E000224146A6
:102790003046FEF7C4FB0120FEF70FF9012239464F
:1027A0003046FEF7BCFB0220FEF707F9002239464F
:1027B0003046FEF7B4FB0120FEF7FFF86806641C04
:1027C000050EE4B2082CDDD3BDE8F0810010014015
:1027D00070B50122144D540221462846FEF79FFB96
:1027E0000122160231462846FEF799FB0122D10349
:1027F0000E48FEF794FBFEF7D8F800222146284643
:10280000FEF78DFB002221462846FEF788FB0022BA
:1028100031462846FEF783FB31462846BDE8704026
:102820000022FEF77CBB000000140140000C0140B8
:1028300010B5FDF7DBFC0E480178491C0170FDF76F
:10284000DEFCFFF7F3F80B48C168491CC1600A4879
:102850000168491C01604168491C41608168491C4C
:102860008160C168491CC160BDE81040FEF73EBEF2
:102870003C000020000000202C0200204FF0E0214E
:102880000428086902D140F0040001E020F00400AF
:10289000086170474FF0E02110B90020886170474F
:1028A0000128086902D140F0010001E020F0010098
:1028B000086170474FF0E0210028086902D040F01D
:1028C000020001E020F00200086170474FF0E021B3
:1028D000486170477047704770477047704770474E
:1028E00070477047028811B142F0800202E040F266
:1028F0007F310A4002807047028A8A430282704711
:102900000029018802D041F0010102E040F2FE32CC
:10291000114001807047000010B5B0F1804F0FD01A
:102920000F49401813D0B0F5806F17D10121042052
:10293000FFF7ACFA00210420BDE81040FFF7A6BA6B
:1029400001210846FFF7A2FA00210120F4E7012146
:102950000220FFF79BFA00210220EDE710BD0000E6
:1029600000FCFFBF002A828901D00A4300E08A43AD
:1029700082817047828B4FF6F7731A400A43828335
:102980007047828B4FF2FF731A4042EA0121818324
:1029900070470000F0B5038C334F4A8807F10806F2
:1029A0000AB1012A2CD1058B37F812402C4036F899
:1029B00012501D40002A028C10D143F232331A40CB
:1029C00002840A888B88224383860B890BB10124F9
:1029D00000E00024CB882C4323430FE043F2233351
:1029E0001A4002840A888B8844EA022203870B89F2
:1029F00003B11023C9882B4343EA0113028331E05A
:102A0000022A01D0032A2DD1848B37F81250254099
:102A100036F812401C40022A028C10D143F23323B4
:102A20001A4002840A888B882A4383870B890BB15A
:102A30004FF48073C988234343EA012311E042F233
:102A400033331A4002840A888B8845EA0222A0F8B0
:102A500040300B890BB14FF48053C988234343EABC
:102A6000013382830384F0BD9A9B00083EB5069C27
:102A7000012902D19500A94000E00021ADF808101D
:102A8000F82B00D9F823ADF804300221ADF802206C
:102A9000ADF80610ADF800406946FFF77BFF3EBD7C
:102AA0000185818A012A02D141F0010101E001F092
:102AB0000101818270470A8882854A8802850288DE
:102AC00002F08F0202808A88C9880A4301880A437B
:102AD0000280704738B5FFF70BFAFEF7EFFBFEF701
:102AE000B3FB1348FEF756F9124C2046FEF752F995
:102AF000114D2846FEF74EF91048FEF74BF91048E5
:102B0000FEF748F94FF47070ADF8000010208DF812
:102B1000030069462846FEF78DF96015ADF8000000
:102B200004208DF8030069462046FEF783F938BD7E
:102B300000080140000C0140001001400014014059
:102B40000018014010B50420FFF798FE42F228302B
:102B5000FFF7BCFE0120FFF7ADFEBDE810400120ED
:102B6000FFF798BE10B5FDF741FB05490878401CFA
:102B70000870FDF744FBBDE81040FEF7B7BC00004D
:102B80003C00002070477047704770477047000056
:102B900008B54FF48040ADF8000010208DF8030018
:102BA00003208DF8020069460148FEF743F908BD8D
:102BB000000C014000224FF480410148FEF7AFB9FC
:102BC000000C0140012291030148FEF7A8B9000062
:102BD000000C0140704700002DE9F041104F054600
:102BE0000C464FF40066002231463846FEF797F94E
:102BF0000220FDF7E2FE05F07F00FFF7BBFD200A93
:102C0000FFF7B8FDE0B2FFF7B5FD0220FDF7D5FEF6
:102C100031463846BDE8F0410122FEF780B9000098
:102C2000000801402DE9F84F04004FF00F0601D1D4
:102C3000BDE8F88F784D4FF000080127C5E91D87E2
:102C400000F082FE672020700220607004F10C0109
:102C5000201D009106F07EFE6F6585F8078004F068
:102C60009BFCDFF8B8A19AF80E0006F089FB9AF8F1
:102C70000D0006F0D9FA6A48017801291DD19AF8A9
:102C80001410D1B19AF81510672916D180F8008078
:102C9000FFF744FBDAF8181081420DD2401ADAF837
:102CA0001C10884208D2091AB420B1FBF0F60F2E8E
:102CB00001D90F2601E006B9082600254FF0060BC2
:102CC000DFF860914FF088083FE0201D02F0B2FE6F
:102CD00058B96068544980F8098080F80AB00772D2
:102CE000C1606068009902F0ACFE201D02F0A2FEF7
:102CF00078B96068072180F8098081726FF41C71CF
:102D00006943077209EB0111C1606068009902F024
:102D100098FE012D07D0052D05D0082D03D00D2DCF
:102D200001D0112D0FD1201D02F084FE58B960682A
:102D3000082180F8098081720772C0F80C906068E1
:102D4000009902F07EFE6D1CEDB2B542BDD3201D90
:102D500002F070FE68B90F2E0BD16068082180F870
:102D60000980817207723149C1606068009902F080
:102D700068FE201D02F05EFE58B96068072180F8E9
:102D80000980817207722A49C1606068009902F067
:102D900058FE201D02F04EFE58B96068224980F8A6
:102DA000098080F80AB00772C1606068009902F07B
:102DB00048FE201D02F03EFE88B9656844F620609A
:102DC00085F809804FF00D0885F80A802F72E860B9
:102DD0006068009902F035FE0F48C0E91D5800F008
:102DE00017FD9AF8020008B1FFF7ECFE012E10D98A
:102DF0008AF8147067208AF81500FFF78FFACAF86E
:102E00001800B420464305490A48CAF81C6000F07F
:102E10004DFA01200CE7000090000020D817002098
:102E200014020020400D0300C0270900E0930400B5
:102E3000701101001C1B002000231A4600EB41000A
:102E400000EB421131F8021C521C92B20B44142ABE
:102E5000F6D31420B3FBF0F080B270477FB540206A
:102E6000ADF8040018208DF8070003208DF8060047
:102E7000AF2401A91748FDF7DDFF174D2846FFF7DE
:102E80004BFDA815ADF808000020ADF80C00ADF81A
:102E90000A00ADF80E0002A92846FFF70CFE5023E9
:102EA00000932346002201212846FFF7DFFD012180
:102EB0002846FFF721FD00212846FFF713FD0122D8
:102EC00011462846FFF74EFD01212846FFF718FD61
:102ED0007FBD0000001001400004004008B506A0BE
:102EE00005F0A4FD50230093AF23002201210C48DC
:102EF000FFF7BCFD08BD0000636861726765207064
:102F0000776D2064697361626C652C2064697361FC
:102F1000626C652070776D206F7574707574200019
:102F20000004004038B5A0F13201AB2905D3BDE85B
:102F3000384001460CA005F079BD0F4A0921927B6B
:102F4000012A00D000210D4A1070441822460CA01E
:102F500005F06CFD702300932346002201211248E6
:102F6000FFF784FD38BD000070776D206572726FC9
:102F700072203A2564000000241800207800002008
:102F80006368617267652070776D20656E61626C41
:102F900065203A25642C6F75747075742070776D98
:102FA0002E2E2E3A256400000004004030B5044661
:102FB0008BB0114D11A005F039FDCCB12822294666
:102FC00001A8FEF701FE13490198884204D109982F
:102FD0004FEA3141884206D0204606F0A3FC204645
:102FE00000F01AF804E0282201A92046FEF7ECFDC3
:102FF00000200BB030BD000000E00008636C65618C
:103000006E20636F6E6669677572652072656164B4
:10301000200A00005555AAAA2DE9F041002410B954
:103020000020BDE8F08105460427FDF777FE1BA0D0
:1030300005F0FCFC4FF000083520FDF7FBFD414694
:103040001AA005F0F3FC214E0BE000221E231146CE
:103050001046FEF7C5FC06EBC420FDF7F1FD074660
:10306000641C444501D8042FEFD019A005F0DEFC04
:10307000164C28340DE000221E2311461046FEF7A0
:10308000AFFC02CD3046FDF719FE361D0746A642BD
:1030900001D8042FEFD0FDF709FEC1E7464C41539C
:1030A000485F556E6C6F636B00000000616674656D
:1030B0007220636C65617220666C61672C6E6D6254
:1030C0006572706167653A256400000000E00008E1
:1030D00061667465722065726173652070616765F1
:1030E0000000000010B500F00FFE00220A23114678
:1030F0001046FEF775FC04F0C3F900220A231146BE
:103100001046FEF76DFC00224FF480710548FDF774
:1031100006FF0A230022BDE8104011461046FEF7C4
:103120005FBC00000008014010B500F0DFFD002288
:103130000A2311461046FEF753FC04F06FF90022F3
:103140000A2311461046FEF74BFCBDE8104006F07E
:103150004FBB000010B50648FEF7F4F9054948607A
:1031600020B905A005F062FC012010BD002010BDB3
:10317000F81700207C0000206372656165206D6295
:103180006F78206661696C6564200A002DE9F05F44
:103190000026DFF8A8A0DFF8A890DFF8A8B037462F
:1031A000B046354634460022192311461046FEF734
:1031B00017FCFDF7CDFE24480078A8B1234800781D
:1031C00090B12348007856280ED1641CA4B2962CE6
:1031D000E9D3D9F8001000248E4207D11DA005F0D4
:1031E00025FCFEF781F802E00024DCE70E46DAF861
:1031F0000000874207D11CA0D9F8001005F016FC8A
:10320000FEF772F800E00746DBF80000804507D1C2
:103210001AA0D9F8001005F009FCFEF765F800E0E7
:1032200080461B4801688D4205D11AA005F0FEFBBF
:10323000FEF75AF8B7E70D46B5E700008C0000200E
:10324000E0000020880000207C000020A200002078
:10325000D81700206D6F746F72207461736B2064D7
:1032600069653A25640A0000696E746572207461AC
:10327000736B206469653A25640A00006C636D20F5
:103280007461736B206469653A25640A000000006C
:103290008400002070726573736B657920746173AC
:1032A0006B206469653A25640A00000070B5044625
:1032B0004878607188782071087C2074C87BE0733E
:1032C000087BA071487C6074887C0D46A07408223D
:1032D000091DE01DFEF778FC0C2205F1140104F134
:1032E0001400FEF771FC0A4820604FEA30404FF4AA
:1032F0000065206200212846FEF7BCFD2046FFF74E
:103300008BFE2846BDE870400121FEF7B3BD0000EA
:103310005555AAAA704770477047000010B50020A5
:10332000FEF7CEF90149086010BD00006C000020D6
:1033300000B587B003230022CDE903233D48402197
:10334000CDE90101052300F1FC0200213A48009378
:10335000FEF7ECF906AA39A10520FEF739FA032396
:103360000022CDE9032338484021CDE9010108239B
:1033700000F1FC02002135480093FEF7D7F906AAB8
:1033800033A10820FEF724FA03230022CDE903230A
:103390003148C021CDE90101062300F53F7200212B
:1033A0002E480093FEF7C2F906AA2DA10620FEF7CB
:1033B0000FFA03230022CDE903232C484021CDE955
:1033C0000101072300F1FC02002129480093FEF7C8
:1033D000ADF906AA27A10720FEF7FAF90323002278
:1033E000CDE9032326484021CDE90101092300F15D
:1033F000FC02002123480093FEF798F906AA22A1B7
:103400000920FEF7E5F903230022CDE90323214833
:103410004021CDE901010A2300F1FC0200211E48F0
:103420000093FEF783F906AA17A10A20FEF7D0F948
:1034300007B000BDD80E00208D310008636F6D20ED
:103440007461736B00000000D80D0020F14F00087C
:103450005246207461736B00D80F0020A5860008C7
:103460006D6F746F72207461736B0000D80C002054
:10347000AD5300086C636D207461736B0000000035
:10348000D8130020558900086B6579207461736B2F
:1034900000000000D81200206975000870477047CE
:1034A00070B50F4C4FF4006529462046FDF730FDFE
:1034B000A61430B131462046FDF72AFD08B101209F
:1034C00070BD31462046FDF723FD30B12946204628
:1034D000FDF71EFD08B9022070BD002070BD000080
:1034E000001401402DE9F05F04004AD0207A022840
:1034F00047D1DFF83492D9F80400401CC9F8040021
:10350000C8283EDB002502218848C9F80450FFF78F
:1035100093FCA9F13807B88001218448FFF78CFC9F
:103520003880B888483F01F09DF9814E82464FF0BF
:103530000108B0F5E17F2ADD51467EA0FA6F05F063
:1035400075FA207A022805D1FFF7C8FC86F80C80AE
:1035500006202072B07B022819D00A2002F07CFAE3
:10356000B421002003F090FAF87901280AD17048BC
:10357000FD711030FFF756FB002002F009FEFFF747
:10358000D3FDCEE06A48103001F0A2FAC9E0C7F8D6
:103590007CA0D9F808004FF6FF7A50452BD1B7F838
:1035A00048004FF4086B584525D300224FF496731A
:1035B00011461046FEF714FA01215C48FFF73CFC67
:1035C000A7F8480080B2584515D300224FF49673EF
:1035D00011461046FEF704FA01215448FFF72CFC6F
:1035E000A7F8480080B2584505D3FFF777FC0720BD
:1035F000207286F80C8037F8481F58A005F016FA9C
:103600003888C9F8000003214848FFF715FC788086
:1036100081B2483F57A005F009FAD9F80800504593
:1036200011D0401CC9F80800BD721E2803D1962095
:10363000FFF778FC07E0642805D1AF20FFF772FCA4
:10364000C9F808A003E0D9F80800504569D1B87A54
:10365000B82866D0B7F84810B1F5F46F09D2AD2894
:103660005FD049A005F0E2F9AD20FFF75BFCAD208B
:103670000BE0B1F5F86F0AD2B32852D046A005F09E
:10368000D5F9B320FFF74EFCB320B87243E0B1F593
:10369000FC6F09D2B62844D043A005F0C7F9B62084
:1036A000FFF740FCB620F0E7B824B1F5006F01D277
:1036B00041A02AE0B1F5026F09D2BA2831D042A068
:1036C00005F0B4F9BA20FFF72DFCBA20DDE74FF47E
:1036D0000465A94209D2BE2823D03FA005F0A6F96F
:1036E000BE20FFF71FFCBE20CFE700226423114657
:1036F0001046FEF775F901210C48FFF79DFBA7F86E
:10370000480080B2A8420CD337A005F08FF9B8204A
:10371000FFF708FCBC720022C82311461046FEF7D2
:103720005FF90020BDE8F09F10010020581500202F
:103730002418002074656D702072616973652074AF
:103740006F6F20666173743A25642C6C6173745FCB
:10375000336D696E5F743A25640A000062617474A7
:1037600065727920766F6C61746167653A256420B3
:10377000000000006368617267652063757272659E
:103780006E74203A25640A00434841525F53544501
:10379000505F5A45524F0000434841525F535445D1
:1037A000505F4F4E45000000434841525F5354451F
:1037B000505F54574F000000434841525F535445F7
:1037C000505F544852454500434841525F53544569
:1037D000505F464F55520000434841525F53544595
:1037E000505F464956450000434841525F53544597
:1037F000505F53495800000010B50448C07B88282A
:1038000001D004F08DFE002010BD000090000020CB
:1038100010B500F03DF80022142311461046FEF7C3
:10382000DFF804211848FFF707FB184C05216086D4
:103830001548FFF701FBA08606211348FFF7FCFAA5
:10384000E08607211048FFF7F7FA208708210E4885
:10385000FFF7F2FAA08409210B48FFF7EDFA608424
:103860000A210948FFF7E8FA20840F210648FFF7EC
:10387000E3FAE08410210448FFF7DEFA2085BDE872
:10388000104000F061B800005815002090000020A2
:1038900010B5134C012210212046FDF740FB0122F8
:1038A00020212046FDF73BFB012211030D48FDF7C7
:1038B00036FB012280210C48FDF731FB0021084630
:1038C00001F0CEFC0021012001F0CAFC0021022001
:1038D00001F0C6FC0021BDE81040032001F0C0BC8F
:1038E00000140140000801400018014010B5FCF729
:1038F000C1FE00F041F900224FF480510E48FDF75F
:103900000EFB0E4C002220212046FDF708FB002272
:1039100010212046FDF703FB002280210848FDF717
:10392000FEFA0848007808B905F0E4FFFFF796FAB8
:10393000BDE81040FFF7D2BA000801400014014072
:10394000001801401402002010B50121002001F0F0
:1039500087FC0121084601F083FC0121022001F0CF
:103960007FFC0121032001F07BFC0B4C0022102185
:103970002046FDF7D4FA002220212046FDF7CFFA99
:103980000022A1140548FDF7CAFA0022BDE8104044
:1039900080210348FDF7C3BA00140140000801402C
:1039A0000018014070B505460020FEF771FE0024A6
:1039B00008212846FEF77CFE641CE4B2102CF7D3E5
:1039C00070BD00000949486F00280ED0807A0C288D
:1039D0000BD0487980F001004871C2B204484FF41E
:1039E000805102B10122FDF79ABA70479000002081
:1039F000000801402DE9F84F04004FF00F0501D1F8
:103A0000BDE8F88F4A4F00264FF00109C7E91D694C
:103A1000FFF768FB47480178DFF81CA101291AD19C
:103A20009AF81410B9B19AF81510692913D10670D3
:103A3000FEF774FCDAF8181081420CD2401ADAF85A
:103A40001C10884207D2081A3C21B0FBF1F50F2D5B
:103A500000D805B90F25FFF777FFA7F84660A7F84C
:103A60004460FE6540F22B10BE65786605F0DEFE10
:103A70009AF80E0005F084FC9AF80D0005F0D4FBCE
:103A800004F10C01201D009105F064FF69202070F5
:103A90004FF0020884F80180201D01F0CBFF4FF0A9
:103AA000880B68B960680C2180F809B0817280F8D1
:103AB00008804FF07871C1606068009901F0C1FF23
:103AC000201D01F0B7FFA0B91C480F2168436668AC
:103AD000B0FBF1F086F809B04FF00B0B86F80AB096
:103AE00086F80880F0606068009901F0AAFFC7E9D5
:103AF0001D6BFFF78DFE012211021148FDF70FFA31
:103B0000012D12D98AF8149069208AF81500FEF761
:103B100005FCCAF818003C20454307490948CAF883
:103B20001C50FFF7C3FB87F80D90012068E70000E9
:103B30009000002014020020D817002080841E006E
:103B4000000801401C1B002010B500210848FCF7AC
:103B5000C4FE084C00212046FCF7E4FC002120466E
:103B6000FCF7D6FC2046BDE810400021FCF757BD0D
:103B7000080002400024014030B5594D91B028465C
:103B8000FCF7B6FE5748019057480024CDE90204DF
:103B90004FF4A070CDE90404802006904000079007
:103BA00080000890202009900002CDE90A0401A9B4
:103BB0002846FCF7DDFE01212846FCF78EFE012099
:103BC0008DF834008DF835004FF46020CDE90E04F7
:103BD0000C94444C10208DF840004C3C0CA920461D
:103BE000FCF7BAFC0723012200212046FCF7D8FC91
:103BF0000723022201212046FCF7D2FC07230322DF
:103C000002212046FCF7CCFC072304220321204696
:103C1000FCF7C6FC0723052204212046FCF7C0FC64
:103C20000723062205212046FCF7BAFC07231A4683
:103C300006212046FCF7B4FC07230822194620463B
:103C4000FCF7AEFC0723092208212046FCF7A8FC5C
:103C500007230A2209212046FCF7A2FC07230B2296
:103C60000A212046FCF79CFC07230C220B2120464E
:103C7000FCF796FC07230D220C212046FCF790FC54
:103C800007230E220D212046FCF78AFC07230F2272
:103C90000E212046FCF784FC072310220F2120462A
:103CA000FCF77EFC01212046FCF73CFC012120466C
:103CB000FCF72EFC2046FCF7ADFC2046FCF744FC4C
:103CC0000028FAD12046FCF7B4FC2046FCF735FC6E
:103CD0000028FAD101212046FCF7A1FC11B030BD2B
:103CE000080002404C2401405815002010B5012264
:103CF00080210348FDF713F902498920487410BD5B
:103D0000001001409000002010B5002280210348DF
:103D1000FDF705F902498820487410BD00100140E4
:103D20009000002038B50022142311461046FDF7FC
:103D300057FE08212F48FFF77FF82F4C0921608399
:103D40002C48FFF779F820830A212A48FFF774F8F6
:103D5000E0820F212748FFF76FF8A0831021254844
:103D6000FFF76AF800B2E083B4F9282004F59871EF
:103D7000453A904209DAB4F91C20904205DCB4F9C6
:103D80001820904201DC096A14E0B4F92420B4F947
:103D90001A00453A904206DBB4F92620B4F91C30EB
:103DA000453A934208DAB4F91C20904201DC896A52
:103DB00000E0096B684617E0B4F92220B4F9180056
:103DC000283A904206DBB4F92020B4F91630283A9C
:103DD00093420CDAB4F91620153A904201DCC96A14
:103DE000E8E70548496A16308847012038BD0020B9
:103DF00038BD0000581500209000002010B5294C57
:103E0000606F002842D0807A082822D002DC062881
:103E10003CD103E00B283AD0782837D1606D0521DA
:103E2000401CB0FBF1F2606501FB120000284FF06E
:103E30002D014FF0000006D102F0BCFFBDE810409C
:103E4000002002F0A5B902F0B5FFBDE8104001F076
:103E500029BF154C207D58B9052001F0FDFD2D210D
:103E6000002002F011FEBDE81040002002F00EB864
:103E700001280BD1052001F0EFFD2D21002002F0DB
:103E800003FE002002F002F80020207510BD05207E
:103E900001F0E2FD6421002002F08CFF642020721A
:103EA000CCE70000900000203418002010B5344CFE
:103EB000616F002919D0887A2246526D0C23521C5A
:103EC0000B2851D012DC062814D0072830D008283F
:103ED0000BD12C4C207DD8BB1E21002002F0D4FD3C
:103EE000002001F0D3FF0120207510BD0D283DD02A
:103EF0007828FAD10520B2FBF0F100FB11206265B1
:103F000040B96421002002F0BFFDBDE81040002050
:103F100002F03EB9B2FBF3F003FB1020502101EB9D
:103F20008001002002F0B0FDBDE8104001F0BABEF3
:103F3000B2FBF3F003FB1020642101EB80010020B1
:103F4000626502F0A1FD616F44F62060C86006E082
:103F5000FFE70128C9D11E21002002F095FDBDE830
:103F60001040002001F092BF8721F5E7C86840F6B5
:103F7000B8329042B9D24FF49670C86010BD0000BC
:103F8000900000203418002010B53E4C606F0028CF
:103F90005DD0807A21460C22496D0B2858D014DC64
:103FA000062816D0072834D0082850D1364C207D5A
:103FB000F0BB052001F050FD2D21002002F064FD32
:103FC000BDE81040002001F061BF0D284AD07828DC
:103FD0003DD1491C0520B1FBF0F300FB1310002874
:103FE000B1FBF2F002FB1010616500EB800101F102
:103FF00046014FF0000006D102F046FDBDE810403A
:10400000002002F0C5B802F0D5FEBDE8104001F076
:1040100049BEB1FBF2F002FB1010282101EB400178
:10402000002002F0C7FE616F44F62060C860C7E759
:10403000FFE701280BD1052001F00EFD2D21002006
:1040400002F022FD002001F021FF0020207510BDAC
:10405000052001F001FD6421002002F0ABFE642088
:104060002072CBE7052001F0F7FC02F0FBFC606F4B
:10407000C16840F6B8329142E9D24FF49671C160FE
:1040800010BD0000900000203418002010B52B4C0B
:10409000606F002850D0807A0B2833D00DDC0628C2
:1040A0000FD0072818D0082846D10020A082207001
:1040B0000F2001F0D1FC642128E00D282ED07828B3
:1040C0003AD10F2001F0C8FC2D21002002F072FE31
:1040D000BDE8104001F0E6BD0F2001F0BDFC606DB1
:1040E0000C21401CB0FBF1F2606501FB120000EBFB
:1040F00040011E31002002F05DFE616F44F6206039
:10410000C86006E00F2001F0A7FC2D21002002F07E
:1041100051FEBDE81040002001F0B8BE0F2001F0B4
:104120009BFC02F09FFC606FC16840F6B832914280
:1041300002D24FF49671C16010BD000090000020C3
:1041400070B53A4C606F002818D0807A2146496DCE
:10415000491C0B2851D012DC062814D007282BD07C
:1041600008280BD1324D287DB8BB0521002002F074
:104170008BFC002001F08AFE0120287570BD0D28FF
:1041800045D07828FAD10520B1FBF0F200FB1210DF
:10419000616500284FF023014FF0000006D102F0C6
:1041A00073FCBDE87040002001F0F2BF02F06CFC2F
:1041B000BDE8704001F076BD0C20B1FBF0F200FBD1
:1041C0001210616500EB40011E31002002F05CFC22
:1041D000616F44F62060C8600AE0FFE70128CDD196
:1041E000B4F91610B4F918000721002002F04CFCB5
:1041F000BDE87040002001F049BE052001F02CFC14
:104200006421002002F040FC64202072C9E70520F0
:1042100001F022FC02F026FC606FC16840F6B83263
:104220009142ABD24FF49671C16070BD90000020F6
:104230003418002010B52D4C606F002854D0807ABF
:104240000B2837D00DDC06280FD007281CD00828F3
:104250004AD10020A08220700C2001F0FDFB5A21E1
:104260002CE00D2832D078283ED10F2001F0F4FB4D
:10427000606D8721401C6065002002F005FCBDE8F0
:104280001040002001F084BF0F2001F0E5FB606DBD
:104290000C21401CB0FBF1F2606501FB12006421AF
:1042A00001EB8001002002F0EFFB616F44F620601B
:1042B000C86006E00C2001F0CFFB8B21002002F04B
:1042C000E3FBBDE81040002001F0E0BD0C2001F050
:1042D000C3FB02F0C7FB606FC16840F6B832914281
:1042E00002D24FF49671C16010BD00009000002012
:1042F00010B53A4C606F00285DD0807A2146496D38
:104300000C22491C0B2857D014DC062816D007288D
:1043100032D008284FD1324C207DE8BB062001F076
:104320009BFB2D21002002F0AFFBBDE810400020D8
:1043300001F0ACBD0D2841D078283CD10520B1FB5F
:10434000F0F300FB1310616540B98721002002F0F3
:104350009BFBBDE81040002001F01ABFB1FBF2F05A
:1043600002FB1010642101EBC001002002F08CFB65
:10437000BDE8104001F096BCB1FBF2F002FB10105A
:10438000616500EB80018231002002F07DFB616FEE
:1043900044F62060C860C8E7FFE701280BD114206D
:1043A00001F05AFB5A21002002F06EFB002001F0C0
:1043B0006DFD0020207510BDB421B3E7052001F08C
:1043C0004BFB02F04FFB606FC16840F6B832914280
:1043D000F1D24FF49671C16010BD00009000002032
:1043E0003418002010B5184C606F002818D0807A5F
:1043F000082810D014DD0B2812D1052001F02CFB69
:104400006421002002F040FB64202072BDE81040CF
:10441000002001F0BDBE0D49087D10B901200875CE
:1044200010BD0128FCD1B4F92000B4F9161085386C
:104430008142F5DC0521002002F026FBBDE810409A
:10444000002001F023BD000090000020341800205F
:1044500010B52A4C606F00284FD0807A0B2809D005
:1044600014DC062816D0072823D0082845D10020C0
:10447000A08220700F2001F0EFFA5A21002002F0F4
:1044800003FBBDE81040002001F000BD0D2826D040
:10449000782832D10F2001F0DFFA606D8721401CAF
:1044A0006065002002F0F0FABDE81040002001F045
:1044B0006FBE0F2001F0D0FA606D0C21401CB0FBE4
:1044C000F1F2606501FB120000EB40015031002069
:1044D00002F0DAFA616F44F62060C860D1E70F207D
:1044E00001F0BAFA02F0BEFA606FC16840F6B83265
:1044F000914202D24FF49671C16010BD900000202D
:1045000070B5434D686F002861D0807A0C240B2869
:104510005ED014DC062816D0072833D0082856D1E0
:104520003C4C207DE8BB052001F096FA5A21002082
:1045300002F0AAFABDE87040002001F0A7BC0D28E7
:1045400057D0782843D10A2001F086FA686D401CC4
:104550000521B0FBF1F201FB1201686551B9B0FB16
:10456000F4F104FB110000EB80015A31002002F04D
:104570008BFA39E08721002002F086FABDE870400E
:1045800001F090BB0A2001F067FA686D401CB0FB97
:10459000F4F1686504FB1100502101EB400100209B
:1045A00000E006E002F006FC696F44F62060C86097
:1045B000C0E701280BD10A2001F04EFA1E2100208D
:1045C00002F062FA002001F061FC0020207570BD4D
:1045D000022001F041FAFFF7A5FB0028F7D15A218C
:1045E00002F0E8FB64202872BDE87040002001F072
:1045F000CFBD052001F030FA02F034FA686FC168CF
:1046000040F6B8329142E2D24FF49671C16070BD6B
:10461000900000203418002070B5434D686F0028CA
:1046200061D0807A0C240B285ED014DC062816D0CA
:10463000072833D0082856D13C4C207DE8BB052004
:1046400001F00AFA0F21002002F01EFABDE87040C6
:10465000002001F01BBC0D2857D0782843D10A2038
:1046600001F0FAF9686D401C0521B0FBF1F201FB85
:104670001201686551B9B0FBF4F104FB110000EBC5
:1046800080014631002002F0FFF939E04B21002083
:1046900002F0FAF9BDE8704001F004BB0A2001F015
:1046A000DBF9686D401CB0FBF4F1686504FB110098
:1046B000602101EB8001002000E006E002F0E4F957
:1046C000696F44F62060C860C0E701280BD105205F
:1046D00001F0C2F90A21002002F0D6F9002001F011
:1046E000D5FB0020207570BD022001F0B5F9FFF761
:1046F00019FB0028F7D1B42102F0C6F96420287212
:10470000BDE87040002001F043BD0A2001F0A4F98B
:1047100002F0A8F9686FC16840F6B8329142E2D25F
:104720004FF49671C16070BD9000002034180020D5
:1047300010B5052001F0AAFB4621002002F03AFB4B
:10474000BDE81040002001F0A1BB000070B5434D52
:10475000686F002861D0807A0C240B285ED014DCAE
:10476000062816D0072833D0082856D13C4C207D87
:10477000E8BB052001F070F90A21002002F084F95D
:10478000BDE87040002001F081BB0D2857D078288B
:1047900043D1052001F060F9686D401C0521B0FB94
:1047A000F1F201FB1201686551B9B0FBF4F104FBB1
:1047B000110000EB80012D31002002F065F939E095
:1047C0002D21002002F060F9BDE8704001F06ABAC6
:1047D000052001F041F9686D401CB0FBF4F16865FB
:1047E00004FB1100502101EB4001002000E006E035
:1047F00002F04AF9696F44F62060C860C0E70128FA
:104800000BD1052001F028F90A21002002F03CF923
:10481000002001F03BFB0020207570BD022001F05C
:104820001BF9FFF77FFA0028F7D15A2102F02CF983
:1048300064202872BDE87040002001F0A9BC05206A
:1048400001F00AF902F00EF9686FC16840F6B8325B
:104850009142E2D24FF49671C16070BD9000002089
:104860003418002042F21071414310B5A0F6FF70D9
:10487000404291FBF0F4214614A004F0D7F8174809
:10488000002100EBC1025268A24219DC11B96FF09D
:10489000B30010BD00EBC1000838C368426800686F
:1048A000D31A121B0A24624392FBF3F200EB80003E
:1048B00002EB400422460AA004F0B8F8204610BDDE
:1048C000491C1C29DDDB40F2EE2010BD74656D70C3
:1048D000207265733A25640A00000000AC9C000851
:1048E000696E6465783A25642C74656D703A256448
:1048F0000A00000010B501210A48FEF79DFAB0F544
:10490000F06F01D3032010BD40F22C71884201D317
:10491000022010BDB0F5D26F01D3012010BD0020E0
:1049200010BD0000581500201FB5FF24002001AA6B
:1049300001461154401C0A28FBDB0A20009001A903
:104940006846FDF7D5FD08B39DF8000006281DD187
:104950001E499DF80400CA78904217D0C8709DF88F
:1049600005001B4AA52814D1907C9DF806108842AA
:104970000CD0537C9DF80700834207D031B128B199
:104980009174507411461348FEF790FCFF2004B058
:1049900010BD5A2817D1907C08B9517C41B19DF8BF
:1049A000061088420FD1507C9DF8071088420AD12A
:1049B0009DF808409DF80900844203D1A4F16100EC
:1049C000122800D9FF242046E1E700007C000020E7
:1049D000D81700201C1B002070B53B4E0024082176
:1049E0003046FCF795FA394D00BB00220F231146E3
:1049F0001046FCF7F5FF08213046FCF789FAA8B904
:104A00000CE000221E2311461046FCF7E9FFA868BF
:104A1000641C401CA4B2A860202C53D2082130464C
:104A2000FCF776FA0028ECD0642070BD04213046F3
:104A3000FCF76EFA00BB00220F2311461046FCF76C
:104A4000CFFF04213046FCF763FAA8B90CE0641CE0
:104A5000A4B2202C36D200221E2311461046FCF7A9
:104A6000BFFFA868401CA86004213046FCF750FA3C
:104A70000028ECD0712070BD02213046FCF748FAC6
:104A800000BB00220F2311461046FCF7A9FF0221AC
:104A90003046FCF73DFAA8B90CE000221E2311466F
:104AA0001046FCF79DFFA868641C401CA4B2A860D7
:104AB000202C07D202213046FCF72AFA0028ECD03D
:104AC0006F2070BDFF2070BD001401407C000020ED
:104AD00010B5040000D110BD662020700120607068
:104AE000FEF7D6FEFEF766F804F10C01201D04F077
:104AF00031FF0D48002444800480846140F22B1172
:104B00004461016204F092FEFCF73CFA0748007829
:104B100040B907480475447584610146C46105487D
:104B2000FEF7C4FB012010BDD400002014020020B9
:104B3000D81700201C1B00200448017C21F0010133
:104B40000174C9B2102000F0DDBB00000418002081
:104B50000448017C21F00E010174C9B2102000F05C
:104B6000D1BB0000041800200448417E21F0080158
:104B70004176C9B2192000F0C5BB0000041800201E
:104B80000448C17D21F00801C175C9B2172000F0A9
:104B9000B9BB0000041800200448C17E21F00801C0
:104BA000C176C9B21B2000F0ADBB00000418002084
:104BB00010B5084C0021A175E07D20F00700E075DC
:104BC000162000F09FFBE17DBDE81040172000F0AB
:104BD00099BB00000418002010B50E4C002121776D
:104BE000607F20F007006077A177E07F20F007006A
:104BF000E0771E2000F086FBE17F1F2000F082FBA3
:104C0000217F1C2000F07EFB617FBDE810401D204D
:104C100000F078BB0418002010B50E4C002121765E
:104C2000607E20F007006076A176E07E20F007002D
:104C3000E076182000F066FB617E192000F062FB30
:104C4000A17E1A2000F05EFBE17EBDE810401B2033
:104C500000F058BB0418002010B5094CA07B20F0D0
:104C60000200A073E07B20F00200E073A17B0E2025
:104C700000F048FBE17BBDE810400F2000F042BB94
:104C80000418002010B5094CA07B20F00400A0738C
:104C9000E07B20F00400E073A17B0E2000F032FBEB
:104CA000E17BBDE810400F2000F02CBB0418002071
:104CB0000448C17B21F00901C173C9B20F2000F083
:104CC00021BB0000041800200448817B21F0090169
:104CD0008173C9B20E2000F015BB0000041800203B
:104CE00010B5094C207B20F008002073607B20F079
:104CF00008006073217B0C2000F004FB617BBDE8A1
:104D000010400D2000F0FEBA0418002010B5094C28
:104D1000207B20F001002073607B20F00100607395
:104D2000217B0C2000F0EEFA617BBDE810400D20E5
:104D300000F0E8BA0418002010B5094C207B20F0E0
:104D400004002073607B20F004006073217B0C2042
:104D500000F0D8FA617BBDE810400D2000F0D2BA17
:104D60000418002010B5094C207B20F002002073AD
:104D7000607B20F002006073217B0C2000F0C2FAFF
:104D8000617BBDE810400D2000F0BCBA0418002083
:104D90000448417C21F001014174C9B2112000F0A6
:104DA000B1BA0000041800200448C17F21F00801B6
:104DB000C177C9B21F2000F0A5BA00000418002076
:104DC00010B5FEF7B5FAFEF76AFBFEF7A7FAFEF795
:104DD000A2FAFEF79FFAFEF79FFAFEF75FFB02F0DA
:104DE0007DFB03A003F022FEFF20FCF795FDF8E712
:104DF00053544D3332463130782053444B2C206D80
:104E0000756C7469207461736B20737461727420A3
:104E100072756E6E696E67210A0000002DE9F0411F
:104E200004463148FEF7C2F82F4D562020706879AD
:104E300060702879A0700020E070E87BE073287C27
:104E40002074687C6074A87CA0740822E91D201D71
:104E5000FCF7BAFE2548017804F11400012905D1B8
:104E60000C2205F11401FCF7AFFE02E00C21FCF767
:104E7000A2FEFDF753FA4FF46166B0FBF6F2D1B231
:104E800006FB12003C22B0FBF2F06173C2B2A273C7
:104E9000A879207316A003F0C9FD607B172820D9DC
:104EA0001827B0FBF7F507FB1500A17B7043C1EB9A
:104EB000011100EB8100FDF789FA207B07212844CE
:104EC000B0FBF1F201FB12002073607BB0FBF7F145
:104ED00007FB11006073BDE8F0410B490248FEF783
:104EE000E5B9BDE8F08100001C1B00201402002081
:104EF000636C6F636B20686F75723A25642C6D6903
:104F00006E3A256400000000D817002010B5334920
:104F100000240A783249552A02D162285DD101E085
:104F2000622802D10A680C2A57D00A68012A02D0E6
:104F300009680D2905D02B49097811B92A4A0121A0
:104F40001170A0F1620112293FD2DFE801F00912CD
:104F50001A373E37213E3E16250D372C3B3037376A
:104F6000BDE8104003F0BABE03F040FF04466D20D8
:104F70000BE003F065FE63201CE0BDE8104003F089
:104F800075BE03F00BFF0446642003F04BFF1CE0EA
:104F900003F076FD68200DE06C2003F043FFBDE8D0
:104FA000104003F0F1BE03F0C7FE6F2002E003F0F3
:104FB0003FFD7120BDE8104003F034BFBDE8104054
:104FC00003F06EBD03F064FE0446002C05D0BDE87E
:104FD000104002490548FEF769B910BDD8170020F6
:104FE0000801002014020020700000201C1B00207B
:104FF0002DE9F041002404F051FD03F0CBFBFEF756
:10500000A9F8FDF7C5FDFBF735FB03F093FF174843
:10501000FFF704FFFBF7B6FF154D01202870FBF7E3
:105020008BFF04F08DFD114E124F4FF4E17828698B
:10503000401C28613078562809D13878662806D176
:10504000641CA4B2444503D303F048FE00E00024EE
:105050000022142311461046FCF7C2FCFFF764FC43
:10506000FF28E4D00024FFF751FFE0E7D817002025
:105070007C000020341800202DE9F047DFF8C481BF
:10508000044658F82000401C48F824006E4F3A5D52
:105090006E494FF0010908F1100007F108050026DC
:1050A000BAB950F82420052A0ED907F8049048F818
:1050B000249040F8246025F81460088800287BD0EC
:1050C000012C79D10E8065E02046BDE8F04704F060
:1050D00049BD35F81420520825F8142035F814205D
:1050E000C2F30E0225F8142050F82420052A07D90F
:1050F00007F8049048F8249040F8246025F81460DC
:1051000050F82420022A05D335F8142042F4004236
:1051100025F8142040F82460088820B1012C02D121
:105120000E8001F09FFC58F82400102844D148F864
:1051300024603E5535F81400400825F8140035F871
:1051400014004149103121F81400A1F10C0000F8BD
:1051500004903F4B18883F4F3F4D012805D02888C9
:10516000012802D0388801286AD140F2555241F214
:105170005550012C4AD11C88012C0FD14C88C4F306
:105180000B04944200D148804888C0F30B00904241
:1051900056D11E80BDE8F04701F064BC2B88012B7E
:1051A0004ED14B8842F65514C3F30B0742F25563B8
:1051B000974202D1488011E042E04A88C2F30B02D4
:1051C000A2F51067553F01D14C8007E04A88C2F331
:1051D0000B02A2F5C067553F00D14B804A8882423E
:1051E00011D04A881D48A24204D102885AB10288CF
:1051F000A24208D04988994222D10188994202D01E
:10520000008800281CD101F02DFC18E0022C01D0F0
:10521000002C15D131F81430C3F30B03934201D1A4
:1052200021F8140031F81410814209D1388801287E
:1052300002D02888012803D101F014FC3E802E8082
:10524000BDE8F0871C02002010000020D2000020E2
:10525000CA00002010020020CC000020D400002052
:105260002DE9FC4100250C46102690B908210420A8
:10527000FBF7CCFD370114E08DF806006846FBF71C
:10528000A5FC3846FBF78EFC3846FBF785FCBDE8ED
:10529000FC8101280DD109210420FBF7B7FD4FF453
:1052A00000778DF8045000978DF805609CB10120BF
:1052B000E2E7022806D10A210420FBF7A7FD4FF4FC
:1052C0008067EEE70328E2D10B210420FBF79EFD67
:1052D0004FF40067E5E70020CEE700000020074A12
:1052E00001461154401C2028FBDB054800780028AB
:1052F00002D1FF20FBF7D4BA704700000418002049
:105300001402002070B505460C46FDF761FA042131
:10531000A020FDF7CDF9E806000E0521FDF7C8F93C
:105320002007BDE87040000E0421FDF7C1B9000060
:1053300070B5FFF7DFFA144C0546207B03F008FF39
:10534000607B03F071FFA07B04F01AF86078401CCA
:10535000C0B204F0A9F803F0EFFE04F005F8284607
:1053600003F0B2FE04F004FA04F0EAF9032004F0BA
:10537000EBF8A07818B1BDE8704004F0EDB9BDE8D5
:105380007040FFF711BD0000D817002070B5002451
:10539000054D264631462E552046FFF7B3FF641CC7
:1053A000E4B2202CF6D370BD041800202DE9FE4F86
:1053B00000276620019003204FF0560A0125B846C9
:1053C0003C46BB46B9460090FBF726FAF94E002250
:1053D000A9033046FBF7A3FD00220A23114610461D
:1053E000FCF7FEFA0022A9023046FBF798FD0022E6
:1053F0000A2311461046FCF7F3FAFFF76FFFEE4E53
:1054000008E000220A2311461046FCF7E9FAF0688A
:10541000401CF06030780028F3D0E848007800287D
:10542000EFD0FFF7B3FFFFF783FFE54802900022BC
:105430004FF4FA7311461046FCF7D2FADE4EF068CC
:10544000401CF060DE48C01E007850457DD05528D5
:105450007CD1DCA003F0EAFADFF858A30122910323
:105460005046FBF75CFD012291025046FBF757FDC9
:1054700004F0FEFA09E0D0490022C8686423401C09
:10548000C86011461046FCF7ABFACB48807800287C
:10549000F1D1FEF7FDF9FEF757FBFDF78BFB4FF05F
:1054A000550A052606E0072E04D0052E02D0304608
:1054B000FCF732FA761CF6B20A2EF4D9FCF7BEFDE0
:1054C00000224FF40051BB48FBF729FD0022642362
:1054D00011461046FCF784FAB74EF068401CF060A5
:1054E000FBF72AFD0022C82311461046FCF778FA84
:1054F000F068401CF060FFF717FA622802D0FDF751
:10550000CFFF70B1FCF75CFE04F0F4F9FCF7E0FFAC
:105510000022642311461046FCF762FA03F0DEFB1A
:1055200085E7F068401CF060AD480068012843D171
:10553000FCF7F4FE4FF46166B0FBF6F1A04A11F0FF
:10554000FF03A2F10302537301E071E03AE006FBAE
:1055500011004FF03C01B0FBF1F0C0B2907308D1E4
:1055600038B9117B491CC9B21173082901D1012135
:105570001173D17B8B421CD1117C884219D1107BD5
:105580000299405CA8B1FCF71BFE04F0B3F9FCF7EC
:105590009FFF0022642311461046FCF721FA03F016
:1055A0009DFB0022642311461046FCF719FA4FF0C8
:1055B00001098B49002008608148C01E00785628E8
:1055C0008AD134E7562833D186A003F02FFA794FD9
:1055D00000224FF480413846FBF7A1FC0022391528
:1055E0003846FBF79CFC0022642311461046FCF76A
:1055F000F7F9FFF773FE0022642311461046FCF70B
:10560000EFF90020FBF74CF9FFF7C0FEFFF790FE23
:10561000FEF76CF900274FF0560AB9F1010F07D1D8
:10562000032065497070491C7068FBF7F7FFB946A5
:105630006B480068012868D16149C91EC8780328F1
:1056400060D004285ED0FCF769FE4FF46163B0FBC4
:10565000F3F15B4A03FB1100D21E51733C21B0FBF6
:10566000F1F090731078562819D11046C078B0B96F
:105670005F48007898B9FFF7AFFAFFF7CDFA5048C6
:10568000C01E407B03F0D0FD00220A2311461046C5
:10569000FCF7A6F94A48C01E807B03F071FE48481B
:1056A000C01E407B88B94649C91E887B68B9087B03
:1056B000401CC0B20873082801D101200873087883
:1056C000562802D1087B03F043FD3D48C01E417BB4
:1056D000C27B914216D1817B027C914212D1017B27
:1056E0000298085C30B143480078692803D14249E8
:1056F0000120087006E003202F497070491C706873
:10570000FBF78CFF3649002008602D48C01E017849
:10571000552909D1F0680023401CF0600122194688
:105720001846FCF75DF982E60646C078B84265D0B7
:105730000D2F3BD2DFE807F0073A0A0E113A3A3A4A
:105740003A3A131C290003F0F7FC2FE0307B03F0FA
:10575000FFFC2BE0707B03F067FDB07B24E003F0DF
:10576000EFFFF07810BB707B03F05EFD142304E0C4
:1057700048B9707B03F058FD3223002211461046D1
:10578000FCF72EF9E9E7F07B0AE060B9B07B03F0A3
:10579000F7FD0022322311461046FCF721F9707BF9
:1057A00003F042FD02E0307C03F0EAFDF0780D28C2
:1057B00042D224E0001401407C000020A20000201E
:1057C000DB170020636F6D6520696E746F20706F4A
:1057D0007765722073617665206D6F64650A0000DD
:1057E00018020020706F776572206F6E200A00002B
:1057F0009C00002034180020970000201EE0DFE805
:1058000000F01B1B1B1B1B1B1B1B1B1B0707070085
:10581000F07B03F009FD0022322311461046FCF70D
:10582000DFF8307C03F0ACFD002232231146104635
:10583000FCF7D6F803F084FFF7780124F0780D2800
:105840003AD2DFE800F007390F181C3939393939F5
:1058500020283100012C02D103F06EFC2CE0FFF770
:105860009BF929E0012C03D1307B03F071FC23E08C
:10587000FFF79EF920E0012C13D1707B0EE0012C84
:1058800018D1B07B13E0012C02D103F059FF13E0D3
:10589000FFF77EFA10E0012C03D1F07B03F0C4FC8B
:1058A0000AE0FFF799F907E0012C03D1307C03F0FF
:1058B00067FD01E0FFF7B0F93348006858B133489D
:1058C00000680C2807D0012D02D10225284606E0E9
:1058D0000125284603E0032D03D00325284603F0C5
:1058E00033FE2B4E01993078884210D0672802D1C0
:1058F00003F00AFC01E0FFF737F93078682802D19D
:1059000003F00EFC01E0FFF73BF9307801902148ED
:10591000807BF0B11D4800680C2817D11A48006838
:1059200050B1007A022807D14CB94FF00008FFF7B8
:1059300003F9FFF70DF909E0B8F1000F06D103F004
:10594000B7FB032003F0C0FB4FF001084FF0010B41
:1059500017E0BBF1010F07D14FF0000BFFF7ECF898
:10596000FEF7C8FF03F0B0FB0B48007848B9FEF71C
:10597000C1FF00990646884203D0304603F0A4FBDD
:10598000009684F0010452E5040100200801002083
:10599000341800202418002097000020F8B5502368
:1059A00000930E4C06460346032200212046FDF7D5
:1059B0005DF80B4D012202212846FBF7B0FA702357
:1059C00000933346022201212046FDF74FF8284676
:1059D000BDE8F84000220121FBF7A1BA0008004011
:1059E0000018014038B550230F4C009300230222C9
:1059F00001212046FDF73AF80C4D012211462846B8
:105A0000FBF78DFA50230093002303220121204647
:105A1000FDF72CF8012202212846FBF780FA044901
:105A20008820887138BD000000080040001801403F
:105A30002418002001460A6801208A4200D0002074
:105A40007047D0E900325A6013600A685060C0E9BC
:105A500000210860704700002DE9F84F8A4D074685
:105A6000E878002410B16878012807D100F0FAFF27
:105A70000022502311461046FBF7B2FF686F002842
:105A80007ED0442000F0F2FA30B90021084603F03D
:105A9000E5FE00210120E0E0E978F9B17B490A68E0
:105AA000E2B17B4A1368CBB10E6813689B1C9E421F
:105AB00007D98188891C8180C18802290ED3891E5B
:105AC0000BE012680968891C8A4207D9818802297B
