:020000040800F2
:10000000403900200101000805010008070100082F
:10001000090100080B0100080D01000800000000A4
:1000200000000000000000000000000011010008B6
:100030000F0100080000000081020008652B000885
:100040000D3500083F2300080D2C00089B280008F0
:10005000651000080D270008E50D0008610E000876
:10006000A10E0008A30E0008A50E0008050C00084C
:10007000070C0008090C00080B0C00080D0C000808
:100080000F0C0008110C0008710800080735000863
:1000900009350008CF090008D1090008A90E000899
:1000A0007D2C00088D2D00083D2D0008832C0008B4
:1000B000B92D00086D2E0008712E000803130008EA
:1000C000011300080713000805130008A129000800
:1000D000A3290008ED3200086533000885330008C5
:1000E000050E0008992800080535000800000000EA
:1000F0000000000000000000000000000000000000
:1001000004480047FEE7FEE7FEE7FEE7FEE7FEE7FE
:10011000FEE700001901000800F002F800F05CF8AA
:100120000AA090E8000C82448344AAF10107DA4552
:1001300001D100F051F8AFF2090EBAE80F0013F048
:10014000010F18BFFB1A43F001031847C441010017
:10015000E44101000A444FF0000C10F8013B13F099
:10016000070408BF10F8014B1D1108BF10F8015B10
:10017000641E05D010F8016B641E01F8016BF9D103
:1001800013F0080F1EBF10F8014BAD1C0C1B09D15A
:100190006D1E58BF01F801CBFAD505E014F8016BCC
:1001A00001F8016B6D1EF9D59142D6D3704700005E
:1001B0000023002400250026103A28BF78C1FBD870
:1001C000520728BF30C148BF0B6070471FB512F0FF
:1001D000B8FF1FBD10B510BD00F0EEF91146FFF7D6
:1001E000F5FF08F0A3FC00F00CFA03B4FFF7F2FFF0
:1001F00003BC00F013FA000002480349034A044B11
:100200007047000040350020403900204037002072
:100210004037002072B606B42E490A7802F1010276
:100220000A7006BC704706B42A490A78A2F1010296
:100230000A704FF00001002A81F3108806BC704755
:10024000254C264D25604FF0000484F30988244C8A
:100250004FF001052570234C4FF08055256062B6A4
:10026000FEE730B41F4C4FF08055256030BC70471E
:1002700030B41C4C4FF08055256030BC704700BF37
:10028000EFF3108372B6EFF3098030B1A0F12000D4
:1002900080E8F00F144C2468206000B513488047B4
:1002A0005DF804EB124C134D2E7826700E4C124E56
:1002B00036682660306890E8F00F00F1200080F387
:1002C00009884EF0040E83F31088704700BF72B6A1
:1002D000704700005000002020ED00E00000FFFF0C
:1002E0005800002004ED00E068000020891E00088E
:1002F00056000020570000207000002010B54C1060
:1003000084EA530404D54042C1F1000138BF491EBC
:100310001B4204D55242C3F1000338BF5B1E00F0FC
:1003200097F814F0804F04D04042C1F1000138BF6B
:10033000491E14F0004F04D05242C3F1000338BFED
:100340005B1E10BD40EA010310B59B070AD1042AC9
:1003500008D310C808C9121F9C42F8D020BA19BA95
:10036000401A10BD1AB1D30703D0521C07E0002079
:1003700010BD10F8013B11F8014B1B1B07D110F801
:10038000013B11F8014B1B1B01D1921EF1D1184604
:1003900010BD10B5203AC0F00B80B1E81850203ADB
:1003A000A0E81850B1E81850A0E81850BFF4F5AF15
:1003B0005FEA027C24BFB1E81850A0E8185044BF9F
:1003C00018C918C0BDE810405FEA827C24BF51F80C
:1003D000043B40F8043B08BF7047D20728BF31F800
:1003E000023B48BF11F8012B28BF20F8023B48BF51
:1003F00000F8012B704702F0FF0343EA032242EAB0
:10040000024200F002B84FF000020429C0F012804E
:1004100010F0030C00F0A080CCF1040CBCF1020F32
:1004200018BF00F8012BA8BF20F8022BA1EB0C018C
:1004300000F092B85FEAC17C24BF00F8012B00F8FD
:10044000012B48BF00F8012B704770477047704779
:1004500053EA020C00F069802DE9F04B4FF00006E2
:10046000002B1FBFB3FA83F503FA05F424FA05F64F
:100470005E4012BF1643B2FA82F502FA05F4C5F1E6
:1004800020051EBF22FA05FC44EA0C04203556EA7A
:10049000044C4FEA144418BF641C4FF000084FF09E
:1004A0000009904271EB030C39D3002919BFB1FA4E
:1004B00081F701FA07F6B0FA80F700FA07F6C7F1FC
:1004C00020071EBF20FA07FC46EA0C062037B6FBC1
:1004D000F4FCA7EB0507103F07F01F0BCBF120063C
:1004E0000CFA0BFB2CFA06F644BFB3460026202F6D
:1004F000A4BF5E464FF0000B5BEA060C08BF4FF04E
:10050000010B19EB0B09ABFB027C48EB0608C01B87
:1005100006FB02CC0BFB03CC71EB0C01C1E70B46D5
:10052000024641464846BDE8F08B13B54FF0000047
:100530004FF00001AFF30080BDE81C40704710B5DC
:1005400000F030F8006810BD10B5044600F02AF83D
:10055000046010BD4FF0000200B513469446964665
:10056000203922BFA0E80C50A0E80C50B1F12001C6
:10057000BFF4F7AF090728BFA0E80C5048BF0CC074
:100580005DF804EB890028BF40F8042B08BF7047D2
:1005900048BF20F8022B11F0804F18BF00F8012B44
:1005A0007047000001487047704700BFE0340020EA
:1005B00000487047E03400207546FFF7F9FFAE466B
:1005C00005006946534620F00700854618B020B55F
:1005D000FFF712FEBDE820404FF000064FF0000785
:1005E0004FF000084FF0000B21F00701AC46ACE8DB
:1005F000C009ACE8C009ACE8C009ACE8C0098D4648
:1006000070470446AFF300802046FFF7EEFD000080
:1006100001487047704700BFE434002001491820AA
:10062000ABBEFEE726000200704710B5A02000F028
:10063000B5F80121022000F0C9F8022000F064F8AA
:1006400010F0010FF9D1222000F05EF813212420D0
:1006500000F0BCF83B21262000F0B8F800210F2064
:1006600000F0B4F80221084600F0B0F8022000F0D3
:100670004BF810F0020FF9D1252000F045F800F0FA
:100680000704A0210F2000F0A1F80221084600F085
:100690009DF8022000F038F810F0020FF9D1252063
:1006A00000F032F800F007012046BDE8104002F0EB
:1006B000DFB9000070B5114D012435F81400C1B246
:1006C000204600F083F8641CE4B2042CF5D907241A
:1006D00035F81400C1B2204600F078F8641CE4B28A
:1006E000222CF5D9242435F81400C1B2204600F09C
:1006F0006DF8641CE4B2312CF5D970BD22350108C7
:10070000802000F04BB8000070B50E4D06464FF447
:10071000804400222146284600F0E9FD06F07F01D2
:1007200041F04001082011F0F1FC012000F035FB00
:100730000CF078FA064601222146284600F0D7FD43
:10074000304670BD000801400021084600F03EB868
:1007500070B5114D4FF4804400222146284600F028
:10076000C6FD0621082011F0D1FC5621082011F009
:10077000CDFC5921082011F0C9FCA521082011F059
:10078000C5FCA921082011F0C1FC21462846BDE87E
:100790007040012200F0ABBD0008014070B50A4D69
:1007A00006464FF4804400222146284600F09FFD73
:1007B0003146042011F0AAFC21462846BDE87040CD
:1007C000012200F094BD0000000801402DE9F04135
:1007D0000C4D07460E464FF4804400222146284621
:1007E00000F085FD07F07F01082011F08FFC3146F5
:1007F000082011F08BFC21462846BDE8F04101227B
:1008000000F075BD0008014002688A43026070472D
:10081000026822EA1122026070470029816802D032
:1008200041F0010101E021F00101816070470029E0
:10083000816802D041F4807102E04FF6FF621140FE
:1008400081607047014600208968490700D5012072
:1008500070470246002012680A4200D0012070470B
:10086000014600208968090700D501207047000073
:1008700070B5124D01212846FFF7EBFF01281BD16F
:1008800001F04EFB0E4CE06102F0ACF9A0610120DA
:1008900060610020E08001212846FFF7B5FF4FF49A
:1008A000A07400222146284600F00CF82146284674
:1008B000BDE87040FFF7ACBF70BD000000240140F0
:1008C00004000020002A4268C9B201D00A4300E0B7
:1008D0008A4342607047000010B542680E4B0C79A5
:1008E0001A400B6842EA04221343436082680B4BB0
:1008F0001A40D1E9024323434C7942EA44021343AC
:100900008360C26A097C22F47002491EC9B242EABD
:100910000151C16210BD0000FFFEF0FFFDF7F1FFC5
:1009200070B5072609290AD9C568A1F10A0404EBA4
:100930004404A640B543A3401D43C56007E00569D4
:1009400001EB4104A640B543A3401D4305611F23AD
:10095000072A09D2446B521E02EB820293409C4349
:1009600091400C43446370BD0D2A09D2046BD21F21
:1009700002EB820293409C4391400C43046370BDA0
:10098000C46A0D3A02EB820293409C4391400C43AF
:10099000C46270BD816841F0080181607047002920
:1009A000816802D041F4A00101E021F4A00181603E
:1009B0007047816841F0040181607047010900F0CF
:1009C0000F0001EB810100EB4100C0B2704770479E
:1009D000704700002DE9F84FFF20ADF8000000251A
:1009E000574F8DF8035003248DF80240694638466E
:1009F00000F00AFC2F20ADF80000DFF848918DF8D8
:100A000003508DF802406946484600F0FDFB012086
:100A1000ADF80000DFF830A18DF803508DF80240EA
:100A20006946504600F0F0FBF814ADF800001426BB
:100A30008DF803608DF802406946384600F0E4FB0B
:100A40004FF48040ADF80000404F8DF803608DF802
:100A500002406946384600F0D7FB0425ADF8005047
:100A600010208DF803008DF802406946504600F0D2
:100A7000CBFBADF800508DF803608DF8024069465D
:100A8000384600F0C1FB4FF48140ADF80000DFF8BC
:100A9000C0808DF803508DF802406946404600F052
:100AA000B3FBA802ADF800008DF803508DF80240AA
:100AB0006946504600F0A8FB2603ADF800608DF8AB
:100AC00003508DF802406946384600F09DFB4020F7
:100AD000ADF8000048278DF803708DF80240694694
:100AE000484600F091FB0220ADF800008DF803703D
:100AF0008DF802406946404600F086FB6003ADF881
:100B000000008DF803508DF802406946484600F019
:100B10007BFBADF800608DF803508DF8024069460C
:100B2000404600F071FB2020ADF800008DF8035026
:100B30008DF802406946504600F066FBBDE8F88F2C
:100B40000008014000100140000C01400014014069
:100B500000180140F8B51025ADF8005003248DF8B9
:100B600002408DF803506946184800F04DFBE8023A
:100B7000ADF80000164E8DF802408DF8035069461E
:100B8000304600F041FB4020ADF800008DF80350E6
:100B90008DF8024069460F4800F036FB0120ADF8A1
:100BA00000008DF8024014258DF803506946304648
:100BB00000F02AFB0220ADF800008DF802408DF80D
:100BC00003506946304600F01FFBF8BD000C0140A1
:100BD000001401400018014010B50446522001F0F5
:100BE000C3FE302001F0C0FE022001F0BDFE062051
:100BF00001F0BAFE082001F0B7FE2046BDE8104023
:100C000004F088B870477047704770477047704766
:100C100070470029016802D041F0010101E021F094
:100C2000010101607047000000B502460021FFF796
:100C3000F0FF0020106050609060D060184B1848A2
:100C4000D11A44389A421ED00ADC1649511812D0E3
:100C5000142914D028290DD1416841F4706108E0AD
:100C6000142914D0282916D03C2903D1416841F019
:100C70007061416000BD416841F00F01F9E74168D2
:100C800041F0F001F5E7416841F47041F1E7416856
:100C900041F47021EDE7416841F47001E9E700009B
:100CA00044000240F8FFFDBF30B5036847F6F0721C
:100CB00093430C6A8A682243D1E904452C432243BA
:100CC0008C692243CC6922434C6A22438C6A2243BA
:100CD0001A430260CA6842600A6882604968C1605B
:100CE00030BD000038B50446062000F0C7FB00F018
:100CF0000700FFF763FE401CE070042000F0BEFB1D
:100D000000F03F00FFF75AFEA070032000F0B6FB92
:100D100000F07F00FFF752FE6070022000F0AEFB93
:100D200000F07F00FFF74AFE207000906378A27801
:100D3000E17808A00BF0E6FBA078182802D26078D2
:100D40003C2806D30C488179A170C1796170407943
:100D5000E07038BD7765656B3A256409686F757218
:100D60003A256409096D696E3A2564097365636FF4
:100D70006E643A25640D0A00B02D00200A22B0FBF3
:100D8000F2F102FB110000EB0110C0B2704700202D
:100D9000401C80B20A28FBD3704700224FF49673A0
:100DA00006E00021491C89B29942FBD3521C92B241
:100DB0008242F6D37047000010B5084C20680F2817
:100DC00001D0002010BDFFF725FA05490E20096863
:100DD00088722060FFF727FA012010BDB4000020C0
:100DE000B000002010B5FFF715FA05480178491C3E
:100DF0000170FFF718FABDE8104000F01BBE0000BC
:100E00005400002010B5FFF705FA14490878401C7B
:100E10000870FFF708FA4FF48054204600F0A2F85B
:100E200040B1204600F098F8012006F061F9204614
:100E300000F092F84FF48044204600F093F840B15F
:100E4000204600F089F8022006F052F9204600F012
:100E500083F8BDE8104000F0EDBD00005400002014
:100E600010B5FFF7D7F90C490878401C0870FFF758
:100E7000DAF9022000F076F850B1022000F06CF8A8
:100E8000FFF7C8F905480168491C0160FFF7CBF975
:100E9000BDE8104000F0CEBD54000020DC02002070
:100EA000704770477047000070B5FFF7B3F92449E9
:100EB0000878401C0870FFF7B6F94FF48075284693
:100EC00000F050F8C0B1284600F046F8FFF7A2F94C
:100ED0001C4C2178491C2170FFF7A5F920780828BF
:100EE00007D10021032010F0FDF80021032010F0AD
:100EF000ACF8284600F030F8202000F033F810B1AC
:100F0000202000F029F8402000F02CF850B14020BB
:100F100000F022F8FFF77EF90B480168491C0160D8
:100F2000FFF781F9802000F01DF828B1802000F043
:100F300013F8002006F0DCF8BDE8704000F07ABD40
:100F4000540000204F030020E00200200149086007
:100F50007047000014040140014908607047000018
:100F600014040140064B014600201A685B6902EA3E
:100F700001020B4202D0002A00D00120704700007D
:100F80000004014030B5194C017985790B190268CC
:100F9000D3F8001435B31143C3F80014D4F808147F
:100FA00002689143C4F80814D4F80C140268914301
:100FB000C4F80C144179102907D021440068D1F8F5
:100FC00000240243C1F8002430BD04F58164216887
:100FD000026841EA020121606168006841EA00019B
:100FE000616030BD9143C3F8001430BD0000014082
:100FF0000149C860704700000020024070B50546F6
:1010000040F6FF76304600F07FF8042813D10A4CF2
:10101000206940F0020020616561206940F04000D5
:101020002061304600F070F8012804D0216941F6B3
:10103000FD721140216170BD00200240084904206A
:10104000CA68D20701D001207047CA68520701D58B
:1010500002207047C968C906FBD50320704700000D
:1010600000200240704700000248016941F0800101
:10107000016170470020024004490A6822F0100212
:101080000A600A6802430A607047000000200240BC
:101090002DE9F04106460D460F2000F035F80428F2
:1010A00016D10C4C206940F00100206135800F20E2
:1010B00000F02AF841F6FE77042804D1280C70804D
:1010C0000F2000F021F8012802D021693940216168
:1010D000BDE8F0810020024004490A6802F03802AD
:1010E0000A600A6802430A6070470000002002405C
:1010F0000348024941600349416070472301674545
:1011000000200240AB89EFCD2DE9F0410446FFF706
:1011100095FF114D114E124FDFF8488012E000F09C
:1011200083FA2868401C28603068401C30603868AA
:10113000401C3860D8F80010491CC8F80010FFF7B0
:101140007DFF641E012804D0002C00D10520BDE8DD
:10115000F081002CE3D1F9E744030020A000002037
:1011600094000020AC0000201B4A10B5811A131512
:10117000904222D00BDC1949401817D098422AD14E
:101180000121082001F052F9002108200AE09942CB
:101190001AD0B1F5006F1ED10121402001F046F9AF
:1011A00000214020BDE8104001F040B90121042099
:1011B00001F03CF900210420F4E70121102001F0A6
:1011C00035F900211020EDE70121202001F02EF952
:1011D00000212020E6E710BD0010014000F8FEBF0E
:1011E00010B58A0721F003040649120F21440F238A
:1011F0008C6893409C438C608B68904003438B6069
:1012000010BD000000000140F0B5CC78002204F0D1
:101210000F03E40601D58C7823430C884FF00F0CA4
:1012200014F0FF0F4FF0010E19D005680E880EFA6A
:1012300002F42640A6420ED196000CFA06F7BD43F2
:1012400003FA06F63543CE78282E00D14461CE78D5
:10125000482E00D10461521C082AE7D305600A8891
:10126000FF2A1DD94568002202F108060EFA06F48D
:101270000E882640A6420FD196000CFA06F725EA02
:10128000070703FA06F5CE783D43282E00D14461C6
:10129000CE78482E00D10461521C082AE4D3456060
:1012A000F0BD000070B50D4E7268C0F3034583B207
:1012B000840202D522F0E06207E0C40204D50324D0
:1012C00004FA05F4A24300E09A4329B1800202D552
:1012D00042EA034200E01A43726070BD0000014020
:1012E0000246002092680A4200D0012070471AB1DD
:1012F00002690A430261704742690A4342617047CA
:1013000070477047704770472DE9F0410546082443
:1013100000F0A6F9A04610270E4E11E000F06CF880
:101320002806404602D5C6F8100801E0C6F81408A1
:101330006806050E00F060F8C6F8107800F05CF85A
:101340002000A4F10104E4B2C6F81478E6D1BDE8A7
:10135000F08100000010014070B500F081F9084CE8
:10136000082525604FF01006266000F045F86560FE
:1013700000F042F8656000F03FF86660012070BD43
:101380001018014070B500F06BF9084C102666602B
:1013900000F032F80825656000F02EF8266000F0B5
:1013A0002BF82560BDE8704000F026B81018014009
:1013B00070B5002400F040F90E4D0820C5F8100863
:1013C00000F01AF81026C5F8106800F015F809E0CA
:1013D000641CE0B2411CCCB2FA2803D9FFF7D2FF5B
:1013E000002070BDD5F808080007F1D4C5F81468CE
:1013F000012070BD001001400A20401EFDD1704741
:1014000070B5084C0025256001F09CFA256102208A
:1014100003F0F0FB01202060022003F0EBFB2560CD
:1014200070BD0000A001214270B5084C0025256068
:1014300001F088FA01222261022003F0DBFB226026
:10144000022003F0D7FB256070BD0000A0012142FF
:1014500008B54FF48850ADF8000003208DF8020065
:1014600014208DF8030069460348FFF7CDFE0021E4
:10147000084600F0C1F808BD0008014010B5044658
:10148000FEF7C8FE00F06AF8A22000F043F800F072
:1014900091F8204600F03EF800F08CF800F05EF87D
:1014A000A32000F037F800F085F8002000F008F8DD
:1014B000044600F067F8FEF7B6FE204610BD0000B7
:1014C0002DE9F0410546002401F02AFA0022104BD4
:1014D00016460127C3F8A061022003F08BFBC3F876
:1014E000A0716006040ED3F8300108B1641CE4B2A8
:1014F000012003F07FFB521CD2B2082AEAD325B1A7
:10150000FFF77EFF2046BDE8F081FFF78DFFF9E78A
:101510000000214270B5044601F014FA0E4B00257C
:10152000C3F8A0512A460126E009C3F8B0016006BD
:10153000040E022003F05EFBC3F8A061022003F05A
:1015400059FBC3F8A051022003F054FB521CD2B245
:10155000082AE9D370BD00000000214210B501F057
:10156000F1F9074A0120106110604FF0040003F008
:1015700041FB00231361042003F03CFB136010BD0A
:10158000A001214210B501F0DDF9094A00201060E8
:1015900010614FF0040003F02DFB012313600420C1
:1015A00003F028FB1361BDE81040042003F022BBC8
:1015B000A001214210B5002401F0B2F90D4A012327
:1015C000C2F8B031184603F015FBC2F8A031012073
:1015D00003F010FB07E0641CE4B2FA2C03D9FFF718
:1015E000D1FF012010BDD2F830010028F3D1C2F89C
:1015F000A00110BD0000214270B505460C46FFF762
:10160000ADFFA220FFF786FFFFF7D4FF2846FFF7C4
:1016100081FFFFF7CFFF2046FFF77CFFFFF7CAFFF0
:10162000BDE87040FFF7AEBF02494AF6AA20086045
:10163000704700000030004008B50820ADF80000F9
:1016400004208DF8030003208DF80200694603484A
:10165000FFF7DAFDFFF7D0FE08BD000000180140DB
:1016600008B50820ADF8000014208DF80300032011
:101670008DF8020069460348FFF7C6FDFFF7BCFE80
:1016800008BD000000180140F8B5C020ADF800000A
:1016900018240C4E8DF8034003258DF8025069463E
:1016A0003046FFF7B1FD6001ADF800008DF8034052
:1016B0008DF8025069463046FFF7A6FD0CF05CFA43
:1016C000F8BD0000000C01403EB5244D7F242846A3
:1016D00001F008FCA8150021ADF80400ADF80810D1
:1016E000ADF80610ADF80A1001A9284601F06EFD0C
:1016F00001221421284601F040FD502300930022CE
:1017000023461146284601F019FD50230093234635
:1017100001220021284601F011FD502300932346A9
:1017200002220021284601F009FD502300932346A0
:1017300003220021284601F001FD0021284601F086
:1017400080FC0021284601F083FC0121284601F09D
:10175000B5FB0121284601F0B9FB3EBD0008004061
:1017600038B500214FF0006000F0AAF84FF4A060F7
:1017700000F09CF825208DF8000002258DF801501E
:101780008DF80250684600F057F817208DF80000D9
:1017900001248DF801408DF802408DF80340684621
:1017A00000F04AF828208DF800008DF801408DF8EF
:1017B00002508DF80340684600F03EF807208DF88F
:1017C000000003208DF801008DF802408DF80340E1
:1017D000684600F031F81C208DF800008DF80150AB
:1017E0008DF802408DF80340684600F025F803228A
:1017F0000121054800F06EF800200CF079FA012074
:101800000CF076FA38BD00009AC3020000204FF0B9
:10181000E021431EC1F880315A0DC1F88421C1F87E
:101820008032C1F88422024601EB8003C3F8002411
:10183000401C0B28F8D37047F0B50F24C27801780C
:101840004FF0E023012742B3D3F80C2D02F4E062FD
:10185000C2F5E062120AC2F10405D4404278AA40FF
:101860008578254015438A072C01D20E944021F03B
:101870000301CE18D6F80054FF2191408D430C404F
:101880002543C6F80054007800F01F018F4040093E
:1018900003EB8000C0F80071F0BD01F01F0087402D
:1018A000480903EB8000C0F88071F0BD024908438D
:1018B00002490860704700000000FA050CED00E0E6
:1018C000024A1140014302480160704780FFFF1F38
:1018D00008ED00E070B54FF0E025FF24D5F80C3D91
:1018E00003F4E063C3F5E0631B0ADC40C3F10406C4
:1018F000B14022400A43110100F0C0029209C0F336
:101900000120C0008140FF23834005EB820000F6E8
:101910001850026822EA03020260026842EA0102E9
:10192000026070BD7047000030B587B000F080F8ED
:10193000364C0023A3622370637063712371A3602C
:1019400023613349E3801846401CC0B221F8023BB2
:101950000528F9D3A370E370E36140F2E4612D48F8
:10196000636100F0CCFB2A484FF48271D43000F060
:10197000C6FB2848002100F154023F25426180F84F
:10198000445080F84530491C54305432C9B21429AF
:10199000F4D3436180F8445080F845301D482362F9
:1019A000A0614FF43471A0F5956000F0A8FB1A48CF
:1019B000002100F1180203704260491C18301832EF
:1019C00089B21D29F7D3037043601348E06000F02B
:1019D000A9FB0F4801AC0323002232210C300FC4B5
:1019E0004FF6FF73009300F1C402402300210B481F
:1019F00000F014F905AA0AA1402000F063F900F0F4
:101A000018F807B0BDE83040FFF78CBF5400002045
:101A10009007002068090020C00400200D23000862
:101A200075432F4F532D49492049646C65000000D0
:101A30007047704710B5134C2079012820D1FEF76C
:101A4000E9FB207820B1401E10F0FF00207013D178
:101A5000607888B900F0AAFBE078A17888420BD0C2
:101A6000094951F82000E061016B491C0163A0683D
:101A7000401CA060FEF7FCFBBDE81040FEF7D3BBA6
:101A800010BD0000540000206408002070B50C4D0B
:101A90000646287808B1002070BDFEF7BBFBEC6855
:101AA0000CB16068E860FEF7BEFB3CB1012020701D
:101AB000002020812046666000F016FB204670BDA5
:101AC000540000202DE9F047054600788946144669
:101AD000012801D0012003E0234F387810B1022003
:101AE00010703EE0787808B11120F9E7FEF792FB1C
:101AF0006E684FF0000846B1C5F80480FEF793FB0E
:101B000084F800803046BDE8F087786910F8261F19
:101B100041F00201017080F8018020F8029C284603
:101B200000F0BEFAFEF77FFB00F01EFBFEF772FB33
:101B3000796991F8270001280CD00D6AC1F820803E
:101B400081F82680C1F81C80FEF76DFB84F80080C8
:101B50002846D8E7284600F033FAFEF764FB0A204F
:101B600020700020CFE700005400002070B504462C
:101B700000780D46012801D0012070BDFEF74AFB18
:101B8000608948B102222946204600F035FAFEF766
:101B90004AFB00F0E9FA08E0606818B1FEF743FB81
:101BA000142070BD6560FEF73EFB002070BD000094
:101BB00070B50C4D0646287808B1002070BDFEF7C0
:101BC00029FBEC680CB16068E860FEF72CFB3CB1C7
:101BD00003202070268100206060204600F084FAF7
:101BE000204670BD5400002010B5094C2079002813
:101BF0000CD100F0DBFAE0780649A07051F8200023
:101C0000E0616061BDE81040FEF71ABB10BD000046
:101C10005400002064080020704700002DE9FF4FA9
:101C200083B081468A4693461C46DDF85080119D5C
:101C3000FEF7F0FA1D4F387828B1FEF7F4FA1020BD
:101C400007B0BDE8F08F1A4E56F8240018B1FEF721
:101C5000EAFA2820F4E7012046F82400FEF7E3FA28
:101C600042462846129900F05FFB43465A465146C9
:101C7000484600F093F8DDE912128DE806010146AE
:101C80002A462046109B00F0D3FA050008D0FEF744
:101C9000C1FA002046F82400FEF7C5FA2846CFE72F
:101CA00038790128FAD100F05FFAF7E754000020F4
:101CB0006408002070470000014901200860704757
:101CC0000000002070B505460E461446FEF7A2FA45
:101CD000FF2D03D11048406990F828500F4850F864
:101CE00025300B2553B1012B08D0304600F096FA71
:101CF0000F2807D9FEF797FA0E200BE0FEF793FAAC
:101D0000257070BD314603F1440000F079FAFEF70A
:101D10008AFA0020207070BD540000206408002062
:101D200010B50446FEF776FA1A4951F8240058B166
:101D300001280DD090F826100A0727D531F00801A8
:101D400080F8261008D009E0FEF76DFA642010BD77
:101D5000FEF769FA0B2010BD818C19B1FEF763FA0A
:101D6000002010BD0C49C28DCB881A43CA80094A95
:101D700090F82A10D43A808D32F81130034322F8BB
:101D80001130FEF750FA00F0EFF9E9E7FEF74BFAF1
:101D9000652010BD64080020540000204FF08073BF
:101DA0001360131FA2F1240218606FF00100D061CC
:101DB0004FF0123090614FF0033050614FF002301D
:101DC00010614FF00130C2E902104FF01130506045
:101DD0004FF0103042F804094FF009301060A2F1C2
:101DE00010004FF00831C1604FF0073181604FF0B3
:101DF000063141604FF0053140F804194FF00431CD
:101E00000160704770B50446FEF704FA1C4BFF2CC6
:101E1000586905D090F82800A04204D1012503E0BC
:101E200090F82840FAE70025164850F8240068B1D9
:101E300001280FD0134C90F82A10D43C868D34F82A
:101E40001120B24324F8112008D00BE0FEF7EBF983
:101E50005A2070BDFEF7E7F90B2070BDC28DD988FE
:101E60009143D98010F8261F41F008010170FEF758
:101E7000DAF9012D01D100F077F9002070BD0000E2
:101E800054000020640800207047000070B5040072
:101E900018D0FEF7BFF90C4B0C4D596991F82A2068
:101EA0008E8D35F81200B04325F8120003D1CA8D8B
:101EB000D8889043D8808C84FEF7B5F9BDE870408F
:101EC00000F052B970BD00005400002090070020BF
:101ED00070B54FF47A746343B3FBF4F34FF4616469
:101EE0006043C1EB011100EB8100104400EB4001A5
:101EF000C1EBC01003EBC000040C80B2FFF7C6FFBB
:101F00004FF4004507E02846FFF7C0FF2846FFF7DB
:101F1000BDFF641EA4B2002CF5D1002070BD0000EE
:101F200010B5FEF777F90348846AFEF77CF920467E
:101F300010BD00005400002070B5FEF76BF91E4D77
:101F4000A86A401CA862FEF76EF92879012831D1F1
:101F50002C6A2BE0FEF75EF9A08C20B3A0F1010003
:101F60000004000CA0841ED194F8260010F0370F56
:101F700005D020F0370084F82600012000E0002082
:101F800084F8270094F8260000070CD4E08DE98837
:101F90000A4A0843E88094F82A00A38D32F810100A
:101FA000194322F810106469FEF73DF994F82800EF
:101FB0004028CFD170BD00005400002090070020C1
:101FC00010B50C4C626992F82A10928D00EB410317
:101FD00099899143998104D162694189D28D914354
:101FE00041816069002100F11C00C17281720160B1
:101FF00010BD000054000020F0B54389254D13F0BA
:10200000FF0F02D0DBB2EB5C04E005EB13231B787F
:102010000833DBB24FF0010C0CFA03F400EB43077A
:10202000A6B2BC8914F0FF0F04D004F0FF0E15F81F
:102030000E5004E005EB14252D780835EDB20CFAAE
:1020400005FC1FFA8CFC05EB031534EA0C04EDB219
:10205000BC8102D14489B44344810F48002450F824
:10206000250000F11C000481C0E90041C472817A9E
:10207000914381720BD10948C1883143C180064820
:10208000D43830F8131041EA0C0120F81310284618
:10209000F0BD000022340108640800205400002034
:1020A00070B50F4C0F4D6169C86191F82A208E8D73
:1020B00035F81230B34325F8123003D1CB8DE288C6
:1020C0009A43E28091F82A20898D00EB420293899D
:1020D0000B43938162694189D28D1143418170BD67
:1020E0005400002090070020002242810C3011464D
:1020F000491CC9B220F8022B0529F9D370470022E8
:1021000003E0491E00F8012B89B20029F9D170477C
:1021100005E011F8013B521E00F8013B92B2002A83
:10212000F7D1704730B54FF434710D48FFF7E7FF32
:102130000B48002103460A463F2401EBC10503EB8F
:1021400085052435456004754275491C243089B2E3
:102150001329F2D34260047542750248436230BDD0
:102160004C1000205400002010B5FEF753F80D4C21
:10217000207898B9607888B900F018F8E078A178EC
:1021800088420BD0084951F82000E061016B491CDE
:102190000163A068401CA060FEF763F8BDE8104032
:1021A000FEF741B85400002064080020114B10B520
:1021B000D888114A10F0FF0F02D0C0B2105C04E0C2
:1021C00002EB102000780830C0B20C4931F8101032
:1021D00011F0FF0F04D0C9B2515C01EB001006E012
:1021E00002EB11210822097802EB00100844D87094
:1021F00010BD000054000020223401089007002088
:10220000002204E0491C521C00F8013BD2B20B78BA
:10221000002BF7D1002101701046704701460020C5
:1022200002E0491C401CC0B20A78002AF9D170476C
:102230002DE9FF5F0646DDE90EBA0D469046994648
:10224000FDF7E8FF2F4FBC69F4B304F10C04A0685C
:10225000B861FDF7E8FF44F80C5C26770025A57609
:10226000E5762583201F44F808ACA0E80009109803
:10227000A080A4F806903009A077012101FA00F0AF
:10228000608406F00F0060778140218425616561DC
:102290006562E562A56225633F20656384F83800C6
:1022A00084F83950A4F10C042046FFF7B5FC204611
:1022B000FFF700FDFDF7AEFF134840F82640386AEF
:1022C000C4E9050510B100E018E084613C62E08DCE
:1022D000F9880D4A0843F88094F82A00D43AA38D6F
:1022E00032F81010194322F810107879401C7871D8
:1022F000FDF799FF002004B0BDE8F09FFDF793FFC4
:102300004620F8E75400002064080020054CFDF743
:1023100081FF2069401C2061FDF785FFFFF7CCFCA1
:10232000F5E7000054000020D30707D0920705D539
:102330000022002902D004C0491EFAE77047704706
:102340002DE9F0410C46002589880746012601B990
:102350000225E288012A00D102266088A37A00289B
:10236000384611D000F06BFC2189384600F017FF89
:10237000A37A32462946384600F049FC218938467E
:10238000BDE8F04100F004BF00F041FC218938466F
:1023900000F0FEFEA37A32462946384600F04FFC94
:1023A00021893846BDE8F04100F0F9BE01490862D4
:1023B0007047000000000E42034A516821F440417A
:1023C000014351607047000000100240044A002998
:1023D000516901D0014300E0814351617047000021
:1023E00000100240044A0029D16901D0014300E0F5
:1023F0008143D1617047000000100240044A002967
:10240000116901D0014300E0814311617047000070
:1024100000100240044A0029916901D0014300E004
:10242000814391617047000000100240044A002976
:10243000D16801D0014300E08143D16070470000C2
:102440000010024010B500F079F84FF480342046B7
:1024500000F042F900F0D2F933490128087025D183
:102460001020FEF709FE0220FEF736FE002000F0E5
:1024700029F9002000F056F9A01100F049F9601088
:10248000FFF79AFF4FF4E011204600F05BF90120BE
:1024900000F052F9392000F0F5F80028FAD00220B7
:1024A00000F0A2F900F006F90828FBD101217C20F8
:1024B000FFF7B0FF01210846FFF7ACFF012105201F
:1024C000FFF7A8FF01211948FEF7ECFE012108469D
:1024D000FFF77CFF01214802FFF79CFF0121042048
:1024E000FFF780FF01210220FFF77CFF0121084652
:1024F000FFF778FF01210E48FEF7D4FE01214FF0CF
:10250000C050FFF76FFF0121C802FFF783FF0121D1
:102510000848FEF7C7FE01210748FEF7C3FEBDE8E5
:1025200010400120FFF742BF4600002000043000A9
:10253000000C1A00C0001600000318000E4800210D
:10254000C1600161142242618161C161026842F08F
:10255000010202604268094B1A4042600268084B5F
:102560001A400260026822F480220260426822F46B
:10257000FE02426081607047001002400000FFF8D8
:10258000FFFFF6FE10B500210120FFF743FF0021F9
:102590004FF0C050FFF726FF0020FFF707FF002194
:1025A0000120FFF737FF00210E48FEF77BFE0021D8
:1025B0000D48FEF777FE00210120FFF707FF0021FD
:1025C0004FF40070FFF726FF00210420FFF70AFFF9
:1025D00000210220FFF706FFBDE81040002103485C
:1025E000FEF760BE000430000002300000081A0050
:1025F000204A10B55168204B11F00C0103D004297A
:1026000001D0082901D0036011E05168022301F4D0
:10261000701103EB9141536813F4803F02D053686B
:102620009B0301D5154B00E0134B594301605168E2
:10263000134B01F0F00109095C5C0168E140416065
:10264000546804F4E064240A1C5D21FA04F48460F4
:10265000546804F46054E40A1B5DD940C1605268B8
:10266000074B02F44042920B1B1F9A5CB1FBF2F144
:10267000016110BD0010024000127A0000093D0007
:1026800002340108034600205909094A01290AD0E9
:1026900002290AD0516A03F01F02012393400B4222
:1026A00000D0012070471168F5E7116AF3E70000D8
:1026B000001002400248406800F00C007047000023
:1026C00000100240034A516821F0F00101435160BB
:1026D00070470000001002400B490A6822F4803263
:1026E0000A600A6822F480220A60B0F5803F07D0B1
:1026F000B0F5802F03D1086840F4A020086070472F
:10270000086840F48030F9E700100240704700008C
:10271000034A516821F4E0610143516070470000B1
:1027200000100240034A516821F4605141EAC000A0
:102730005060704700100240014908667047000071
:1027400000004242034B5A68084322F47C121043B3
:10275000586070470010024010B501217C20FFF73F
:1027600059FE01210846FFF755FE01210520FFF71C
:1027700051FE01211848FEF795FD01210846FFF79B
:1027800025FE01214802FFF745FE01210420FFF745
:1027900029FE01210220FFF725FE01210846FFF74F
:1027A00021FE01210D48FEF77DFD01214FF0C050B3
:1027B000FFF718FE0121C802FFF72CFE012108488F
:1027C000FEF770FD01210748FEF76CFDBDE81040E3
:1027D0000120FFF7EBBD000000043000000C1A00E0
:1027E000C000160000031800034A516821F00301DD
:1027F00001435160704700000010024010B50A4CC0
:102800003120FFF73FFF20706068401C6060207837
:1028100010B96068FF28F3D13120FFF733FF00289B
:1028200000D0012010BD00004800002008B54FF482
:102830008060ADF8000048208DF8030003208DF87B
:10284000020069460148FEF7DFFC08BD00180140A0
:1028500008B54FF48060ADF8000004208DF8030047
:1028600003208DF8020069460148FEF7CDFC08BD43
:102870000010014008B54FF48060ADF80000102052
:102880008DF8030003208DF8020069460148FEF729
:10289000BBFC08BD001001407047704710B505240F
:1028A0002046FFF73DFA641CE4B20B2CF8D910BDAA
:1028B0002DE9F0478046894663210F20FDF786FF0A
:1028C000F020FDF76BFFC020FDF768FF0022022318
:1028D00011461046FFF7FCFA0F4F104D00244FF43D
:1028E000806631463846FEF7FBFC78B100220223B1
:1028F00011461046FFF7ECFA2868641C401CE4B24D
:1029000028600A2CEDD30020BDE8F08749464046F8
:102910000AF046F90120F7E7001801409400002072
:1029200008B54FF48050ADF8000003208DF8020088
:1029300004208DF8030069460148FEF765FC08BDD8
:102940000008014008B54FF48050ADF800000320A6
:102950008DF8020014208DF8030069460148FEF747
:1029600053FC08BD0008014010B5044600F0C8F84B
:102970000421802000F094F82046BDE81040082192
:1029800000F08EB810B5044600F0BAF80421A0207B
:1029900000F086F82046BDE81040052100F080B820
:1029A000704770470B4B00204FF0A531196302466A
:1029B00083F8340003EB8001401C01F8352FC0B2CE
:1029C0004A708A70CA700728F4D30248303000F089
:1029D00003B80000BC3100202DE9F04389B0014666
:1029E00024226846FDF7D5FC1F496D460426087869
:1029F0000028FDD1012288460A70FEF779FB0127E5
:102A00003520FEF7F5FA0024DFF860900AE0002296
:102A1000012311461046FFF75BFA4846FEF7EEFA2F
:102A20000646641CBC4201D2042EF0D00F4F4C4627
:102A300028370DE00022012311461046FFF748FA1F
:102A400002CD2046FEF724FB241D0646BC4201D8D9
:102A5000042EEFD0FEF708FB002188F8001009B023
:102A60000846BDE8F0830000B900002000A001087E
:102A7000042801D3021F01E0C0F10402D2B20429EC
:102A800001D30B1F01E0C1F10403DBB29A4202D370
:102A900040F0080101E041F008012520FDF796BE55
:102AA0002DE9F047054688460024DFF84C904FF4A6
:102AB0000046124F1CE0280601D4002200E001224B
:102AC00040214846FEF713FCFEF761F9012231462A
:102AD0003846FEF70CFCFEF75AF90022314638461C
:102AE000FEF705FCFEF753F96806050E641CE4B218
:102AF0004445E0D3BDE8F0870018014000140140D0
:102B000070B5154C012210212046FEF7F0FB012282
:102B1000124ED50329463046FEF7E9FB012240213B
:102B20000F48FEF7E4FBFEF732F9002210212046A1
:102B3000FEF7DDFB002210212046FEF7D8FB002225
:102B400029463046FEF7D3FB29463046BDE87040A3
:102B50000022FEF7CCBB0000000C01400014014035
:102B60000018014010B5FDF755FB0D490878401CD1
:102B70000870FDF758FBFFF7DFF90A480169491CA7
:102B8000016109480168491C01604168491C4160B4
:102B90008168491C8160BDE81040FEF74BBF000012
:102BA0005400002004000020B40400204FF0E02175
:102BB0000428086903D020F004000861704740F041
:102BC0000400FAE74FF0E02130B10128086906D08F
:102BD00020F001000861704700208861704740F0D4
:102BE0000100F7E74FF0E020806970474FF0E021E7
:102BF0000028086902D040F0020001E020F0020045
:102C0000086170474FF0E021486170477047F0B5A8
:102C1000058B048C068C43F232373E40068442EA30
:102C20000312BB1E4FF60C761C4035400C432A4362
:102C3000002344F00101038302830184F0BDF0B559
:102C4000058B048C0E01018C43F22337394001843B
:102C500040F6FF410D4045EA033343EA022143F2C7
:102C600003321440344344F0100201830284F0BD67
:102C70000149C8617047000000802542802000F0B3
:102C800001B8704702490A8822EA00020A807047A8
:102C9000102C014001490860704700000080254267
:102CA0000149086070470000BC88254210B5012129
:102CB000CC022046FFF7BAFB2046BDE810400021B9
:102CC000FFF7B4BB064B0246002099881B881142CF
:102CD00003EA020302D0002B00D00120704700005D
:102CE0000C2C0140104A10B5138810494FF0000415
:102CF000C1F86043048803F47F4344EA030414806A
:102D00004388C1F860338388C1F868330389C1F808
:102D100064334389C1F86C3383890B60C3894B608A
:102D2000C088908310BD0000182C0140A08025426F
:102D300001490860704700000C83254210B5FDF77B
:102D400069FA06480178491C0170FDF76CFA2020E9
:102D5000FFF798FFBDE81040FEF76CBE540000205E
:102D6000094982888A8502880A850A8802F09F02BA
:102D70000A80C288438842EA03020B8842EA0302BF
:102D80000A80007A08867047002C014010B5FDF7D4
:102D900041FA08490878401C0870FDF744FA012000
:102DA000FFF790FF10B10120FFF76CFFBDE8104066
:102DB000FEF740BE5400002070B5FDF72BFA2949FC
:102DC0000878401C0870FDF72EFA02214E073046A5
:102DD00000F0B0F8244C012588B1FDF71BFA6570AE
:102DE000304600F0A5F8A062FDF71DFA022130463A
:102DF00000F068F800220221304600F013F90421A7
:102E0000304600F097F888B1FDF704FAA570304617
:102E100000F08EF8E062FDF706FA0421304600F07B
:102E200051F800220421304600F0FCF81021304611
:102E300000F080F888B1FDF7EDF92570304600F01C
:102E400077F86062FDF7EFF91021304600F03AF8AC
:102E500000221021304600F0E5F8BDE87040FEF792
:102E6000E9BD00005400002004000020704700006D
:102E700010B5FDF7CFF90A490878401C0870FDF736
:102E8000D2F9084C1021204600F054F818B1102156
:102E9000204600F017F8BDE81040FEF7CBBD00005B
:102EA0005400002000080040028811B142F0800266
:102EB00002E040F27F310A4002807047028A8A4372
:102EC00002827047028A8A43028270470029018881
:102ED00002D041F0010102E040F2FE3211400180D7
:102EE0007047000010B5B0F1804F0FD00F49401867
:102EF00013D0B0F5806F17D101210420FFF77EFABF
:102F000000210420BDE81040FFF778BA01210846EF
:102F1000FFF774FA00210120F4E701210220FFF7F6
:102F20006DFA00210220EDE710BD000000FCFFBF9C
:102F3000808C704702460020138A92890B4202EA75
:102F4000010202D0002A00D0012070472DE9F04193
:102F5000054608880C46072804D02846BDE8F041FD
:102F6000FFF7EEB9608828B301282FD0022839D0A6
:102F7000A188E288A37AA88BB5F820C02E8C42F2F3
:102F800033373E402E8440F6FF461202304042EA7C
:102F90000332024340F233300CEA000C4CEA013CAD
:102FA0004CF48050AA83288421892846BDE8F0414A
:102FB00000F004B9A37AE288A1882846FFF727FE2B
:102FC00021892846BDE8F04100F0E2B8A37AE28802
:102FD000A1882846FFF733FE21892846BDE8F04145
:102FE00000F0DDB8A288E38894F80AC0A98B288C89
:102FF0002E8C43F233273E402E844FF60C76314020
:1030000043EA0C130B4343F23301084040EA022029
:1030100040F48070AB83288421892846BDE8F041C4
:1030200000F0C5B8002A828901D00A4300E08A4333
:1030300082817047028B4FF6F7731A400A4302836E
:103040007047828B4FF6F7731A400A4382837047AA
:10305000828B4FF2FF731A4042EA0121818370474D
:10306000F0B5038C344C4A8804F1080632B1012AC9
:1030700004D0022A2FD0032A2DD049E0058B34F842
:1030800012402C4036F812501D40002A028C11D0FC
:1030900043F223331A4002840A888B8844EA0222CE
:1030A00003870B8903B11023C9882B4343EA01131B
:1030B00002832DE043F232331A4002840A888B885F
:1030C000224383860B890BB1012400E00024CB88C6
:1030D0002C432343ECE7878B34F8125036F8124028
:1030E0003D401C40022A028C14D042F233331A4075
:1030F00002840A888B8845EA0222A0F840300B89B6
:103100000BB14FF48053C988234343EA01338283D0
:103110000384F0BD43F233231A4002840A888B886B
:103120002A4383870B890BB14FF48073C9882343EB
:1031300043EA0123EBE70000123401083EB5012900
:10314000069C06D00021ADF80810FF2B05D9FE2300
:1031500006E095000121A940F5E7052B00D20523E3
:10316000ADF804300221ADF80220ADF80610ADF83C
:1031700000406946FFF774FF3EBD0185818A012A40
:1031800003D001F001018182704741F00101FAE7AB
:10319000028B4FF6F3731A400A4302837047028B87
:1031A0004FF2FF331A4042EA012101837047828BBC
:1031B0004FF6F3731A400A4382837047828B4FF2B3
:1031C000FF331A4042EA0121818370470A888285D1
:1031D0004A880285028802F08F0202808A88C988A4
:1031E0000A4301880A4302807047000010B5FFF7C8
:1031F00029F9FEF70BFBFEF7B3FA0848FDF7B4FF19
:103200000748FDF7B1FF0748FDF7AEFF0648FDF799
:10321000ABFFBDE810400548FDF7A6BF0008014020
:10322000000C014000100140001401400018014052
:1032300010B50420FFF7BAFC0548FFF7E3FC0120B6
:10324000FFF7D4FCBDE810400120FFF7BBBC000035
:10325000683C010030B5012187B08803FFF7DAF838
:103260004FF40074ADF8184003208DF81A001820B0
:103270001C4D8DF81B0006A92846FDF7C5FF61000F
:10328000ADF8181004218DF81B1006A92846FDF78B
:10329000BBFF4FF4E130009000200C21ADF810008E
:1032A000ADF80C10ADF81240ADF80400ADF8080010
:1032B0000D4CADF80600ADF80A00ADF80E00ADF803
:1032C00014006946204600F0BDF8012240F2255165
:1032D000204600F09EF80121204600F06AF807B071
:1032E00030BD000000080140003801402DE9F041E8
:1032F000FCF790FF16490878401C0870FCF793FF14
:10330000144F40F225563146384600F063F8D0B1EC
:10331000384600F0E5F8104D01462C1FE07829549E
:10332000401CE0703146384600F03CF8002231463F
:10333000384600F06EF800200849E070012008705F
:10334000074928780870BDE8F041FEF773BB00001C
:1033500054000020003801400800002084000020B4
:103360008500002010B5FCF755FF05480178491C81
:103370000170FCF758FFBDE81040FEF75BBB000092
:103380005400002010B5FCF745FF05480178491CA2
:103390000170FCF748FFBDE81040FEF74BBB000092
:1033A00054000020090A01228A40018891430180CB
:1033B00070470029818902D041F4005101E021F4D5
:1033C0000051818170470246002012880A4200D0D5
:1033D0000120704770B501F01F0601250024C1F3DC
:1033E000421305FA06F2012B0FD0022B0FD0838A6D
:1033F0004FEA11210088134205FA01F500EA0500A1
:1034000001D000B10124204670BD8389F0E7038A12
:10341000EEE710B5C1F3421301F01F040121A140F2
:10342000012B07D0022B07D01430002A026805D0E8
:103430000A4304E00C30F8E71030F6E78A430260F4
:1034400010BD000030B50C46018A85B005464CF22F
:10345000FF000140E088E289638A1043228A1A4310
:103460001043A28A104308432882A9894EF6F3101C
:103470000140A08822891043A2890A431043A881F1
:10348000A98A4FF6FF40014060890843A882684638
:10349000FFF7AEF81148854201D1039800E0029889
:1034A000642200EBC00101EB001021686FF01804EA
:1034B0008900B0FBF1F0B0FBF2F109010B096343A5
:1034C00000EB8300322303EB0010B0FBF2F000F0BE
:1034D0000F000843288105B030BD000000380140CE
:1034E0008088C0F30800704710B509788180044CCB
:1034F00080212046FFF767FF0028F9D010BD0000AB
:103500000038014070477047704770477047490066
:1035100050EAC12018BF04204A0D18BF40F0010036
:1035200040F2FF72B2EB515F08BF40F00200012889
:1035300008BF052070472DE9F0414F1E00EBC70181
:103540000446D1E9000115461E4637F006020DD0AB
:103550002A4633460FF056F87F1E04EBC703D3E923
:1035600000230EF049FE37F00602F1D1022F25D0DC
:10357000042F13D0062F18BFBDE8F0812A4633462A
:103580000FF040F8D4E90A230EF036FE2A463346FF
:103590000FF038F8D4E908230EF02EFE2A46334601
:1035A0000FF030F8D4E906230EF026FE2A46334603
:1035B0000FF028F8D4E904230EF01EFE2A46334605
:1035C0000FF020F8D4E902230EF016FE2A46334607
:1035D0000FF018F8D4E90023BDE8F0410EF00CBE5E
:1035E000024A002011070FF09ABE000001FDFFFF04
:1035F000F8B54FF40060ADF800000324154F8DF8C6
:10360000024010258DF8035069463846FDF7FCFD51
:10361000AE01ADF800608DF803508DF802406946A8
:103620003846FDF7F1FDA802ADF800008DF8035013
:103630008DF8024069460848FDF7E6FDADF80060E8
:1036400004208DF803008DF8024069460348FDF719
:10365000DBFDF8BD001001400008014000180140EA
:1036600010B509F057FCFDF76FF80022142311463E
:103670001046FEF72DFCFDF76BF8FDF71BF8FCF785
:10368000D4FF02230022BDE8104011461046FEF789
:103690001FBC00002DE9FE4F0746884600256846FE
:1036A00002F06EFD00246FF00F0AE946012657F87C
:1036B000241058F82400081A00D540420FF01AFCD4
:1036C00051460FF05CFE59F8241011F0FF4F0BD05B
:1036D0000FF012FB4FF07E510FF07AFD094920F0F8
:1036E0000040884205DC07E0074908440749884252
:1036F00002D306FA04F00543641C032CD7DB2846EA
:10370000BDE8FE8F295C0F3E666666C19A99D900B6
:103710002DE9F04D914F21F0004A86B005460C4648
:10372000BA452FDBAAEB070028430BD08C48824513
:1037300001DC1BD1D5B106B02846BDE8F04D012211
:103740000FF0EDBD874A884B28460EF05BFF074619
:103750000E46864A864B284621460EF053FF06B099
:103760003A463346BDE8F04D0EF046BD0120FCF769
:10377000EBFE06B00022BDE8F04D134610461146A0
:103780000EF0E8BD7B48824543DABAF1795F0BDA87
:103790002846FFF7BCFE042808BFFFF721FF284694
:1037A00006B02146BDE8F08D0B462A462846214644
:1037B0000EF028FF834602466F480E460B46062150
:1037C0007844FFF7B8FE5A4633460EF01BFF80469A
:1037D0006A488A465A46334604217844FFF7ABFECE
:1037E0005A4633460EF00EFF00223B460EF004FD13
:1037F00002460B46404651460EF0ACFD2A46234693
:103800000EF000FF06B02A462346BDE8F04D0EF04C
:10381000F3BC284624F0004100223D463B460EF012
:10382000EFFF4FF0FF320FF07AFD06460246544894
:103830000F460B4606217844FFF77DFE32463B4695
:103840000EF0E0FECDE900014E4832463B46042131
:103850007844FFF770FE32463B460EF0D3FE00225E
:103860002B460EF0C9FC83460291304639460AF0D9
:1038700067FA804644480D46504517DCDDE90001F3
:103880005A46029B0EF066FD42462B460EF0BAFEEB
:1038900042462B460EF0B0FC01220FF040FD314AAB
:1038A000314B0FF09FF8314A314B4DE04FF0000A99
:1038B0000B465246404629460EF09EFCCDE90310C9
:1038C00052462B46504629460EF09CFE32463B4659
:1038D0000EF096FFDDE903320EF03CFD06460F4682
:1038E000DDE900015A46029B0EF034FD834600914B
:1038F0000122304639460FF012FD1A4A1A4B0EF0DB
:103900007FFF06460F460122404629460FF007FD7D
:103910005A46009B0EF076FE32463B460FF062F8A8
:1039200007460E460122504629460FF0F8FC0F4D7F
:10393000DFF858802A4643460EF062FF3A46334687
:103940000EF05EFF2A4643460EF05AFF002CD8BF09
:1039500081F0004106B0BDE8F08D00000000F03FAE
:103960000000F07F075C143326A6913C182D4454C8
:10397000FB21F93F0000E03F5C0A0100720A0100F0
:10398000E6090100FC0901003333EF3FFB21E93F69
:103990002DE9F84F04460D4621F00040009174498E
:1039A000884212DB7349884201DC07D134B12046DA
:1039B0002946BDE8F84F01220FF0B1BC6E48002D3A
:1039C000CCBF6E496E49BDE8F88F6E49884211DA66
:1039D0006D498842A8BF4FF0FF366DDA2046294670
:1039E000FFF795FD042808BFFFF7FAFD204629469A
:1039F000BDE8F88F6549DFF898A125F000458842B9
:103A000032DA6449884219DA002632464FF08043A0
:103A1000204629460EF0F0FB074688460122204644
:103A200029460FF07CFC002253460EF0DBFF3A469D
:103A300043460EF08FFC04460D463DE00126002271
:103A40005346204629460EF0D7FB074688460022FB
:103A50005346204629460EF0C5FF43463A460EF02F
:103A600079FC04460D4627E04B4988421BDADFF813
:103A70002C81022600224346204629460EF0C2FD34
:103A8000002253460EF0B8FB82460F460022434602
:103A9000204629460EF0A6FF52463B460EF05AFC41
:103AA00004460D4608E0032622462B4600203C49EA
:103AB0000EF050FC04460D4622462B462046294671
:103AC0000EF0A0FD8B46824602460B460EF09AFD94
:103AD00007460246334888460B4606217844FFF7DE
:103AE0002AFD52465B460EF08DFD82462E488B46DF
:103AF0003A46434605217844FFF71DFD3A464346C2
:103B00000EF080FD02460B46002E504659460CDA58
:103B10000EF072FB22462B460EF074FD01B02246D9
:103B20002B46BDE8F04F0EF06BBE0EF065FB224653
:103B30002B460EF067FD1D4A7A4402EBC603D3E91B
:103B400000230EF04FFF22462B460EF04BFF184A83
:103B50007A4402EBC603D3E900230EF051FE009A2B
:103B6000002AB4BF81F00041BDE8F88FBDE8F88FAE
:103B7000000010440000F07F182D4454FB21F93F51
:103B8000FB21F9BF0000DC3F0000203E0000F33FB6
:103B90000000F03F0000E63F008003400000F83FD7
:103BA0000000F0BFF8070100B6070100540701004C
:103BB0001C0701002DE9F04D9446CCF1000423F0E0
:103BC00000464CEA0404524F46EAD47498468A46AA
:103BD00021F00042BC4206D8454240EA050442EAD0
:103BE000D474BC4204D9BDE8F04D62460EF004BB6B
:103BF000A8F14055A5F17F6555EA0C040BD00224CD
:103C000004EAA874434DDFF810E144EADA7452EA9A
:103C1000000B04D00CE0BDE8F04DFFF7B9BE002C5E
:103C200014BF012CBDE8F08D022C30D0032C32D013
:103C300056EA0C0B0AD0BE4220D1BA4209D126F076
:103C4000804622F080423346114617E000291ADBF5
:103C500025E0DFF8C8B0FB44002C04BFDBE900011D
:103C6000BDE8F08D012C02BFDBE9000181F00041CD
:103C7000BDE8F08D022C0AD0032C0CD0BA4212D130
:103C8000BAF1000F0BDA23482549BDE8F08D28462C
:103C90002449BDE8F08D28467146BDE8F08D1D48E9
:103CA0002149BDE8F08D921B12153C2AC4BF19486A
:103CB0001D490EDCB8F1000FBEBF12F13C0F002011
:103CC000014606DB62460EF045FB21F00041FFF79E
:103CD0005FFE002C08BFBDE8F08D012C04BF81F011
:103CE0000041BDE8F08D114A114B022C07D00EF0B7
:103CF00079FE2A46BDE8F04D0A4B0EF073BE0EF079
:103D000071FE2A46BDE8F04D064B0EF079BD00006D
:103D10000000F07F182D4454FB2109C0AE060100BD
:103D2000FB21F9BFFB210940FB21F93F075C14335C
:103D300026A6A13C2DE9F84F040088464FF000006C
:103D40007ED003F0ABF94C48002606804B48068035
:103D50004B484D494FF0020906604A48DFF834B13C
:103D60000127066040F2252008604849484881F84C
:103D70000C900660CBF8007000F08CFF672020707C
:103D800084F8018084F80290E775A775267604F11F
:103D90000C01E661201D00910AF03CF83E480760E6
:103DA0003E48067005F098F806F016FE06F0F0FDA5
:103DB0003B48DFF8F080067098F8070009F0ECFB4C
:103DC00098F8060009F0A2F937484FF008096FF09B
:103DD00070480670607888267A2806D04FF00A0A64
:103DE00079280ED07B2818D037E030A008F08AFB65
:103DF000201D04F064F880BB65686E7285F80A9037
:103E000007E0201D04F05BF838BB65686E7285F82A
:103E10000AA02F72C5F80C801BE0201D04F04FF89B
:103E200050B965686E7285F80AA02F72C5F80C80CB
:103E30006068009904F054F8201D04F040F800E098
:103E400017E050B965681E486E7285F80A902F72A7
:103E5000E8606068009904F043F80D480560A97AAD
:103E6000CBF8001002F08AFD02F09CFD09F0C0F8CA
:103E70000120BDE8F88F0000E6000020E4000020EB
:103E8000D8020020D0020020F0020020FC2D0020EB
:103E9000B0000020B40000200403002039030020FB
:103EA000A4000020B02D00203D030020636F726E3F
:103EB0006F72207461736B20696E6974200D0A0043
:103EC000400D03002DE9F0410446144D0020144F2D
:103ED000012628603E6004F10C018846201D09F08F
:103EE00099FF201D03F0EBFF90B9606888214172B3
:103EF00061787A290FD00A21817206724FF0FF3162
:103F0000C1602860807A38604146606803F0E8FF4D
:103F10000120BDE8F0810821EEE70000B00000209C
:103F2000B400002070B50026344640F6FF753346D5
:103F300000EB410003EB430100EBC10131F8022C1F
:103F4000944200D21446954200D915465B1C9BB2A0
:103F500016440C2BEED3301B401B0A21B0FBF1F0B2
:103F600080B270BD10B50A4803F07CFF084808F025
:103F70002FFF0021084609F08CFE0021012009F0E6
:103F800088FE0449002008600349086010BD000055
:103F9000FC2D0020E0020020DC0200202DE9F04191
:103FA0004E48807A892802D00020BDE8F0810721A0
:103FB0004B48FFF7B7FF07460C214948FFF7B2FF10
:103FC000484D044640F6FF766889A98950EA010207
:103FD0004DD0B0427ED0B1427ED00DF0BDFA442823
:103FE0007AD041480078192876D06A894FF48076D3
:103FF000B24205D9B81A974200D8D01B402808DC35
:10400000A889B04268D9211A844200D8011B4029EE
:1040100062DD394635A008F075FAAA8921463AA032
:1040200008F070FA002068706889B04207D9391A20
:10403000874200D8C11B402901DD01206870A88992
:10404000B04209D9211A844200D8011B402903DD5E
:10405000687840F00200687032A008F053FA01213D
:1040600019200CF033FD34A008F04CFA9CE7002234
:104070000A2311461046FDF72BFF0024072118489C
:10408000FFF750FF6989084468810C211448FFF745
:1040900049FFA98900220844A8810A231146104635
:1040A000FDF716FF641CE4B20A2CE7D369890A20E5
:1040B000B1FBF0F16981AA89B2FBF0F2AA8125A0D7
:1040C00008F020FA6889FF2802D9A889FF2803D8B8
:1040D0006E8100E000E0AE81012066E7FC2D00204B
:1040E000902C0020400400204C0300206C65667476
:1040F000206D61672C202564096F66667365743ACC
:104100000925640D0A0000007269676874206D61FA
:10411000672C202564096F66667365743A09256407
:104120000D0A0000626F756E6461727920646574B7
:104130006563740D0A000000616674657220626F29
:10414000756E64617279206576656E74207365742E
:104150000D0A0000626F756E64206F666673657489
:104160003A092564092564090D0A000070B500228A
:10417000052311461046FDF7ABFE1A4D00200446FC
:104180006881A88107211848FFF7CCFE6989084497
:1041900068810C211448FFF7C5FEA9890022084454
:1041A000A8810A2311461046FDF792FE641CE4B272
:1041B000032CE7D369890320B1FBF0F16981AA8957
:1041C000B2FBF0F2AA8109A008F09CF96889FF28E7
:1041D00002D9A889FF2803D840F6FF706881A8811A
:1041E000002070BD40040020902C0020626F756E8E
:1041F00064206F66667365743A092564092564094D
:104200000D0A00002DE9F047040035D02A4DE87969
:1042100009F0C2F9A87908F079FF2848002505704F
:1042200002F0FCFB26480226DFF89C80057025483A
:10423000DFF8989001210673C8F80050C9F8001003
:1042400023480580234805802348254905602348E5
:10425000056040F22520086009F01AFD04F10C0108
:104260008A46201D09F0D6FD6A202070A670201D08
:1042700003F025FE18B113E00020BDE8F087656863
:10428000882010276872AF722E724FF0BE60E8600F
:104290005146606803F024FEC8F80050C9F8007069
:1042A00004F04EF90021012009F0F3FC002108463A
:1042B00009F0EFFC0120E0E7B02D0020A400002071
:1042C0003D030020FC2D0020B0000020B4000020A1
:1042D000E6000020E4000020D8020020D0020020E8
:1042E000F00200202DE9F041144F7879012801D81F
:1042F000062403E0801EC4B2072C1DD8104E0125F1
:10430000A54096F83410224601EA05030DA008F0F6
:10431000F9F896F8340028400CD006EB8400B979FF
:1043200090F83520914207D1F97990F83600814212
:1043300002D10120BDE8F0810020FBE7B02D002074
:10434000BC3100207765656B20636865636B3A203C
:104350007765656B2C203A25640925642C2025643B
:10436000200D0A0070B509F093FC134D1148286028
:104370000121084609F08DFC002214231146104645
:10438000FDF7A6FD0D4C21680DA008F0BBF82068D4
:10439000052805D90023012219461846FDF798FD86
:1043A0000021012009F075FC00202860BDE8704064
:1043B00009F06EBC90B20800E4020020E002002088
:1043C0006C6566743A090925640D0A0010B5114937
:1043D00086B004001BD018226846FDF799FE0E48EF
:1043E0000099814204D104984FEA3141884209D0B2
:1043F0000A4901200870204609F0F2FC204600F02E
:104400000FF804E0182269462046FDF781FE06B049
:10441000002010BD009001085555AAAAB800002040
:104420002DE9F04700283CD01F490546042648786E
:104430000028FDD1012289464A70FCF759FE012768
:104440003520FCF7D5FD0024DFF860800BE000226A
:10445000012311461046FDF73BFD08EBC420FCF795
:10446000CDFD0646641CBC4201D2042EEFD00F4F96
:1044700044461C370DE00022012311461046FDF78B
:1044800027FD02CD2046FCF703FE241D0646BC4254
:1044900001D8042EEFD0FCF7E7FD002189F80110C8
:1044A0000846BDE8F0870000B80000200090010831
:1044B00010B538210448FDF722FE03490120087099
:1044C0000249087010BD000050340020E5030020B0
:1044D00010B5044601F036FB0022142311461046A5
:1044E000FDF7F6FC204604F0B7FB0022142311462A
:1044F0001046FDF7EDFC204609F002FB14230022D4
:10450000BDE8104011461046FDF7E2BC10B5044668
:1045100011A007F0F7FF00F0BDFB5021204609F085
:10452000CDFA0022322311461046FDF7D1FC204679
:1045300004F034FB00224FF4E17311461046FDF7FE
:10454000C7FC204601F0AEFAC8230022BDE81040A7
:1045500011461046FDF7BCBC636C65616E5F6D6F04
:10456000746F72206F70656E0D0A000010B50A48F6
:10457000FDF78CFA094C206138B107480C30FDF783
:1045800085FA606118B1002010BD05A000E00BA005
:1045900007F0B8FF012010BDC42D002088000020C6
:1045A0006372656165206B657920206D626F78208C
:1045B0006661696C6564200D0A00000063726561C4
:1045C0006520616374696F6E206D626F782066612B
:1045D000696C6564200D0A0010B504460120607105
:1045E00088782071487B2072887B6072087CE07339
:1045F0000122091DE01DFDF78BFD054820604FEAF3
:10460000304020612046BDE81040FFF709BF0000A0
:104610005555AAAA2DE9F0410546424801680829E6
:1046200011D001680F290ED000680A2803D13E4836
:104630008078022807D0002000280AD03B4C6079FF
:10464000032805D101E00120F6E73948007810B1D0
:104650000020BDE8F081E079364FDFF8DC800126EC
:1046600070B12846A16A0EF071FCA16A28461BD2DF
:104670000EF06CFCA16A284606D20EF09FFD05E004
:10468000E671A562E562E4E70EF0A2FDA16AB84218
:1046900006DD40460EF09CFD29460EF0B9FA23E0F7
:1046A00028460EF08BFD17E00EF057FD20D228466D
:1046B000A16A0EF04BFCA16A284602D20EF07EFDE4
:1046C00001E00EF085FDB8420ADD4146A06A0EF019
:1046D0009FFA29460EF07CFD216B0EF06FFD06E07F
:1046E0002846A16A0EF074FD216B0EF091FA20634A
:1046F000A5621249206B884204DD41460EF068FD38
:104700002063A6E70E498842A3D90020E071A06289
:10471000E0622063667101211D200CF0D7F90120B1
:1047200097E70000B400002050340020E003002090
:104730004D030020000034430000B4430000074450
:104740000000B4C3704770477047000010B50020E8
:10475000FDF72EFA0149086010BD0000800000201E
:1047600030B585B0554801AC0323002260210FC449
:10477000072300F5BE72002151480093FDF74EFA61
:104780000546504C05E000220A2311461046FDF76D
:104790009FFB2278002AF6D01DB129464AA007F0D7
:1047A000B1FE4F4801AC032300224FF49C710FC4AB
:1047B000082300F2DC4200214A480093FDF72EFA5C
:1047C000010002D040A007F09DFE474801AC032342
:1047D000002240210FC40A2300F1FC0200214348BB
:1047E0000093FDF71BFA010002D037A007F08AFE04
:1047F0003F4801AC0323002240210FC40C2300F1E9
:10480000FC0200213B480093FDF708FA010002D0AA
:104810002DA007F077FE384801AC03230022402189
:104820000FC40B2300F1FC02002134480093FDF774
:10483000F5F9010002D032A007F064FE364801AC61
:10484000032300224FF4A2710FC4062300F20C527E
:10485000002132480093FDF7E1F9010002D01AA0CF
:1048600007F050FE2E4801AC032300224FF4807164
:104870000FC4092300F57F7200212A480093FDF739
:10488000CDF9010002D010A007F03CFE032326481A
:1048900001AC0022D9010FC4052300F2FC52002113
:1048A00022480093FDF7BAF9010005D005B006A033
:1048B000BDE8304007F026BE05B030BD2015002011
:1048C000656F00088800002063726561746520656B
:1048D000786974206661696C3A09256400000000FB
:1048E000A016002025AA0008801C002049C400084A
:1048F00020140020A1750008801B0020798C00087E
:104900006372656174652065786974206661696C9D
:104910003A0925640A000000801D0020590F010893
:1049200090220020BD1C01089026002035AB000815
:104930007047704770B50B4D4FF400542146284620
:10494000FCF7CEFC30B161102846FCF7C9FC08B179
:10495000022070BD21462846FCF7C2FC0028F8D092
:10496000012070BD001401402DE9F04104003CD04D
:10497000207A022839D11E4DA86C50B1401EA8647F
:1049800007D1012085F84400024602211948FCF7AE
:10499000AEFC686B401C6863B0F5C87F25DB002661
:1049A000012115486E63FFF7BDFA0746014613A0C3
:1049B00007F0A8FD164D6A68974207D92B8839463B
:1049C00014A007F09FFD6F602E800EE029881CA0C8
:1049D00007F098FD2888411C2980C82805D92E8019
:1049E000072120466E6000F087F80020BDE8F081C6
:1049F000FC2D002000140140902C002062617420E6
:104A0000766F6C746167653A0925640D0A000000D1
:104A1000F802002062617420766F6C203A25642CC5
:104A20006C6173742062696720766F6C203A25642C
:104A30002C2074696D65733A0925640D0A00000025
:104A40006D617820766F6C2074696D656F75743A4E
:104A50000925640D0A0000000B4810B5007866288F
:104A60000FD00A48007B02280BD105F0C9FD05F0E4
:104A7000BBFC04F069FF06480078882801D005F0E7
:104A80004BFD002010BD0000482E0020FC2D002012
:104A90000C03002010B505F01BFC002010BD000029
:104AA000F0B4144E96F8354096F83630601CC5B216
:104AB0000020012796F8342007FA00F10A4207D0B7
:104AC00006EB800101F8354F4B708D70CB7007E01D
:104AD00006EB8001002201F8352F4A708A70CA70F7
:104AE000401CC0B20728E5D3F0BC02483030FDF7C7
:104AF00073BF0000BC3100202DE9F0412E4D0400B1
:104B00000F4650D02DA007F0FDFC207A334E02282E
:104B100002D1012030732772B07B022843D0304885
:104B20000078012801D02879F0B3002486F84440A9
:104B3000224602212B48FCF7DAFB2C71002008F0FA
:104B4000D3FAB47300F0A6F80121142003F052FA4E
:104B5000254801F00DFE7B212348FFF7EBF80122E9
:104B6000224B114642200CF049FB0122B4210020C7
:104B700003F086FD1E4C01221146402023680CF0F4
:104B80003DFB002003F0D4FC1448FFF7BFFC04F009
:104B9000ADF840B901221146402023680CF02EFBED
:104BA000002003F0C5FC00E002E00020BDE8F08139
:104BB000032008F0FFF9F6E7B02D002073746F7042
:104BC00020636861722065766E65742C2072656161
:104BD000736F6E3A25640D0A00000000FC2D002062
:104BE0003903002000140140482E00200000344307
:104BF0001C42010804E00021491CC9B22829FBD34A
:104C0000401EF8D270470000002210B5052311465F
:104C10001046FDF75DF90021084609F03AF8002139
:104C2000012009F036F80122D1020A48FCF75FFBA7
:104C3000094C012204212046FCF759FB0122910373
:104C40002046FCF754FB054900200870BDE81040E1
:104C50000CF00EB80008014000140140870000204D
:104C600010B5FBF7B7FE00F079FE094C00220421D5
:104C70002046FCF73CFB00220A2311461046FDF7B4
:104C800027F920460122BDE810409103FCF72FBB15
:104C900000140140002210B5022311461046FDF712
:104CA00017F90121002002F0CFFA0121084602F095
:104CB000CBFA0121022002F0C7FA0121032002F001
:104CC000C3FA104C002204212046FCF710FB0022FE
:104CD0000F2311461046FDF7FBF820210A48FCF788
:104CE000FFFA0A4A012150B11170094800220170EF
:104CF0002046BDE810404FF48041FCF7F8BA002090
:104D00001070F2E700140140000C0140380300204D
:104D10008700002070B505460020FDF733FE002413
:104D200008212846FDF7BCFE641CE4B2202CF7D312
:104D300070BD000070B50B48806984B2B4F57A7F0D
:104D400001D340F2E7340A26B4FBF6F5E8B20021BD
:104D500008F04CFB06FB1540BDE87040432108F00D
:104D60000DBD0000BC31002070B51248C2698168D9
:104D700040681144084480B2B0F5E16F01D20024CC
:104D80000AE04FF46161B0FBF1F0401C84B2B4F56D
:104D90007A7F01D340F2E7340A26B4FBF6F5E8B295
:104DA000002108F023FB06FB1540BDE870404821B8
:104DB00008F0E4BCBC31002010B50446192008F00E
:104DC000A5F92046BDE8104008F0E6BB70B50E4DD1
:104DD0000446A868002816D00CF0BEFB442812D068
:104DE000A868807A10280ED0207C4FF4006190F0E3
:104DF00001020648227401D0002200E00122BDE831
:104E00007040FCF774BA70BDA80000200008014093
:104E100008B560B120208DF8000028208DF8010031
:104E200030208DF8020038208DF8030004E0A32222
:104E300004216846FBF7DFFA6A46042140F69E200B
:104E400007F014FA06F0D6FE08BD00003EB5044691
:104E500002208DF80000CA208DF80100E3208DF8B3
:104E6000020009208DF803006A460421682007F03B
:104E7000FDF9A3208DF80000610609D5C0218DF849
:104E80000110C8218DF80210C2218DF8031005E031
:104E90008DF801008DF802008DF8030014F4C07F36
:104EA00009D0C4218DF80410CC218DF80510C6213D
:104EB0008DF8061005E08DF804008DF805008DF8DA
:104EC00006008DF808008DF807008DF809006A4685
:104ED0000A2140F6A72007F0C9F9A0074FF0D8052E
:104EE00003D020208DF8000001E08DF800506A46C4
:104EF000012140F6B62007F0B9F9A00601D501203E
:104F000000E0002000F090F814F4C07F1ED0E0050F
:104F10000AD5B2208DF800008B208DF80100B62054
:104F20008DF802009B2009E0B0208DF80000802061
:104F30008DF80100B4208DF8020090208DF8030058
:104F40006A46042140F6A22007F090F9E0074FF4EA
:104F50000B6323D0F8208DF800006A460121184623
:104F600007F084F9FA21072000F04AFB072000F03F
:104F700015FB012000F032FB642000F0D5FB4FF45C
:104F8000FA7000F0E1FBC821254800F0CFFA282094
:104F900000F0E4FA0A2000F0F1FA06E08DF8005083
:104FA0006A460121184607F061F9A00703D5D92008
:104FB0008DF8000001E08DF800506A46012140F2B2
:104FC0003D7007F053F9600701D5012000E0002093
:104FD00000F04AF8E00601D5012000E00020FFF7CC
:104FE00017FF104D44F00800688106F003FE002012
:104FF000A873600601D50620A87314F4C07F02D000
:10500000A87B801DA87314F0140F02D0A87B103069
:10501000A873A00702D0A87B001DA87300203EBD86
:1050200009E3CA02D03400200EB54FF4976308B1EB
:1050300007A000E009A0D0E9001280680091CDE946
:1050400001206A460921184607F010F90EBD00003C
:10505000B8AAB38DB4980D355D000000B8AAAAAA0D
:10506000B088C3C5C700000008B560B1C0208DF886
:105070000000C2208DF80100C4208DF80200C62077
:105080008DF8030004E08B2204216846FBF7B3F996
:105090006A46042140F6982007F0E8F806F0AAFDD9
:1050A00008BD0000C8234FF48062024940F6F63084
:1050B00006F074BC263601082DE9FF4F89B016466C
:1050C000DDE916520024DFF83881074689462C8036
:1050D000A24698F80E00694606F01AFD4FF0FF3B15
:1050E00018B158460DB0BDE8F08FB8F80A0010F0BE
:1050F000140F3CD000999DF8032009BA21F0FF015C
:1051000011433160019A091412BA22F0FF0C9DF884
:10511000072049434CEA020CC6F804C0029A9DF8E5
:105120000B3012BA22F0FF021A43B260039B9DF8C3
:105130000F401BBA23F0FF032343F36012144FEA1E
:105140002C461B14524306FB061103FB0322114499
:105150001024A1F17061B1F1007F04D906F04AFD7D
:10516000A5F800A0BDE7298841F480712980410697
:105170006A4612D51119A41D0B88E4B25BBAA9F8CE
:1051800000304B885BBAA9F80230898849BAA9F87F
:105190000410298841F00801298010F4C07F0FD045
:1051A0001119A41D0B88E4B25BBA3B804B885BBA33
:1051B0007B80898849BAB980298841F070012980AB
:1051C000800718D01444E07800F0C00500F03F01DB
:1051D0006078C00707D0C80801F00701D8F80020A0
:1051E000491C02B190476078000704D5D8F8041034
:1051F00009B1A80988470C9808F0EBFD002071E779
:10520000D03400202DE9FF41054603A806F07AF9C5
:10521000BDF80C0000214FEAC13141EA50414FEA8C
:10522000C0323048008900F0030355F8234043079B
:1052300001D5C4F10004C0F3C103860655F823303C
:1052400001D5C3F10003C0F38116C00555F82670DF
:1052500000D57F42A4FB0256E01700FB026004FB6E
:105260000100840044EA9570A3FB0256DC1704FB9E
:10527000026403FB01439C0044EA9573A7FB0256BA
:10528000FC1704FB026207FB01218A0042EA9571C8
:10529000020E8DF80020020C8DF80120020A8DF814
:1052A00002208DF80300180E8DF80400180C8DF8FC
:1052B0000500180A8DF80600080E8DF80800080C85
:1052C0008DF80900080A8DF80A008DF80B108DF88A
:1052D00007306A460C214FF4257006F0C7FF04B072
:1052E000BDE8F081D034002030B5044614A185B06B
:1052F000D1E900028968CDE900024FF0FF35029143
:10530000C82C16D8C820B0FBF4F1491E080A8DF845
:105310000C008DF80D1003AA022140F2162006F0B1
:10532000A5FF30B96A460C2140F6C12006F09EFF69
:1053300010B1284605B030BD044884810020F9E74B
:10534000FEF2ABC4AAF1DFDFBBAFDFDFD034002059
:10535000F8B53149098901F0030250F822404A07A3
:1053600001D5C4F10004C1F3C10250F822308A060D
:1053700001D5C3F10003C1F3811250F82220C80502
:1053800000D55242254984FB0104800F40EA840085
:1053900083FB014382FB01128D0F010E8DF800107B
:1053A000010C8DF80110010A8DF80210A40F45EAD6
:1053B00082058DF8030044EA83046A4604214FF411
:1053C000747006F053FF4FF0FF3688B9200E8DF849
:1053D0000000200C8DF80100200A8DF802008DF8E5
:1053E00003406A4604214FF4757006F03FFF08B190
:1053F0003046F8BD280E8DF80000280C8DF801000D
:10540000280A8DF802008DF803506A4604214FF4F3
:10541000767006F02BFFF8BDD034002009E3CA02F5
:105420002DE9FF4104463CA004F00302006802900D
:105430003AA002A90068039039A0066839A005685F
:10544000885C8DF80000C4F3C1000B5C8DF801305E
:10545000C4F38113C95C8DF8021003A98A5C8DF82E
:105460000420085C8DF80500C85C8DF806006A46CB
:10547000032140F2264006F0F9FE4FF0FF37F0BB63
:1054800001AA032140F22A4006F0F0FEB8BBCDE9A4
:10549000006560070BD59DF8000040F001008DF815
:1054A00000009DF8040040F001008DF80400A00603
:1054B0000BD59DF8010040F001008DF801009DF82A
:1054C000050040F001008DF80500E0050BD59DF8C2
:1054D000020040F001008DF802009DF8060040F047
:1054E00001008DF806006A4603214FF4886006F03B
:1054F000BDFE20B901AA032140F2314000E002E0E4
:1055000006F0B4FE18B1384604B0BDE8F081064894
:1055100004810020F8E700004CCD6C000CC92C0081
:105520003656760026466600D03400204FF47A7254
:1055300090FBF2F008B54843010E8DF80010010C05
:105540008DF80110010A8DF802108DF803006A46EB
:1055500004214FF4AE7006F089FE08BD0521B0FBB2
:10556000F1F008B5010A8DF800108DF801006A46C7
:1055700002214FF4AD7006F079FE08BD0521B0FBA5
:10558000F1F008B5010A8DF800108DF801006A46A7
:1055900002214FF4AC7006F069FE08BD08B5002189
:1055A0008DF80010C10702D030218DF8001081075E
:1055B00005D59DF8001041F00C018DF80010400752
:1055C00005D59DF8000040F003008DF800006A4604
:1055D00001214FF4A47006F049FE08BD08B560B182
:1055E000042800D90420401E8DF800006A460121DD
:1055F00040F24F1006F03AFE08BD0120F3E700002C
:105600002DE9FC410546084669074FF0FF367BD07F
:10561000B0F5C86F78D80DF085FC3E490DF06CFBF5
:10562000074601A805F050FF9DF80400022806D0A7
:1056300004280DD008282ED0102865D134E00E2182
:1056400038460DF09CFE0DF035FC84B2324907E07F
:105650000D2138460DF093FE0DF02CFC2F4984B23D
:1056600038460DF0A7FC0DF025FC210A8DF800103E
:1056700080B28DF80140010A8DF802108DF8030008
:10568000E8076C4620D0224602214FF4EA7006F06B
:10569000EDFDC8BB11E00C2138460DF070FE0DF099
:1056A00009FC84B21E49DBE70B2138460DF067FE8A
:1056B0000DF000FC84B21B49D2E7A21C02214FF47A
:1056C000927006F0D3FDF8B9A8070DD56A460221FD
:1056D0004FF4EC7006F0CAFDB0B9A21C02214FF4E1
:1056E000947006F0C3FD78B9680710D56A460221A8
:1056F0004FF4EE7006F0BAFD30B9A21C02214FF44F
:10570000967006F0B3FD10B13046BDE8FC81002074
:10571000FBE7000000004843000040460000C04591
:10572000000040450000C0440521B0FBF1F008B581
:10573000010A8DF800108DF801006A4602214FF42D
:10574000EF7006F093FD08BD0521B0FBF1F008B540
:10575000010A8DF800108DF801006A4602214FF40D
:10576000ED7006F083FD08BD2DE9F05F04003CD02C
:105770003A483B4F0226DFF8EC80067300250121F2
:105780003D60C8F80010FEF7A3FEFFF783FA364825
:10579000058036480580364837490560354805603C
:1057A00040F22520086008F073FADFF8D09099F8ED
:1057B000070007F0F1FE99F8060007F0A7FC304853
:1057C00005703048057001F029F904F10C018B4691
:1057D000201D08F01FFB6A202070A670201D02F01B
:1057E0006EFB4FF0880A18B113E00020BDE8F09F6F
:1057F00065684FF00E09244885F809A085F80A90DD
:105800002E72E8605946606802F06AFB3D60C8F895
:105810000090201D02F053FB80B965684FF00F091E
:105820001A4885F809A085F80A902E72E860594652
:10583000606802F055FB3D60C8F80090002001F060
:105840002DFC02F07DFE0021012008F022FA00214B
:10585000084608F01EFA0120C8E70000FC2D0020D1
:10586000B0000020B4000020E6000020E40000208A
:10587000D8020020D0020020F0020020B02D00202D
:10588000A40000203D03002090D003004054890074
:105890002DE9F04704004FF0000021D0114E124FC7
:1058A00030600120386004F10C018946201D08F0A9
:1058B000B1FA201D02F003FB88B9656888204FF01B
:1058C0000F08687285F80A80022028720748E8608D
:1058D0004946606802F004FB3560C7F8008001208B
:1058E000BDE8F087B0000020B400002040548900DB
:1058F00070B504000D46104601D0641EE4B2FBF7FB
:105900003DFA01460320FBF777FE2846FBF736FAFF
:1059100001460420FBF770FE2046FBF72FFABDE896
:10592000704001460620FBF767BE000010B500215D
:105930000848FBF76EF9084C00212046FAF777FF7C
:1059400000212046FAF769FF2046BDE810400021FB
:10595000FBF725B8080002400024014030B54D4D4A
:1059600091B02846FBF760F94B4800904B48002463
:10597000CDE901049020CDE903048020059040008A
:10598000069080000790202008900002CDE90904CD
:1059900069462846FBF788F901212846FBF739F9C3
:1059A00001208DF830008DF831000B944FF4602009
:1059B000CDE90D04384C0C208DF83C004C3C0BA973
:1059C0002046FAF789FF0623012200212046FAF734
:1059D000A7FF0623022201212046FAF7A1FF062392
:1059E000032202212046FAF79BFF0623042203210B
:1059F0002046FAF795FF0623052219462046FAF7B6
:105A00008FFF06231A4607212046FAF789FF06234F
:105A1000072208212046FAF783FF062308220A21DD
:105A20002046FAF77DFF062309220B212046FAF7CC
:105A300077FF06230A220C212046FAF771FF06237E
:105A40000B220D212046FAF76BFF06230C220F21B3
:105A50002046FAF765FF01212046FAF7E8FE01210A
:105A60002046FAF7DAFE2046FAF794FF2046FAF7C6
:105A7000F7FE0028FAD12046FAF79BFF2046FAF7F6
:105A8000E1FE0028FAD101212046FAF788FF11B083
:105A900030BD0000080002404C240140902C002042
:105AA00070470000F8B50646002401211A48FEF7A9
:105AB00039FA05461948407800B11E24294618A035
:105AC00006F020FD1E48B5F5016F02D8B5F5F46F5C
:105AD00003D970236434009316E0B5F5E66F03D95B
