:020000040800F2
:10000000983C0020010100080501000807010008D4
:10001000090100080B0100080D01000800000000A4
:1000200000000000000000000000000011010008B6
:100030000F010008000000000F030008C13B00088A
:10004000C5470008E73400083D3C00086F39000848
:10005000B91F000871380008D91D00083D1E0008AE
:100060005D1E00085F1E0008611E0008C11B00081D
:10007000C51B0008DD1B0008F91B0008151C000843
:10008000171C0008191C0008BB180008BF4700080F
:10009000C1470008B3190008B5190008651E00081B
:1000A000193D0008BD3F0008653F0008213D0008DC
:1000B000E93F00080D4100081141000857220008DF
:1000C000552200085B22000859220008D93900088F
:1000D000DB390008C54500083D4600085D460008BC
:1000E000F91D00086D390008BD4700080000000038
:1000F0000000000000000000000000000000000000
:1001000004480047FEE7FEE7FEE7FEE7FEE7FEE7FE
:10011000FEE700001901000800F002F800F06AF89C
:100120000AA090E8000C82448344AAF10107DA4552
:1001300001D100F05FF8AFF2090EBAE80F0013F03A
:10014000010F18BFFB1A43F001031847DC5B0100E5
:10015000FC5B01000A444FF0000C10F8013B13F067
:10016000070408BF10F8014B1D1108BF10F8015B10
:10017000641E05D010F8016B641E01F8016BF9D103
:1001800013F0080F1EBF10F8014BAD1C0C1B09D15A
:100190006D1E58BF01F801CBFAD505E014F8016BCC
:1001A00001F8016B6D1EF9D59142D6D3704700005E
:1001B0000023002400250026103A28BF78C1FBD870
:1001C000520728BF30C148BF0B607047662914F042
:1001D0001E84642900F04481002070471FB500F0A0
:1001E00033FD04000020002113F06CFBE0601FBD14
:1001F00010B510BD00F028FE1146FFF7EFFF09F023
:10020000DDFC00F046FE03B4FFF7F2FF03BC00F094
:1002100087FE000030BF704720BF704740BF704767
:10022000BFF36F8F7047BFF34F8F7047BFF35F8F80
:10023000704701DF7047EFF31480704780F3148834
:10024000BFF36F8F7047EFF30980704780F3098821
:100250007047EFF30880704780F30888704772B6E4
:10026000704762B6704771B6704761B6704780F3E9
:1002700011887047EFF31280704740BA704700BA98
:100280007047000002480349034A044B70470000CE
:1002900098380020983C0020983A0020983A002096
:1002A00072B606B42E490A7802F101020A7006BC41
:1002B000704706B42A490A78A2F101020A704FF089
:1002C0000001002A08BF81F3108806BC7047254C46
:1002D000254D25604FF0000484F30988234C4FF02E
:1002E00001052570224C4FF08055256062B6FEE76F
:1002F00030B41F4C4FF08055256030BC704730B48F
:100300001B4C4FF08055256030BC704700BFEFF3A9
:10031000108372B6EFF3098030B1A0F1200080E8BD
:10032000F00F144C2468206000B5134880475DF836
:1003300004EB124C124D2E7826700E4C114E36687E
:100340002660306890E8F00F00F1200080F3098803
:100350004EF0040E83F31088704700BF72B67047EA
:100360006C00002020ED00E00000FFFF7400002082
:1003700004ED00E0840000204930000872000020F5
:10038000730000208C00002010B54C1084EA530448
:1003900004D54042C1F1000138BF491E1B4204D5BB
:1003A0005242C3F1000338BF5B1E00F020F914F085
:1003B000804F04D04042C1F1000138BF491E14F003
:1003C000004F04D05242C3F1000338BF5B1E10BD82
:1003D0000FB41CB5074B06AA7B44694600900598EC
:1003E00000F0F3FB0020694600F002FC1CBC5DF845
:1003F00014FB0000150800002DE9F0410E460446EC
:10040000002020622046E168884730B3252805D0C7
:10041000D4E901219047206A401CF2E7E1682046B8
:1004200000278847050018D0A5F14100192802D8F7
:1004300020354FF400673246294620462760FFF7F3
:10044000C5FE40B1012804D0F61D26F00706083687
:10045000D8E7361DD6E72846DAE7206ABDE8F081FE
:100460002DE9F0410646002410687529314616A58D
:1004700010D0AFF30080002802DA404213A507E055
:1004800031688A0701D512A502E0490704D511A5F4
:10049000012401E0AFF3008000210A2206F12407C5
:1004A00009E0B0FBF2FCB0FBF2F302FB1C003030C1
:1004B00078541846491C0028F3D123462A46304672
:1004C000BDE8F04100F015B9000000002D0000006B
:1004D0002B0000002000000040EA010310B59B073C
:1004E0000FD1042A0DD310C808C9121F9C42F8D09E
:1004F00020BA19BA884201D9012010BD4FF0FF304F
:1005000010BD1AB1D30703D0521C07E0002010BD64
:1005100010F8013B11F8014B1B1B07D110F8013BF0
:1005200011F8014B1B1B01D1921EF1D1184610BDD1
:1005300010B5203AC0F00B80B1E81850203AA0E87E
:100540001850B1E81850A0E81850BFF4F5AF5FEAB2
:10055000027C24BFB1E81850A0E8185044BF18C965
:1005600018C0BDE810405FEA827C24BF51F8043B0C
:1005700040F8043B08BF7047D20728BF31F8023B60
:1005800048BF11F8012B28BF20F8023B48BF00F8F4
:10059000012B704702F0FF0343EA032242EA0242C2
:1005A00000F002B84FF000020429C0F0128010F0F1
:1005B000030C00F02483CCF1040CBCF1020F18BF33
:1005C00000F8012BA8BF20F8022BA1EB0C0100F0D2
:1005D00016BB5FEAC17C24BF00F8012B00F8012B99
:1005E00048BF00F8012B704770477047704753EAC7
:1005F000020C00F069802DE9F04B4FF00006002B53
:100600001FBFB3FA83F503FA05F424FA05F65E403A
:1006100012BF1643B2FA82F502FA05F4C5F12005BD
:100620001EBF22FA05FC44EA0C04203556EA044CAD
:100630004FEA144418BF641C4FF000084FF0000943
:10064000904271EB030C39D3002919BFB1FA81F73D
:1006500001FA07F6B0FA80F700FA07F6C7F12007AB
:100660001EBF20FA07FC46EA0C062037B6FBF4FC56
:10067000A7EB0507103F07F01F0BCBF120060CFA84
:100680000BFB2CFA06F644BFB3460026202FA4BF6E
:100690005E464FF0000B5BEA060C08BF4FF0010B03
:1006A00019EB0B09ABFB027C48EB0608C01B06FBF1
:1006B00002CC0BFB03CC71EB0C01C1E70B460246ED
:1006C00041464846BDE8F08B13B54FF000004FF0AF
:1006D0000001AFF30080BDE81C40704710B500F08A
:1006E000B7FA006810BD10B5044600F0B1FA046016
:1006F00010BD2DE9F0470D4699469246044600F19B
:1007000024080168880604D5E06921F01001216001
:1007100000E00120A84201DD471B00E00027A1699D
:100720007A1902EB0900081AA0612078C00602D4E9
:100730002046AFF30080002608E0D4E901211AF832
:1007400006009047206A401C761C20624E45F4DB70
:100750002078C0060AD52046AFF3008006E0D4E931
:10076000012130209047206A401C2062381EA7F1EA
:100770000107F4DC07E0D4E9012118F805009047EF
:10078000206A401C2062281EA5F10105F3DC2046EA
:10079000AFF300802078000602D50220BDE8F08784
:1007A0000120FBE770472DE9FF4F0C461E464FF036
:1007B000FF378BB0D2E90001DDF860800A908A46ED
:1007C000C1F30A5505B93D46002108464FF0000027
:1007D000BAF1000F00F4400005DA00EB80004FF49E
:1007E000400101EA50004FEA9059B9F1010F00DDD4
:1007F000B9460A9850EA4A000ED044F61050A5F2C5
:10080000FF3545432F14B8F1000F1ED07542291E45
:100810001EDDC9F100021CE0B8F1010F4FF000002D
:1008200001D0302103E0F24305E02154401CB042E6
:10083000FBDB30460022002121540B99C1F80880CF
:10084000C1E900200FB0BDE8F08FBD1B6D1CDEE7D5
:100850004A4600DA694206A800F084FA06AB93E83B
:10086000070003AB83E8070050460A9900F05FFBDE
:100870008DE80700A0F500501F3800900398002D68
:1008800009DD42F21F014A46084403A90390684665
:1008900000F0BEFD08E0A0F500504A461F3803A94D
:1008A0000390684600F0C8FD8DE807000004000CC6
:1008B00003D04FF0FF30410800E01046B8F1000FC0
:1008C00003D00022009215461EE0751E05D400F0EC
:1008D000C3F9303262556D1EF9D5B3460122084383
:1008E00002D000227F1C04E02078302801D10022B1
:1008F0007F1E002A099786D01DE0112D07DA00F02F
:10090000ABF9303262556D1C50EA0102F5D1084353
:1009100002D00098C8B10EE00021681E05E0235CFB
:10092000625C63542254401E491C8142F7DBAB4693
:10093000A81B401E0990002004F80B000B98099A90
:10094000C0F80880C0E9002B7CE711264FF00008B2
:1009500059E72DE9F04F88460446D21D22F00701E1
:1009600091B0D1E90001CDE90A0103F035FF02465B
:100970000B98C00F01D02D2007E02068810701D51A
:100980002B2002E0202101EAC000032A099001D0B7
:10099000072A05DB03464146204600F0A3F90BE198
:1009A0002078800601D5E06900E00620B8F1650FE7
:1009B000814606D0B8F1660F18D0B8F1670F70D134
:1009C00031E00020B9F1110F009001DB112301E0AB
:1009D00009F101030AAA01A90CA8FFF7E4FEDDE969
:1009E0000C70002609F10105834647E001204B46C3
:1009F00000904FF000470AAA01A90CA8FFF7D3FE08
:100A0000DDE90DB00C995D46002610B909F1010031
:100A10000D18B9EB050003D4C0F1FF3609F101054B
:100A2000A5EB09002BE0B9F1010F01DA4FF0010944
:100A30000020B9F1110F0090484601DD112300E0BC
:100A400003460AAA01A90CA8FFF7ADFEDDE90C7068
:100A50004D4600268346207800070AD4AB4500DACD
:100A60005D4601A8012D04DD411911F8011C302952
:100A700007D04F4502DA17F1040F04DA012082464D
:100A80000FE06D1EEEE7002F02DCED1B3E4403E09D
:100A9000781CA84200DD7D1CB81B00F1010A4FF054
:100AA00000472078000703D4AA4501DB4FF0FF3A46
:100AB0000021B7F1004F0DF143088DF8431024D009
:100AC00002202B23002F01DA7F422D230A21021E50
:100AD000A0F1010000DC5FB197FBF1FC97FBF1F2A4
:100AE00001FB1C7C17460CF1300C08F801CDEEE739
:100AF000A8F1010003702188090501D5452100E016
:100B00006521A0F1010800F8011C09980FA9A1EBCB
:100B10000807FF1D00B10120411901EBEA70A1692E
:100B20003844081A401EA0612078C00602D420462E
:100B3000AFF30080099828B1D4E901219047206AD9
:100B4000401C20622078C00622D52046AFF30080EA
:100B50001EE0002E04DBB34502DD01A8805D00E04D
:100B60003020D4E901219047206A401C2062761C85
:100B7000AAF101005FEA000A0AD100F065F8C06836
:100B80000168405CD4E901219047206A401C206242
:100B9000281EA5F10105DCDC07E0D4E9012118F8E5
:100BA000010B9047206A401C2062381EA7F1010704
:100BB000F3DC2046AFF30080032011B043E60000D1
:100BC00001694A1C02610878704700B58FB0CDE911
:100BD00001310021059105497944CDE90310114601
:100BE0006846FFF709FC0FB000BD0000E5FFFFFFFE
:100BF0000A6802F8010B0A6070474FF0000200B566
:100C0000134694469646203922BFA0E80C50A0E82F
:100C10000C50B1F12001BFF4F7AF090728BFA0E8DD
:100C20000C5048BF0CC05DF804EB890028BF40F8A9
:100C3000042B08BF704748BF20F8022B11F0804FEB
:100C400018BF00F8012B7047004870475838002043
:100C5000004870473838002030B5B0F10A024FEA3A
:100C6000900E71F100034EEA817EB0EB0E0061EB55
:100C700091014FEA101E4EEA017E10EB0E0041EB8F
:100C800011114FEA102E4EEA016E10EB0E0041EBEF
:100C900011214FEA104E4EEA014E10EB0E0041EBCF
:100CA0001141401841F100014FEAD00040EA417083
:100CB0004FEAD10110EB80054FEA810444EA9074B9
:100CC00044EB01046D1944EB0404521BA3414FF0A3
:100CD000000348BF0A3200D530BD401C41F100017D
:100CE00030BD00002DE9F0411F460446032601688F
:100CF000072A01F4006004DB08B116A505E016A57B
:100D000003E008B115A500E015A521F01000206052
:100D1000A069C01EA0610FB1401EA0612046AFF3C4
:100D200000804FB1D4E9012138469047206A401C29
:100D30002062C01C206206E0206AFAE7D4E90121A3
:100D400015F8010B9047761EF8D22046AFF30080CD
:100D5000BDE8F0814E414E006E616E00494E460086
:100D6000696E66002DE9F047814616468AB0334821
:100D700078440DC88DE80D0030487844801C03ACE1
:100D80000DC884E80D0041F69B300844372190FBE4
:100D9000F1F290FBF1F5A5F1800501FB12041B3C7B
:100DA00002D56442012000E00020DFF890A08046D8
:100DB0000027FA44AAF1BE0A0DE0E00709D0324646
:100DC000684607EB47010AEB810100F035FB8DE82F
:100DD000070064107F1C002CEFD1184F7F44AC3FFC
:100DE00018E0E80714D007EB04100DF1180A90E89A
:100DF0000E008AE80E00C068F04201D198190890F0
:100E0000324606A903A800F017FB03AB83E80700EE
:100E10006D10641C002DE4D132466946B8F1000F14
:100E200003A802D000F0F4FA01E000F005FBC9E9E4
:100E30000001C9F808200AB0BDE8F087204D010084
:100E400000487047383800207546FFF7F9FFAE4676
:100E500005006946534620F00700854618B020B5C6
:100E6000FFF710FABDE820404FF000064FF00007F2
:100E70004FF000084FF0000B21F00701AC46ACE842
:100E8000C009ACE8C009ACE8C009ACE8C0098D46AF
:100E900070470446AFF300802046FFF7B4F9000026
:100EA0004FF0013C50F8042B51F8043B9A4221D1F9
:100EB000A2EB0C03934313EACC1317D150F8042B85
:100EC00051F8043B9A4215D1A2EB0C03934313EA69
:100ED000CC130BD150F8042B51F8043B9A4209D1A2
:100EE000A2EB0C03934313EACC13DBD04FF00000CA
:100EF000704700BFD01A01BAB1FA81F101F01801B0
:100F000022FA01F0CB40C1F12001DBB2C0B2C01A1D
:100F10002CFA01F3D11A914311EAC311E6D17047BB
:100F200001491820ABBEFEE72600020070475FEAC9
:100F3000400C08BF91F0000F4FEA8C234FEAC1220A
:100F400043EA51514FEA1C5018BF00F5F0404FEAF8
:100F5000300018BF41F000415FEA6C5C00F029806E
:100F6000BCF1FF3F08BF40F080407047130C06BF44
:100F700012044FF0100C4FF0000C130E04BF1202BD
:100F80000CF1080C130F04BF12010CF1040C930FA9
:100F900004BF92000CF1020CD30F04BF52000CF1FD
:100FA000010C11464FF00002A0F11F00A0EB0C0055
:100FB000704711F0004F08BF704731F000413FF417
:100FC000D5AF0B0C06BF09044FF0100C4FF0000C0E
:100FD0000B0E04BF09020CF1080C0B0F04BF090132
:100FE0000CF1040C8B0F04BF89000CF1020CCB0F29
:100FF00004BF49000CF1010CCCF12003A0EB0C0064
:1010000022FA03F302FA0CF241EA030100F10100B3
:10101000704720F07F4C80EA030023F07F47ACEB61
:10102000070303F57C5300F0004003F1FF032DE9B3
:1010300080494FEA154B09B44FEA144325EA0B4E99
:1010400024EA03480FF2042606EB132749083E78EA
:101050005FEA320203FB0667C7F5000707FB06F6E7
:101060004FEA54374FEAD64606F1020607FB066CF4
:10107000CCF1005C4FEA1C472CEA074C07FB06F456
:101080000CFB06F504EB15464FEA961634BF00201C
:101090004FF000404FEAD13706FB07FC4FEA1C4CEB
:1010A0000CFB0BF7D21B03FB0CF761EB07010CFBEE
:1010B0000EF7B0EB074072EB17420CFB08F734BF9A
:1010C000A2EB0742B2EB074261EB17414FEA0C4437
:1010D0004FEA910706FB07FC4FEA1C4C0CFB0BF791
:1010E000B0EBC74072EB573203FB0CF734BFA2EBF7
:1010F000C742B2EBC74261EB57310CFB0EF7B0EBC6
:10110000C70072EB57720CFB08F734BFA2EBC702A3
:10111000B2EBC70261EB5771039F4FEA816141EA6D
:10112000921104EBCC044FEAD1374FEA826206FBFE
:1011300007FC42EA90124FEA80604FEA1C4C0CFB1D
:101140000BF7D21B03FB0CF761EB07010CFB0EF74F
:10115000B0EB074072EB17420CFB08F734BFA2EB71
:101160000742B2EB074261EB17414FEA8C554FEA59
:10117000910704EB9C2406FB07FC4FEA1C4C0CFB7C
:101180000BF7B0EBC74072EB573203FB0CF734BFE1
:10119000A2EBC742B2EBC74261EB57310CFB0EF733
:1011A000B0EBC70072EB57720CFB08F734BFA2EB31
:1011B000C702B2EBC70261EB577115EB4C254FEA42
:1011C000816141EA92114FEA82624FEAD13742EAE5
:1011D000901206FB07FC44F100044FEA80604FEADE
:1011E0001C4C0CFB0BF7D21B03FB0CF761EB07014C
:1011F0000CFB0EF7B0EB074072EB17420CFB08F745
:1012000034BFA2EB0742B2EB074261EB174115EB8B
:101210001C154FEA813141EA92414FEA823242EA9B
:1012200090424FEA80304FEA0C7644F1000448EADD
:1012300003434EEA0B484FF0000EB2EB080C71EB83
:10124000030724BF624639464EEB0E0E4FF0000BEB
:101250000018524149414BEB0B0BB2EB080C71EB00
:1012600003077BF1000B24BF624639464EEB0E0E9E
:101270004FF0000B0018524149414BEB0B0BB2EB06
:10128000080C71EB03077BF1000B24BF6246394663
:101290004EEB0E0E51EA020718BF46F0010616EBA0
:1012A0000E7655F1000254F1000103D5BDE8890125
:1012B000BDE80088BDE88901BDE80048B619524183
:1012C00041EB0101A3F10103704780807F7E7D7CAB
:1012D0007B7A7978777676757473727171706F6EC8
:1012E0006E6D6C6C6B6A6A69686867666665646473
:1012F000636362616160605F5F5E5E5D5D5C5C5BFD
:101300005B5A5A595958585757565655555554546B
:10131000535352525251515050504F4F4F4E4E4DC9
:101320004D4D4C4C4C4B4B4B4A4A4A494949484815
:101330004847474747464646454545444444444355
:1013400043434342424242414141002B26D477006D
:1013500021D01CB54FEA370703B44FF010004FF00F
:1013600010014FF000000FBCBDE810400BF1010B65
:10137000BBF1010F08BF5FEA170722BF12F101029C
:1013800011F101014FF0004143F1000300F0004072
:1013900043EA00007047F9D35708DAE746EA064601
:1013A00013F1400F4FEA16461FDD13F1200FDFBF88
:1013B00016430A46002120335B42C8D0C3F1200700
:1013C00046EA064602FA07F74FEA164646EA0706D5
:1013D000C3F1200722FA03F201FA07F721FA03F119
:1013E0004FF0000342EA0702B1E746EA020646EA86
:1013F00006464FEA164646EA0106BCBF46EA0646DE
:10140000360C4FF000034FF000024FF000019EE752
:101410002DE9C048934630B491E8380007C831EA56
:10142000400C48BF34EA430C03D5FFF7F2FDFFF749
:101430008CFFF0BCBDE800882DE9C048934630B46D
:1014400091E8380007C810F0804F08BF13F0804FB4
:1014500003D100F005F8FFF778FFF0BCBDE8008885
:1014600020F07F4780EA030023F07F4C07EB0C035A
:10147000A3F57C5300F00040A3F1FE0392F0000FAF
:1014800000F0B38095F0000F00F077802DE901495E
:101490004FEA11404FEA144621EA004800FB06FCDF
:1014A00024EA064708FB06F607FB08F800FB07F7E7
:1014B00018EB06484CEB164C4FEA124B18EB07485A
:1014C0004FEA15464CEB174022EA0B4E0BFB06FC8D
:1014D00025EA06470EFB06F607FB0EFE0BFB07F799
:1014E0001EEB064E4CEB164C4FF000061EEB074E63
:1014F0004CEB174B18EB0B0840F1000018EB0E0BF0
:1015000058EB000840F100008F1A4FF000013CBF7B
:10151000C943661B14BFB5EB040C00213CBFC94393
:10152000F61B4FEA17444EEA8E0E27EA04454FEAAF
:101530001C4704FB07622CEA074C05FB07F70CFB72
:1015400005F604FB0CFC16EB074642EB174216EBC4
:101550000C4642EB1C421BEB060658EB02024141D3
:1015600046EA9E0601D5BDE80189B619524141EB14
:101570000101A3F10103BDE801894FEA14454FEAD7
:10158000114724EA054621EA074C05FB07F406FB50
:1015900007F70CFB06F105FB0CFC11EB074144EBD4
:1015A00017444FEA124711EB0C4144EB1C4422EA6A
:1015B000074C05FB07F206FB07F70CFB06F605FBDD
:1015C0000CFC16EB074642EB174216EB0C4642EBBF
:1015D0001C456A1854F1000148BF7047B6195241C2
:1015E00041EB0101A3F10103704795F0000F37D0E3
:1015F0004FEA11424FEA144721EA024624EA074C17
:1016000002FB07F106FB07F70CFB06F402FB0CFCE0
:1016100014EB074441EB17414FEA154714EB0C4418
:1016200041EB1C4125EA074C02FB07F506FB07F7D7
:101630000CFB06F602FB0CFC16EB074645EB1745C8
:1016400016EB0C4645EB1C42121951F1000148BF44
:101650007047B619524141EB0101A3F101037047F4
:101660004FEA14454FEA114724EA054621EA074CA0
:1016700005FB07F106FB07F70CFB06F24FF000062F
:1016800005FB0CFC12EB074241EB174112EB0C423D
:1016900051EB1C4148BF7047921841EB0101A3F187
:1016A0000103704710B5A02000F0AEF80121022020
:1016B00000F0C2F80121022003F085F8222000F09A
:1016C00055F81321242000F0B7F83B21262000F024
:1016D000B3F8002000F06EF80221084600F0ACF8E4
:1016E0000221084603F06FF8252000F03FF800F0D3
:1016F0000704A02000F05EF80221084600F09CF8E4
:101700000221084603F05FF8252000F02FF800F0D2
:1017100007012046BDE8104002F0D2B970B5104D67
:101720000124204615F8141000F086F8641CE4B279
:10173000042CF6D90724204615F8141000F07CF884
:10174000641CE4B2222CF6D92424204615F8141087
:1017500000F072F8641CE4B2312CF6D970BD0000C0
:10176000724C0108802000F04FB8000070B50E4D9B
:1017700006464FF4804400222146284600F061FDD1
:1017800006F07F0141F04001082012F05DF80120D1
:1017900000F0F1FA0CF018FC06460122214628461A
:1017A00000F04FFD304670BD0008014000210846A2
:1017B00000F042B801460F2000F03EB870B5114D60
:1017C0004FF4804400222146284600F03AFD0621CD
:1017D000082012F039F85621082012F035F8592166
:1017E000082012F031F8A521082012F02DF8A921C7
:1017F000082012F029F821462846BDE87040012251
:1018000000F01FBD0008014070B50A4D06464FF4B8
:10181000804400222146284600F013FD3146042072
:1018200012F012F821462846BDE87040012200F06F
:1018300008BD0000000801402DE9F0410C4D0E46A6
:1018400007464FF4804400222146284600F0F9FC68
:1018500007F07F01082011F0F7FF3146082011F052
:10186000F3FF21462846BDE8F041012200F0E9BC23
:10187000000801400029816802D041F0010101E027
:1018800021F00101816070470029816802D041F494
:10189000807102E04FF6FF6211408160704701469F
:1018A00000208968490700D50120704701460020C3
:1018B0008968090700D501207047704710B5426854
:1018C0000E4B0C791A400B6842EA04221343436022
:1018D00082680B4B1A40D1E9024323434C7942EA18
:1018E000440213438360C26A097C22F47002491ED9
:1018F000C9B242EA0151C16210BD0000FFFEF0FF13
:10190000FDF7F1FF70B5072609290AD9C568A1F1CD
:101910000A0404EB4404A640B543A3401D43C5603C
:1019200007E0056901EB4104A640B543A3401D4310
:1019300005611F23072A09D2446B521E02EB820263
:1019400093409C4391400C43446370BD0D2A09D2DF
:10195000046BD21F02EB820293409C4391400C43E4
:10196000046370BDC46A0D3A02EB820293409C434B
:1019700091400C43C46270BD816841F008018160F0
:1019800070470029816802D041F4A00101E021F4F0
:10199000A00181607047816841F004018160704757
:1019A000010900F00F0001EB810100EB4100C0B222
:1019B00070477047704700002DE9F84FFF20ADF8E1
:1019C00000000025614F8DF8035003248DF802407C
:1019D0006946384600F0C2FB3F20ADF800008DF8A4
:1019E00003508DF802406946594800F0B7FBADF846
:1019F00000408DF803508DF802406946554800F0CC
:101A0000ADFBFD14ADF8005014268DF803608DF881
:101A100002406946384600F0A1FB6810ADF80000AE
:101A2000DFF834B18DF803608DF8024069465846FE
:101A300000F094FBADF800508DF803608DF8024083
:101A40006946584600F08AFB0425ADF8005010277F
:101A50008DF803708DF8024069463E4800F07EFB29
:101A6000ADF800508DF803608DF802406946584685
:101A700000F074FB2003ADF800008DF803508DF8E2
:101A800002406946584600F069FBE801ADF80000E5
:101A90004FF04808DFF8C4A08DF803804FF001092B
:101AA0008DF802906946504600F058FB2803ADF8C7
:101AB00000008DF803808DF802906946504600F0D2
:101AC0004DFB41F20200ADF800008DF803508DF897
:101AD00002406946504600F041FB6003ADF800004B
:101AE0008DF803508DF8024069461A4800F036FB25
:101AF0006803ADF800008DF803608DF80240694678
:101B0000144800F02BFB0220ADF800008DF80370A4
:101B10008DF802406946584600F020FB2020ADF8C1
:101B200000008DF803508DF802406946094800F026
:101B300015FB8020ADF800008DF803508DF80240B1
:101B40006946504600F00AFBBDE8F88F00080140E6
:101B500000100140000C0140001401400018014039
:101B600038B50820ADF8000003248DF80240142594
:101B70008DF8035069460F4800F0F0FA0120ADF8E7
:101B800000008DF802408DF8035069460A4800F0C5
:101B9000E5FA1020ADF800008DF802408DF80350F2
:101BA0006946064800F0DAFA07F054FB07F070FBCC
:101BB00038BD00000014014000180140000C014035
:101BC0007047000010B5202000F028F8BDE8104054
:101BD0000021014800F028B81C00024010B54FF465
:101BE000007000F01BF8BDE810400021014800F033
:101BF0001BB800003000024010B54FF4005000F058
:101C00000DF8BDE810400021014800F00DB80000BB
:101C10004400024070477047704700000149486027
:101C200070470000000002400029016802D041F026
:101C3000010101E021F001010160704700B5024699
:101C40000021FFF7F1FF0020106050609060D0602D
:101C5000184B1848D11A44389A421ED00ADC16494B
:101C6000511812D0142914D028290DD1416841F4FB
:101C7000706108E0142914D0282916D03C2903D11A
:101C8000416841F07061416000BD416841F00F0161
:101C9000F9E7416841F0F001F5E7416841F470412E
:101CA000F1E7416841F47021EDE7416841F47001CA
:101CB000E9E7000044000240F8FFFDBF30B50268CC
:101CC00047F6F0739A430C6A8B682343D1E90445C5
:101CD0002C4323438C692343CC6923434C6A23431D
:101CE0008C6A234313430360CA6842600A688260B7
:101CF0004968C16030BD000010B50446062000F000
:101D00002DFC00F00700FFF74BFE401CE0700420A4
:101D100000F024FC00F03F00FFF742FEA07003201B
:101D200000F01CFC00F07F00FFF73AFE607002201C
:101D300000F014FC00F07F00FFF732FE2070A07866
:101D4000182802D260783C2806D30448017AA17092
:101D5000417A6170C079E07010BD00004832002007
:101D60000A21B0FBF1F2B0FBF1F301FB130000EB31
:101D70000210C0B2704700224FF4967306E00021B3
:101D8000491C89B29942FBD3521C92B28242F6D3CB
:101D90007047002101E0491C89B28142FBD3002039
:101DA000401C80B2C828FBD37047000010B5084C17
:101DB00020680F2801D0002010BDFEF771FA0549F8
:101DC0000E20096888722060FEF773FA012010BDAA
:101DD000D8000020D400002010B5FEF761FA0548B5
:101DE0000178491C0170FEF764FABDE8104000F06C
:101DF000FFBE00007000002010B5FEF751FA0D493B
:101E00000878401C0870FEF754FA4FF480442046CE
:101E100000F056F850B1204600F04CF8FEF740FABA
:101E200005480168491C0160FEF743FABDE810400F
:101E300000F0DEBE70000020FC02002010B5FEF7AE
:101E40002FFA05480178491C0170FEF732FABDE807
:101E5000104000F0CDBE00007000002070477047B9
:101E60007047000010B5FEF71BFA0D490878401CBA
:101E70000870FEF71EFA4FF40074204600F020F8B8
:101E800050B1204600F016F8FEF70AFA054801683E
:101E9000491C0160FEF70DFABDE8104000F0A8BE35
:101EA0007000002000030020014908607047000016
:101EB0001404014001490860704700001404014007
:101EC000064A014600201268044B0A4014331B687E
:101ED0000B4202D0002A00D00120704700040140CC
:101EE00030B5164C017985790B190268D3F80014C6
:101EF00005B31143124AC3F80014116803689943EB
:101F00001160131D19680568A943196041791029EA
:101F100007D021440068D1F800240243C1F800240E
:101F200030BD1168046821431160196800680143DD
:101F3000196030BD9143C3F8001430BD000001406A
:101F4000080401400149C8607047000000200240B9
:101F500070B5054640F6FF76304600F07FF804285D
:101F600013D10A4C206940F00200206165612069AC
:101F700040F040002061304600F070F8012804D0A5
:101F8000216941F6FD721140216170BD00200240BF
:101F900008490420CA68D20701D001207047CA68E6
:101FA000520701D502207047C968C906FBD5032036
:101FB000704700000020024070470000024801699D
:101FC00041F08001016170470020024004490A6825
:101FD00022F010020A600A6802430A60704700009B
:101FE000002002402DE9F04106460D460F2000F08A
:101FF00035F8042816D10C4C206940F0010020610E
:1020000035800F2000F02AF841F6FE77042804D12D
:10201000280C70800F2000F021F8012802D02169DF
:1020200039402161BDE8F0810020024004490A687E
:1020300002F038020A600A6802430A607047000032
:102040000020024003480249416003494160704753
:102050002301674500200240AB89EFCD2DE9F04117
:102060000446FFF795FF114D114E124FDFF84880DF
:1020700012E000F063FB2868401C28603068401CB8
:1020800030603868401C3860D8F80010491CC8F827
:102090000010FFF77DFF641E012804D0002C00D142
:1020A0000520BDE8F081002CE3D1F9E7880300208A
:1020B000C4000020B8000020D00000201B4A10B54A
:1020C000811A1315904222D00BDC1949401817D001
:1020D00098422AD10121082001F090FA002108201D
:1020E0000AE099421AD0B1F5006F1ED101214020BB
:1020F00001F084FA00214020BDE8104001F07EBAD2
:102100000121042001F07AFA00210420F4E70121E2
:10211000102001F073FA00211020EDE701212020AA
:1021200001F06CFA00212020E6E710BD001001400C
:1021300000F8FEBF10B58A0721F003040649120F0C
:1021400021440F238C6893409C438C608B689040A3
:1021500003438B6010BD000000000140F0B5CC7857
:10216000002204F00F03E40601D58C7823430C7899
:102170004FF00F0C14F0FF0F4FF0010E1AD005684E
:102180000E880EFA02F42640A6420FD196000CFAF1
:1021900006F725EA070703FA06F5CE783D43282E11
:1021A00000D14461CE78482E00D10461521C082A27
:1021B000E6D305600A88FF2A1CD94468002202F190
:1021C00008060EFA06F50E882E40AE420ED1960095
:1021D0000CFA06F7BC4303FA06F7CE783C43282EE8
:1021E00000D14561CE78482E00D10561521C082AE5
:1021F000E5D34460F0BD000070B50D4E7268C0F3C9
:10220000034583B2840202D522F0E06206E0C402F4
:1022100003D50324AC40A24300E09A4329B18002D5
:1022200002D542EA034200E01A43726070BD00002A
:10223000000001400246002092680A4200D00120BE
:1022400070471AB102690A430261704742690A4342
:1022500042617047704770477047704710B5012260
:10226000D1030A48FFF7EDFF00F082FA084C012283
:1022700040212046FFF7E5FF0220FFF78AFD2046B8
:102280000022BDE810404021FFF7DBBF00140140F1
:102290000018014070B500F06BFA114D4FF4004486
:1022A000002221462846FFF7CCFF0220FFF771FDF0
:1022B0000C4E002240213046FFF7C3FF0220FFF7FB
:1022C00068FD012221462846FFF7BBFF0220FFF7E9
:1022D00060FD3046BDE8704001224021FFF7B1BFEC
:1022E00000140140001801402DE9F041054600F0BE
:1022F0003FFADFF84C80134F00244FF400460022D1
:1023000031463846FFF79DFFE80701D0012200E083
:10231000002240214046FFF794FF0320FFF739FDDC
:102320006D08012231463846FFF78BFF0320FFF787
:1023300030FD641CE4B2082CE1D3BDE8F08100005C
:1023400000180140001401402DE9F047054608241B
:1023500000F034FA0E4FA0461026A7F1040910E051
:1023600000F06CF82806404602D5C9F8000000E0ED
:1023700038606806050E00F061F8C9F8006000F0EA
:102380005DF8641EE4B23E60EAD2BDE8F08700006A
:102390001418014070B500F011FA094808240460CF
:1023A0001026066000F04AF8054D2D1D2C6000F047
:1023B00045F82C6000F042F82E60012070BD00004E
:1023C0001018014070B500F0F9F9094D10242C6087
:1023D00000F034F808262E6000F030F82D1F2C6035
:1023E00000F02CF82E60BDE8704000F027B8000027
:1023F0001418014070B5002400F0CCF90E4E0820EE
:10240000306000F01BF81025356000F017F80A4A1C
:10241000083A09E0641CE0B2411CCCB2FA2803D9A6
:10242000FFF7D0FF002070BD10680007F2D402480B
:10243000001D0560012070BD1018014008B50A207C
:102440000090401E0090FCD108BD00002DE9F04135
:10245000144F00244FF40046224631463846FFF719
:10246000F0FE00F073F94FF4FA65DFF83C8003E00A
:10247000641CA4B2AC4205D840214046FFF7DAFE06
:102480000028F5D1012231463846FFF7DAFE052053
:10249000FFF77FFC31463846BDE8F0410022FFF7E8
:1024A000D0BE0000001401400018014070B50A4C75
:1024B0000025C4F8805104F5C07401F07BFA074888
:1024C000C0F8B051022003F009FD01202060022075
:1024D00003F004FD256070BD00802242000021420F
:1024E00070B50A4C0025C4F8805104F5C07401F0A1
:1024F00061FA07480122C0F8B021022003F0EEFC87
:102500002260022003F0EAFC256070BD00802242B8
:102510000000214238B54FF48050ADF8000003258B
:102520008DF8025014248DF8034069460948FFF7DE
:1025300015FE0120ADF800008DF802508DF8034023
:1025400069460548FFF70AFE0021084600F0DEF85C
:1025500038BD0000000801400014014010B50446D9
:1025600000F072F8A22000F047F800F0A9F8204629
:1025700000F042F800F0A4F800F066F8A32000F0A4
:102580003BF800F09DF8002000F006F8044600F04B
:1025900077F8204610BD00002DE9F0418046002468
:1025A00001F0F6F90022124B124F15460126C3F82E
:1025B0008051022003F092FCC3F880616006040E93
:1025C000D7F8300108B1641CE4B2012003F086FCA6
:1025D000521CD2B2082AEAD3B8F1000F04D0FFF798
:1025E00065FF2046BDE8F081FFF77AFFF9E70000BC
:1025F00000802242000021422DE9F041044601F012
:10260000D9F90F4B0025C3F880510E4E2A460127F9
:10261000E009C6F8B0016006040E022003F05EFC7B
:10262000C3F88071022003F059FCC3F880510220E6
:1026300003F054FC521CD2B2082AE9D3BDE8F08161
:10264000008022420000214210B501F0B3F90A4A8D
:102650000120C2F8B001094BC3F88001042002F543
:10266000D87203F5C07303F039FC00241460042011
:1026700003F034FC1C6010BD0000214200802242A7
:1026800010B501F097F90C4A0020C2F880010B4BFD
:10269000C3F8B001042002F5C07203F5D87303F04B
:1026A0001DFC01241460042003F018FC1C60BDE82C
:1026B0001040042003F012BC00802242000021429E
:1026C00070B5002401F064F90E4A0125C2F8B0513A
:1026D000284603F003FC0C4BC3F88051012003F0A3
:1026E000FDFB07E0641CE4B2FA2C03D9FFF7C8FF36
:1026F000012070BDD2F830010028F3D1C3F8800169
:1027000070BD0000000021420080224270B50D46DD
:102710000446FFF799FFA220FFF76EFFFFF7D0FFF7
:102720002046FFF769FFFFF7CBFF2846FFF764FF5E
:10273000FFF7C6FFBDE87040FFF7A2BF02494AF6A7
:10274000AA200860704700000030004008B5402013
:10275000ADF8000004208DF8030003208DF802007E
:1027600069460248FFF7FAFC08BD00000018014066
:1027700008B54020ADF8000010208DF803000320BC
:102780008DF8020069460248FFF7E8FC08BD00002A
:102790000018014008B50820ADF8000004208DF8AD
:1027A000030003208DF8020069460348FFF7D6FCBA
:1027B000FFF744FE08BD00000018014008B50820DE
:1027C000ADF8000014208DF8030003208DF80200FE
:1027D00069460348FFF7C2FCFFF730FE08BD000062
:1027E00000180140F8B5C020ADF800001824144EC0
:1027F0008DF8034003258DF8025069463046FFF7F7
:10280000ADFC6001ADF800008DF803408DF802507A
:1028100069463046FFF7A2FC0DF03AFB4FF48044C6
:10282000ADF800401020074D8DF80300694628469A
:10283000FFF794FC002221462846FFF702FDF8BD71
:10284000000C014000140140FEB5234E7F253046A8
:1028500001F098FCB0150021ADF80400ADF80810A7
:10286000ADF80610ADF80A1001A9304601F01BFEC4
:1028700001220F21304601F0DEFD502400222B46BC
:1028800011463046009401F0B7FD2B46012200218D
:102890003046009401F0B0FD2B4602220021304664
:1028A000009401F0A9FD2B4603220021304600943C
:1028B00001F0A2FD0021304601F01DFD002130464F
:1028C00001F020FD0121304601F048FC0121304695
:1028D00001F04CFCFEBD000000080040F8B50021EE
:1028E0004FF0006000F0C8F84FF4A06000F0BAF8B4
:1028F00025208DF8000002258DF8015003268DF863
:102900000260684600F070F80C208DF800008DF829
:10291000015004208DF8020001248DF80340684620
:1029200000F062F817208DF800008DF801508DF846
:1029300002508DF80340684600F056F828208DF8C4
:1029400000008DF801508DF802408DF80340684674
:1029500000F04AF807208DF800008DF801608DF82E
:1029600002508DF80340684600F03EF81B208DF8B9
:1029700000008DF801408DF802508DF80340684644
:1029800000F032F81C208DF800008DF801408DF821
:1029900002408DF80340684600F026F8032201212A
:1029A000044800F073F800200DF01FFB01200DF02B
:1029B0001CFBF8BD9AC3020000204FF0E021431E2B
:1029C000C1F880315A0DC1F88421C1F88032C1F8B4
:1029D00084220146820002F1E022C2F80014401C69
:1029E0000B28F7D37047000070B50F25C278017827
:1029F000012652B31A4A1268447802F4E062C2F522
:102A0000E062120AC2F10403D54082789C402A4059
:102A1000224314018A07D30E21F0030202F1E022BF
:102A20009C40D2F80054FF2199408D430C4025432F
:102A3000C2F80054007800F01F018E404009800069
:102A400000F1E020C0F8006170BD01F01F00864079
:102A50004809800000F1E020C0F8806170BD0000EE
:102A60000CED00E00249084302490860704700008D
:102A70000000FA050CED00E0024A11400143024853
:102A80000160704780FFFF1F08ED00E030B5124B7A
:102A9000FF251B6803F4E063C3F5E0631B0ADD4018
:102AA000C3F10404A1402A400A431101032202EAAF
:102AB0009012C0F30120C0008140FF2383409000AA
:102AC00000F1E02000F6185002689A4302600268A4
:102AD0000A43026030BD00000CED00E070470000CA
:102AE00030B587B000F082F8374B00249C621C7030
:102AF0005C705C711C719C601C613449DC802046F8
:102B0000401CC0B221F8024B0528F9D39C70DC7040
:102B1000DC6140F2E4612E485C6100F0C8FB2B48A8
:102B20004FF48271D43000F0C2FB2948002200F13A
:102B300054013F25416180F8445080F84540521CC3
:102B4000D2B254305431142AF4D3446180F8445042
:102B500080F845401E481C6298614FF43471A0F51E
:102B6000956000F0A4FB1B48002200F1180100F85A
:102B7000044B521C40F8141B92B218311D2AF6D394
:102B8000047044601348D86000F0A4FB3221029125
:102B90000320CDE903400D4A4FF6FF700C32CDE91A
:102BA00000024023C43200210B4800F013F905AAAB
:102BB0000AA1402000F062F900F019F807B0BDE862
:102BC0003040FFF78BBF0000700000204C0A00204F
:102BD000240C00207C070020B534000875432F4FDB
:102BE000532D49492049646C6500000070477047C7
:102BF00010B5134C2079012820D1FDF751FB207826
:102C000020B1401E10F0FF00207013D1607888B909
:102C100000F0A4FBE078A17888420BD0094951F874
:102C20002000E061016B491C0163A068401CA060AA
:102C3000FDF765FBBDE81040FDF73BBB10BD000094
:102C400070000020200B002070B50C4D064628783F
:102C500008B1002070BDFDF723FBEC680CB1606883
:102C6000E860FDF726FB3CB10120207000202081A8
:102C70002046666000F010FB204670BD700000200A
:102C80002DE9F0470546007889461446012801D011
:102C9000012005E0DFF8888098F8000010B10220DC
:102CA00010703AE098F8010008B11120F8E7FDF73C
:102CB000F7FA6E68002736B16F60FDF7FAFA2770F1
:102CC0003046BDE8F087D8F8140010F8261F41F010
:102CD00002010170477020F8029C284600F0B8FA03
:102CE000FDF7E7FA00F018FBFDF7DAFAD8F8141050
:102CF00091F82700012809D00D6A0F6281F826702B
:102D0000CF61FDF7D6FA27702846DAE7284600F0AB
:102D100035FAFDF7CEFA0A2020700020D1E7000036
:102D20007000002070B5044600780D46012801D0DF
:102D3000012070BDFDF7B4FA608948B1022229462E
:102D4000204600F037FAFDF7B4FA00F0E5FA08E0A3
:102D5000606818B1FDF7ADFA142070BD6560FDF72D
:102D6000A8FA002070BD000070B50C4D064628780A
:102D700008B1002070BDFDF793FAEC680CB16068F3
:102D8000E860FDF796FA3CB1032020702681002010
:102D90006060204600F080FA204670BD7000002080
:102DA00010B5094C207900280CD100F0D7FAE07852
:102DB0000649A07051F82000E0616061BDE8104054
:102DC000FDF785BA10BD000070000020200B002028
:102DD000704700002DE9FF4F83B01C46DDE91395D5
:102DE000DDE911A89346FDF75BFA1E4F387828B14C
:102DF000FDF75FFA102007B0BDE8F08F1A4E56F8C5
:102E0000240018B1FDF755FA2820F4E7012046F810
:102E10002400FDF74EFA2A464146504600F058FB82
:102E2000DDE903012B465A4600F094F8CDF8008006
:102E3000CDE90195014652462046109B00F0D0FA9C
:102E4000050008D0FDF72CFA002046F82400FDF715
:102E500030FA2846CFE738790128FAD100F05CFA39
:102E6000F7E7000070000020200B002070470000F2
:102E700001490120086070470000002070B5144629
:102E80000E460546FDF70CFAFF2D03D110484069A8
:102E900090F828500F4850F825300B2553B1012BDE
:102EA00008D0304600F092FA0F2807D9FDF701FA52
:102EB0000E200BE0FDF7FDF9257070BD314603F1E2
:102EC000440000F075FAFDF7F4F90020207070BDA1
:102ED00070000020200B002010B50446FDF7E0F93B
:102EE0001A4951F8240058B101280DD090F8261045
:102EF0000A0727D531F0080180F8261008D009E02C
:102F0000FDF7D7F9642010BDFDF7D3F90B2010BDF4
:102F1000818C19B1FDF7CDF9002010BD0C4AC18D8F
:102F2000D3881943D180094A90F82A10D43A808D69
:102F300032F81130034322F81130FDF7BAF900F0EE
:102F4000EBF9E9E7FDF7B5F9652010BD200B00208E
:102F5000700000204FF080731360131F1860A2F1FF
:102F600008006FF001030360001F4FF0123303608D
:102F7000001F4FF003330360001F4FF00233036064
:102F8000001F5B100360001F0160001F4FF0113134
:102F90000160001F19010160001F4FF0093101603D
:102FA000001FD9000160001F4FF007310160001FB2
:102FB0004FF006310160001F4FF0053101609900AC
:102FC000001F01607047000070B50446FDF768F906
:102FD0001B4BFF2C586905D090F82800A04204D163
:102FE000012503E090F82840FAE70025154850F83D
:102FF000240068B101280FD0124C90F82A10D43C5C
:10300000868D34F81120B24324F8112008D00BE04B
:10301000FDF74FF95A2070BDFDF74BF90B2070BD3D
:10302000C28DD9889143D98010F8261F41F008013C
:103030000170FDF73EF90DB100F06EF9002070BD92
:1030400070000020200B00207047000070B50400C5
:1030500018D0FDF725F90C4B0C4D596991F82A2031
:103060008E8D35F81200B04325F8120003D1CA8DB9
:10307000D8889043D8808C84FDF71BF9BDE8704058
:1030800000F04AB970BD0000700000204C0A00201A
:1030900070B54FF47A746343B3FBF4F34FF4616497
:1030A0006043C1EB011100EB8100104400EB4001D3
:1030B000C1EBC01003EBC000040C80B2FFF7C6FFE9
:1030C0004FF4004507E02846FFF7C0FF2846FFF70A
:1030D000BDFF641EA4B2002CF5D1002070BD00001D
:1030E00010B5FDF7DDF80348846AFDF7E2F82046E5
:1030F00010BD00007000002070B5FDF7D1F81D4D27
:10310000A86A401CA862FDF7D4F82879012830D1BC
:103110002C6A2AE0FDF7C4F8A08C18B3401E000406
:10312000000CA0841ED194F8260010F0370F05D0B3
:1031300020F0370084F82600012000E0002084F809
:10314000270094F8260000070CD4E08DE988084396
:10315000E88094F82A000849A38D31F810201A431A
:1031600021F810206469FDF7A4F894F8280040289D
:10317000D0D170BD700000204C0A002010B50C4C5E
:10318000626992F82A10928D00EB4103998991436C
:10319000998104D162694189D28D914341816069ED
:1031A000002180F8271080F82610C16110BD0000B2
:1031B00070000020F0B54389224D13F0FF0F02D0BC
:1031C000DBB2EB5C04E005EB13231B780833DBB2C6
:1031D000012707FA03F400EB430CA6B2BCF80C403D
:1031E00014F0FF0F04D004F0FF0E15F80E5004E0A9
:1031F00005EB14252D780835EDB2AF40BFB205EBD5
:103200000315BC43EDB2ACF80C4002D14489B44381
:1032100044810D48002450F825008484E0E90741EA
:10322000C472817A914381720AD10848C1883143BE
:10323000C1800548D43830F81310394320F81310F2
:103240002846F0BD724B0108200B002070000020C2
:1032500070B50F4C0F4D6169C86191F82A208E8DB1
:1032600035F81230B34325F8123003D1CB8DE28804
:103270009A43E28091F82A20898D00EB42029389DB
:103280000B43938162694189D28D1143418170BDA5
:10329000700000204C0A00200022428111460C30B0
:1032A000491CC9B220F8022B0529F9D37047002226
:1032B00003E0491E00F8012B89B20029F9D17047BB
:1032C00005E011F8013B521E00F8013B92B2002AC2
:1032D000F7D1704730B54FF434710D48FFF7E7FF71
:1032E0000B4800210B4604463F2501EBC10204EBCD
:1032F00082022432426005754375491C89B224302C
:103300001329F2D34360057543750248446230BD0A
:10331000081300207000002010B5FCF7C1FF0D4C11
:10332000207898B9607888B900F018F8E078A1782A
:1033300088420BD0084951F82000E061016B491C1C
:103340000163A068401CA060FCF7D2FFBDE81040FC
:10335000FCF7AFBF70000020200B0020114B10B510
:10336000D888114A10F0FF0F02D0C0B2105C04E000
:1033700002EB102000780830C0B20C4931F8101070
:1033800011F0FF0F04D0C9B2515C01EB001006E050
:1033900002EB11210822097802EB00100844D870D2
:1033A00010BD000070000020724B01084C0A002084
:1033B000002204E0521C00F8013BD2B2491C0B78F9
:1033C000002BF7D100210170104670470146002004
:1033D00002E0401CC0B2491C0A78002AF9D17047AB
:1033E0002DE9F05F9846DDE90ABA91460D4606469A
:1033F000FCF756FF2D4FBC69002C52D060690C348D
:10340000B861FCF756FF44F80C5C26770025A576DA
:10341000E5762583C4F800B044E902A90C98A080A1
:10342000A4F806803009A077012101FA00F0608439
:1034300006F00F0060778140218425616561656237
:10344000E562A56225633F20656384F8380084F84F
:1034500039500C3C2046FFF7BBFC2046FFF706FD29
:10346000FCF71EFF124840F82640386AC4E90505FB
:1034700000B184613C62E08DF9880843F8800C4912
:1034800094F82A00D439A38D31F810201A4321F87A
:1034900010207879401C7871FCF70BFF0020BDE804
:1034A000F09FFCF706FF4620F9E7000070000020BF
:1034B000200B0020054CFCF7F3FE2069401C206126
:1034C000FCF7F7FEFFF7D4FCF5E7000070000020E2
:1034D000D30707D0920705D50022002902D004C0E7
:1034E000491EFAE7704770472DE9F0410C46002667
:1034F00089880746012501B90226E288012A00D100
:1035000002256088A37A0028384611D000F0C6FB57
:103510002189384600F0AAFFA37A2A463146384668
:1035200000F08DFB21893846BDE8F04100F097BFDF
:1035300000F085FB2189384600F091FFA37A2A46E6
:103540003146384600F0AAFB21893846BDE8F041F3
:1035500000F08CBF014908627047000000000E4275
:103560000748016841F004010160016841F002016F
:1035700001600448016841F004010160FCF74ABEA3
:103580000070004010ED00E0034A516821F4404112
:10359000014351607047000000100240044A0029B6
:1035A000516901D0014300E081435161704700003F
:1035B00000100240044A0029D16901D0014300E013
:1035C0008143D1617047000000100240044A002985
:1035D000116901D0014300E081431161704700008F
:1035E00000100240044A0029916901D0014300E023
:1035F000814391617047000000100240044A002995
:10360000D16801D0014300E08143D16070470000E0
:103610000010024010B500F079F84FF480342046D5
:1036200000F00CF900F054F933490128087025D155
:103630001020FEF7CBFC0220FEF7F8FC002000F083
:10364000F3F8002000F020F9A01100F013F9601049
:10365000FFF79AFF4FF4E011204600F025F9012012
:1036600000F01CF9392000F0BFF80028FAD0022041
:1036700000F024F900F0D0F80828FBD101217C20CB
:10368000FFF7B0FF01210846FFF7ACFF012105203D
:10369000FFF7A8FF01211948FEF7AEFD01210846FA
:1036A000FFF77CFF01214802FFF79CFF0121042066
:1036B000FFF780FF01210220FFF77CFF0121104866
:1036C000FEF79AFD01210846FFF774FF0121C802A9
:1036D000FFF788FF01210B48FEF78EFD01210A4804
:1036E000FEF78AFD01214FF0C050FFF763FFBDE8F0
:1036F00010400120FFF72EBF6000002000043000C2
:1037000000031800C0001600000C1A000E4800212B
:10371000C1600161142242618161C161026842F0AD
:10372000010202604268094B1A4042600268084B7D
:103730001A400260026822F480220260426822F489
:10374000FE02426081607047001002400000FFF8F6
:10375000FFFFF6FE30B5204A5168204B11F00C01F6
:1037600003D0042901D0082901D0036011E0516879
:10377000022301F4701103EB9141536813F4803F6D
:1037800002D053689B0301D5154B00E0134B5943FE
:10379000016051680F2303EA1111124B5C5C016850
:1037A000E14041605468072505EA14241C5D21FAB4
:1037B00004F48460546805EAD4241B5DD940C160D8
:1037C0005268032303EA9232064B1B1F9A5CB1FB3B
:1037D000F2F1016130BD00000010024000127A00D9
:1037E00000093D00524B0108034600205909094ACF
:1037F00001290AD002290AD0516A03F01F020123CD
:1038000093400B4200D0012070471168F5E7116A20
:10381000F3E70000001002400248406800F00C008E
:103820007047000000100240034A516821F0F00187
:103830000143516070470000001002400B490A68C4
:1038400022F480320A600A6822F480220A60B0F50D
:10385000803F07D0B0F5802F03D1086840F4A02046
:1038600008607047086840F48030F9E700100240B3
:1038700070470000034A516821F4E0610143516040
:103880007047000000100240034A516821F4605163
:1038900041EAC000506070470010024001490866CC
:1038A0007047000000004242034B5A68084322F46C
:1038B0007C1210435860704700100240034A516860
:1038C00021F00301014351607047000000100240E5
:1038D00010B50A4C3120FFF787FF20706068401C4C
:1038E0006060207810B96068FF28F3D13120FFF7BD
:1038F0007BFF002800D0012010BD000064000020E4
:1039000008B54FF48060ADF8000048208DF8030042
:1039100003208DF8020069460148FEF71FFC08BD30
:103920000018014008B54FF48060ADF80000042095
:103930008DF8030003208DF8020069460148FEF768
:103940000DFC08BD0010014008B54FF48060ADF8D3
:10395000000010208DF8030003208DF80200694656
:103960000148FEF7FBFB08BD00100140704770479F
:1039700010B5052403E00B2C04D00C2C02D02046FB
:10398000FFF7AAFA641CE4B20E2CF4D910BD0000B3
:1039900008B54FF48050ADF8000003208DF8020008
:1039A00004208DF8030069460148FEF7D7FB08BDE7
:1039B0000008014008B54FF48050ADF80000032026
:1039C0008DF8020014208DF8030069460148FEF7C7
:1039D000C5FB08BD00080140704770470B4B002035
:1039E0004FF0A5311963024683F8340003EB8001E0
:1039F000401C01F8352FC0B24A708A70CA7007287F
:103A0000F4D30248303000F003B80000B83600208C
:103A10002DE9F0418CB000270146242268460A9720
:103A2000FCF786FD04206D468DF8240001248DF8F6
:103A30002840214E30780028FDD13470FEF702FB7B
:103A400035200A94FEF77EFA0024DFF870800BE040
:103A50000022012311461046FFF71AFB4046FEF7ED
:103A600077FA8DF82400641C0A98844203D29DF8EA
:103A700024000428ECD04446DFF8408008F12808F0
:103A80000EE00022012311461046FFF701FB02CD94
:103A90002046FEF7A7FA8DF82400241D444503D8DC
:103AA0009DF824000428ECD0FEF788FA37700CB09B
:103AB0000020BDE8F0810000DD00002000A001082A
:103AC000042801D3021F01E0C0F10402D3B204298B
:103AD00001D30A1F01E0C1F10402D2B2934202D322
:103AE00040F0080101E041F008014FF02500FDF72A
:103AF000A3BE000070B5054616A009F017FFFEF73B
:103B0000ADFB4020FEF7F0FBFEF7A0FCFEF7C2FB8A
:103B1000FEF7A4FBC020FEF7E7FBFEF797FC0024AE
:103B20002846FEF7E1FBFEF791FC641CE4B2062C8C
:103B3000F6D3FEF7AFFBFEF791FB8F20FEF7D4FB29
:103B4000FEF784FCFEF7A6FBBDE8704005A009F077
:103B5000EDBE00006C6564C6C1C4BBB5E3C1C10D58
:103B60000A0000006C6564C6C1C4BBBDE1CAF80DA3
:103B70000A00000070B50D460446FEF76FFB4020BA
:103B8000FEF7B2FBFEF762FCFEF784FBFEF766FB76
:103B9000C034E0B2FEF7A8FBFEF758FC2846FEF75B
:103BA000A3FBFEF753FCFEF775FBFEF757FB8F20D8
:103BB000FEF79AFBFEF74AFCBDE87040FEF76ABBD1
:103BC00010B5FCF76DFB06480178491C0170FCF745
:103BD00070FBFFF791FABDE81040FFF709B800004D
:103BE000700000204FF0E0210428086903D020F085
:103BF00004000861704740F00400FAE74FF0E0214C
:103C000030B10128086906D020F001000861704732
:103C100000208861704740F00100F7E74FF0E02195
:103C20000028086902D040F0020001E020F0020004
:103C3000086170474FF0E021486170477047F0B568
:103C4000058B048C068C43F232373E40068442EAF0
:103C50000312BB1E4FF60C761C4035400C432A4322
:103C6000002344F00101038302830184F0BD0000BE
:103C700070B5084C2388084D00262E604FF60C7650
:103C8000334041EA021119432180291D08600120B7
:103C9000286070BD182C014000842542F0B5068BC9
:103CA000058C4FF6FF7404EA0117018C43F2233CA4
:103CB00001EA0C01018440F6FF410E4004EA0221B2
:103CC00004EA03333343194343F2033215403D43BF
:103CD00045F0100201830284F0BD000070B5094C6C
:103CE0002388094D00262E6040F6FF460902334026
:103CF00041EA023119432180291D08600120286012
:103D000070BD0000182C0140108425420149C86193
:103D10007047000000802542802000F057B8000066
:103D200070B5FCF7BDFA26490878401C0870FCF70E
:103D3000C0FA042000F078F8224C4FF6FF75A8B1C5
:103D4000042000F04BF800F063F8A060A06821693F
:103D50008842A0682169A0EB010000D82844A06136
:103D6000A0682061A169042004F092FC082000F002
:103D70005BF800B3082000F031F800F04FF8E06085
:103D8000E06861698842E0686169A0EB010000D8E1
:103D90002844A061E0686061A1690B4AE06942F8CB
:103DA0002010401CE061802801D30020E061A1695F
:103DB000052004F06DFCBDE87040FEF719BF00005F
:103DC00070000020040000207C05002002490A88C1
:103DD00082430A8070470000102C014002490A8883
:103DE00082430A8070470000102C0140014908609E
:103DF000704700000080254210B50121CC0220460A
:103E0000FFF7FCFB2046BDE810400021FFF7F6BBA2
:103E10000148008870470000382C014001480088A4
:103E2000704700003C2C01400749024600200B88E7
:103E3000A1F104011342098801EA020102D000291C
:103E400000D0012070470000102C01402DE9F04106
:103E5000044603884088A188227AEBB1012B22D046
:103E6000204D00270126022B2B8823D0DFF878C0B5
:103E7000CCF8007040F6FF4709023B4041EA0231AE
:103E8000194329800CF104010860CCF80060E08837
:103E9000BDE8F04100F058B8FFF7EAFEE088BDE861
:103EA000F04100F02FB8FFF719FFE088BDE8F041BE
:103EB00000F032B8DFF830C0ACF1100CCCF8007074
:103EC0004FF60C773B4041EA0211194329800CF16F
:103ED00004010860CCF80060E088BDE8F04100F023
:103EE00029B800001C2C014030842542044A0129D5
:103EF000118802D08143118070470143FBE7000025
:103F00000C2C0140034A11884FF6F373194001430A
:103F100011807047182C0140054A11884FF2FF3379
:103F200019404FF6FF7303EA0020084310807047E2
:103F3000182C0140034A11884FF6F37319400143CE
:103F4000118070471C2C0140054A11884FF2FF3345
:103F500019404FF6FF7303EA0020084310807047B2
:103F60001C2C014010B5FCF79BF906480178491C50
:103F70000170FCF79EF92020FFF728FFBDE81040F4
:103F8000FEF736BE700000200B4A81881180121F98
:103F90000188118008492C390A8802F09F020A80A2
:103FA000C28843881A430B881A430A800249007A60
:103FB000091D0880704700002C2C014010B5FCF74B
:103FC0006FF908490878401C0870FCF772F9012065
:103FD000FFF72AFF10B10120FFF7F8FEBDE81040FF
:103FE000FEF706BE7000002070B5FCF759F9454990
:103FF0000878401C0870FCF75CF901218E073046F8
:1040000000F0EFF818B10121304600F0ABF80221C2
:10401000304600F0E6F83C4C4FF6FF75B8B102218F
:10402000304600F09FF8304600F0D2F82062206A57
:10403000216B8842206A216BA0EB010000D8284444
:104040002064206A2063216C002004F021FB0421FD
:10405000304600F0C6F8B8B10421304600F082F8CE
:10406000304600F0B7F86062606A616B8842606A4F
:10407000616BA0EB010000D828442064606A606393
:10408000216C012004F004FB0821304600F0A9F85F
:10409000B8B10821304600F065F8304600F09CF8D1
:1040A000A062A06AA16B8842A06AA16BA0EB01008C
:1040B00000D828442064A06AA063216C022004F088
:1040C000E7FA1021304600F08CF8B8B110213046E4
:1040D00000F048F8304600F081F8E062E06AE16BF9
:1040E0008842E06AE16BA0EB010000D8284420641C
:1040F000E06AE063216C032004F0CAFABDE8704076
:10410000FEF776BD7000002004000020704700001C
:1041100010B5FCF7C5F80A490878401C0870FCF790
:10412000C8F8084C1021204600F05BF818B11021A7
:10413000204600F017F8BDE81040FEF759BD00001A
:104140007000002000080040028811B142F0800297
:1041500002E040F27F310A4002807047028A8A43BF
:1041600002827047028A8A430282704700290188CE
:1041700002D041F0010102E040F2FE321140018024
:104180007047000010B5B0F1804F0FD00F494018B4
:1041900013D0B0F5806F17D101210420FFF716FA74
:1041A00000210420BDE81040FFF710BA01210846A5
:1041B000FFF70CFA00210120F4E701210220FFF7AC
:1041C00005FA00210220EDE710BD000000FCFFBF52
:1041D000808E7047008F7047808F7047B0F8400026
:1041E000704702460020138A92890B4202EA0102BC
:1041F00002D0002A00D0012070472DE9F041054689
:1042000008880C46072804D02846BDE8F041FFF78F
:104210006BB9608838B3012831D04FF6FF7302289C
:1042200039D02779A679A27AA98B288C03EA07339B
:104230002F8C42F2333C07EA0C072F8440F6FF47ED
:104240003602394046EA02320A4340F2333108402E
:10425000184340F48050AA83288421892846BDE869
:10426000F04100F015B9A37AE288A1882846FFF74B
:10427000E6FC21892846BDE8F04100F0F0B8A37AB9
:10428000E288A1882846FFF709FD21892846BDE874
:10429000F04100F0EBB82679E788A27AA98B288C48
:1042A00003EA06232E8C43F2332C06EA0C062E84F6
:1042B0004FF60C76314047EA02120A4343F23301CB
:1042C0000840184340F48070AA8328842189284636
:1042D000BDE8F04100F0D5B8002A828901D00A4338
:1042E00000E08A4382817047028B4FF6F7731A40D1
:1042F0000A4302837047828B4FF6F7731A400A43D2
:1043000082837047828B4FF2FF731A404FF6FF7320
:1043100003EA0121114381837047000070B5038CCB
:10432000344C4A8804F1080632B1012A04D0022A2A
:104330002FD0032A2DD049E0058B34F812402C40B1
:1043400036F812501D40002A028C11D043F223335C
:104350001A4002840A888B8844EA022203870B8968
:1043600003B11023C9882B4343EA011302832DE0D4
:1043700043F232331A4002840A888B8822438386B0
:104380000B890BB1012400E00024CB882C4323438C
:10439000ECE7858B34F812402C4036F812501D4063
:1043A000022A028C14D042F233331A4002840A8863
:1043B0008B8844EA0222A0F840300B890BB14FF4FD
:1043C0008053C9882B4343EA01338283038470BD41
:1043D00043F233231A4002840A888B88224383875E
:1043E0000B890BB14FF48073C9882B4343EA012337
:1043F000EBE70000624B01083EB50129069C06D0A0
:104400000021ADF80810FF2B05D9FE2306E095002A
:104410000121A940F5E7052B00D20523ADF80430B2
:104420000221ADF80220ADF80610ADF80040694653
:10443000FFF774FF3EBD0185818A012A03D001F098
:1044400001018182704741F00101FAE781867047DE
:104450000187704781877047A0F840107047028B32
:104460004FF6F3731A400A4302837047028B4FF2F0
:10447000FF331A404FF6FF7303EA01211143018312
:104480007047828B4FF6F3731A400A43828370475A
:10449000828B4FF2FF331A404FF6FF7303EA01217C
:1044A0001143818370470A8882854A880285028881
:1044B00002F08F0202808A88C9880A4301880A4371
:1044C0000280704710B5FFF7A5F8FEF775FAFEF702
:1044D00005FA0848FDF7F2FD0748FDF7EFFD07482C
:1044E000FDF7ECFD0648FDF7E9FDBDE81040054885
:1044F000FDF7E4BD00080140000C01400010014040
:10450000001401400018014010B50420FFF76AFBB9
:104510000548FFF78FFB0120FFF780FBBDE8104047
:104520000120FFF76BBB0000683C010030B50121A2
:1045300087B08803FFF756F84FF40074ADF81840C1
:1045400003208DF81A0018201C4D8DF81B0006A9B9
:104550002846FDF703FE6100ADF8181004218DF820
:104560001B1006A92846FDF7F9FD4FF4E130009035
:1045700000200C21ADF81000ADF80C10ADF8124081
:10458000ADF80400ADF808000D4CADF80600ADF82C
:104590000A00ADF80E00ADF814006946204600F0A0
:1045A000ADF8012240F22551204600F08FF801219C
:1045B000204600F05BF807B030BD00000008014065
:1045C000003801402DE9F041FBF76AFE16490878F2
:1045D000401C0870FBF76DFE144F40F22556314623
:1045E000384600F054F8D0B1384600F0D5F8104DF8
:1045F00001466C1E20782954401C207031463846F4
:1046000000F02DF800223146384600F05FF8002017
:104610000849207001200870074928780870BDE813
:10462000F041FEF7E5BA00007000002000380140BC
:1046300005000020A0000020A100002010B5FBF71D
:104640002FFE05480178491C0170FBF732FEBDE8DA
:104650001040FEF7CDBA0000700000207047090A34
:1046600001228A4001889143018070470029818995
:1046700002D041F4005101E021F4005181817047E2
:104680000246002012880A4200D00120704770B50F
:1046900001F01F0501260024C1F3421306FA05F2BA
:1046A000012B0FD0022B0FD0838A4FEA11210088F3
:1046B000134206FA01F600EA060001D000B1012417
:1046C000204670BD8389F0E7038AEEE710B5C1F399
:1046D000421301F01F040121A140012B07D0022B3E
:1046E00007D01430002A026805D00A4304E00C30D9
:1046F000F8E71030F6E78A43026010BD30B50C468B
:10470000018A85B005464CF2FF000140E088E2894D
:10471000638A1043228A1A431043A28A1043084333
:104720002882A9894EF6F3100140A08822891043FF
:10473000A2890A431043A881A88A4FF6FF41084086
:1047400061890143A9826846FFF704F81148854250
:1047500001D1039800E00298642200EBC00101EB54
:10476000001021686FF018048900B0FBF1F0B0FB75
:10477000F2F109010B09634300EB8300322303EBE1
:104780000010B0FBF2F000F00F000843288105B0E4
:1047900030BD0000003801408088C0F30800704739
:1047A00010B509788180044C80212046FFF768FF0E
:1047B0000028F9D010BD0000003801407047704754
:1047C00070477047704770B50C4605462846FCF7A1
:1047D000CDFF2042FAD170BD490050EAC12018BF78
:1047E00004204A0D18BF40F0010040F2FF72B2EB06
:1047F000515F08BF40F00200012808BF0520704744
:104800002DE9F0414F1E00EBC7010446D1E900013C
:1048100015461E4637F006020DD02A4633460FF0E5
:10482000A1FA7F1E04EBC703D3E900230FF092F82F
:1048300037F00602F1D1022F25D0042F13D0062F16
:1048400018BFBDE8F0812A4633460FF08BFAD4E951
:104850000A230FF07FF82A4633460FF083FAD4E993
:1048600008230FF077F82A4633460FF07BFAD4E995
:1048700006230FF06FF82A4633460FF073FAD4E997
:1048800004230FF067F82A4633460FF06BFAD4E999
:1048900002230FF05FF82A4633460FF063FAD4E99B
:1048A0000023BDE8F0410FF055B85060C0E9002189
:1048B00008607047012210F0DEB80FF04BB80022FC
:1048C0001346104611460FF0F5B80000024A0020CA
:1048D000110710F0D0B8000001FDFFFFF8B54FF44C
:1048E0000060ADF800000324154F8DF8024010253C
:1048F0008DF8035069463846FDF730FCAE01ADF83F
:1049000000608DF803508DF8024069463846FDF787
:1049100025FCA802ADF800008DF803508DF8024088
:1049200069460848FDF71AFCADF8006004208DF8D0
:1049300003008DF8024069460348FDF70FFCF8BDFF
:1049400000100140000801400018014010B50AF0B5
:10495000DFFFFCF72BFF0022142311461046FEF761
:1049600097FBFCF72BFFFCF7D9FEFCF79BFE02231D
:104970000022BDE8104011461046FEF789BB00003A
:104980002DE9FE4F80460F460025684602F0C8FE1E
:1049900000246FF00F0AE946012658F8240057F862
:1049A0002410401A00D540420FF054FE514610F03A
:1049B00090F859F8241011F0FF4F0BD00FF04CFD78
:1049C0004FF07E510FF0AEFF094920F000408842C1
:1049D00005DC07E0074908440749884202D306FA84
:1049E00004F00543641C032CD7DB2846BDE8FE8F8A
:1049F000295C0F3E666666C19A99D9002DE9F04D93
:104A00008D4F21F0004A86B005460C46BA452ADB98
:104A1000AAEB070028430AD08848824501DC1AD156
:104A2000CDB106B02846BDE8F04DFFF743BF844A3C
:104A3000844B28460FF096F907460E46824A834B70
:104A4000284621460FF08EF906B03A463346BDE8B7
:104A5000F04D0EF07FBF0120FBF745FE06B0BDE82C
:104A6000F04DFFF72CBF7A48824542DABAF1795F00
:104A70000BDA2846FFF7B0FE042808BFFFF726FF31
:104A8000284606B02146BDE8F08D2A460B46104662
:104A90000FF068F9834602466E480E460B46062123
:104AA0007844FFF7ADFE5A4633460FF05BF9804677
:104AB00069488A465A46334604217844FFF7A0FEE7
:104AC0005A4633460FF04EF900223B460EF042FFA5
:104AD00002460B46404651460EF0ECFF2A4623465E
:104AE0000FF040F906B02A462346BDE8F04D0EF01F
:104AF00031BF284624F0004100223D463B460FF0DE
:104B00002FFA4FF0FF320FF0B6FF06460246534829
:104B10000F460B4606217844FFF772FE32463B46AD
:104B20000FF020F9CDE900014D4832463B46042103
:104B30007844FFF765FE32463B460FF013F900223A
:104B40002B460EF007FF83460291304639460BF0A4
:104B50006AFA804643480D46504517DCDDE90001FE
:104B60005A46029B0EF0A6FF42462B460FF0FAF87B
:104B700042462B460EF0EEFE01220FF07CFF304A3B
:104B8000304B0FF0DFFA304A304B4CE04FF0000A68
:104B900052460B4640460EF0DDFECDE9031052466C
:104BA0002B46104619460FF0DDF832463B460FF013
:104BB000D7F9DDE903320EF07DFF06460F46DDE949
:104BC00000015A46029B0EF075FF834600910122B8
:104BD000304639460FF04FFF194A1A4B0FF0C0F913
:104BE00006460F460122404629460FF044FF5A462A
:104BF000009B0FF0B7F832463B460FF0A3FA06468B
:104C00000F460122504629460FF035FF0E4DDFF8C2
:104C100058802A4643460FF0A3F932463B460FF030
:104C20009FF92A4643460FF09BF9002CD8BF81F02C
:104C3000004106B0BDE8F08D0000F03F0000F07FBD
:104C4000075C143326A6913C182D4454FB21F93FF0
:104C50000000E03F840E01009A0E01000E0E0100DC
:104C6000240E01003333EF3FFB21E93F2DE9F84FDC
:104C700004460D4621F0004000917349814211DC49
:104C80007249884201DC06D12CB120462946BDE894
:104C9000F84FFFF70FBE6E48002DCCBF6D496E492F
:104CA000BDE8F88F6D49814211DD6D498142D8BF61
:104CB0004FF0FF366DDD20462946FFF78DFD0428B5
:104CC00008BFFFF703FE20462946BDE8F88F654977
:104CD000654F25F00045814233DD6449814219DD8D
:104CE000002632464FF08043204629460EF032FE21
:104CF00080468A460122204629460FF0BCFE00224B
:104D00003B460FF01FFA424653460EF0D3FE0446D0
:104D10000D463EE001260022BA463B462046294683
:104D20000EF018FE80460F460022534620462946C4
:104D30000FF008FA42463B460EF0BCFE04460D4614
:104D400027E04B4981421BDDDFF828A10226002223
:104D50005346204629460FF005F800223B460EF048
:104D6000F9FD80460F4600225346204629460FF0A3
:104D7000E9F942463B460EF09DFE04460D4608E02A
:104D8000032622462B4600203B490EF093FE0446A4
:104D90000D4622462B46104619460EF0E3FF8B4681
:104DA000824602460B460EF0DDFF074602463348B8
:104DB00088460B4606217844FFF722FD52465B46A3
:104DC0000EF0D0FF82462E488B463A4643460521D8
:104DD0007844FFF715FD3A4643460EF0C3FF0246FE
:104DE0000B46002E504659460CDA0EF0B3FD224613
:104DF0002B460EF0B7FF01B022462B46BDE8F04F20
:104E00000FF0AEB80EF0A6FD22462B460EF0AAFF1C
:104E10001C4A7A4402EBC603D3E900230FF092F94F
:104E200022462B460FF08EF9174A7A4402EBC6034E
:104E3000D3E900230FF094F8009A002AB8BF81F05C
:104E40000041BDE8F88F0000000010440000F07F32
:104E5000182D4454FB21F93FFB21F9BF0000DC3F32
:104E60000000203E0000F33F0000F03F0000E63F5E
:104E7000008003400000F83F0000F0BF260C010056
:104E8000E40B0100820B01004A0B01002DE9F04DFB
:104E90009446CCF1000423F000464CEA0404524F3F
:104EA00046EAD4749A46884621F00042BC4206D8AD
:104EB000454240EA050442EAD474BC4204D9BDE844
:104EC000F04D6246FFF7F9BCAAF14055A5F17F65A8
:104ED00055EA0C040BD0022404EAAA74434DDFF80F
:104EE00010E144EAD87452EA000B04D00CE0BDE8AB
:104EF000F04DFFF7BBBE002C14BF012CBDE8F08DB8
:104F0000022C30D0032C32D056EA0C0B0AD0BE4211
:104F100020D1BA4209D126F0804622F080423346A1
:104F2000114617E000291ADB25E0DFF8C8B0FB4482
:104F3000002C04BFDBE90001BDE8F08D012C02BFAD
:104F4000DBE9000181F00041BDE8F08D022C0AD0C0
:104F5000032C0CD0BA4212D1B8F1000F0BDA23485F
:104F60002549BDE8F08D28462449BDE8F08D284646
:104F70007146BDE8F08D1D482149BDE8F08D921BBA
:104F800012153C2AC4BF19481D490EDCBAF1000FA6
:104F9000BEBF12F13C0F0020014606DB62460EF058
:104FA00089FD21F00041FFF761FE002C08BFBDE83C
:104FB000F08D012C04BF81F00041BDE8F08D114A55
:104FC000114B022C07D00FF0BDF82A46BDE8F04D7A
:104FD0000A4B0FF0B7B80FF0B5F82A46BDE8F04D10
:104FE000064B0EF0BDBF00000000F07F182D4454AA
:104FF000FB2109C0DE0A0100FB21F9BFFB210940AA
:10500000FB21F93F075C143326A6A13C2DE9F84F9C
:10501000884604005BD004F0B5FE002003F012FBCC
:1050200049484FF0000B5E46A0F800B04748A0F892
:1050300000B0474848494FF00209C0F800B0454861
:10504000DFF820A10127C0F800B040F22520086059
:105050004249434881F80C90C0F800B0CAF800708B
:1050600000F0A8FF6720207084F8018084F8029087
:10507000E775A775267604F10C01E661201D009105
:105080000BF03CF8384807603848067005F00EF819
:1050900006F03AFF06F014FF3548DFF8D8800670B6
:1050A00098F809000AF07EFD98F808000AF018FD4B
:1050B00031486FF070480670607888267A2809D0E9
:1050C0004FF00A09792811D07B280FD01DE000206D
:1050D000BDE8F88F29A008F029FC201D04F00AFA89
:1050E00098B9656808206E72A87207E0201D04F068
:1050F00001FA50B965686E7285F80A902F72C5F88A
:105100000C806068009904F006FA15480560A97AD9
:10511000CAF800101E4801681448416002F022FFDE
:1051200002F03EFF0AF02EFC60787A2809D0194878
:105130000770194981F800B0184981F800B00BF0E8
:105140001DFC0120C4E70000F0000020EE0000205C
:10515000F8020020F002002010030020943200200A
:10516000D4000020D80000202C0300206C03002075
:10517000C80000204832002081030020636F726E57
:105180006F72207461736B20696E6974200D0A0060
:1051900098000020B8030020B9030020BB030020C2
:1051A00070B50026354640F6FF74334600EB4100EB
:1051B00000EB431131F8022C954200D2154694427F
:1051C00000D914465B1C9BB216440C2BF0D3701B09
:1051D000001B0A21B0FBF1F080B270BD10B50A4887
:1051E00004F062F9084808F09BFF002108460AF025
:1051F000DAFE002101200AF0D6FE044900200860F2
:105200000349086010BD0000943200200003002014
:10521000FC02002010B588B007A906A8CDE900015E
:10522000002405AB04AA02A903A808F0CDFA9DF852
:105230000C0018B19DF8080000B9022408B02046FF
:1052400010BD00002DE9F047040035D02A4D687AE2
:105250000AF0A8FC287A0AF043FC284800250570CB
:1052600002F0C8FE26480226DFF89C80057025481B
:10527000DFF8989001210673C8F80050C9F80010B3
:105280002348058023480580234825490560234895
:10529000056040F2252008600AF084FE04F10C014C
:1052A0008A46201D0AF02AFF6A202070A670201D61
:1052B00004F020F918B113E00020BDE8F08765681C
:1052C000882010276872AF722E724FF0BE60E860BF
:1052D0005146606804F01FF9C8F80050C9F8007022
:1052E00004F0E8FA002101200AF05DFE00210846E2
:1052F0000AF059FE0120E0E748320020C8000020F3
:105300008103002094320020D4000020D800002027
:10531000F0000020EE000020F8020020F002002043
:1053200010030020084A10461179407909B9002875
:1053300006D0137A8B4204D1517A814201D10120E7
:1053400070470020704700004832002070B50AF016
:1053500029FE134D11482860012108460AF023FE5A
:105360000022142311461046FDF792FE0D4C2168D1
:105370000DA008F0DBFA2068052805D900230122DA
:1053800019461846FDF784FE002101200AF00BFEA5
:1053900000202860BDE870400AF004BEA068060046
:1053A00004030020000300206C6566743A09092597
:1053B000640D0A0010B5114988B004001BD01C22EE
:1053C0006846FDF77DFF0E480099814204D105989B
:1053D0004FEA3141884209D00A490120087020462D
:1053E0000AF072FE204600F00FF804E01C22694625
:1053F0002046FDF765FF08B0002010BD00900108B1
:105400005555AAAADC0000202DE9FC414FF0000808
:10541000CDF80480002844D0054604208DF8000013
:1054200001248DF80440204E70780028FDD174705E
:10543000FCF708FE35200194FCF784FD00241B4F87
:105440000CE00022012311461046FDF721FE07EB78
:10545000C420FCF77DFD8DF80000641C0198844297
:1054600003D29DF800000428EBD03C460F4F2037B4
:105470000EE00022012311461046FDF709FE02CD81
:105480002046FCF7AFFD8DF80000241DBC4203D878
:105490009DF800000428ECD0FCF790FD86F8018010
:1054A0000020BDE8FC810000DC0000200090010825
:1054B00010B54C210448FDF7FAFE0349012008709D
:1054C0000249087010BD0000803700200804002049
:1054D0002DE9FE4F6A4D2878012803D069480068FD
:1054E0000A2802D00020BDE8FE8F012302AA01A9EC
:1054F000684607F0A1F9644900980FF013FA00908C
:1055000010F1FF4F03D361490EF032FF0090604E5F
:1055100000274FF014083078012807D0B16A0098AE
:105520000FF0C4F90FD2B16A00980EE03770012075
:1055300070700098B0623063AF70A6F81480B783C3
:10554000F782378270E0B06A00990FF0EBF90446F9
:1055500050485149204488420DD3B16A00980EF05A
:1055600007FF4FF0FF310FF0B4FAB0623063AF7055
:10557000B08A90B359E04948494A2044DFF824A151
:10558000DFF824B1904208D304EB0A035B4504D34F
:105590004649474B2144994247D24FF02309904254
:1055A00003D304EB0A035B4539D2904204D2B16ABB
:1055B00000980FF07BF908D304EB0A01594510D28B
:1055C000B16A00980FF072F80BD20098B0623063A5
:1055D000708A10B1A6F8149027E0FFE7A6F81480AF
:1055E00023E0A6F814900098324904460FF09AF987
:1055F00010F1FF4F02D325490EF0BAFEB4623463B6
:10560000F7827782E978491CC9B2E97003290CD383
:10561000B0623063012028706F70EF7005E0A6F86B
:1056200014900098B062306377820220B070DFF887
:105630008890B76A494638460EF09AFE134C70635C
:10564000A04203DD21460FF06DF9706349463846EC
:105650000FF068F9B06310F1FF4F03D321460EF04D
:1056600087FEB063287810B14FF4AF7000E0962049
:10567000B0801249A6F81A8003200870012032E792
:10568000B8030020D8000020000040400000B443D0
:1056900080370020000038BE0180DF01FFFF8FBD92
:1056A000FFFF7F00FFFF8FBCFFFF2500FFFFE9BC6E
:1056B000FFFF3B000000F0410000B442080400205E
:1056C0002DE9F0411F4D204E8846A84203DD2946B2
:1056D0000FF028F904E0B04202D329460EF048FE4C
:1056E0001A4C002107466182A0622063A4F814804E
:1056F0000221DFF85C80A17041460EF039FE606344
:10570000A84203DD29460FF00DF960634146384693
:105710000FF008F9A063B04203D329460EF028FE2B
:10572000A0630C48007810B14FF4AF7000E09620F1
:10573000A080142008496083032008700120BDE880
:10574000F08100000000B44300008080803700201A
:105750000000B442B80300200804002010B504463D
:1057600001F020FB0022142311461046FDF790FCA7
:10577000204604F0BDFA0022142311461046FDF71E
:1057800087FC20460AF048FB14230022BDE81040A5
:1057900011461046FDF77CBC10B5044611A008F078
:1057A000C5F800F007FC502120460AF013FB002248
:1057B000322311461046FDF76BFC204604F084FAB4
:1057C00000224FF4E17311461046FDF761FC2046BC
:1057D00001F0BEFAC8230022BDE810401146104671
:1057E000FDF756BC636C65616E5F6D6F746F722000
:1057F0006F70656E0D0A000010B50A48FDF724FAB7
:10580000094C206138B107480C30FDF71DFA606182
:1058100018B1002010BD05A000E00BA008F086F82C
:10582000012010BD5C320020AC0000206372656175
:1058300065206B657920206D626F78206661696CE8
:105840006564200D0A000000637265616520616374
:1058500074696F6E206D626F78206661696C656433
:10586000200D0A0010B5044601206071887820716F
:10587000C87BA072087CE072887C60740322E01D03
:10588000091DFDF71DFD054820604FEA30406061AD
:105890002046BDE81040FFF7B7BD00005555AAAA45
:1058A000104810B58079032803D00FA008F03EF807
:1058B00007E0124800680A2803D1114CA07802289A
:1058C00001D0002010BD0DF0EBF8401CC1B2012248
:1058D00002200CF06FFF0028F4D00020E0820120AD
:1058E00010BD0000020400206E6F7420696E2061FC
:1058F0006C6F6E67206D6F6465200A00D800002011
:10590000803700202DE9F047054643480168082903
:1059100013D001680F2910D000680A2803D13F482E
:105920008078022809D0002000280CD0DFF8F08011
:1059300098F80000032805D101E00120F4E7394878
:10594000007810B10020BDE8F087374C374EDFF803
:10595000E0902079012770B1284621690EF0A6FE5B
:10596000216928461BD20EF0A1FE2169284606D2E5
:105970000EF0CDFF05E0277125616561E3E70EF0CC
:10598000D1FF2169B04206DD48460EF0CBFF294623
:105990000EF0EEFC23E028460EF0B9FF17E00EF003
:1059A00085FF20D2284621690EF080FE2169284615
:1059B00002D20EF0ACFF01E00EF0B4FFB0420ADDFF
:1059C000494620690EF0D4FC29460EF0ABFFA169D0
:1059D0000EF09DFF06E0284621690EF0A3FFA169A5
:1059E0000EF0C6FCA0612561A069484504DD314682
:1059F0000EF098FFA061A6E70E498842A3D90020C7
:105A0000207120616061A06188F8007001210A2086
:105A10000CF0B6FD012096E7D8000020803700206A
:105A200008040020AD030020B80300200000344328
:105A30000000B4430000B4C37047704770470000D3
:105A400010B50020FDF790F90149086010BD000075
:105A50009C0000202DE9F04186B060276248CDE926
:105A600001070720002600900325CDE903650346C2
:105A70005E4A31465E48FDF7ADF90446DFF87481B1
:105A800005E000220A2311461046FDF701FB98F8B5
:105A900000000028F5D01CB1214657A007F046FFB2
:105AA00052494FF49C70091DCDE901100820009067
:105AB000CDE90365034601F2DC4200215448FDF7BD
:105AC00089F9010002D04CA007F030FF514801A92C
:105AD0004024049581E851000A204E4A0346009074
