:020000040800F2
:10000000803A0020010100080501000807010008EE
:10001000090100080B0100080D01000800000000A4
:1000200000000000000000000000000011010008B6
:100030000F0100080000000099020008093A0008BA
:10004000B1430008E3310008B13A00083F37000827
:10005000111F0008B1350008911C00080D1D000893
:100060004D1D00084F1D0008511D0008F91A000819
:10007000FB1A0008FD1A0008FF1A0008011B0008FF
:10008000031B0008051B000865170008AB430008A8
:10009000AD430008C3180008C5180008551D000826
:1000A000213B0008313C0008E13B0008273B0008E9
:1000B0005D3C0008113D0008153D0008AF21000817
:1000C000AD210008B3210008B1210008453800081F
:1000D00047380008914100080942000829420008F9
:1000E000B11C00083D370008A943000800000000CB
:1000F0000000000000000000000000000000000000
:1001000004480047FEE7FEE7FEE7FEE7FEE7FEE7FE
:10011000FEE700001901000800F002F800F069F89D
:100120000AA090E8000C82448344AAF10107DA4552
:1001300001D100F05EF8AFF2090EBAE80F0013F03B
:10014000010F18BFFB1A43F001031847C01101004B
:10015000E01101000A444FF0000C10F8013B13F0CD
:10016000070408BF10F8014B1D1108BF10F8015B10
:10017000641E05D010F8016B641E01F8016BF9D103
:1001800013F0080F1EBF10F8014BAD1C0C1B09D15A
:100190006D1E58BF01F801CBFAD505E014F8016BCC
:1001A00001F8016B6D1EF9D59142D6D3704700005E
:1001B0000023002400250026103A28BF78C1FBD870
:1001C000520728BF30C148BF0B607047662910F046
:1001D0002880002070471FB50FF067FF00F05AFC21
:1001E0000400002000210EF073FFE0601FBD10B579
:1001F00010BD00F061FD1146FFF7EDFF07F038FF7D
:1002000000F07FFD03B4FFF7F2FF03BC00F0C6FD72
:1002100002480349034A044B70470000803600201F
:10022000803A0020803800208038002072B606B462
:100230002E490A7802F101020A7006BC704706B422
:100240002A490A78A2F101020A704FF00001002A3F
:1002500081F3108806BC7047254C264D25604FF071
:10026000000484F30988244C4FF001052570234CC9
:100270004FF08055256062B6FEE730B41F4C4FF05A
:100280008055256030BC704730B41C4C4FF0805511
:10029000256030BC704700BFEFF3108372B6EFF3F8
:1002A000098030B1A0F1200080E8F00F144C2468E0
:1002B000206000B5134880475DF804EB124C134DE5
:1002C0002E7826700E4C124E36682660306890E804
:1002D000F00F00F1200080F309884EF0040E83F344
:1002E0001088704700BF72B67047000050000020B1
:1002F00020ED00E00000FFFF5800002004ED00E0CA
:10030000680000202D2D0008560000205700002016
:100310007000002010B54C1084EA530404D540420C
:10032000C1F1000138BF491E1B4204D55242C3F13E
:10033000000338BF5B1E00F0E0F814F0804F04D0DB
:100340004042C1F1000138BF491E14F0004F04D0F3
:100350005242C3F1000338BF5B1E10BD0FB41CB581
:10036000074B06AA7B4469460090059800F053FBB2
:100370000020694600F062FB1CBC5DF814FB000025
:10038000D50600002DE9F04104460E4600200AE0A3
:10039000E1682046884738B3252806D0D4E90121F2
:1003A0009047206A401C2062F2E7E168204600275F
:1003B0008847050018D0A5F14100192802D820353A
:1003C0004FF400673246294620462760FFF7FEFEBD
:1003D00040B1012804D0F61D26F007060836D7E7FD
:1003E000361DD5E72846D9E7206ABDE8F08140EA06
:1003F000010310B59B070AD1042A08D310C808C905
:10040000121F9C42F8D020BA19BA401A10BD1AB176
:10041000D30703D0521C07E0002010BD10F8013BA9
:1004200011F8014B1B1B07D110F8013B11F8014BD0
:100430001B1B01D1921EF1D1184610BD10B5203AF8
:10044000C0F00B80B1E81850203AA0E81850B1E88D
:100450001850A0E81850BFF4F5AF5FEA027C24BF43
:10046000B1E81850A0E8185044BF18C918C0BDE83A
:1004700010405FEA827C24BF51F8043B40F8043B03
:1004800008BF7047D20728BF31F8023B48BF11F8B8
:10049000012B28BF20F8023B48BF00F8012B704712
:1004A00002F0FF0343EA032242EA024200F002B8EC
:1004B0004FF000020429C0F0128010F0030C00F08D
:1004C000C482CCF1040CBCF1020F18BF00F8012B60
:1004D000A8BF20F8022BA1EB0C0100F0B6BA5FEA2E
:1004E000C17C24BF00F8012B00F8012B48BF00F8A5
:1004F000012B704770477047704753EA020C00F0B9
:1005000069802DE9F04B4FF00006002B1FBFB3FAB6
:1005100083F503FA05F424FA05F65E4012BF16438C
:10052000B2FA82F502FA05F4C5F120051EBF22FADF
:1005300005FC44EA0C04203556EA044C4FEA144406
:1005400018BF641C4FF000084FF00009904271EB97
:10055000030C39D3002919BFB1FA81F701FA07F664
:10056000B0FA80F700FA07F6C7F120071EBF20FA9D
:1005700007FC46EA0C062037B6FBF4FCA7EB0507A0
:10058000103F07F01F0BCBF120060CFA0BFB2CFAE7
:1005900006F644BFB3460026202FA4BF5E464FF0A8
:1005A000000B5BEA060C08BF4FF0010B19EB0B09BF
:1005B000ABFB027C48EB0608C01B06FB02CC0BFB26
:1005C00003CC71EB0C01C1E70B460246414648469D
:1005D000BDE8F08B13B54FF000004FF00001AFF312
:1005E0000080BDE81C40704710B500F059FA006863
:1005F00010BD10B5044600F053FA046010BD7047FA
:100600002DE9FF4F0C461E464FF0FF3789B0D2E967
:100610000001DDF8588006908946C1F30A5505B9F6
:100620003D46002108464FF00000B9F1000F00F4EC
:10063000400005DA00EB80004FF4400101EA500071
:100640004FEA905ABAF1010F00DDBA46069850EA17
:1006500049002CD044F61050A5F2FF354543CAF1AD
:10066000000008902F14B8F1000F39D07542089A95
:10067000291E00DC524600DA694203A800F09AFA0B
:100680000699484600F091FB8DE80700A0F5005060
:100690001F3800900398002D25DD42F21F015246BD
:1006A000084403A90390684600F0F0FD24E0B8F187
:1006B000010F4FF0000001D1F24307E0302101E0CB
:1006C0002154401CB042FBDB304600220021215463
:1006D0000999C1F80880C1E900200DB0BDE8F08F8C
:1006E000BD1B6D1CC3E7A0F5005052461F3803A97F
:1006F0000390684600F0DEFD8DE807000004000C62
:1007000003D04FF0FF30410800E01046B8F1000F71
:1007100003D00022009215461FE0751E06D400F09B
:10072000C5F902F1300262556D1EF8D5B3460122BB
:10073000084302D000227F1C04E02078302801D139
:1007400000227F1E002A07978DD01DE0112D07DAA9
:1007500000F0ACF9303262556D1C50EA0102F5D15F
:1007600008430FD10021681E05E0235C625C6354DE
:10077000491C2254401E8142F7DBAB46A81B401E99
:10078000079001E0009848B1002004F80B00099898
:10079000079AC0F80880C0E9002B9EE711264FF0A9
:1007A000000860E72DE9F04F88460446D21D22F08C
:1007B000070191B0D1E90001CDE90C0103F0F9FD89
:1007C00002460D98C10F4FF02D0006D121682B2055
:1007D0008B0702D4202000EAC100032A834601D0FF
:1007E000072A05DB03464146204600F0A5F90AE149
:1007F0002068800601D5E76900E006271120B8F1DE
:10080000650F06D0B8F1660F11D0B8F1670F67D148
:1008100028E00023112F009300DA781C03460CAA6D
:1008200001A909A8FFF7ECFE00267D1C3FE001238B
:100830004FF000490CAA01A909A800933B46FFF715
:10084000DFFEDDE90A50002620B9099907F1010011
:1008500001EB0005781B02D47D1CC0F1FF36A5EB2F
:10086000070A3DE0012F00DA01270023112F009332
:1008700000DC384603460CAA01A909A8FFF7C0FE10
:1008800020683D46002600070BD40A98A84200DAEB
:10089000054601A8012D04DD411911F8011C30297C
:1008A00009D00998B84202DA10F1040F05DA4FF0C6
:1008B000010A099813E06D1EECE7002802DC2D1AEE
:1008C000064405E0401CA84202DD099D05F1010532
:1008D0000998A0EB060000F1010A4FF000408146A4
:1008E0002068000703D4AA4501DB4FF0FF3A00203F
:1008F000B9F1004F0DF13F078DF83F0024D04FF0C4
:1009000002082B20B9F1000F00900BDA2D20C9F15D
:100910000009009006E0484600F0C2F930318146F7
:1009200007F8011DB8F10001A8F10108F3DCB9F1E5
:10093000000FF0D1009807F8010D21684520090546
:1009400000D4652007F8010D0EA8A0EB070000F108
:1009500007085FEA0B0000D0012000EB050101EB66
:10096000EA7101EB0800A169A1EB0000A0F1010010
:10097000A0612068C00602D42046AFF300805FEA81
:100980000B0006D0D4E901219047206A00F1010054
:1009900020622068C00621D52046AFF300801DE00C
:1009A000002E05DB0A98B04202DD01A8805D00E060
:1009B0003020D4E901219047206A761C401CBAF10E
:1009C000010A20620AD100F065F8C0680168405C45
:1009D000D4E901219047206A401C2062281EA5F11D
:1009E0000105DDDC07E0D4E9012117F8010B904790
:1009F000206A401C2062B8F10001A8F10108F2DC75
:100A00002046AFF30080022011B067E601694A1C5E
:100A100002610878704700B58FB0CDE9013100213F
:100A2000059105497944CDE9031011466846FFF761
:100A3000A9FC0FB000BD0000E5FFFFFF0A6802F847
:100A4000010B0A6070474FF0000200B51346944650
:100A50009646203922BFA0E80C50A0E80C50B1F116
:100A60002001BFF4F7AF090728BFA0E80C5048BF2A
:100A70000CC05DF804EB890028BF40F8042B08BFC8
:100A8000704748BF20F8022B11F0804F18BF00F8C4
:100A9000012B704701487047704700BF4036002067
:100AA00001487047704700BF2036002030B5B0F1D4
:100AB0000A024FEA900E71F100034EEA817EB0EB1C
:100AC0000E0061EB91014FEA101E4EEA017E10EB21
:100AD0000E0041EB11114FEA102E4EEA016E10EBA1
:100AE0000E0041EB11214FEA104E4EEA014E10EB81
:100AF0000E0041EB1141401841F100014FEAD000D6
:100B000040EA41704FEAD10110EB80054FEA8104C1
:100B100044EA907444EB01046D1944EB0404521B45
:100B2000A3414FF0000348BF0A3200D530BD401C3E
:100B300041F1000130BD00002DE9F04104461F469F
:100B400003260168072A01F4006003DB15A520B91C
:100B500015A502E015A500B915A521F0100020602B
:100B6000A069C01EA0610FB1401EA0612046AFF376
:100B700000804FB1D4E9012138469047206A401CDB
:100B80002062C01C206206E0206AFAE7D4E9012155
:100B900015F8010B9047761EF8D22046AFF300807F
:100BA000BDE8F0814E414E006E616E00494E460038
:100BB000696E66002DE9F047814616468AB03748CF
:100BC0007844D0E9002380680092CDE901303348B1
:100BD00078440C38D0E9022300690392CDE904304F
:100BE00041F69B334FF0370001EB0302194492FBAF
:100BF000F0F591FBF0F2A5F1800500FB12141B3C0F
:100C000002D56442012000E00020DFF890A0804679
:100C10000027FA44AAF1CE0A0DE0E00709D03246D7
:100C2000684607EB47010AEB810100F043FB8DE8C2
:100C3000070064107F1C002CEFD1184F7F44BC3F8D
:100C400017E0E80713D007EB04100DF1180A90E83D
:100C50000E00AAE80E00C068F04201D19819089071
:100C6000324606A903A800F025FB03AB07C36D10AD
:100C7000641C002DE5D132466946B8F1000F03A887
:100C800002D000F003FB01E000F014FBC9E9000111
:100C9000C9F808200AB0BDE8F0870000300701005D
:100CA0004FF00A01B0FBF1F202FB11011046704750
:100CB00000487047203600207546FFF7F9FFAE4622
:100CC00005006946534620F00700854618B020B558
:100CD000FFF79EFABDE820404FF000064FF00007F6
:100CE0004FF000084FF0000B21F00701AC46ACE8D4
:100CF000C009ACE8C009ACE8C009ACE8C0098D4641
:100D000070470446AFF300802046FFF77BFA0000EF
:100D10004FF0013C50F8042B51F8043B9A4221D18A
:100D2000A2EB0C03934313EACC1317D150F8042B16
:100D300051F8043B9A4215D1A2EB0C03934313EAFA
:100D4000CC130BD150F8042B51F8043B9A4209D133
:100D5000A2EB0C03934313EACC13DBD04FF000005B
:100D6000704700BFD01A01BAB1FA81F101F0180141
:100D700022FA01F0CB40C1F12001DBB2C0B2C01AAF
:100D80002CFA01F3D11A914311EAC311E6D170474D
:100D900001487047704700BF2436002001491820E1
:100DA000ABBEFEE72600020070475FEA400C08BFBA
:100DB00091F0000F4FEA8C234FEAC12243EA5151D0
:100DC0004FEA1C5018BF00F5F0404FEA300018BF42
:100DD00041F000415FEA6C5C00F02980BCF1FF3F0C
:100DE00008BF40F080407047130C06BF12044FF05C
:100DF000100C4FF0000C130E04BF12020CF1080C83
:100E0000130F04BF12010CF1040C930F04BF9200E6
:100E10000CF1020CD30F04BF52000CF1010C11466F
:100E20004FF00002A0F11F00A0EB0C00704711F082
:100E3000004F08BF704731F000413FF4D5AF0B0CB5
:100E400006BF09044FF0100C4FF0000C0B0E04BF4E
:100E500009020CF1080C0B0F04BF09010CF1040C82
:100E60008B0F04BF89000CF1020CCB0F04BF4900AB
:100E70000CF1010CCCF12003A0EB0C0022FA03F3DF
:100E800002FA0CF241EA030100F10100704720F080
:100E90007F4C80EA030023F07F47ACEB070303F5A8
:100EA0007C5300F0004003F1FF032DE980494FEA35
:100EB000154B09B44FEA144325EA0B4E24EA0348C4
:100EC0000FF2042606EB132749083E785FEA320248
:100ED00003FB0667C7F5000707FB06F64FEA543722
:100EE0004FEAD64606F1020607FB066CCCF1005C21
:100EF0004FEA1C472CEA074C07FB06F40CFB06F5EF
:100F000004EB15464FEA961634BF00204FF0004020
:100F10004FEAD13706FB07FC4FEA1C4C0CFB0BF7E2
:100F2000D21B03FB0CF761EB07010CFB0EF7B0EBD8
:100F3000074072EB17420CFB08F734BFA2EB0742E5
:100F4000B2EB074261EB17414FEA0C444FEA9107BD
:100F500006FB07FC4FEA1C4C0CFB0BF7B0EBC74041
:100F600072EB573203FB0CF734BFA2EBC742B2EB74
:100F7000C74261EB57310CFB0EF7B0EBC70072EBC9
:100F800057720CFB08F734BFA2EBC702B2EBC702E3
:100F900061EB5771039F4FEA816141EA921104EBC3
:100FA000CC044FEAD1374FEA826206FB07FC42EAE3
:100FB00090124FEA80604FEA1C4C0CFB0BF7D21BDF
:100FC00003FB0CF761EB07010CFB0EF7B0EB0740DE
:100FD00072EB17420CFB08F734BFA2EB0742B2EBEF
:100FE000074261EB17414FEA8C554FEA910704EB3A
:100FF0009C2406FB07FC4FEA1C4C0CFB0BF7B0EBE8
:10100000C74072EB573203FB0CF734BFA2EBC74269
:10101000B2EBC74261EB57310CFB0EF7B0EBC700E8
:1010200072EB57720CFB08F734BFA2EBC702B2EBAE
:10103000C70261EB577115EB4C254FEA816141EA1C
:1010400092114FEA82624FEAD13742EA901206FBD0
:1010500007FC44F100044FEA80604FEA1C4C0CFB93
:101060000BF7D21B03FB0CF761EB07010CFB0EF730
:10107000B0EB074072EB17420CFB08F734BFA2EB52
:101080000742B2EB074261EB174115EB1C154FEA23
:10109000813141EA92414FEA823242EA90424FEA7C
:1010A00080304FEA0C7644F1000448EA03434EEAEC
:1010B0000B484FF0000EB2EB080C71EB030724BF96
:1010C000624639464EEB0E0E4FF0000B00185241AF
:1010D00049414BEB0B0BB2EB080C71EB03077BF1B7
:1010E000000B24BF624639464EEB0E0E4FF0000B4C
:1010F0000018524149414BEB0B0BB2EB080C71EB62
:1011000003077BF1000B24BF624639464EEB0E0EFF
:1011100051EA020718BF46F0010616EB0E7655F1AC
:10112000000254F1000103D5BDE88901BDE8008843
:10113000BDE88901BDE80048B619524141EB010103
:10114000A3F10103704780807F7E7D7C7B7A797874
:10115000777676757473727171706F6E6E6D6C6C7C
:101160006B6A6A696868676666656464636362611E
:101170006160605F5F5E5E5D5D5C5C5B5B5A5A599F
:10118000595858575756565555555454535352520B
:101190005251515050504F4F4F4E4E4D4D4D4C4C63
:1011A0004C4B4B4B4A4A4A494949484848474747AC
:1011B00047464646454545444444444343434342E9
:1011C000424242414141002B26D4770021D01CB538
:1011D0004FEA370703B44FF010004FF010014FF003
:1011E00000000FBCBDE810400BF1010BBBF1010F7B
:1011F00008BF5FEA170722BF12F1010211F10101D6
:101200004FF0004143F1000300F0004043EA0000CA
:101210007047F9D35708DAE746EA064613F1400F5C
:101220004FEA16461FDD13F1200FDFBF16430A46B3
:10123000002120335B42C8D0C3F1200746EA0646AE
:1012400002FA07F74FEA164646EA0706C3F12007F7
:1012500022FA03F201FA07F721FA03F14FF0000333
:1012600042EA0702B1E746EA020646EA06464FEAC4
:10127000164646EA0106BCBF46EA0646360C4FF063
:1012800000034FF000024FF000019EE72DE9C04837
:10129000934630B491E8380007C831EA400C48BFA3
:1012A00034EA430C03D5FFF7F2FDFFF78CFFF0BCE7
:1012B000BDE800882DE9C048934630B491E8380075
:1012C00007C810F0804F08BF13F0804F03D100F023
:1012D00005F8FFF778FFF0BCBDE8008820F07F47F5
:1012E00080EA030023F07F4C07EB0C03A3F57C534B
:1012F00000F00040A3F1FE0392F0000F00F0B38075
:1013000095F0000F00F077802DE901494FEA114078
:101310004FEA144621EA004800FB06FC24EA06478F
:1013200008FB06F607FB08F800FB07F718EB064872
:101330004CEB164C4FEA124B18EB07484FEA154698
:101340004CEB174022EA0B4E0BFB06FC25EA064746
:101350000EFB06F607FB0EFE0BFB07F71EEB064E19
:101360004CEB164C4FF000061EEB074E4CEB174BA8
:1013700018EB0B0840F1000018EB0E0B58EB0008BF
:1013800040F100008F1A4FF000013CBFC943661BBB
:1013900014BFB5EB040C00213CBFC943F61B4FEA58
:1013A00017444EEA8E0E27EA04454FEA1C4704FB19
:1013B00007622CEA074C05FB07F70CFB05F604FB5C
:1013C0000CFC16EB074642EB174216EB0C4642EBC1
:1013D0001C421BEB060658EB0202414146EA9E0600
:1013E00001D5BDE80189B619524141EB0101A3F1D4
:1013F0000103BDE801894FEA14454FEA114724EA89
:10140000054621EA074C05FB07F406FB07F70CFB32
:1014100006F105FB0CFC11EB074144EB17444FEAC6
:10142000124711EB0C4144EB1C4422EA074C05FB2C
:1014300007F206FB07F70CFB06F605FB0CFC16EBA8
:10144000074642EB174216EB0C4642EB1C456A1866
:1014500054F1000148BF7047B619524141EB0101F8
:10146000A3F10103704795F0000F37D04FEA114206
:101470004FEA144721EA024624EA074C02FB07F12F
:1014800006FB07F70CFB06F402FB0CFC14EB07440D
:1014900041EB17414FEA154714EB0C4441EB1C415B
:1014A00025EA074C02FB07F506FB07F70CFB06F6DF
:1014B00002FB0CFC16EB074645EB174516EB0C46FA
:1014C00045EB1C42121951F1000148BF7047B61993
:1014D000524141EB0101A3F1010370474FEA14456A
:1014E0004FEA114724EA054621EA074C05FB07F1BC
:1014F00006FB07F70CFB06F24FF0000605FB0CFCA1
:1015000012EB074241EB174112EB0C4251EB1C412D
:1015100048BF7047921841EB0101A3F101037047E6
:1015200010B5A02000F0B4F80121022000F0C8F8A6
:10153000022000F063F810F0010FF9D1222000F032
:101540005DF81321242000F0BBF83B21262000F099
:10155000B7F800210F2000F0B3F80221084600F090
:10156000AFF8022000F04AF810F0020FF9D1252060
:1015700000F044F800F00704A0210F2000F0A0F8CC
:101580000221084600F09CF8022000F037F810F025
:10159000020FF9D1252000F031F800F007012046B4
:1015A000BDE8104002F0B6B970B5114D012435F810
:1015B0001400C1B2204600F083F8641CE4B2042C8D
:1015C000F5D9072435F81400C1B2204600F078F8A8
:1015D000641CE4B2222CF5D9242435F81400C1B2DD
:1015E000204600F06DF8641CE4B2312CF5D970BDD2
:1015F0008E040108802000F04BB8000070B50E4D3D
:1016000006464FF4804400222146284600F0C5FDDE
:1016100006F07F0141F0400108200DF015FD01208A
:1016200000F027FB09F09EFB0646012221462846D2
:1016300000F0B3FD304670BD0008014000210846AF
:1016400000F03EB870B5114D4FF4804400222146A1
:10165000284600F0A2FD062108200DF0F5FC5621D9
:1016600008200DF0F1FC592108200DF0EDFCA5211A
:1016700008200DF0E9FCA92108200DF0E5FC214629
:101680002846BDE87040012200F087BD00080140F7
:1016900070B50A4D06464FF4804400222146284684
:1016A00000F07BFD314604200DF0CEFC214628469B
:1016B000BDE87040012200F070BD0000000801404C
:1016C0002DE9F0410C4D07460E464FF480440022B0
:1016D0002146284600F061FD07F07F0108200DF04B
:1016E000B3FC314608200DF0AFFC21462846BDE88A
:1016F000F041012200F051BD0008014002688A4318
:1017000002607047026822EA1122026070470029D5
:10171000816802D041F0010101E021F00101816006
:1017200070470029816802D041F4807102E04FF6D1
:10173000FF621140816070470146002089684907B7
:1017400000D5012070470246002012680A4200D0EE
:1017500001207047014600208968090700D5012053
:101760007047000070B5124D01212846FFF7EBFFCE
:1017700001281BD101F026FB0E4CE06102F084F938
:10178000A061012060610020E08001212846FFF770
:10179000B5FF4FF4A07400222146284600F00CF853
:1017A00021462846BDE87040FFF7ACBF70BD000081
:1017B0000024014004000020002A4268C9B201D080
:1017C0000A4300E08A4342607047000010B5426857
:1017D0000E4B0C791A400B6842EA04221343436013
:1017E00082680B4B1A40D1E9024323434C7942EA09
:1017F000440213438360C26A097C22F47002491ECA
:10180000C9B242EA0151C16210BD0000FFFEF0FF03
:10181000FDF7F1FF70B5072609290AD9C568A1F1BE
:101820000A0404EB4404A640B543A3401D43C5602D
:1018300007E0056901EB4104A640B543A3401D4301
:1018400005611F23072A09D2446B521E02EB820254
:1018500093409C4391400C43446370BD0D2A09D2D0
:10186000046BD21F02EB820293409C4391400C43D5
:10187000046370BDC46A0D3A02EB820293409C433C
:1018800091400C43C46270BD816841F008018160E1
:1018900070470029816802D041F4A00101E021F4E1
:1018A000A00181607047816841F004018160704748
:1018B000010900F00F0001EB810100EB4100C0B213
:1018C00070477047704700002DE9F84FFF20ADF8D2
:1018D00000000025574F8DF8035003248DF8024077
:1018E0006946384600F0E6FB2F20ADF80000DFF82F
:1018F00048918DF803508DF802406946484600F043
:10190000D9FB0120ADF80000DFF830A18DF80350BD
:101910008DF802406946504600F0CCFBF814ADF853
:10192000000014268DF803608DF8024069463846A1
:1019300000F0C0FB4FF48040ADF80000404F8DF840
:1019400003608DF802406946384600F0B3FB042579
:10195000ADF8005010208DF803008DF80240694664
:10196000504600F0A7FBADF800508DF803608DF8ED
:1019700002406946384600F09DFB4FF48140ADF8C7
:101980000000DFF8C0808DF803508DF802406946F2
:10199000404600F08FFBA802ADF800008DF8035020
:1019A0008DF802406946504600F084FB2603ADF8EE
:1019B00000608DF803508DF802406946384600F00B
:1019C00079FB4020ADF8000048278DF803708DF8B2
:1019D00002406946484600F06DFB0220ADF8000069
:1019E0008DF803708DF802406946404600F062FBB6
:1019F0006003ADF800008DF803508DF80240694691
:101A0000484600F057FBADF800608DF803508DF8A4
:101A100002406946404600F04DFB2020ADF8000032
:101A20008DF803508DF802406946504600F042FBA5
:101A3000BDE8F88F0008014000100140000C014093
:101A40000014014000180140F8B51025ADF8005011
:101A500003248DF802408DF803506946184800F0C1
:101A600029FBE802ADF80000164E8DF802408DF813
:101A700003506946304600F01DFB4020ADF80000E1
:101A80008DF803508DF8024069460F4800F012FBB4
:101A90000120ADF800008DF8024014258DF80350A8
:101AA0006946304600F006FB0220ADF800008DF8D4
:101AB00002408DF803506946304600F0FBFAF8BD4D
:101AC000000C0140001401400018014010B504460C
:101AD000522001F09BFE302001F098FE022001F020
:101AE00095FE062001F092FE082001F08FFE2046B0
:101AF000BDE8104003F0BABD7047704770477047AB
:101B00007047704770470029016802D041F0010119
:101B100001E021F0010101607047000000B50246BC
:101B20000021FFF7F0FF0020106050609060D0604F
:101B3000184B1848D11A44389A421ED00ADC16496C
:101B4000511812D0142914D028290DD1416841F41C
:101B5000706108E0142914D0282916D03C2903D13B
:101B6000416841F07061416000BD416841F00F0182
:101B7000F9E7416841F0F001F5E7416841F470414F
:101B8000F1E7416841F47021EDE7416841F47001EB
:101B9000E9E7000044000240F8FFFDBF30B50368EC
:101BA00047F6F07293430C6A8A682243D1E90445F0
:101BB0002C4322438C692243CC6922434C6A224342
:101BC0008C6A22431A430260CA6842600A688260D3
:101BD0004968C16030BD000038B50446062000F0F9
:101BE000A3FB00F03F00FFF763FE401CE070042001
:101BF00000F09AFB00F03F00FFF75AFEA0700320B0
:101C000000F092FB00F07F00FFF752FE60700220B0
:101C100000F08AFB00F07F00FFF74AFE2070009082
:101C20006378A278E17802A008F00CFD38BD0000CE
:101C30007765656B3A256409686F75723A256409A2
:101C4000096D696E3A2564097365636F6E643A25A0
:101C5000640D0A000A22B0FBF2F102FB110000EB56
:101C60000110C0B270470020401C80B20A28FBD38C
:101C7000704700224FF4967306E00021491C89B298
:101C80009942FBD3521C92B28242F6D370470000B5
:101C900010B5FEF7CBFA05480178491C0170FEF734
:101CA000CEFABDE8104000F017BE0000540000203E
:101CB00010B5FEF7BBFA14490878401C0870FEF70F
:101CC000BEFA4FF48054204600F0A2F840B12046FE
:101CD00000F098F8012005F0CBFA204600F092F8C9
:101CE0004FF48044204600F093F840B1204600F0C5
:101CF00089F8022005F0BCFA204600F083F8BDE820
:101D0000104000F0E9BD00005400002010B5FEF7BF
:101D10008DFA0C490878401C0870FEF790FA0220F2
:101D200000F076F850B1022000F06CF8FEF77EFA71
:101D300005480168491C0160FEF781FABDE81040C2
:101D400000F0CABD54000020BC020020704770475C
:101D50007047000070B5FEF769FA24490878401C06
:101D60000870FEF76CFA4FF48075284600F050F8C2
:101D7000C0B1284600F046F8FEF758FA1C4C21780E
:101D8000491C2170FEF75BFA2078082807D1002152
:101D900003200CF0D3F9002103200CF082F928462F
:101DA00000F030F8202000F033F810B1202000F0CF
:101DB00029F8402000F02CF850B1402000F022F823
:101DC000FEF734FA0B480168491C0160FEF737FA48
:101DD000802000F01DF828B1802000F013F80020CA
:101DE00005F046FABDE8704000F076BD54000020D2
:101DF00033030020C0020020014908607047000042
:101E000014040140014908607047000014040140B7
:101E1000064B014600201A685B6902EA01020B4288
:101E200002D0002A00D001207047000000040140C9
:101E300030B5194C017985790B190268D3F8001473
:101E400035B31143C3F80014D4F808140268914361
:101E5000C4F80814D4F80C1402689143C4F80C14A4
:101E60004179102907D021440068D1F800240243A9
:101E7000C1F8002430BD04F581642168026841EA9C
:101E8000020121606168006841EA0001616030BDC3
:101E90009143C3F8001430BD000001400149C860FF
:101EA000704700000020024070B5054640F6FF76FE
:101EB000304600F07FF8042813D10A4C206940F026
:101EC000020020616561206940F0400020613046D9
:101ED00000F070F8012804D0216941F6FD7211402C
:101EE000216170BD0020024008490420CA68D20761
:101EF00001D001207047CA68520701D502207047FF
:101F0000C968C906FBD503207047000000200240C5
:101F1000704700000248016941F08001016170478B
:101F20000020024004490A6822F010020A600A6890
:101F300002430A6070470000002002402DE9F04192
:101F400006460D460F2000F035F8042816D10C4C3B
:101F5000206940F00100206135800F2000F02AF850
:101F600041F6FE77042804D1280C70800F2000F081
:101F700021F8012802D0216939402161BDE8F081B2
:101F80000020024004490A6802F038020A600A6828
:101F900002430A60704700000020024003480249E3
:101FA00041600349416070472301674500200240BA
:101FB000AB89EFCD2DE9F0410446FFF795FF114DB8
:101FC000114E124FDFF8488012E000F07FFA2868C7
:101FD000401C28603068401C30603868401C386005
:101FE000D8F80010491CC8F80010FFF77DFF641EE8
:101FF000012804D0002C00D10520BDE8F081002C80
:10200000E3D1F9E728030020A0000020940000207D
:10201000AC0000201B4A10B5811A1315904222D043
:102020000BDC1949401817D098422AD10121082009
:1020300001F04EF9002108200AE099421AD0B1F5CA
:10204000006F1ED10121402001F042F90021402003
:10205000BDE8104001F03CB90121042001F038F93D
:1020600000210420F4E70121102001F031F90021C2
:102070001020EDE70121202001F02AF90021202085
:10208000E6E710BD0010014000F8FEBF10B58A075A
:1020900021F003040649120F21440F238C6893405A
:1020A0009C438C608B68904003438B6010BD0000A4
:1020B00000000140F0B5CC78002204F00F03E406E4
:1020C00001D58C7823430C884FF00F0C14F0FF0FD0
:1020D0004FF0010E19D005680E880EFA02F4264062
:1020E000A6420ED196000CFA06F7BD4303FA06F697
:1020F0003543CE78282E00D14461CE78482E00D1C9
:102100000461521C082AE7D305600A88FF2A1DD9FA
:102110004568002202F108060EFA06F40E882640F1
:10212000A6420FD196000CFA06F725EA070703FA34
:1021300006F5CE783D43282E00D14461CE78482E56
:1021400000D10461521C082AE4D34560F0BD0000B0
:1021500070B50D4E7268C0F3034583B2840202D598
:1021600022F0E06207E0C40204D5032404FA05F477
:10217000A24300E09A4329B1800202D542EA034219
:1021800000E01A43726070BD00000140024600206A
:1021900092680A4200D0012070471AB102690A43CE
:1021A0000261704742690A43426170477047704755
:1021B000704770472DE9F0410546082400F0A2F968
:1021C000A04610270E4E11E000F06CF8280640469D
:1021D00002D5C6F8100801E0C6F814086806050E16
:1021E00000F060F8C6F8107800F05CF82000A4F168
:1021F0000104E4B2C6F81478E6D1BDE8F08100002D
:102200000010014070B500F07DF9084C08252560EC
:102210004FF01006266000F045F8656000F042F8C7
:10222000656000F03FF86660012070BD1018014045
:1022300070B500F067F9084C1026666000F032F8BF
:102240000825656000F02EF8266000F02BF8256068
:10225000BDE8704000F026B81018014070B50024A9
:1022600000F03CF90E4D0820C5F8100800F01AF8EF
:102270001026C5F8106800F015F809E0641CE0B2FB
:10228000411CCCB2FA2803D9FFF7D2FF002070BD61
:10229000D5F808080007F1D4C5F81468012070BD0E
:1022A000001001400A20401EFDD1704770B5084C57
:1022B0000025256001F098FA2561022003F046F917
:1022C00001202060022003F041F9256070BD00006C
:1022D000A001214270B5084C0025256001F084FA68
:1022E00001222261022003F031F92260022003F072
:1022F0002DF9256070BD0000A001214208B54FF402
:102300008850ADF8000003208DF8020014208DF8ED
:10231000030069460348FFF7CDFE0021084600F0A0
:10232000BDF808BD0008014010B5044600F068F88B
:10233000A22000F041F800F08FF8204600F03CF8B1
:1023400000F08AF800F05CF8A32000F035F800F007
:1023500083F8002000F006F8044600F065F82046F7
:1023600010BD00002DE9F0410546002401F02AFAD5
:102370000022104B16460127C3F8A061022003F08B
:10238000E5F8C3F8A0716006040ED3F8300108B177
:10239000641CE4B2012003F0D9F8521CD2B2082A1E
:1023A000EAD325B1FFF782FF2046BDE8F081FFF7B1
:1023B00091FFF9E70000214270B5044601F014FADC
:1023C0000E4B0025C3F8A0512A460126E009C3F8A8
:1023D000B0016006040E022003F0B8F8C3F8A06153
:1023E000022003F0B3F8C3F8A051022003F0AEF8C6
:1023F000521CD2B2082AE9D370BD0000000021426D
:1024000010B501F0F1F9074A0120106110604FF09A
:10241000040003F09BF800231361042003F096F8F6
:10242000136010BDA001214210B501F0DDF9094A89
:102430000020106010614FF0040003F087F80123C2
:102440001360042003F082F81361BDE810400420FB
:1024500003F07CB8A001214210B5002401F0B2F9CC
:102460000D4A0123C2F8B031184603F06FF8C2F8E4
:10247000A031012003F06AF807E0641CE4B2FA2CF2
:1024800003D9FFF7D1FF012010BDD2F83001002899
:10249000F3D1C2F8A00110BD0000214270B505467D
:1024A0000C46FFF7ADFFA220FFF786FFFFF7D4FF32
:1024B0002846FFF781FFFFF7CFFF2046FFF77CFF9D
:1024C000FFF7CAFFBDE87040FFF7AEBF02494AF60A
:1024D000AA200860704700000030004008B50820BE
:1024E000ADF8000004208DF8030003208DF80200F1
:1024F00069460348FFF7DEFDFFF7D4FE08BD000084
:102500000018014008B50820ADF8000014208DF82F
:10251000030003208DF8020069460348FFF7CAFD57
:10252000FFF7C0FE08BD000000180140F8B5C0204C
:10253000ADF8000018240C4E8DF8034003258DF8EB
:10254000025069463046FFF7B5FD6001ADF8000066
:102550008DF803408DF8025069463046FFF7AAFD1A
:102560000AF00AFCF8BD0000000C01403EB5244D05
:102570007F24284601F008FCA8150021ADF80400CE
:10258000ADF80810ADF80610ADF80A1001A92846FC
:1025900001F06EFD01221221284601F040FD50237A
:1025A0000093002223461146284601F019FD5023CE
:1025B0000093234601220021284601F011FD5023FB
:1025C0000093234602220021284601F009FD5023F2
:1025D0000093234603220021284601F001FD00213B
:1025E000284601F080FC0021284601F083FC0121EF
:1025F000284601F0B5FB0121284601F0B9FB3EBD9C
:102600000008004038B500214FF0006000F0AAF843
:102610004FF4A06000F09CF825208DF80000022502
:102620008DF801508DF80250684600F057F81720D9
:102630008DF8000001248DF801408DF802408DF8DE
:102640000340684600F04AF828208DF800008DF815
:1026500001408DF802508DF80340684600F03EF8C6
:1026600007208DF8000003208DF801008DF802404E
:102670008DF80340684600F031F81C208DF800000A
:102680008DF801508DF802408DF80340684600F047
:1026900025F803220121054800F06EF800200AF019
:1026A00027FC01200AF024FC38BD00009AC3020078
:1026B00000204FF0E021431EC1F880315A0DC1F8CF
:1026C0008421C1F88032C1F88422024601EB8003E4
:1026D000C3F80024401C0B28F8D37047F0B50F2432
:1026E000C27801784FF0E023012742B3D3F80C2DD4
:1026F00002F4E062C2F5E062120AC2F10405D440BD
:102700004278AA408578254015438A072C01D20ECD
:10271000944021F00301CE18D6F80054FF219140D7
:102720008D430C402543C6F80054007800F01F018B
:102730008F40400903EB8000C0F80071F0BD01F04C
:102740001F008740480903EB8000C0F88071F0BD8E
:102750000249084302490860704700000000FA057A
:102760000CED00E0024A114001430248016070474D
:1027700080FFFF1F08ED00E070B54FF0E025FF245B
:10278000D5F80C3D03F4E063C3F5E0631B0ADC40BD
:10279000C3F10406B14022400A43110100F0C00217
:1027A0009209C0F30120C0008140FF23834005EB64
:1027B000820000F61850026822EA030202600268F2
:1027C00042EA0102026070BD7047000030B587B078
:1027D00000F080F8364C0023A362237063706371AD
:1027E0002371A36023613349E3801846401CC0B2C3
:1027F00021F8023B0528F9D3A370E370E36140F2AE
:10280000E4612D48636100F0CCFB2A484FF48271EB
:10281000D43000F0C6FB2848002100F154023F25C7
:10282000426180F8445080F84530491C543054329D
:10283000C9B21429F4D3436180F8445080F845307C
:102840001D482362A0614FF43471A0F5956000F03B
:10285000A8FB1A48002100F1180203704260491CCD
:102860001830183289B21D29F7D30370436013481A
:10287000E06000F0A9FB0F4801AC032300223221E5
:102880000C300FC44FF6FF73009300F1C4024023D5
:1028900000210B4800F014F905AA0AA1402000F01D
:1028A00063F900F018F807B0BDE83040FFF78CBFBF
:1028B00054000020FC060020D40800202C04002036
:1028C000B131000875432F4F532D49492049646C9D
:1028D000650000007047704710B5134C207901283F
:1028E00020D1FDF7A3FC207820B1401E10F0FF009E
:1028F000207013D1607888B900F0AAFBE078A17845
:1029000088420BD0094951F82000E061016B491C55
:102910000163A068401CA060FDF7B6FCBDE8104054
:10292000FDF78DBC10BD000054000020D007002032
:1029300070B50C4D0646287808B1002070BDFDF733
:1029400075FCEC680CB16068E860FDF778FC3CB1A0
:1029500001202070002020812046666000F016FBD8
:10296000204670BD540000202DE9F0470546007850
:1029700089461446012801D0012003E0234F38780E
:1029800010B1022010703EE0787808B11120F9E70C
:10299000FDF74CFC6E684FF0000846B1C5F80480A6
:1029A000FDF74DFC84F800803046BDE8F08778697B
:1029B00010F8261F41F00201017080F8018020F814
:1029C000029C284600F0BEFAFDF739FC00F01EFB21
:1029D000FDF72CFC796991F8270001280CD00D6ACD
:1029E000C1F8208081F82680C1F81C80FDF727FC03
:1029F00084F800802846D8E7284600F033FAFDF72F
:102A00001EFC0A2020700020CFE7000054000020A8
:102A100070B5044600780D46012801D0012070BD34
:102A2000FDF704FC608948B102222946204600F0E7
:102A300035FAFDF704FC00F0E9FA08E0606818B127
:102A4000FDF7FDFB142070BD6560FDF7F8FB00206D
:102A500070BD000070B50C4D0646287808B1002006
:102A600070BDFDF7E3FBEC680CB16068E860FDF752
:102A7000E6FB3CB1032020702681002060602046E8
:102A800000F084FA204670BD5400002010B5094CB7
:102A9000207900280CD100F0DBFAE0780649A0701C
:102AA00051F82000E0616061BDE81040FDF7D4BB43
:102AB00010BD000054000020D00700207047000027
:102AC0002DE9FF4F83B081468A4693461C46DDF8C8
:102AD0005080119DFDF7AAFB1D4F387828B1FDF7F6
:102AE000AEFB102007B0BDE8F08F1A4E56F8240058
:102AF00018B1FDF7A4FB2820F4E7012046F82400D4
:102B0000FDF79DFB42462846129900F05FFB4346C5
:102B10005A465146484600F093F8DDE912128DE816
:102B2000060101462A462046109B00F0D3FA050014
:102B300008D0FDF77BFB002046F82400FDF77FFB63
:102B40002846CFE738790128FAD100F05FFAF7E795
:102B500054000020D00700207047000001490120E8
:102B6000086070470000002070B505460E46144608
:102B7000FDF75CFBFF2D03D11048406990F8285009
:102B80000F4850F825300B2553B1012B08D03046A3
:102B900000F096FA0F2807D9FDF751FB0E200BE045
:102BA000FDF74DFB257070BD314603F1440000F088
:102BB00079FAFDF744FB0020207070BD540000201E
:102BC000D007002010B50446FDF730FB1A4951F834
:102BD000240058B101280DD090F826100A0727D5F7
:102BE00031F0080180F8261008D009E0FDF727FB36
:102BF000642010BDFDF723FB0B2010BD818C19B1A3
:102C0000FDF71DFB002010BD0C49C28DCB881A4377
:102C1000CA80094A90F82A10D43A808D32F81130CF
:102C2000034322F81130FDF70AFB00F0EFF9E9E762
:102C3000FDF705FB652010BDD007002054000020E3
:102C40004FF080731360131FA2F1240218606FF01D
:102C50000100D0614FF0123090614FF003305061AD
:102C60004FF0023010614FF00130C2E902104FF016
:102C7000113050604FF0103042F804094FF0093025
:102C80001060A2F110004FF00831C1604FF0073121
:102C900081604FF0063141604FF0053140F8041972
:102CA0004FF004310160704770B50446FDF7BEFA7D
:102CB0001C4BFF2C586905D090F82800A04204D185
:102CC000012503E090F82840FAE70025164850F85F
:102CD000240068B101280FD0134C90F82A10D43C7E
:102CE000868D34F81120B24324F8112008D00BE06F
:102CF000FDF7A5FA5A2070BDFDF7A1FA0B2070BDB3
:102D0000C28DD9889143D98010F8261F41F008015F
:102D10000170FDF794FA012D01D100F077F9002040
:102D200070BD000054000020D00700207047000054
:102D300070B5040018D0FDF779FA0C4B0C4D5969A9
:102D400091F82A208E8D35F81200B04325F8120034
:102D500003D1CA8DD8889043D8808C84FDF76FFA50
:102D6000BDE8704000F052B970BD00005400002072
:102D7000FC06002070B54FF47A746343B3FBF4F3A0
:102D80004FF461646043C1EB011100EB810010441A
:102D900000EB4001C1EBC01003EBC000040C80B29B
:102DA000FFF7C6FF4FF4004507E02846FFF7C0FFD6
:102DB0002846FFF7BDFF641EA4B2002CF5D1002009
:102DC00070BD000010B5FDF731FA0348846AFDF7C5
:102DD00036FA204610BD00005400002070B5FDF703
:102DE00025FA1E4DA86A401CA862FDF728FA28792A
:102DF000012831D12C6A2BE0FDF718FAA08C20B302
:102E0000A0F101000004000CA0841ED194F826005B
:102E100010F0370F05D020F0370084F8260001208D
:102E200000E0002084F8270094F8260000070CD466
:102E3000E08DE9880A4A0843E88094F82A00A38DC7
:102E400032F81010194322F810106469FDF7F7F9F1
:102E500094F828004028CFD170BD00005400002015
:102E6000FC06002010B50C4C626992F82A10928D75
:102E700000EB410399899143998104D162694189A9
:102E8000D28D914341816069002100F11C00C17223
:102E90008172016010BD000054000020F0B543892C
:102EA000254D13F0FF0F02D0DBB2EB5C04E005EB25
:102EB00013231B780833DBB24FF0010C0CFA03F438
:102EC00000EB4307A6B2BC8914F0FF0F04D004F056
:102ED000FF0E15F80E5004E005EB14252D7808358B
:102EE000EDB20CFA05FC1FFA8CFC05EB031534EA75
:102EF0000C04EDB2BC8102D14489B44344810F4833
:102F0000002450F8250000F11C000481C0E90041B4
:102F1000C472817A914381720BD10948C1883143CF
:102F2000C1800648D43830F8131041EA0C0120F86B
:102F300013102846F0BD00008E030108D0070020C2
:102F40005400002070B50F4C0F4D6169C86191F8B5
:102F50002A208E8D35F81230B34325F8123003D174
:102F6000CB8DE2889A43E28091F82A20898D00EB8C
:102F7000420293890B43938162694189D28D114347
:102F8000418170BD54000020FC06002000224281D7
:102F90000C301146491CC9B220F8022B0529F9D37F
:102FA0007047002203E0491E00F8012B89B2002976
:102FB000F9D1704705E011F8013B521E00F8013BC2
:102FC00092B2002AF7D1704730B54FF434710D48F2
:102FD000FFF7E7FF0B48002103460A463F2401EBB9
:102FE000C10503EB85052435456004754275491C10
:102FF000243089B21329F2D3426004754275024825
:10300000436230BDB80F00205400002010B5FDF71A
:103010000DF90D4C207898B9607888B900F018F84F
:10302000E078A17888420BD0084951F82000E0618F
:10303000016B491C0163A068401CA060FDF71DF9ED
:10304000BDE81040FDF7FBB854000020D007002079
:10305000114B10B5D888114A10F0FF0F02D0C0B242
:10306000105C04E002EB102000780830C0B20C497C
:1030700031F8101011F0FF0F04D0C9B2515C01EB10
:10308000001006E002EB11210822097802EB001083
:103090000844D87010BD0000540000208E030108C1
:1030A000FC060020002204E0491C521C00F8013BF1
:1030B000D2B20B78002BF7D1002101701046704777
:1030C0000146002002E0491C401CC0B20A78002AD8
:1030D000F9D170472DE9FF5F0646DDE90EBA0D46CE
:1030E00090469946FDF7A2F82F4FBC69F4B304F15E
:1030F0000C04A068B861FDF7A2F844F80C5C2677D0
:103100000025A576E5762583201F44F808ACA0E8C5
:1031100000091098A080A4F806903009A07701213A
:1031200001FA00F0608406F00F006077814021848E
:10313000256165616562E562A56225633F2065637F
:1031400084F8380084F83950A4F10C042046FFF7C5
:10315000B5FC2046FFF700FDFDF768F8134840F87E
:103160002640386AC4E9050510B100E018E0846122
:103170003C62E08DF9880D4A0843F88094F82A00F3
:10318000D43AA38D32F81010194322F81010787930
:10319000401C7871FDF753F8002004B0BDE8F09FA3
:1031A000FDF74DF84620F8E754000020D007002036
:1031B000054CFDF73BF82069401C2061FDF73FF806
:1031C000FFF7CCFCF5E7000054000020D30707D040
:1031D000920705D50022002902D004C0491EFAE753
:1031E000704770472DE9F0410C4600258988074655
:1031F000012601B90225E288012A00D10226608851
:10320000A37A0028384611D000F06BFC218938469B
:1032100000F017FFA37A32462946384600F049FCF1
:1032200021893846BDE8F04100F004BF00F041FCC0
:103230002189384600F0FEFEA37A324629463846F8
:1032400000F04FFC21893846BDE8F04100F0F9BE9E
:10325000014908627047000000000E42034A5168AD
:1032600021F44041014351607047000000100240CA
:10327000044A0029516901D0014300E081435161B2
:103280007047000000100240044A0029D16901D0B3
:10329000014300E08143D16170470000001002400B
:1032A000044A0029116901D0014300E08143116102
:1032B0007047000000100240044A0029916901D0C3
:1032C000014300E08143916170470000001002401B
:1032D000044A0029D16801D0014300E08143D16054
:1032E000704700000010024010B500F079F84FF46C
:1032F0008034204600F042F900F0D2F93349012829
:10330000087025D11020FEF70DFE0220FEF73AFED0
:10331000002000F029F9002000F056F9A01100F07B
:1033200049F96010FFF79AFF4FF4E011204600F0D2
:103330005BF9012000F052F9392000F0F5F800287F
:10334000FAD0022000F0A2F900F006F90828FBD11B
:1033500001217C20FFF7B0FF01210846FFF7ACFFF9
:1033600001210520FFF7A8FF01211948FEF7F0FE13
:1033700001210846FFF77CFF01214802FFF79CFF6F
:1033800001210420FFF780FF01210220FFF77CFFCD
:1033900001210846FFF778FF01210E48FEF7D8FE0D
:1033A00001214FF0C050FFF76FFF0121C802FFF766
:1033B00083FF01210848FEF7CBFE01210748FEF7F5
:1033C000C7FEBDE810400120FFF742BF46000020C5
:1033D00000043000000C1A00C000160000031800A2
:1033E0000E480021C1600161142242618161C16106
:1033F000026842F0010202604268094B1A404260D2
:103400000268084B1A400260026822F480220260BF
:10341000426822F4FE024260816070470010024060
:103420000000FFF8FFFFF6FE10B500210120FFF7B6
:1034300043FF00214FF0C050FFF726FF0020FFF7A9
:1034400007FF00210120FFF737FF00210E48FEF79C
:103450007FFE00210D48FEF77BFE00210120FFF7D3
:1034600007FF00214FF40070FFF726FF0021042022
:10347000FFF70AFF00210220FFF706FFBDE810401A
:1034800000210348FEF764BE000430000002300053
:1034900000081A00204A10B55168204B11F00C01A9
:1034A00003D0042901D0082901D0036011E051683C
:1034B000022301F4701103EB9141536813F4803F30
:1034C00002D053689B0301D5154B00E0134B5943C1
:1034D00001605168134B01F0F00109095C5C01685F
:1034E000E1404160546804F4E064240A1C5D21FA60
:1034F00004F48460546804F46054E40A1B5DD94009
:10350000C1605268074B02F44042920B1B1F9A5C49
:10351000B1FBF2F1016110BD0010024000127A000F
:1035200000093D006E030108034600205909094ABD
:1035300001290AD002290AD0516A03F01F0201238F
:1035400093400B4200D0012070471168F5E7116AE3
:10355000F3E70000001002400248406800F00C0051
:103560007047000000100240034A516821F0F0014A
:103570000143516070470000001002400B490A6887
:1035800022F480320A600A6822F480220A60B0F5D0
:10359000803F07D0B0F5802F03D1086840F4A02009
:1035A00008607047086840F48030F9E70010024076
:1035B00070470000034A516821F4E0610143516003
:1035C0007047000000100240034A516821F4605126
:1035D00041EAC0005060704700100240014908668F
:1035E0007047000000004242034B5A68084322F42F
:1035F0007C121043586070470010024010B5012142
:103600007C20FFF759FE01210846FFF755FE0121F6
:103610000520FFF751FE01211848FEF799FD012111
:103620000846FFF725FE01214802FFF745FE01216C
:103630000420FFF729FE01210220FFF725FE0121CA
:103640000846FFF721FE01210D48FEF781FD01210B
:103650004FF0C050FFF718FE0121C802FFF72CFE03
:1036600001210848FEF774FD01210748FEF770FDAF
:10367000BDE810400120FFF7EBBD00000004300062
:10368000000C1A00C000160000031800034A51681D
:1036900021F0030101435160704700000010024017
:1036A00010B50A4C3120FFF73FFF20706068401CC6
:1036B0006060207810B96068FF28F3D13120FFF7EF
:1036C00033FF002800D0012010BD0000480000207A
:1036D00008B54FF48060ADF8000048208DF8030075
:1036E00003208DF8020069460148FEF7E3FC08BD9F
:1036F0000018014008B54FF48060ADF800000420C8
:103700008DF8030003208DF8020069460148FEF79A
:10371000D1FC08BD0010014008B54FF48060ADF841
:10372000000010208DF8030003208DF80200694688
:103730000148FEF7BFFC08BD00100140704770470C
:1037400010B505242046FFF73DFA641CE4B20B2CAB
:10375000F8D910BD2DE9F0478046894663210F2036
:10376000FDF7AEFFF020FDF793FFC020FDF790FFBF
:103770000022022311461046FFF7FCFA0F4F104DAE
:1037800000244FF4806631463846FEF7FFFC78B1DE
:103790000022022311461046FFF7ECFA2868641C49
:1037A000401CE4B228600A2CEDD30020BDE8F0876D
:1037B0004946404607F094FA0120F7E70018014017
:1037C0009400002008B54FF48050ADF800000320AD
:1037D0008DF8020004208DF8030069460148FEF7C9
:1037E00069FC08BD0008014008B54FF48050ADF8F1
:1037F000000003208DF8020014208DF803006946B4
:103800000148FEF757FC08BD0008014010B504460A
:1038100000F0C8F80421802000F094F82046BDE8AC
:103820001040082100F08EB810B5044600F0BAF838
:103830000421A02000F086F82046BDE810400521B4
:1038400000F080B8704770470B4B00204FF0A53157
:103850001963024683F8340003EB8001401C01F831
:10386000352FC0B24A708A70CA700728F4D3024854
:10387000303000F003B80000A43200202DE9F043FE
:1038800089B0014624226846FCF7D8FD1F496D46E1
:10389000042608780028FDD1012288460A70FEF728
:1038A0007DFB01273520FEF7F9FA0024DFF8609050
:1038B0000AE00022012311461046FFF75BFA484652
:1038C000FEF7F2FA0646641CBC4201D2042EF0D088
:1038D0000F4F4C4628370DE00022012311461046B9
:1038E000FFF748FA02CD2046FEF728FB241D0646C6
:1038F000BC4201D8042EEFD0FEF70CFB002188F863
:10390000001009B00846BDE8F0830000B9000020AF
:1039100000A00108042801D3021F01E0C0F1040245
:10392000D2B2042901D30B1F01E0C1F10403DBB2C1
:103930009A4202D340F0080101E041F0080125203D
:10394000FDF7BEBE2DE9F047054688460024DFF8A6
:103950004C904FF40046124F1CE0280601D4002280
:1039600000E0012240214846FEF717FCFEF77BF9F4
:10397000012231463846FEF710FCFEF774F90022AA
:1039800031463846FEF709FCFEF76DF96806050E6C
:10399000641CE4B24445E0D3BDE8F0870018014060
:1039A0000014014070B5154C012210212046FEF78D
:1039B000F4FB0122124ED50329463046FEF7EDFBFB
:1039C000012240210F48FEF7E8FBFEF74CF90022E8
:1039D00010212046FEF7E1FB002210212046FEF7D1
:1039E000DCFB002229463046FEF7D7FB294630464D
:1039F000BDE870400022FEF7D0BB0000000C014083
:103A0000001401400018014010B5FCF70FFC0D49EF
:103A10000878401C0870FCF712FCFFF7DFF90A4831
:103A20000169491C016109480168491C016041683C
:103A3000491C41608168491C8160BDE81040FEF767
:103A40004BBF000054000020040000202004002090
:103A50004FF0E0210428086903D020F00400086139
:103A6000704740F00400FAE74FF0E02130B1012840
:103A7000086906D020F001000861704700208861C5
:103A8000704740F00100F7E74FF0E0208069704791
:103A90004FF0E0210028086902D040F0020001E068
:103AA00020F00200086170474FF0E0214861704744
:103AB0007047F0B5058B048C068C43F232373E40DC
:103AC000068442EA0312BB1E4FF60C761C403540BA
:103AD0000C432A43002344F0010103830283018441
:103AE000F0BDF0B5058B048C0E01018C43F2233739
:103AF0003940018440F6FF410D4045EA033343EA73
:103B0000022143F203321440344344F01002018393
:103B10000284F0BD0149C861704700000080254261
:103B2000802000F001B8704702490A8822EA0002AA
:103B30000A807047102C014001490860704700005E
:103B4000008025420149086070470000BC8825427A
:103B500010B50121CC022046FFF7BAFB2046BDE894
:103B600010400021FFF7B4BB064B024600209988A5
:103B70001B88114203EA020302D0002B00D001206F
:103B8000704700000C2C0140104A10B513881049F2
:103B90004FF00004C1F86043048803F47F4344EA13
:103BA000030414804388C1F860338388C1F8683304
:103BB0000389C1F864334389C1F86C3383890B608E
:103BC000C3894B60C088908310BD0000182C014051
:103BD000A080254201490860704700000C832542FF
:103BE00010B5FCF723FB06480178491C0170FCF76F
:103BF00026FB2020FFF798FFBDE81040FEF76CBEC3
:103C000054000020094982888A8502880A850A882A
:103C100002F09F020A80C288438842EA03020B88AE
:103C200042EA03020A80007A08867047002C0140AD
:103C300010B5FCF7FBFA08490878401C0870FCF73F
:103C4000FEFA0120FFF790FF10B10120FFF76CFF93
:103C5000BDE81040FEF740BE5400002070B5FCF7F0
:103C6000E5FA29490878401C0870FCF7E8FA0221B7
:103C70004E07304600F0B0F8244C012588B1FCF71F
:103C8000D5FA6570304600F0A5F8A062FCF7D7FAC7
:103C90000221304600F068F800220221304600F090
:103CA00013F90421304600F097F888B1FCF7BEFA0A
:103CB000A570304600F08EF8E062FCF7C0FA0421EF
:103CC000304600F051F800220421304600F0FCF8A4
:103CD0001021304600F080F888B1FCF7A7FA257073
:103CE000304600F077F86062FCF7A9FA1021304600
:103CF00000F03AF800221021304600F0E5F8BDE867
:103D00007040FEF7E9BD00005400002004000020D0
:103D10007047000010B5FCF789FA0A490878401C82
:103D20000870FCF78CFA084C1021204600F054F87B
:103D300018B11021204600F017F8BDE81040FEF73A
:103D4000CBBD00005400002000080040028811B1E3
:103D500042F0800202E040F27F310A400280704768
:103D6000028A8A4302827047028A8A43028270472B
:103D70000029018802D041F0010102E040F2FE3248
:103D8000114001807047000010B5B0F1804F0FD096
:103D90000F49401813D0B0F5806F17D101210420CE
:103DA000FFF77EFA00210420BDE81040FFF778BA43
:103DB00001210846FFF774FA00210120F4E70121F0
:103DC0000220FFF76DFA00210220EDE710BD000090
:103DD00000FCFFBF808C704702460020138A928946
:103DE0000B4202EA010202D0002A00D001207047F3
:103DF0002DE9F041054608880C46072804D02846DE
:103E0000BDE8F041FFF7EEB9608828B301282FD054
:103E1000022839D0A188E288A37AA88BB5F820C0FF
:103E20002E8C42F233373E402E8440F6FF4612027B
:103E3000304042EA0332024340F233300CEA000CD5
:103E40004CEA013C4CF48050AA83288421892846FE
:103E5000BDE8F04100F004B9A37AE288A1882846C1
:103E6000FFF727FE21892846BDE8F04100F0E2B8BF
:103E7000A37AE288A1882846FFF733FE21892846E5
:103E8000BDE8F04100F0DDB8A288E38894F80AC0EC
:103E9000A98B288C2E8C43F233273E402E844FF67C
:103EA0000C76314043EA0C130B4343F233010840D4
:103EB00040EA022040F48070AB83288421892846A0
:103EC000BDE8F04100F0C5B8002A828901D00A435C
:103ED00000E08A4382817047028B4FF6F7731A40E5
:103EE0000A4302837047828B4FF6F7731A400A43E6
:103EF00082837047828B4FF2FF731A4042EA01219E
:103F000081837047F0B5038C344C4A8804F108066D
:103F100032B1012A04D0022A2FD0032A2DD049E041
:103F2000058B34F812402C4036F812501D40002A00
:103F3000028C11D043F223331A4002840A888B8802
:103F400044EA022203870B8903B11023C9882B435B
:103F500043EA011302832DE043F232331A40028414
:103F60000A888B88224383860B890BB1012400E0E9
:103F70000024CB882C432343ECE7878B34F8125082
:103F800036F812403D401C40022A028C14D042F206
:103F900033331A4002840A888B8845EA0222A0F84B
:103FA00040300B890BB14FF48053C988234343EA57
:103FB000013382830384F0BD43F233231A40028429
:103FC0000A888B882A4383870B890BB14FF480734F
:103FD000C988234343EA0123EBE700007E0301087D
:103FE0003EB50129069C06D00021ADF80810FF2B34
:103FF00005D9FE2306E095000121A940F5E7052B30
:1040000000D20523ADF804300221ADF80220ADF84E
:104010000610ADF800406946FFF774FF3EBD01850C
:10402000818A012A03D001F001018182704741F0A9
:104030000101FAE7028B4FF6F3731A400A43028339
:104040007047028B4FF2FF331A4042EA012101838D
:104050007047828B4FF6F3731A400A43828370478E
:10406000828B4FF2FF331A4042EA0121818370476D
:104070000A8882854A880285028802F08F020280BF
:104080008A88C9880A4301880A4302807047000071
:1040900010B5FFF729F9FEF70BFBFEF7B3FA084856
:1040A000FDF7B8FF0748FDF7B5FF0748FDF7B2FF7A
:1040B0000648FDF7AFFFBDE810400548FDF7AABF71
:1040C00000080140000C01400010014000140140B4
:1040D0000018014010B50420FFF7BAFC0548FFF7AF
:1040E000E3FC0120FFF7D4FCBDE810400120FFF7FE
:1040F000BBBC0000683C010030B5012187B08803DB
:10410000FFF7DAF84FF40074ADF8184003208DF88B
:104110001A0018201C4D8DF81B0006A92846FDF733
:10412000C9FF6100ADF8181004218DF81B1006A915
:104130002846FDF7BFFF4FF4E130009000200C212E
:10414000ADF81000ADF80C10ADF81240ADF8040059
:10415000ADF808000D4CADF80600ADF80A00ADF85A
:104160000E00ADF814006946204600F0BDF80122AB
:1041700040F22551204600F09EF80121204600F033
:104180006AF807B030BD0000000801400038014067
:104190002DE9F041FCF74AF816490878401C0870F0
:1041A000FCF74DF8144F40F225563146384600F0E2
:1041B00063F8D0B1384600F0E5F8104D01462C1FE9
:1041C000E0782954401CE0703146384600F03CF855
:1041D00000223146384600F06EF800200849E070B1
:1041E00001200870074928780870BDE8F041FEF703
:1041F00073BB00005400002000380140080000207C
:10420000840000208500002010B5FCF70FF8054859
:104210000178491C0170FCF712F8BDE81040FEF768
:104220005BBB00005400002010B5FBF7FFFF054802
:104230000178491C0170FCF702F8BDE81040FEF758
:104240004BBB000054000020090A01228A4001886B
:104250009143018070470029818902D041F40051C7
:1042600001E021F40051818170470246002012884C
:104270000A4200D00120704770B501F01F060125E9
:104280000024C1F3421305FA06F2012B0FD0022BD2
:104290000FD0838A4FEA11210088134205FA01F5F5
:1042A00000EA050001D000B10124204670BD8389D9
:1042B000F0E7038AEEE710B5C1F3421301F01F04E3
:1042C0000121A140012B07D0022B07D01430002A76
:1042D000026805D00A4304E00C30F8E71030F6E736
:1042E0008A43026010BD000030B50C46018A85B0DB
:1042F00005464CF2FF000140E088E289638A1043E2
:10430000228A1A431043A28A104308432882A989AB
:104310004EF6F3100140A08822891043A2890A4377
:104320001043A881A98A4FF6FF40014060890843E5
:10433000A8826846FFF7AEF81148854201D103987C
:1043400000E00298642200EBC00101EB001021683C
:104350006FF018048900B0FBF1F0B0FBF2F1090135
:104360000B09634300EB8300322303EB0010B0FB27
:10437000F2F000F00F000843288105B030BD0000C6
:10438000003801408088C0F30800704710B50978F4
:104390008180044C80212046FFF767FF0028F9D078
:1043A00010BD0000003801407047704770477047EB
:1043B0007047490050EAC12018BF04204A0D18BFB9
:1043C00040F0010040F2FF72B2EB515F08BF40F0D5
:1043D0000200012808BF052070472DE9F0414F1E5B
:1043E00000EBC7010446D1E9000115461E4637F02F
:1043F00006020DD02A4633460BF0B8F87F1E04EBB8
:10440000C703D3E900230AF0ABFE37F00602F1D16F
:10441000022F25D0042F13D0062F18BFBDE8F0813E
:104420002A4633460BF0A2F8D4E90A230AF098FE94
:104430002A4633460BF09AF8D4E908230AF090FE96
:104440002A4633460BF092F8D4E906230AF088FE98
:104450002A4633460BF08AF8D4E904230AF080FE9A
:104460002A4633460BF082F8D4E902230AF078FE9C
:104470002A4633460BF07AF8D4E90023BDE8F04130
:104480000AF06EBE024A002011070BF0FEBE0000CB
:1044900001FDFFFFF8B54FF40060ADF80000032404
:1044A000154F8DF8024010258DF8035069463846A7
:1044B000FDF700FEAE01ADF800608DF803508DF8F9
:1044C000024069463846FDF7F5FDA802ADF8000048
:1044D0008DF803508DF8024069460848FDF7EAFD63
:1044E000ADF8006004208DF803008DF802406946A5
:1044F0000348FDF7DFFDF8BD001001400008014052
:104500000018014010B507F005FEFDF797F80022EE
:10451000142311461046FEF72DFCFDF793F8FDF726
:1045200043F8FCF7FDFF02230022BDE810401146CE
:104530001046FEF71FBC00002DE9FE4F07468846D7
:104540000025684601F0F6FE00246FF00F0AE946E8
:10455000012657F8241058F82400081A00D54042C4
:104560000BF07CFC51460BF0C0FE59F8241011F002
:10457000FF4F0BD00BF074FB4FF07E510BF0DCFDC6
:10458000094920F00040884205DC07E0074908445B
:104590000749884202D306FA04F00543641C032C41
:1045A000D7DB2846BDE8FE8F295C0F3E666666C1F4
:1045B0009A99D9002DE9F04D914F21F0004A86B02B
:1045C00005460C46BA452FDBAAEB070028430BD063
:1045D0008C48824501DC1BD1D5B106B02846BDE828
:1045E000F04D01220BF051BE874A884B28460AF055
:1045F000BDFF07460E46864A864B284621460AF0EE
:10460000B5FF06B03A463346BDE8F04D0AF0A8BD06
:104610000120FBF7EEFF06B00022BDE8F04D134687
:10462000104611460AF04ABE7B48824543DABAF189
:10463000795F0BDA2846FFF7BCFE042808BFFFF7B6
:1046400021FF284606B02146BDE8F08D0B462A46DC
:10465000284621460AF08AFF834602466F480E46E6
:104660000B4606217844FFF7B8FE5A4633460AF057
:104670007DFF80466A488A465A463346042178447C
:10468000FFF7ABFE5A4633460AF070FF00223B4666
:104690000AF066FD02460B46404651460AF00EFE01
:1046A0002A4623460AF062FF06B02A462346BDE8A2
:1046B000F04D0AF055BD284624F0004100223D4649
:1046C0003B460BF051F84FF0FF320BF0DEFD064693
:1046D000024654480F460B4606217844FFF77DFEFC
:1046E00032463B460AF042FFCDE900014E483246D1
:1046F0003B4604217844FFF770FE32463B460AF001
:1047000035FF00222B460AF02BFD834602913046EE
:10471000394608F015FC804644480D46504517DCE4
:10472000DDE900015A46029B0AF0C8FD42462B46CD
:104730000AF01CFF42462B460AF012FD01220BF044
:10474000A4FD314A314B0BF001F9314A314B4DE0B8
:104750004FF0000A0B465246404629460AF000FD3B
:10476000CDE9031052462B46504629460AF0FEFE7C
:1047700032463B460AF0F8FFDDE903320AF09EFDBF
:1047800006460F46DDE900015A46029B0AF096FDF7
:10479000834600910122304639460BF076FD1A4AD5
:1047A0001A4B0AF0E1FF06460F4601224046294611
:1047B0000BF06BFD5A46009B0AF0D8FE32463B4692
:1047C0000BF0C4F807460E460122504629460BF06E
:1047D0005CFD0F4DDFF858802A4643460AF0C4FFBF
:1047E0003A4633460AF0C0FF2A4643460AF0BCFF69
:1047F000002CD8BF81F0004106B0BDE8F08D00006C
:104800000000F03F0000F07F075C143326A6913CC7
:10481000182D4454FB21F93F0000E03F20CB00005D
:1048200036CB0000AACA0000C0CA00003333EF3FF5
:10483000FB21E93F2DE9F84F04460D4621F00040E9
:1048400000917449884212DB7349884201DC07D128
:1048500034B120462946BDE8F84F01220BF015BDC2
:104860006E48002DCCBF6E496E49BDE8F88F6E4989
:10487000884211DA6D498842A8BF4FF0FF366DDAE1
:1048800020462946FFF795FD042808BFFFF7FAFDEB
:1048900020462946BDE8F88F6549DFF898A125F044
:1048A0000045884232DA6449884219DA00263246E5
:1048B0004FF08043204629460AF052FC07468846BE
:1048C0000122204629460BF0E0FC002253460BF063
:1048D0003DF83A4643460AF0F1FC04460D463DE0F9
:1048E000012600225346204629460AF039FC074695
:1048F000884600225346204629460BF027F84346B7
:104900003A460AF0DBFC04460D4627E04B49884254
:104910001BDADFF82C810226002243462046294676
:104920000AF024FE002253460AF01AFC82460F4683
:1049300000224346204629460BF008F852463B46E3
:104940000AF0BCFC04460D4608E0032622462B462E
:1049500000203C490AF0B2FC04460D4622462B4694
:10496000204629460AF002FE8B46824602460B4646
:104970000AF0FCFD07460246334888460B460621EE
:104980007844FFF72AFD52465B460AF0EFFD824667
:104990002E488B463A46434605217844FFF71DFDD5
:1049A0003A4643460AF0E2FD02460B46002E5046C8
:1049B00059460CDA0AF0D4FB22462B460AF0D6FD03
:1049C00001B022462B46BDE8F04F0AF0CDBE0AF0FA
:1049D000C7FB22462B460AF0C9FD1D4A7A4402EB6A
:1049E000C603D3E900230AF0B1FF22462B460AF0A2
:1049F000ADFF184A7A4402EBC603D3E900230AF05C
:104A0000B3FE009A002AB4BF81F00041BDE8F88FE0
:104A1000BDE8F88F000010440000F07F182D4454CA
:104A2000FB21F93FFB21F9BF0000DC3F0000203EE5
:104A30000000F33F0000F03F0000E63F008003402D
:104A40000000F83F0000F0BFBCC800007AC80000BA
:104A500018C80000E0C700002DE9F04D9446CCF1E5
:104A6000000423F000464CEA0404524F46EAD47492
:104A700098468A4621F00042BC4206D8454240EAA8
:104A8000050442EAD474BC4204D9BDE8F04D624644
:104A90000AF066BBA8F14055A5F17F6555EA0C0404
:104AA0000BD0022404EAA874434DDFF810E144EA75
:104AB000DA7452EA000B04D00CE0BDE8F04DFFF7C9
:104AC000B9BE002C14BF012CBDE8F08D022C30D0F3
:104AD000032C32D056EA0C0B0AD0BE4220D1BA4287
:104AE00009D126F0804622F080423346114617E075
:104AF00000291ADB25E0DFF8C8B0FB44002C04BF16
:104B0000DBE90001BDE8F08D012C02BFDBE900010B
:104B100081F00041BDE8F08D022C0AD0032C0CD0AE
:104B2000BA4212D1BAF1000F0BDA23482549BDE889
:104B3000F08D28462449BDE8F08D28467146BDE831
:104B4000F08D1D482149BDE8F08D921B12153C2ABD
:104B5000C4BF19481D490EDCB8F1000FBEBF12F1E9
:104B60003C0F0020014606DB62460AF0A7FB21F05D
:104B70000041FFF75FFE002C08BFBDE8F08D012C5F
:104B800004BF81F00041BDE8F08D114A114B022CA9
:104B900007D00AF0DBFE2A46BDE8F04D0A4B0AF0CA
:104BA000D5BE0AF0D3FE2A46BDE8F04D064B0AF00A
:104BB000DBBD00000000F07F182D4454FB2109C02C
:104BC00072C70000FB21F9BFFB210940FB21F93F1F
:104BD000075C143326A6A13C70B50026344640F687
:104BE000FF75334600EB410003EB430100EBC101CD
:104BF00031F8022C944200D21446954200D9154651
:104C00005B1C9BB216440C2BEED3301B401B0A21BD
:104C1000B0FBF1F080B270BD10B50A4803F0E2F9C4
:104C2000084806F075F90021084608F032F900211D
:104C3000012008F02EF904490020086003490860AB
:104C400010BD0000E42E0020C0020020BC020020A5
:104C50002DE9F0414E48807A892802D00020BDE835
:104C6000F08107214B48FFF7B7FF07460C21494861
:104C7000FFF7B2FF484D044640F6FF766889A989E0
:104C800050EA01024DD0B0427ED0B1427ED009F050
:104C900035FC44287AD041480078192876D06A89B2
:104CA0004FF48076B24205D9B81A974200D8D01B8B
:104CB000502808DCA889B04268D9211A844200D85B
:104CC000011B502962DD394635A005F0BBFCAA89DD
:104CD00021463AA005F0B6FC002068706889B04211
:104CE00007D9391A874200D8C11B502901DD01209C
:104CF0006870A889B04209D9211A844200D8011BE2
:104D0000502903DD687840F00200687032A005F099
:104D100099FC0121192008F037FF34A005F092FC1E
:104D20009CE70022642311461046FEF723F8002476
:104D300007211848FFF750FF6989084468810C2152
:104D40001448FFF749FFA98900220844A8810A23D3
:104D500011461046FEF70EF8641CE4B20A2CE7D3A5
:104D600069890A20B1FBF0F16981AA89B2FBF0F2EE
:104D7000AA8125A005F066FC6889FF2802D9A889C8
:104D8000FF2803D86E8100E000E0AE81012066E7D5
:104D9000E42E0020782D0020AC03002030030020FA
:104DA0006C656674206D61672C202564096F6666EA
:104DB0007365743A0925640D0A000000726967681A
:104DC00074206D61672C202564096F6666736574B5
:104DD0003A0925640D0A0000626F756E646172798C
:104DE000206465746563740D0A0000006166746573
:104DF0007220626F756E64617279206576656E747B
:104E0000207365740D0A0000626F756E64206F6612
:104E1000667365743A092564092564090D0A000062
:104E20002DE9F041144F7879012801D8062403E0D8
:104E3000801EC4B2072C1DD8104E0125A54096F83F
:104E40003410224601EA05030DA005F0FBFB96F89D
:104E5000340028400CD006EB8400B97990F8352056
:104E6000914207D1F97990F83600814202D10120B0
:104E7000BDE8F0810020FBE7982E0020A43200203E
:104E80007765656B20636865636B3A207765656B52
:104E90002C203A25640925642C202564200D0A0065
:104EA00070B507F0F5FF134D114828600121084641
:104EB00007F0EFFF0022142311461046FDF75AFFBA
:104EC0000D4C21680DA005F0BDFB2068052805D913
:104ED0000023012219461846FDF74CFF002101204E
:104EE00007F0D7FF00202860BDE8704007F0D0BF72
:104EF00020A10700C4020020C00200206C65667477
:104F00003A090925640D0A0010B5114986B004005C
:104F10001BD018226846FEF74DF80E4800998142D2
:104F200004D104984FEA3141884209D00A4901204E
:104F30000870204608F054F8204600F00FF804E00E
:104F4000182269462046FEF735F806B0002010BD4D
:104F5000009001085555AAAAB80000202DE9F04795
:104F600000283CD01F490546042648780028FDD17A
:104F7000012289464A70FDF711F801273520FCF718
:104F80008DFF0024DFF860800BE000220123114632
:104F90001046FDF7EFFE08EBC420FCF785FF064640
:104FA000641CBC4201D2042EEFD00F4F44461C3784
:104FB0000DE00022012311461046FDF7DBFE02CD75
:104FC0002046FCF7BBFF241D0646BC4201D8042E38
:104FD000EFD0FCF79FFF002189F801100846BDE8DB
:104FE000F0870000B80000200090010810B53821BB
:104FF0000448FDF7D6FF03490120087002490870F4
:1050000010BD0000343500205103002010B50446C7
:1050100011A005F017FB00F0E9FA5021204607F037
:105020004DFE0022322311461046FDF7A3FE204616
:1050300003F056F800224FF4E17311461046FDF7D5
:1050400099FE204601F016F9C8230022BDE8104061
:1050500011461046FDF78EBE636C65616E5F6D6F25
:10506000746F72206F70656E0D0A000010B50A48EB
:10507000FDF75EFC094C206138B107480C30FDF7A4
:1050800057FC606118B1002010BD05A000E00BA026
:1050900005F0D8FA012010BDAC2E002088000020B9
:1050A0006372656165206B657920206D626F782081
:1050B0006661696C6564200D0A00000063726561B9
:1050C0006520616374696F6E206D626F7820666120
:1050D000696C6564200D0A0010B5044601206071FA
:1050E00088782071487B2072887B6072087CE0732E
:1050F0000122091DE01DFDF75DFF054820604FEA14
:10510000304020612046BDE81040FFF727BF000077
:105110005555AAAA2DE9F0410546424801680829DB
:1051200011D001680F290ED000680A2803D13E482B
:105130008078022807D0002000280AD03B4C6079F4
:10514000032805D101E00120F6E73948007810B1C5
:105150000020BDE8F081E079364FDFF8DC800126E1
:1051600070B12846A16A0AF0A5FEA16A28461BD2A2
:105170000AF0A0FEA16A284606D20AF0D3FF05E095
:10518000E671A562E562E4E70AF0D6FFA16AB842DB
:1051900006DD40460AF0D0FF29460AF0EDFC23E088
:1051A00028460AF0BFFF17E00AF08BFF20D22846FE
:1051B000A16A0AF07FFEA16A284602D20AF0B2FF75
:1051C00001E00AF0B9FFB8420ADD4146A06A0AF0E0
:1051D000D3FC29460AF0B0FF216B0AF0A3FF06E0DA
:1051E0002846A16A0AF0A8FF216B0AF0C5FC2063DB
:1051F000A5621249206B884204DD41460AF09CFFFB
:105200002063A6E70E498842A3D90020E071A0627E
:10521000E0622063667101211D2008F0B5FC0120C9
:1052200097E70000B4000020343500204C03002034
:1052300031030020000034430000B4430000074461
:105240000000B4C3704770477047000010B50020DD
:10525000FDF700FC0149086010BD0000800000203F
:1052600030B585B05C4801AC0323002260210FC437
:10527000072300F5BE72002158480093FDF720FC7B
:105280000546574C05E000220A2311461046FDF75B
:1052900071FD2278002AF6D01DB1294651A005F0F3
:1052A000D1F9564801AC032300224FF49C710FC47E
:1052B000082300F2DC42002151480093FDF700FC76
:1052C000010002D047A005F0BDF94E4801AC032310
:1052D000002240210FC40A2300F1FC0200214A48A9
:1052E0000093FDF7EDFB010002D03EA005F0AAF906
:1052F000464801AC0323002240210FC40C2300F1D7
:10530000FC02002142480093FDF7DAFB010002D0C5
:1053100034A005F097F93F4801AC03230022402157
:105320000FC40B2300F1FC0200213B480093FDF762
:10533000C7FB010002D039A005F084F93D4801AC5B
:105340000323002260210FC40F2300F5BE72002149
:1053500039480093FDF7B4FB384801AC0323002221
:105360004FF4A2710FC4062300F20C5200213448FE
:105370000093FDF7A5FB010002D01AA005F062F929
:10538000304801AC032300224FF480710FC409237D
:1053900000F57F7200212C480093FDF791FB01007E
:1053A00002D010A005F04EF90323284801AC0022DA
:1053B000D9010FC4052300F2FC52002124480093B8
:1053C000FDF77EFB010005D005B006A0BDE830402A
:1053D00005F038B905B030BD8814002015710008FB
:1053E00088000020637265617465206578697420A7
:1053F0006661696C3A092564000000000816002007
:10540000998B0008E81B002089A50008881300205C
:1054100021770008E81A0020BD81000863726561E9
:1054200074652065786974206661696C3A09256441
:105430000A000000E81C00202D550008681E00200E
:10544000B1DF000878230020F9EB0008782700205E
:10545000298C00087047704770B50B4D4FF400540D
:1054600021462846FCF792FE30B161102846FCF731
:105470008DFE08B1022070BD21462846FCF786FE4D
:105480000028F8D0012070BD001401400B4810B571
:10549000007866280FD00A48007B02280BD103F061
:1054A000A1FA03F093F903F0AFF8064800788828D2
:1054B00001D003F023FA002010BD0000302F00209F
:1054C000E42E0020E402002010B503F0F5F80020DF
:1054D00010BD0000F0B4144E96F8354096F8363002
:1054E000601CC5B20020012796F8342007FA00F1AD
:1054F0000A4207D006EB800101F8354F4B708D70E2
:10550000CB7007E006EB8001002201F8352F4A70CE
:105510008A70CA70401CC0B20728E5D3F0BC0248AC
:105520003030FEF7ABB90000A4320020064C05E095
:1055300000220A2311461046FDF71CFC20780028A3
:10554000F6D005F0FDFC00008800002004E00021FA
:10555000491CC9B20A29FBD3401EF8D2704700008B
:10556000002210B5052311461046FDF703FC00216B
:10557000084607F08EFC0021012007F08AFC01227A
:10558000D1020A48FCF709FE094C012204212046F9
:10559000FCF703FE012291032046FCF7FEFD0549BE
:1055A00000200870BDE8104008F0C0BB00080140B2
:1055B000001401408700002010B5FCF785F900F0C9
:1055C000B5FD094C002204212046FCF7E6FD00222F
:1055D0000A2311461046FDF7CDFB20460122BDE807
:1055E00010409103FCF7D9BD00140140002210B512
:1055F000022311461046FDF7BDFB0121002001F0FA
:10560000E3FE0121084601F0DFFE0121022001F046
:10561000DBFE0121032001F0D7FE104C0022042103
:105620002046FCF7BAFD00220F2311461046FDF775
:10563000A1FB20210A48FCF7A9FD0A4A012150B12B
:1056400011700948002201702046BDE810404FF457
:105650008041FCF7A2BD00201070F2E70014014069
:10566000000C0140100300208700002070B50546A3
:105670000020FEF7D9F8002408212846FEF762F939
:10568000641CE4B2202CF7D370BD000070B50B4849
:10569000806984B2B4F57A7F01D340F2E7340A26F8
:1056A000B4FBF6F5E8B2002106F0A0FF06FB1540BA
:1056B000BDE87040432107F061B90000A43200202A
:1056C00070B51248C269816840681144084480B2CC
:1056D000B0F5E16F01D200240AE04FF46161B0FB44
:1056E000F1F0401C84B2B4F57A7F01D340F2E73484
:1056F0000A26B4FBF6F5E8B2002106F077FF06FBB8
:105700001540BDE87040482107F038B9A4320020A8
:1057100010B50446192006F0F9FD2046BDE81040FA
:1057200007F03AB870B50E4D0446A868002816D0A8
:1057300008F0E4FE442812D0A868807A10280ED021
:10574000207C4FF4006190F001020648227401D0E1
:10575000002200E00122BDE87040FCF71EBD70BDD4
:10576000A80000200008014008B560B120208DF895
:10577000000028208DF8010030208DF8020038202C
:105780008DF8030004E0A32204216846FAF788FE9E
:105790006A46042140F69E2004F0D2FD04F094FAFB
:1057A00008BD00003EB5044602208DF80000CA2066
:1057B0008DF80100E3208DF8020009208DF8030028
:1057C0006A460421682004F0BBFDA3208DF8000088
:1057D000610609D5C0218DF80110C8218DF802108D
:1057E000C2218DF8031005E08DF801008DF802004C
:1057F0008DF8030014F4C07F09D0C4218DF8041083
:10580000CC218DF80510C6218DF8061005E08DF825
:1058100004008DF805008DF806008DF808008DF85D
:1058200007008DF809006A460A2140F6A72004F017
:1058300087FDA0074FF0D80503D020208DF8000089
:1058400001E08DF800506A46012140F6B62004F0D0
:1058500077FDA00601D5012000E0002000F090F8BF
:1058600014F4C07F1ED0E0050AD5B2208DF80000E8
:105870008B208DF80100B6208DF802009B2009E0F6
:10588000B0208DF8000080208DF80100B4208DF844
:10589000020090208DF803006A46042140F6A22001
:1058A00004F04EFDE0074FF40B6323D0F8208DF891
:1058B00000006A460121184604F042FDFA21072043
:1058C00000F04AFB072000F015FB012000F032FB3E
:1058D000642000F0D5FB4FF4FA7000F0E1FBC82122
:1058E000254800F0CFFA282000F0E4FA0A2000F062
:1058F000F1FA06E08DF800506A460121184604F0DE
:105900001FFDA00703D5D9208DF8000001E08DF818
:1059100000506A46012140F23D7004F011FD60071D
:1059200001D5012000E0002000F04AF8E00601D592
:10593000012000E00020FFF717FF104D44F00800A1
:10594000688104F0C1F90020A873600601D5062023
:10595000A87314F4C07F02D0A87B801DA87314F034
:10596000140F02D0A87B1030A873A00702D0A87B28
:10597000001DA87300203EBD09E3CA02B435002013
:105980000EB54FF4976308B107A000E009A0D0E975
:10599000001280680091CDE901206A46092118466D
:1059A00004F0CEFC0EBD0000B8AAB38DB4980D353E
:1059B0005D000000B8AAAAAAB088C3C5C70000004D
:1059C00008B560B1C0208DF80000C2208DF801003C
:1059D000C4208DF80200C6208DF8030004E08B225D
:1059E00004216846FAF75CFD6A46042140F69820D7
:1059F00004F0A6FC04F068F908BD0000C8234FF4C9
:105A00008062024940F6F63004F032B8920501088F
:105A10002DE9FF4F89B01646DDE916520024DFF864
:105A20003881074689462C80A24698F80E006946C0
:105A300004F0D8F84FF0FF3B18B158460DB0BDE860
:105A4000F08FB8F80A0010F0140F3CD000999DF8C0
:105A5000032009BA21F0FF0111433160019A0914B2
:105A600012BA22F0FF0C9DF8072049434CEA020CC1
:105A7000C6F804C0029A9DF80B3012BA22F0FF0259
:105A80001A43B260039B9DF80F401BBA23F0FF033B
:105A90002343F36012144FEA2C461B14524306FBB7
:105AA000061103FB032211441024A1F17061B1F12E
:105AB000007F04D904F008F9A5F800A0BDE7298803
:105AC00041F48071298041066A4612D51119A41D3E
:105AD0000B88E4B25BBAA9F800304B885BBAA9F82E
