:020000040800F2
:100000003828002001010008050100080701000848
:10001000090100080B0100080D01000800000000A4
:1000200000000000000000000000000011010008B6
:100030000F0100080000000081020008752E000872
:10004000293600081F250008212F00084F29000825
:100050001913000815280008F70E0008550F0008AE
:10006000CD0F0008D10F0008BD100008C10B00081B
:10007000C30B0008C50B0008C70B0008C90B00081C
:10008000CB0B0008CD0B000819060008FB35000853
:10009000FD350008F1080008F3080008A911000860
:1000A000312F00085530000819300008372F00089C
:1000B0006D3000086F30000871300008B715000877
:1000C000B5150008BB150008B9150008E72B000896
:1000D000E92B0008A133000819340008393400085E
:1000E000F90E00084D290008F9350008000000004D
:1000F0000000000000000000000000000000000000
:1001000004480047FEE7FEE7FEE7FEE7FEE7FEE7FE
:10011000FEE700001901000800F002F800F05CF8AA
:100120000AA090E8000C82448344AAF10107DA4552
:1001300001D100F051F8AFF2090EBAE80F0013F048
:10014000010F18BFFB1A43F001031847E8D800005D
:1001500008D900000A444FF0000C10F8013B13F0DE
:10016000070408BF10F8014B1D1108BF10F8015B10
:10017000641E05D010F8016B641E01F8016BF9D103
:1001800013F0080F1EBF10F8014BAD1C0C1B09D15A
:100190006D1E58BF01F801CBFAD505E014F8016BCC
:1001A00001F8016B6D1EF9D59142D6D3704700005E
:1001B0000023002400250026103A28BF78C1FBD870
:1001C000520728BF30C148BF0B6070471FB50DF004
:1001D00065FB1FBD10B510BD00F0C5F81146FFF757
:1001E000F5FF09F009F900F0E3F803B4FFF7F2FFB7
:1001F00003BC00F0EBF8000002480349034A044B3B
:1002000070470000382400203828002038260020BD
:100210003826002072B606B42E490A7802F101028F
:100220000A7006BC704706B42A490A78A2F1010296
:100230000A704FF00001002A81F3108806BC704755
:10024000254C264D25604FF0000484F30988244C8A
:100250004FF001052570234C4FF08055256062B6A4
:10026000FEE730B41F4C4FF08055256030BC70471E
:1002700030B41C4C4FF08055256030BC704700BF37
:10028000EFF3108372B6EFF3098030B1A0F12000D4
:1002900080E8F00F144C2468206000B513488047B4
:1002A0005DF804EB124C134D2E7826700E4C124E56
:1002B00036682660306890E8F00F00F1200080F387
:1002C00009884EF0040E83F31088704700BF72B6A1
:1002D000704700006400002020ED00E00000FFFFF8
:1002E0006C00002004ED00E07C0000206D20000880
:1002F0006A0000206B0000208400002010B5203A26
:10030000C0F00B80B1E81850203AA0E81850B1E8CE
:100310001850A0E81850BFF4F5AF5FEA027C24BF84
:10032000B1E81850A0E8185044BF18C918C0BDE87B
:1003300010405FEA827C24BF51F8043B40F8043B44
:1003400008BF7047D20728BF31F8023B48BF11F8F9
:10035000012B28BF20F8023B48BF00F8012B704753
:10036000704770477047754600F028F8AE460500A4
:100370006946534620F00700854618B020B5FFF7C0
:100380003BFFBDE820404FF000064FF000074FF064
:1003900000084FF0000B21F00701AC46ACE8C009A3
:1003A000ACE8C009ACE8C009ACE8C0098D467047AC
:1003B0000446AFF300802046FFF717FF0048704760
:1003C000D423002000487047D8230020014918207A
:1003D000ABBEFEE726000200704710B5A02000F07B
:1003E000B1F80121022000F0C5F80121022003F03C
:1003F0001CF9222000F058F81321242000F0BAF84C
:100400003B21262000F0B6F8002000F071F8022110
:10041000084600F0AFF80221084603F006F925204F
:1004200000F042F800F00704A02000F061F802217B
:10043000084600F09FF80221084603F0F6F8252050
:1004400000F032F800F007012046BDE8104002F04D
:1004500033BC000070B5114D012435F81400C1B251
:10046000204600F087F8641CE4B2042CF5D9072478
:1004700035F81400C1B2204600F07CF8641CE4B2E8
:10048000222CF5D9242435F81400C1B2204600F0FE
:1004900071F8641CE4B2312CF5D970BDCED90008D6
:1004A000802000F04FB8000070B50E4D06464FF4A6
:1004B000804400222146284601F073F806F07F01AF
:1004C00041F0400108200DF0A5F9012000F007FDE2
:1004D0000AF044F9064601222146284601F061F857
:1004E000304670BD000801400021084600F042B8C7
:1004F00001460F2000F03EB870B5114D4FF4804416
:1005000000222146284601F04CF8062108200DF073
:1005100081F9562108200DF07DF9592108200DF0B0
:1005200079F9A52108200DF075F9A92108200DF011
:1005300071F921462846BDE87040012201F031B82A
:100540000008014070B50A4D06464FF48044002271
:100550002146284601F025F8314604200DF05AF9CD
:1005600021462846BDE87040012201F01AB800007B
:10057000000801402DE9F0410C4D07460E464FF4AE
:10058000804400222146284601F00BF807F07F0145
:1005900008200DF03FF9314608200DF03BF92146C7
:1005A0002846BDE8F041012200F0FBBF00080140F1
:1005B00002688A4302607047026822EA11220260E0
:1005C00070470029816802D041F0010101E021F06B
:1005D0000101816070470029816802D041F4807177
:1005E00002E04FF6FF621140816070470146002033
:1005F0008968490700D5012070470246002012682B
:100600000A4200D00120704701460020896809078E
:1006100000D501207047000070B50E4C4FF4A07556
:1006200000222946204600F01BF801212046FFF752
:10063000E4FF01280DD1084800680849C86201217B
:100640002046FFF7B5FF29462046BDE87040FFF77A
:10065000B3BF70BD002401409000002004000020C2
:10066000002A4268C9B201D00A4300E08A434260CE
:100670007047000010B542680E4B0C791A400B68A9
:1006800042EA04221343436082680B4B1A40D1E9CB
:10069000024323434C7942EA440213438360C26A13
:1006A000097C22F47002491EC9B242EA0151C162BA
:1006B00010BD0000FFFEF0FFFDF7F1FF70B507264B
:1006C00009290AD9C568A1F10A0404EB4404A6402B
:1006D000B543A3401D43C56007E0056901EB410434
:1006E000A640B543A3401D4305611F23072A09D235
:1006F000446B521E02EB820293409C4391400C4398
:10070000446370BD0D2A09D2046BD21F02EB820232
:1007100093409C4391400C43046370BDC46A0D3AFE
:1007200002EB820293409C4391400C43C46270BD33
:10073000816841F00801816070470029816802D01A
:1007400041F4A00101E021F4A001816070478168BB
:1007500041F004018160704770B500F077FB0B4CED
:1007600001220421204600F01CFF00F0B3FB082109
:10077000204600F00FFF054600220421204600F02D
:1007800010FF00F0A7FB284670BD000000180140D4
:1007900070B5002400F05AFB114E012208213046AA
:1007A00000F0FFFE00256006040E01220421304601
:1007B00000F0F7FE00F08EFB0821304600F0EAFE64
:1007C00008B144F0010400220421304600F0E9FEA3
:1007D00000F080FB6D1CEDB2082DE4D3204670BD07
:1007E0000018014070B5044600F056FB0C4D0CB1EA
:1007F000012200E000220821284600F0D2FE01225A
:100800000421284600F0CDFE00F064FB0022042104
:10081000284600F0C6FEBDE8704000F05BBB00005B
:100820000018014070B5054600F036FB114E00245B
:10083000280601D5012200E000220821304600F000
:10084000B0FE01220421304600F0ABFE00F042FB76
:1008500000220421304600F0A4FE00F03BFB6806B5
:10086000641C050EE4B2082CE2D3BDE87040FFF72B
:1008700073BF00000018014010B500F00DFB0D4CD7
:1008800001220821204600F08CFE0122042120468E
:1008900000F087FE00F01EFB00220821204600F039
:1008A00080FE00F017FB20460022BDE81040042126
:1008B00000F077BE0018014010B500F0EDFA0B4CC7
:1008C00000220821204600F06CFE0122042120466F
:1008D00000F067FE00F0FEFA01220821204600F039
:1008E00060FEBDE8104000F0F5BA000000180140BD
:1008F000704770472DE9F84FFF20ADF80000002544
:100900007D4E8DF8035003248DF802406946304631
:1009100000F0D4FDADF80040DFF8E0918DF8035011
:100920008DF802406946484600F0C8FD3F20ADF80A
:1009300000008DF803508DF802406946704800F0C1
:10094000BDFD4FF4807AADF800A014278DF8037038
:100950008DF802406946304600F0B0FD7014ADF8E5
:1009600000008DF803708DF802406946304600F0B3
:10097000A5FDB014ADF800008DF803708DF80240AD
:100980006946304600F09AFD4FF08008ADF80080CF
:100990008DF803708DF8024069465A4800F08EFDCC
:1009A000F802ADF8000004258DF803508DF80240E0
:1009B0006946544800F082FD1026ADF800608DF8BD
:1009C00003508DF802406946484600F077FD680301
:1009D000ADF800008DF803508DF802406946484894
:1009E00000F06CFDADF80080DFF81CB18DF80370ED
:1009F0008DF802406946584600F060FD2020ADF8B1
:100A000000008DF803508DF802406946484600F01A
:100A100055FDADF800508DF803608DF80240694631
:100A2000484600F04BFD4FF47060ADF800008DF8C3
:100A300003508DF802406946324800F03FFDE00265
:100A4000ADF800008DF803508DF802406946584615
:100A500000F034FD4FF04009ADF8009048278DF8C4
:100A600003708DF802406946584600F027FDADF846
:100A700000608DF803708DF802406946214800F04F
:100A80001DFD0220ADF800008DF803708DF80240C6
:100A900069461C4800F012FDADF800908DF8036027
:100AA0008DF802406946164800F008FDADF800A038
:100AB0008DF803608DF802406946114800F0FEFC95
:100AC000ADF800808DF803608DF8024069460C484F
:100AD00000F0F4FC00224021094800F062FD6003B0
:100AE000ADF800008DF803508DF8024069460448C7
:100AF00000F0E4FCBDE8F88F00080140000C014064
:100B0000001001400018014000140140F8B54FF4F6
:100B10000070ADF8000003241C4E8DF80240102533
:100B20008DF803506946304600F0C8FC2801ADF846
:100B300000008DF802408DF803506946304600F001
:100B4000BDFCE802ADF800008DF803508DF80240BE
:100B500069460F4800F0B2FCA801ADF800008DF81E
:100B6000024014258DF803506946304600F0A6FC7B
:100B70004FF48040ADF800008DF802408DF803502E
:100B80006946304600F09AFCF8BD000000140140B0
:100B9000000C014010B50446522002F009F8302044
:100BA00002F006F8022002F003F8062002F000F836
:100BB000082001F0FDFF2046BDE8104003F096BB81
:100BC00070477047704770477047704770470029FB
:100BD000016802D041F0010101E021F00101016052
:100BE0007047000000B502460021FFF7F0FF00202B
:100BF000106050609060D060184B1848D11A44388B
:100C00009A421ED00ADC1649511812D0142914D069
:100C100028290DD1416841F4706108E0142914D0ED
:100C2000282916D03C2903D1416841F07061416008
:100C300000BD416841F00F01F9E7416841F0F00162
:100C4000F5E7416841F47041F1E7416841F47021F2
:100C5000EDE7416841F47001E9E70000440002401B
:100C6000F8FFFDBF30B5036847F6F07293430C6A96
:100C70008A682243D1E904452C4322438C692243EC
:100C8000CC6922434C6A22438C6A22431A43026095
:100C9000CA6842600A6882604968C16030BD00006D
:100CA00038B504466A460121802001F0DDFE9DF83A
:100CB0000000010604D500F07F01802002F0BEFC98
:100CC0009DF80000294D00F00F01C0F3021000EB69
:100CD000800001EB400020702978884212D138282A
:100CE00001D2C01C2070C2B20A21B2FBF1F001FB9C
:100CF000102141EA00108DF8000000F07F018020F3
:100D000002F09CFC207828706A460121822001F0C4
:100D1000ABFE9DF800006A4600F00F01C0F3021020
:100D200000EB800001EB400060700121842001F0A5
:100D30009BFE9DF800006A4600F00F01C0F3021010
:100D400000EB800001EB4000A07001218A2001F03F
:100D50008BFE9DF8000000F00F01C0F3021000EBC5
:100D6000800001EB4000E07038BD000087030020E8
:100D700008B500B180208DF800006A4601218E2060
:100D800002F06CFC08BD08B50A23B1FBF3F203FBCB
:100D9000121141EA02118DF800106A46012102F099
:100DA0005DFC08BD1CB501AA0121C02001F05CFE5C
:100DB0009DF8040055280CD00EA009F045F900223A
:100DC0001146012003F0AAFA5521C02002F036FC9A
:100DD0001CBD6A460121802001F046FE9DF80000FE
:100DE00000F07F01802002F029FC0BA009F02CF913
:100DF0001CBD00006669727374206272696E6720A0
:100E000075702C206E65656420696E697420636C52
:100E10006F636B2E00000000647331333032206941
:100E20006E69742E2E2E000008B58020ADF80000EB
:100E300004208DF8030003208DF802006946024863
:100E400000F03CFB08BD00000010014008B5082080
:100E5000ADF8000048208DF8030003208DF8020053
:100E60006946034800F02AFB00F02AF808BD00009C
:100E70000018014008B58020ADF8000010208DF862
:100E8000030003208DF802006946024800F016FBBB
:100E900008BD00000010014008B50820ADF80000B2
:100EA00010208DF8030003208DF8020069460348E6
:100EB00000F004FB00F004F808BD00000018014039
:100EC0000020401C1428FCDB70474FF42570401EA6
:100ED000FDD270470020401C3228FCDB7047002206
:100EE00006E00021491C89B26429FBD3521C92B24E
:100EF0008242F6D37047704710B5FFF78BF914495B
:100F00000878401C0870FFF78EF94FF48064204683
:100F100000F08CF940B1204600F082F9022005F083
:100F200047FB204600F07CF94FF40064204600F0B7
:100F30007DF940B1204600F073F9032005F038FB3D
:100F4000204600F06DF9BDE8104000F065BE0000DD
:100F50006800002010B5FFF75DF916480178491CBC
:100F60000170FFF760F9022000F060F9E8B102209B
:100F700000F056F910480068012816D00F4C4FF4C5
:100F80000041204600F006FB78B16114204600F0D5
:100F900001FB50B10A48007838B90A480068407A25
:100FA0008A2802D0084901204870BDE8104000F0AE
:100FB00033BE000068000020CC0000200018014073
:100FC000D7000020C8000020040000207047000067
:100FD00070B5FFF71FF92F490878401C0870FFF71C
:100FE00022F9082000F022F920B3082000F018F9B7
:100FF000294D2868294CF0B1286829490968884298
:1010000021D12868401C2860002101200CF040F903
:10101000FFF700F9E168606A401AE060E06860612B
:10102000FFF701F91F480078012817D01E48007803
:10103000012817D00EE0FFF7EDF8606AE0600020AD
:10104000A061FFF7F0F8FFF7E5F82868401C28607A
:10105000FFF7E9F8BDE8704000F0DEBD134806F088
:1010600077F9F7E7124800780228F3D111480068B1
:101070000D28EFD110480088A0F5A8515539E9D1C5
:101080000A4806F065F90948C0798828E2D109F0D4
:1010900019FBDFE768000020F000002004000020BA
:1010A000F4000020D7000020D5000020901E002072
:1010B000D8000020CC000020E800002070B5FFF729
:1010C000A9F82F490878401C0870FFF7ACF81020E9
:1010D00000F0ACF820B3102000F0A2F8294D2868E9
:1010E000294CF0B1286829490968884221D128682B
:1010F000401C2860002108460CF0CAF8FFF78AF867
:10110000A168606A401AA060A0682061FFF78BF8B0
:101110001F480078012817D01E480078012817D0F2
:101120000EE0FFF777F8606AA0600020A062FFF78A
:101130007AF8FFF76FF82868401C2860FFF773F80B
:10114000BDE8704000F068BD134809F0CFFBF7E739
:10115000124800780228F3D1114800680D28EFD119
:1011600010480088A0F5A8515539E9D10A4809F07E
:10117000BDFB094880798828E2D109F0A3FADFE7AE
:1011800068000020EC00002004000020F400002093
:10119000D7000020D5000020901E0020D80000209D
:1011A000CC000020E800002010B5FFF733F8174905
:1011B0000878401C0870FFF736F8202000F036F859
:1011C00020B1202000F02CF802F024FC4FF48074B1
:1011D000204600F02BF830B1204600F021F80C49F1
:1011E0000878401C08704FF40074204600F01EF888
:1011F00040B1204600F014F8012005F0D9F920464E
:1012000000F00EF8BDE8104000F006BD68000020B8
:1012100004000020014908607047000014040140E8
:10122000014908607047000014040140064A014665
:1012300000201268044B0A4014331B680B4202D092
:10124000002A00D0012070470004014030B5144C42
:10125000017985790B1902681968F5B11143196094
:101260000F4B083319680268914319601A1D116801
:101270000568A94311604179102905D0214400680F
:101280000A6802430A6030BD196804682143196086
:10129000116800680143116030BD9143196030BD91
:1012A000000401400149C86070470000002002406E
:1012B00070B5054640F6FF76304600F07FF804280A
:1012C00013D10A4C206940F0020020616561206959
:1012D00040F040002061304600F070F8012804D052
:1012E000216941F6FD721140216170BD002002406C
:1012F00008490420CA68D20701D001207047CA6893
:10130000520701D502207047C968C906FBD50320E2
:101310007047000000200240704700000248016949
:1013200041F08001016170470020024004490A68D1
:1013300022F010020A600A6802430A607047000047
:10134000002002402DE9F04106460D460F2000F036
:1013500035F8042816D10C4C206940F001002061BA
:1013600035800F2000F02AF841F6FE77042804D1DA
:10137000280C70800F2000F021F8012802D021698C
:1013800039402161BDE8F0810020024004490A682B
:1013900002F038020A600A6802430A6070470000DF
:1013A0000020024003480249416003494160704700
:1013B0002301674500200240AB89EFCD2DE9F041C4
:1013C0000446FFF795FF114D114E124FDFF848808C
:1013D00012E000F0FBF82868401C28603068401CD0
:1013E00030603868401C3860D8F80010491CC8F8D4
:1013F0000010FFF77DFF641E012804D0002C00D1EF
:101400000520BDE8F081002CE3D1F9E7900300202E
:10141000B8000020B0000020C40000201B4A10B516
:10142000811A1315904222D00BDC1949401817D0AD
:1014300098422AD10121082001F0A8F800210820B3
:101440000AE099421AD0B1F5006F1ED10121402067
:1014500001F09CF800214020BDE8104001F096B852
:101460000121042001F092F800210420F4E7012179
:10147000102001F08BF800211020EDE70121202041
:1014800001F084F800212020E6E710BD00100140A3
:1014900000F8FEBF10B58A0721F003040649120FB9
:1014A00021440F238C6893409C438C608B68904050
:1014B00003438B6010BD000000000140F0B5CC7804
:1014C000002204F00F03E40601D58C7823430C8836
:1014D0004FF00F0C14F0FF0F4FF0010E19D00568FC
:1014E0000E880EFA02F42640A6420ED196000CFA9F
:1014F00006F7BD4303FA06F63543CE78282E00D111
:101500004461CE78482E00D10461521C082AE7D3EA
:1015100005600A88FF2A1DD94568002202F10806E5
:101520000EFA06F40E882640A6420FD196000CFA59
:1015300006F725EA070703FA06F5CE783D43282E7D
:1015400000D14461CE78482E00D10461521C082A93
:10155000E4D34560F0BD000070B50D4E7268C0F375
:10156000034583B2840202D522F0E06207E0C402A0
:1015700004D5032404FA05F4A24300E09A4329B1F8
:10158000800202D542EA034200E01A43726070BD55
:10159000000001400246002092680A4200D001206B
:1015A00070471AB102690A430261704742690A43EF
:1015B00042617047704770477047704702494CF668
:1015C000CC400860704700000030004002494AF6F5
:1015D000AA200860704700000030004001494860C0
:1015E00070470000003000400149886070470000EB
:1015F00000300040014908607047000000300040A2
:101600002DE9F8430820ADF800000325DFF8C88075
:101610008DF80250102700248DF80370694640466B
:10162000FFF74CFF0426ADF800608DF802508DF8EE
:10163000037069464046FFF741FF2020ADF80000E7
:101640008DF803608DF8025069464046FFF736FF7B
:10165000002001F0A9FB05462046641CE4B20A28DC
:1016600006D91EA008F0F0FCFF2000F0BDFC05E04C
:1016700000220A231146104600F01CFDE52DE7D19B
:1016800029461BA008F0E0FC0B21312001F0A5FB4E
:10169000010002D018A008F0D7FC0A212C2001F08C
:1016A0009CFB010002D019A008F0CEFC28212D20BF
:1016B00001F093FB010002D018A008F0C5FC8421C2
:1016C000382001F08AFB010004D0BDE8F84318A0DF
:1016D00008F0BABCBDE8F8830018014043616E27EA
:1016E000742066696E64206164786C333435000060
:1016F00049443A2564000000B2E2C1BFB7B6CEA7A4
:10170000C9E8D6C3CAA7B0DC2C256400CBD9C2CAAD
:10171000C9E8B6A8CAA7B0DC2C256400D1A1D4F1D1
:10172000B5E7D4B4C4A3CABDCAA7B0DC2C256400F5
:101730004649464F204D4F4445204552522C256482
:10174000000000002DE9F8430BF00AFDC020ADF8C1
:1017500000001825DFF890808DF8035003268DF8DF
:10176000026069464046FFF7A9FE4120ADF800003F
:101770001E4F10248DF8034069463846FFF79EFE41
:10178000002201213846FFF70CFF00224021384695
:10179000FFF707FF6801ADF800008DF803508DF8E2
:1017A000026069464046FFF789FE0C20ADF8000054
:1017B00004208DF8030069463846FFF77FFEE001FC
:1017C000ADF800008DF8034069460948FFF776FE42
:1017D0002002ADF800008DF8034069464046FFF74F
:1017E0006DFEBDE8F8830000000C014000180140C8
:1017F00000080140FEB5284C7F250022012120462B
:10180000FFF7CFFE002240212046FFF7CAFE234EFD
:10181000304601F05DFCA0150021ADF80400ADF8E4
:101820000810ADF80610ADF80A1001A9304601F015
:1018300029FD01222421304601F019FD5024002207
:101840002B4611463046009401F0F2FC2B46012253
:1018500000213046009401F0EBFC2B4602220021CF
:101860003046009401F0E4FC2B4603220021304670
:10187000009401F0DDFC0021304601F05BFC00210A
:10188000304601F05EFC0121304601F00DFC0121E3
:10189000304601F011FCFEBD001801400008004078
:1018A00070B5FEF7E9FFA620FEF7BCFF0446322024
:1018B000FEF7B8FF44EA4004FEF7DEFFA720FEF77C
:1018C000B1FF44EA8000C6B200240A4DFEF760FF73
:1018D0002855052C0CD00020FEF784FF641CE4B2D0
:1018E000062CF3D3FEF7E8FFFFF7EFFA304670BDA2
:1018F0000120F1E7A203002038B500214FF000607D
:1019000000F0D2F84FF4C06000F0C4F825208DF844
:10191000000001248DF801408DF80240684600F077
:101920007BF827208DF8000003258DF801508DF8F5
:101930000250684600F070F817208DF800008DF80E
:10194000014002208DF802008DF80340684600F047
:1019500063F828208DF800008DF801408DF80250C2
:101960008DF80340684600F057F809208DF8000014
:101970008DF801508DF802508DF80340684600F054
:101980004BF807208DF800008DF801508DF80240CB
:101990008DF80340684600F03FF80A208DF80000FB
:1019A0008DF801408DF802408DF80340684600F044
:1019B00033F812208DF800008DF8014004208DF8D6
:1019C00002008DF80340684600F026F80522012148
:1019D000044800F073F800200BF087FC01200BF0A6
:1019E00084FC38BD9AC3020009490020431E0B60E5
:1019F00040F2FF724A60C1F80031C1F80421054A83
:101A0000014642F82010401C0B28FAD37047000012
:101A100080E100E000E400E0F0B50F23C278017837
:101A200001264FF0E0273AB3184A126802F4E06248
:101A3000C2F5E062120AC2F10404D3404278A24027
:101A400084781C40144323018A0721F00304D20E3A
:101A50000F49934065182C68FF2191408C430B403F
:101A60001C432C60007800F01F018E40400907EBFA
:101A70008000C0F80061F0BD01F01F0086404809F9
:101A800007EB8000C0F88061F0BD00000CED00E0C5
:101A900000E400E002490843024908607047000082
:101AA0000000FA050CED00E0024A11400143024833
:101AB0000160704780FFFF1F08ED00E030B5114B5B
:101AC000FF241B6803F4E063C3F5E0631B0ADC40FA
:101AD000C3F10405A94022400A43110100F0C002ED
:101AE0009309C0F30120C0008140FF2282400548D5
:101AF0000C3000EB830003689343036002680A43E1
:101B0000026030BD0CED00E07047000030B587B0DA
:101B100000F080F8364B00249C621C705C705C7195
:101B20001C719C601C613349DC802046401CC0B2A3
:101B300021F8024B0528F9D39C70DC70DC6140F27F
:101B400094512D485C6100F0CCFB2A484FF482711F
:101B5000D43000F0C6FB2848002100F154023F2594
:101B6000426180F8445080F84540491C543054325A
:101B7000C9B21029F4D3446180F8445080F845403C
:101B80001D481C6298614FF43471A0F5956000F017
:101B9000A8FB1A48002100F1180204704260491C99
:101BA0001830183289B21D29F7D3047044601348E5
:101BB000D86000F0A9FB322102910320CDE9034057
:101BC0000C4A4FF6FF700C32CDE900024023C432BC
:101BD00000210B4800F014F905AA0AA1402000F0EA
:101BE00063F900F018F807B0BDE83040FFF78CBF8C
:101BF000680000209C06002074080020CC03002010
:101C0000ED24000875432F4F532D49492049646C3A
:101C1000650000007047704710B5134C207901280B
:101C200020D1FEF7F7FA207820B1401E10F0FF0017
:101C3000207013D1607888B900F0AAFBE078A17811
:101C400088420BD0094951F82000E061016B491C22
:101C50000163A068401CA060FEF70AFBBDE81040CD
:101C6000FEF7E1BA10BD00006800002070070020F8
:101C700070B50C4D0646287808B1002070BDFEF7FF
:101C8000C9FAEC680CB16068E860FEF7CCFA3CB1C8
:101C900001202070002020812046666000F016FBA5
:101CA000204670BD680000202DE9F0470546007809
:101CB00089461446012801D0012003E0234F3878DB
:101CC00010B1022010703EE0787808B11120F9E7D9
:101CD000FEF7A0FA6E684FF0000846B1C5F8048020
:101CE000FEF7A1FA84F800803046BDE8F0877869F5
:101CF00010F8261F41F00201017080F8018020F8E1
:101D0000029C284600F0BEFAFEF78DFA00F01EFB9A
:101D1000FEF780FA796991F8270001280CD00D6A46
:101D2000C1F8208081F82680C1F81C80FEF77BFA7C
:101D300084F800802846D8E7284600F033FAFEF7FA
:101D400072FA0A2020700020CFE70000680000200F
:101D500070B5044600780D46012801D0012070BD01
:101D6000FEF758FA608948B102222946204600F061
:101D700035FAFEF758FA00F0E9FA08E0606818B1A1
:101D8000FEF751FA142070BD6560FEF74CFA002092
:101D900070BD000070B50C4D0646287808B10020D3
:101DA00070BDFEF737FAEC680CB16068E860FEF7CA
:101DB0003AFA3CB103202070268100206060204662
:101DC00000F084FA204670BD6800002010B5094C70
:101DD000207900280CD100F0DBFAE0780649A070E9
:101DE00051F82000E0616061BDE81040FEF728BABC
:101DF00010BD000068000020700700207047000040
:101E00002DE9FF4F83B08346DDE91395DDE911A885
:101E10001C46FEF7FFF91E4F387828B1FEF703FA8B
:101E2000102007B0BDE8F08F1A4E56F8240018B104
:101E3000FEF7F9F92820F4E7012046F82400FEF720
:101E4000F2F92A464146504600F05EFBDDE90412F5
:101E50002B46584600F094F8CDF80080CDE9019566
:101E6000014652462046109B00F0D4FA050008D0E7
:101E7000FEF7D0F9002046F82400FEF7D4F92846F2
:101E8000CFE738790128FAD100F060FAF7E70000CF
:101E90006800002070070020704700000149012001
:101EA000086070470000002070B505460E461446D5
:101EB000FEF7B0F9FF2D03D11048406990F8285083
:101EC0000F4850F825300B2553B1012B08D0304670
:101ED00000F096FA0F2807D9FEF7A5F90E200BE0BF
:101EE000FEF7A1F9257070BD314603F1440000F002
:101EF00079FAFEF798F90020207070BD6800002084
:101F00007007002010B50446FEF784F91A4951F80D
:101F1000240058B101280DD090F826100A0727D5C3
:101F200031F0080180F8261008D009E0FEF77BF9AF
:101F3000642010BDFEF777F90B2010BD818C19B11C
:101F4000FEF771F9002010BD0C49C28DCB881A43F1
:101F5000CA80094A90F82A10D43A808D32F811309C
:101F6000034322F81130FEF75EF900F0EFF9E9E7DC
:101F7000FEF759F9652010BD7007002068000020A9
:101F80004FF080731360131FA2F1240218606FF0EA
:101F90000100D0614FF0123090614FF0033050617A
:101FA0004FF0023010614FF00130C2E902104FF0E3
:101FB000113050604FF0103042F804094FF00930F2
:101FC0001060A2F110004FF00831C1604FF00731EE
:101FD00081604FF0063141604FF0053140F804193F
:101FE0004FF004310160704770B50446FEF712F9F6
:101FF0001C4BFF2C586905D090F82800A04204D152
:10200000012503E090F82840FAE70025164850F82B
:10201000240068B101280FD0134C90F82A10D43C4A
:10202000868D34F81120B24324F8112008D00BE03B
:10203000FEF7F9F85A2070BDFEF7F5F80B2070BDD9
:10204000C28DD9889143D98010F8261F41F008012C
:102050000170FEF7E8F8012D01D100F077F90020BA
:1020600070BD00006800002070070020704700006D
:1020700070B5040018D0FEF7CDF80C4B0C4D596923
:1020800091F82A208E8D35F81200B04325F8120001
:1020900003D1CA8DD8889043D8808C84FEF7C3F8CA
:1020A000BDE8704000F052B970BD0000680000202B
:1020B0009C06002070B54FF47A746343B3FBF4F3CD
:1020C0004FF461646043C1EB011100EB81001044E7
:1020D00000EB4001C1EBC01003EBC000040C80B268
:1020E000FFF7C6FF4FF4004507E02846FFF7C0FFA3
:1020F0002846FFF7BDFF641EA4B2002CF5D10020D6
:1021000070BD000010B5FEF785F80348846AFEF73D
:102110008AF8204610BD00006800002070B5FEF768
:1021200079F81E4DA86A401CA862FEF77CF8287951
:10213000012831D12C6A2BE0FEF76CF8A08C20B37B
:10214000A0F101000004000CA0841ED194F8260028
:1021500010F0370F05D020F0370084F8260001205A
:1021600000E0002084F8270094F8260000070CD433
:10217000E08DE9880A4A0843E88094F82A00A38D94
:1021800032F81010194322F810106469FEF74BF86A
:1021900094F828004028CFD170BD000068000020CE
:1021A0009C06002010B50C4C626992F82A10928DA2
:1021B00000EB410399899143998104D16269418976
:1021C000D28D914341816069002100F11C00C172F0
:1021D0008172016010BD000068000020F0B54389E5
:1021E000254D13F0FF0F02D0DBB2EB5C04E005EBF2
:1021F00013231B780833DBB24FF0010C0CFA03F405
:1022000000EB4307A6B2BC8914F0FF0F04D004F022
:10221000FF0E15F80E5004E005EB14252D78083557
:10222000EDB20CFA05FC1FFA8CFC05EB031534EA41
:102230000C04EDB2BC8102D14489B44344810F48FF
:10224000002450F8250000F11C000481C0E9004181
:10225000C472817A914381720BD10948C18831439C
:10226000C1800648D43830F8131041EA0C0120F838
:1022700013102846F0BD0000CED8000870070020DB
:102280006800002070B50F4C0F4D6169C86191F86E
:102290002A208E8D35F81230B34325F8123003D141
:1022A000CB8DE2889A43E28091F82A20898D00EB59
:1022B000420293890B43938162694189D28D114314
:1022C000418170BD680000209C06002000224281F0
:1022D0000C301146491CC9B220F8022B0529F9D34C
:1022E0007047002203E0491E00F8012B89B2002943
:1022F000F9D1704705E011F8013B521E00F8013B8F
:1023000092B2002AF7D1704730B54FF434710D48BE
:10231000FFF7E7FF0B48002103460A463F2401EB85
:10232000C10503EB85052435456004754275491CDC
:10233000243089B21329F2D34260047542750248F1
:10234000436230BD080E00206800002010B5FDF784
:1023500061FF0D4C207898B9607888B900F018F8C2
:10236000E078A17888420BD0084951F82000E0615C
:10237000016B491C0163A068401CA060FDF771FF60
:10238000BDE81040FDF74FBF680000207007002037
:10239000114B10B5D888114A10F0FF0F02D0C0B20F
:1023A000105C04E002EB102000780830C0B20C4949
:1023B00031F8101011F0FF0F04D0C9B2515C01EBDD
:1023C000001006E002EB11210822097802EB001050
:1023D0000844D87010BD000068000020CED8000866
:1023E0009C060020002204E0491C521C00F8013B1E
:1023F000D2B20B78002BF7D1002101701046704744
:102400000146002002E0491C401CC0B20A78002AA4
:10241000F9D170472DE9F05F0646DDE90ABA0D46AD
:1024200090469946FDF7F6FE2E4FBC69002C54D01D
:1024300004F10C04A068B861FDF7F5FE44F80C5CEB
:1024400026770025A576E5762583C4F800B044E913
:1024500002A80C98A080A4F806903009A07701216A
:1024600001FA00F0608406F00F006077814021845B
:10247000256165616562E562A56225633F2065634C
:1024800084F8380084F83950A4F10C042046FFF792
:10249000B5FC2046FFF700FDFDF7BCFE124840F8F2
:1024A0002640386AC4E9050500B184613C62E08DCC
:1024B000F9880D4A0843F88094F82A00D43AA38D8D
:1024C00032F81010194322F810107879401C7871F6
:1024D000FDF7A9FE0020BDE8F09FFDF7A4FE462011
:1024E000F9E700006800002070070020054CFDF7A8
:1024F00091FE2069401C2061FDF795FEFFF7CEFCA0
:10250000F5E7000068000020D30707D0920705D543
:102510000022002902D004C0491EFAE77047704724
:10252000014908627047000000000E42044A002979
:10253000516901D0014300E08143516170470000BF
:1025400000100240044A0029D16901D0014300E093
:102550008143D1617047000000100240044A002905
:10256000116901D0014300E081431161704700000F
:1025700000100240044A0029916901D0014300E0A3
:10258000814391617047000000100240044A002915
:10259000D16801D0014300E08143D1607047000061
:1025A0000010024010B500F067F81020FEF7BEFEE4
:1025B0000220FEF7EBFE002000F022F9002000F0E0
:1025C00035F94FF4806000F027F94FF4E011002056
:1025D00000F03CF9012000F033F9392000F0F0F868
:1025E0000028FAD0022000F071F900F001F9082863
:1025F000FBD101217C20FFF7BDFF01210846FFF739
:10260000B9FF01210520FFF7B5FF01211648FEF7AC
:10261000A3FF01211548FEF79FFF01210846FFF7A0
:1026200085FF01214802FFF7A5FF01210420FFF7E4
:1026300089FF01210220FFF785FF01210C48FEF7E9
:102640008BFF01214FF0C050FFF77CFF0121C80232
:10265000FFF790FF01210748FEF77EFFBDE810401D
:102660000120FFF75DBF00000004300000023000D1
:10267000000C1A00C00016000E480021C160016164
:10268000142242618161C161026842F0010202606C
:102690004268094B1A4042600268084B1A400260C7
:1026A000026822F480220260426822F4FE02426044
:1026B00081607047001002400000FFF8FFFFF6FE47
:1026C00010B500210120FFF755FF00214FF0C05049
:1026D000FFF738FF0020FFF723FF00210120FFF75D
:1026E00049FF00210E48FEF737FF00210D48FEF795
:1026F00033FF00210120FFF719FF00214FF4007084
:10270000FFF738FF00210420FFF71CFF0021022003
:10271000FFF718FFBDE8104000210348FEF71CBF7B
:102720000004300000023000000C1A00204A10B5EE
:102730005168204B11F00C0103D0042901D0082965
:1027400001D0036011E05168022301F4701103EB22
:102750009141536813F4803F02D053689B0301D525
:10276000154B00E0134B594301605168134B01F0C6
:10277000F00109095C5C0168E1404160546804F4BF
:10278000E064240A1C5D21FA04F48460546804F4B3
:102790006054E40A1B5DD940C1605268074B02F4E3
:1027A0004042920B1B1F9A5CB1FBF2F1016110BD1C
:1027B0000010024000127A0000093D00AED8000867
:1027C000034600205909094A01290AD002290AD0E2
:1027D000516A03F01F02012393400B4200D00120F5
:1027E00070471168F5E7116AF3E700000010024036
:1027F0000248406800F00C007047000000100240E2
:10280000034A516821F0F001014351607047000014
:102810000010024070470000034A516821F4E06153
:10282000014351607047000000100240034A5168A4
:1028300021F4605141EAC00050607047001002402E
:10284000014908667047000000004242034B5A6885
:10285000084322F47C121043586070470010024075
:1028600010B501210846FFF785FE01214FF0C05049
:10287000FFF768FE0120FFF753FE01210846FFF72E
:1028800079FE01210E48FEF767FE01210D48FEF793
:1028900063FE01210846FFF749FE01214802FFF7C8
:1028A00069FE01210420FFF74DFE01210220FFF700
:1028B00049FEBDE8104001210348FEF74DBE00006F
:1028C0000004300000023000000C1A00034A516876
:1028D00021F00301014351607047000000100240E5
:1028E00008B54FF40040ADF8000004208DF8030057
:1028F00003208DF8020069460148FEF7DFFD08BDA0
:102900000008014008B54FF48060ADF800000420D5
:102910008DF8030003208DF8020069460148FEF798
:10292000CDFD08BD0010014008B54FF48060ADF842
:10293000000010208DF8030003208DF80200694686
:102940000148FEF7BBFD08BD00100140704770470D
:102950002DE9F041002717800F80044607800D46BF
:102960001646392000F020FA00F03F00042808D273
:102970000022052311461046FFF79CFB0020BDE80E
:10298000F081FEF78DFF70B903F0ECFA218808445E
:10299000208003F0F1FA29880844288003F0F6FA31
:1029A0003188084430807F1CFFB2042FE9D3B4F98A
:1029B0000000C11700EB917080102080B5F9000075
:1029C000C11700EB917080102880B6F90000C11784
:1029D00000EB9170801030800120D0E72DE9F041AC
:1029E00004460020108008800D461646208005E031
:1029F0000022322311461046FFF75CFB392000F01D
:102A0000D3F900F03F000428F2D30027FEF748FF77
:102A100070B903F0A7FA21880844208003F0ACFACB
:102A200029880844288003F0B1FA318808443080AE
:102A30007F1CFFB2042FE9D3B4F90000C11700EBEB
:102A4000917080102080B5F90000C11700EB9170E3
:102A500080102880B6F90000C11700EB917080103B
:102A60003080BDE8F08100002DE9F0472B4F06468D
:102A7000894692460024224640213846FEF791FDC1
:102A800001200AF025FDBD15002229463846FEF733
:102A900088FD01200AF01CFD012240213846FEF786
:102AA00080FDFEF7E7F9761CF0B200F04DF9FEF775
:102AB000BBF901200AF00CFD0026A84620E0002505
:102AC00080213846FEF766FD08B144F080040122FB
:102AD00041463846FEF765FD01200AF0F9FC002268
:102AE00041463846FEF75DFD01200AF0F1FC6D1C01
:102AF0006408EDB2082DE3D30AF80640761CF6B25E
:102B00004E45DCD3012241463846FEF74AFD3846A1
:102B1000BDE8F04700224021FEF743BD0010014010
:102B200010B5052406E0072C04D0052C02D0204661
:102B3000FFF7E8F9641CE4B20A2CF4D910BD0000D8
:102B40002DE9F047804689466320FDF7D1FCF0204F
:102B5000FDF7F8FCC020FDF7F5FC0022022311462A
:102B60001046FFF7A7FA104F104D00244FF400460F
:102B700031463846FEF70EFD78B100220223114699
:102B80001046FFF797FA2868641C401CE4B22860DE
:102B90000A2CEDD30020BDE8F0874946404607F0F7
:102BA0009BFD0120F7E7000000080140B000002075
:102BB00010B5044600F030F90421802000F094F8AC
:102BC0002046BDE8104000F0BBB810B5044600F048
:102BD00023F90421A02000F087F82046BDE810402A
:102BE000052100F081B87047704700000B4B0020B2
:102BF0004FF0A5311963024683F8340003EB8001DE
:102C0000401C01F8352FC0B24A708A70CA7007287C
:102C1000F4D30248303000F003B80000B82200209E
:102C20002DE9F04389B0014624226846FDF766FB92
:102C30001F496D46042608780028FDD101228846E8
:102C40000A70FEF7AFFB01273520FEF72BFB0024AF
:102C5000DFF860900AE00022012311461046FFF7DA
:102C600029FA4846FEF724FB0646641CBC4201D202
:102C7000042EF0D00F4F4C4628370DE000220123E0
:102C800011461046FFF716FA02CD2046FEF75AFB12
:102C9000241D0646BC4201D8042EEFD0FEF73EFBB1
:102CA000002188F8001009B00846BDE8F083000054
:102CB000D100002000A00108042801D3021F01E078
:102CC000C0F10402D2B2042901D30B1F01E0C1F10B
:102CD0000403DBB29A4202D340F0080101E041F064
:102CE00008012520FDF746BC2DE9F047054688463A
:102CF00000244FF4004ADFF840904FF480760F4FE5
:102D000016E0280601D4002200E001225146484680
:102D1000FEF747FC012231463846FEF742FC00220E
:102D200031463846FEF73DFC6806050E641CE4B2E9
:102D30004445E6D3BDE8F087000C01400014014093
:102D40000821FFF7D1BF00002DE9F0410546FEF74D
:102D500091F8FDF75FFA134F00244FF480760022BC
:102D600031463846FEF71DFC15F0010F01D0012257
:102D700000E0002280213846FEF713FC6D08012098
:102D80000AF0A6FB012231463846FEF70AFC012074
:102D90000AF09EFB641CE4B2082CE0D3BDE8F041CD
:102DA000FDF741BA0010014010B50446FDF764FD7F
:102DB000A620FDF737FD2046FDF734FDFDF75CFD4D
:102DC000A720FDF72FFDFDF7E3FC04460120FDF7EA
:102DD00009FDFDF771FD204610BD70B506460D4694
:102DE000FDF74AFDA620FDF71DFD04463046FDF720
:102DF00019FD44EA40042846FDF714FD44EA80002A
:102E0000C4B2FDF759FD2CB93046FFF7CDFFA842FB
:102E100000D0FF24204670BD70B50122134D54022E
:102E200021462846FEF7BDFB012216023146284600
:102E3000FEF7B7FB0122D1030D48FEF7B2FB0022DB
:102E400021462846FEF7ADFB002221462846FEF724
:102E5000A8FB002231462846FEF7A3FB3146284650
:102E6000BDE870400022FEF79CBB0000001401404A
:102E7000000C014010B5FDF7CDF90E490878401C53
:102E80000870FDF7D0F9FFF749F90B48416A491C72
:102E900041620A480168491C01604168491C41605F
:102EA0008168491C8160C168491CC160BDE810404F
:102EB000FEF7B2BE6800002004000020BC03002022
:102EC0004FF0E0210428086903D020F004000861D5
:102ED000704740F00400FAE74FF0E02130B10128DC
:102EE000086906D020F00100086170470020886161
:102EF000704740F00100F7E74FF0E020806970472D
:102F00004FF0E0210028086902D040F0020001E003
:102F100020F00200086170474FF0E02148617047DF
:102F2000704700000149C8617047000000802542D9
:102F3000802000F00FB810B5022000F00BF804203C
:102F400000F008F8082000F005F8BDE81040102057
:102F5000AFF3008002490A8882430A80704700006C
:102F6000102C014001490860704700000080254294
:102F70000149086070470000BC88254210B5012156
:102F8000CC022046FFF702FB2046BDE8104000219E
:102F9000FFF7FCBA0649024600200988054B11429A
:102FA0001B8803EA020302D0002B00D001207047E7
:102FB000102C01400C2C0140104B10B51988104CFE
:102FC00000222260028801F47F410A431A8041886E
:102FD00021600B4A818808321160121F018911603B
:102FE000074A41890C321160064982890A60C28908
:102FF0004A600549C088088010BD0000182C0140B7
:1030000000842542A0802542342C014001490860FB
:10301000704700000C8325422020FFF79BBF000073
:103020000B4A81881180121F0188118008492C39B0
:103030000A8802F09F020A80C28843881A430B88DC
:103040001A430A800249007A091D0880704700006F
:103050002C2C014010B50120FFF79CFF002804D064
:10306000BDE810400120FFF775BF10BD70477047E5
:1030700010B5074C1021204600F050F8002805D06C
:103080002046BDE81040102100F012B810BD00002D
:1030900000080040028811B142F0800202E040F2D4
:1030A0007F310A4002807047028A8A430282704759
:1030B000028A8A43028270470029018802D041F0C7
:1030C000010102E040F2FE32114001807047000031
:1030D00010B5B0F1804F0FD00F49401813D0B0F5A4
:1030E000806F17D101210420FFF738FA0021042056
:1030F000BDE81040FFF732BA01210846FFF72EFA6B
:1031000000210120F4E701210220FFF727FA002126
:103110000220EDE710BD000000FCFFBF02460020CA
:10312000138A92890B4202EA010202D0002A00D0DF
:1031300001207047828B4FF6F7731A400A4382834F
:103140007047828B4FF2FF731A4042EA012181835C
:1031500070470000F0B5038C344C4A8804F108062F
:1031600032B1012A04D0022A2FD0032A2DD049E0FF
:10317000058B34F812402C4036F812501D40002ABE
:10318000028C11D043F223331A4002840A888B88C0
:1031900044EA022203870B8903B11023C9882B4319
:1031A00043EA011302832DE043F232331A400284D2
:1031B0000A888B88224383860B890BB1012400E0A7
:1031C0000024CB882C432343ECE7878B34F8125040
:1031D00036F812403D401C40022A028C14D042F2C4
:1031E00033331A4002840A888B8845EA0222A0F809
:1031F00040300B890BB14FF48053C988234343EA15
:10320000013382830384F0BD43F233231A400284E6
:103210000A888B882A4383870B890BB14FF480730C
:10322000C988234343EA0123EBE70000BED8000826
:103230003EB50129069C06D00021ADF80810FF2BF1
:1032400005D9FE2306E095000121A940F5E7052BED
:1032500000D20523ADF804300221ADF80220ADF80C
:103260000610ADF800406946FFF774FF3EBD0185CA
:10327000818A012A03D001F001018182704741F067
:103280000101FAE70A8882854A880285028802F0ED
:103290008F0202808A88C9880A4301880A43028013
:1032A0007047000010B5FFF77DF9FEF79DFBFEF7B4
:1032B00023FB0848FEF7B2F80748FEF7AFF80748C7
:1032C000FEF7ACF80648FEF7A9F8BDE8104005483F
:1032D000FEF7A4B800080140000C014000100140B6
:1032E000001401400018014010B50420FFF7E8FD6C
:1032F00049F63460FFF710FE0120FFF701FEBDE83C
:1033000010400120FFF7E8BD30B5012187B08803E8
:10331000FFF730F94FF40074ADF8184003208DF832
:103320001A0018201C4D8DF81B0006A92846FEF730
:10333000C5F86100ADF8181004218DF81B1006A91E
:103340002846FEF7BBF84FF4E130009000200C2136
:10335000ADF81000ADF80C10ADF81240ADF8040057
:10336000ADF808000D4CADF80600ADF80A00ADF858
:103370000E00ADF814006946204600F0DDF8012289
:1033800040F22551204600F0BEF80121204600F011
:103390008AF807B030BD0000000801400038014045
:1033A0002DE9F041FCF736FF16490878401C0870FB
:1033B000FCF739FF144F40F225563146384600F0ED
:1033C00083F8D0B1384600F005F9104D0146EC1EE7
:1033D000A0782954401CA0703146384600F05CF8B3
:1033E00000223146384600F08EF800200849A070CF
:1033F00001200870074928780870BDE8F041FEF701
:103400000BBC0000680000200038014007000020CD
:10341000980000209900002010B5FCF7FBFE05483D
:103420000178491C0170FCF7FEFEBDE81040FEF774
:10343000F3BB00006800002070B5FCF7EBFE1348FA
:103440000178491C0170FCF7EEFE114C40F2255545
:103450002946204600F038F8A0B1204600F0BAF81E
:103460000C4B1A785968885419789878401E814214
:1034700001D1002201E01A78521C1A702946204618
:1034800000F00AF8BDE87040FEF7C6BB68000020F7
:103490000048004054000020090A01228A400188A7
:1034A0009143018070470029818902D041F4005185
:1034B00001E021F40051818170470246002012880A
:1034C0000A4200D00120704770B501F01F060125A7
:1034D0000024C1F3421305FA06F2012B0FD0022B90
:1034E0000FD0838A4FEA11210088134205FA01F5B3
:1034F00000EA050001D000B10124204670BD838997
:10350000F0E7038AEEE710B5C1F3421301F01F04A0
:103510000121A140012B07D0022B07D01430002A33
:10352000026805D00A4304E00C30F8E71030F6E7F3
:103530008A43026010BD000030B50C46018A85B098
:1035400005464CF2FF000140E088E289638A10439F
:10355000228A1A431043A28A104308432882A98969
:103560004EF6F3100140A08822891043A2890A4335
:103570001043A881A98A4FF6FF40014060890843A3
:10358000A8826846FFF7D2F81148854201D1039816
:1035900000E00298642200EBC00101EB00102168FA
:1035A0006FF018048900B0FBF1F0B0FBF2F10901F3
:1035B0000B09634300EB8300322303EB0010B0FBE5
:1035C000F2F000F00F000843288105B030BD000084
:1035D000003801408088C0F30800704710B50978B2
:1035E0008180044C80212046FFF767FF0028F9D036
:1035F00010BD000000380140704770477047000060
:1036000008B54FF48040ADF8000010208DF803009D
:1036100003208DF8020069460148FDF74FFF08BD01
:10362000000C014070477047704770B505460C4666
:103630002846FCF739FF2042FAD170BD38B5044660
:103640008DF800100020FDF793FB6A46012120460B
:1036500000F004F80120FDF78BFB38BD2DE9F047A1
:10366000184F80460D461646002422464021384613
:10367000FDF797FF012009F02BFF4FF4807900221E
:1036800049463846FDF78DFF012240213846FDF7B7
:1036900088FFFDF7EFFB4046FFF756FB04E0305D87
:1036A000FFF752FB641CE4B2AC42F8D30022402185
:1036B0003846FDF776FF49463846BDE8F047012217
:1036C000FDF76FBF001001405060C0E900210860A5
:1036D00070470000F8B54FF40060ADF80000032417
:1036E000174E8DF8024010258DF80350694630467C
:1036F000FDF7E4FEA801ADF800008DF803508DF849
:10370000024069463046FDF7D9FEA802ADF8000038
:103710008DF803500B4D8DF8024069462846FDF7A1
:10372000CDFE4FF40041ADF8001004208DF80300E9
:103730008DF8024069462846FDF7C0FEF8BD00003E
:10374000001001400008014010B509F00BF8FCF72B
:10375000CBFE0022142311461046FEF7ABFCFCF70B
:10376000CBFEFCF777FEFCF738FE02230022BDE813
:10377000104011461046FEF79DBC000070B50025B4
:1037800086B02C4629461E20FFF727FB00211F206C
:10379000FFF723FB0022642311461046FEF78AFC44
:1037A000594E04AA69463068401C306002A8FFF7F1
:1037B00015F90022642311461046FEF77BFC3068A1
:1037C00004AA401C306001A903A8FFF707F9BDF85F
:1037D0000800BDF80C10BDF80420401ABDF8001018
:1037E00000B2891A09B2002801DA404200B2002969
:1037F00001DA494209B20A2826DA0A2924DA641CC5
:10380000E4B2032C21D3BDF90800BDF90C103F4CE4
:10381000084400EBD070401000B2E080BDF9001009
:10382000BDF904200025114401EBD171491021811B
:10383000002816DB402803DD35A006F005FC2570C6
:10384000B4F9061038A017E0002400220A2311461C
:103850001046FEF72FFC6D1CEDB20A2DA1D306B069
:1038600070BD10F1400F03DA29A006F0EDFB2570C2
:10387000B4F90600414230A006F0E6FBB4F90810A6
:10388000002901DB30A001E0494233A006F0DCFB57
:10389000B4F906006FF00305A84201DD04280DDB32
:1038A0004042C11700EB9170C0F387011E20FFF763
:1038B00094FA010002D02CA006F0C6FBB4F908006F
:1038C000A84201DD04280DDB4042C11700EB9170D6
:1038D000C0F387011F20FFF780FA010002D02DA05E
:1038E00006F0B2FB1E20FFF75FFA014634A006F097
:1038F000ABFB1F20FFF758FA014634A006F0A4FBEB
:1039000001206070ABE70000C40000209803002095
:103910006164786CD3D0CEF3A3ACCAA7D0A7B8C4E7
:10392000D0BEC6AC00000000D0A3D7BCB6C1B3F671
:10393000783A256400000000D0A3D7BCB6C1B3F626
:10394000783A2D2564000000D0A3D7BCB6C1B3F6E9
:10395000793A256400000000D0A3D7BCB6C1B3F605
:10396000793A2D25640000005820C6ABD2C6C1BFED
:1039700020B8F9BEDDB2E2CAD4B4ABB8D0C6F7B550
:10398000C4D7B4CCACD0B4C8EBCAA7B0DC2C256487
:10399000000000005920C6ABD2C6C1BF20B8F9BE96
:1039A000DDB2E2CAD4B4ABB8D0C6F7B5C4D7B4CC94
:1039B000ACD0B4C8EBCAA7B0DC2C25640000000072
:1039C000307831453A0909092564000030783146DC
:1039D0003A090909256400001CB5FCF71BFC052108
:1039E0000420FDF757FD2020009000208DF80400F2
:1039F00008218DF805108DF806006846FDF726FCB5
:103A00002020FDF70DFC2020FDF704FCFCF70BFC4B
:103A10001CBD0000014901208870704798030020F8
:103A20000EB50024254629A006F00EFB00226423D3
:103A300011461046FEF73EFBFDF7E2FDFFF7CCFF17
:103A4000264E7078B0B13078B0B102AA01A96846AC
:103A5000FEF77EFF0028F4D0F07878B12048007897
:103A600060B1BDF9000010F1100F0FDA322C14D83C
:103A7000A41C11E000F03CF8642301E000241423AE
:103A8000002211461046FEF715FBDAE7102801DD8B
:103A9000002403E00CB1641EE4B20025082802DD16
:103AA000284405B203E010F1080F00DA0025322C9B
:103AB00007D30CA006F0C8FA012006F07FFC002412
:103AC000BFE7702DBDDD0025BBE700006164786CA9
:103AD000333435207461736B2E2E2E009803002032
:103AE000D50000202A2A2AC7E3D0B12A2A2A0000BA
:103AF0002DE9F04110213D48FDF74CFD002861D033
:103B00004FF400413A48FDF745FD00285AD03948A6
:103B10000078662856D1384E4FF480750022294629
:103B20003046FDF73EFD6F01002239463046FDF775
:103B300038FD00220A2311461046FEF7BBFA052184
:103B40002E4800F061F82E4C0721A0862B4800F08B
:103B50005BF860860321294800F056F82086012290
:103B600029463046FDF71DFD012239463046FDF756
:103B700018FD00220A2311461046FEF79BFA052184
:103B80001E4800F041F8E08707211C4800F03CF88F
:103B9000A0870321194800F037F800B26087B4F914
:103BA0003E10B4F934200A398A420BDCB4F93010E3
:103BB0000A38814206DCB4F93C00B4F932100A3804
:103BC000814202DD0020BDE8F08100224FF49673AF
:103BD00011461046FEF76EFAFFF7D0FD094841780E
:103BE00009B9002101700120EDE70000000C01403F
:103BF00000100140FC1E002000080140D81C0020DD
:103C0000901E00209803002070B50026344640F630
:103C1000FF75334600EB410000EB431131F8022CF5
:103C2000944200D21446954200D915465B1C9BB2C3
:103C300016440C2BF0D3301B401B0A21B0FBF1F0D3
:103C400080B270BD0F4A10B551790020072901D00C
:103C5000084614D80C490123834091F834401C4293
:103C60000DD001EB8000937990F835108B4206D18E
:103C7000D17990F83600814201D1012010BD002099
:103C800010BD0000581E0020B822002070B509F0B9
:103C9000D9FA134D114828600121084609F0F8FAB5
:103CA0000022142311461046FEF704FA0D4C216839
:103CB0000DA006F0C9F92068052805D900230122C6
:103CC00019461846FEF7F6F90021012009F0E0FA3E
:103CD00000202860BDE8704009F0B4BA70640800A4
:103CE000F4000020F00000206C6566743A09092594
:103CF0006400000010B5114986B004001BD01422E6
:103D00006846FEF7F7FA0E480099814204D10398FD
:103D10004FEA3141884209D00A4901200870204603
:103D200009F022FB204600F00FF804E01422694657
:103D30002046FEF7DFFA06B0002010BD0090010813
:103D40005555AAAAD00000202DE9F04700283CD004
:103D50001F490546042648780028FDD101228946DE
:103D60004A70FDF71FFB01273520FDF79BFA002461
:103D7000DFF860800BE00022012311461046FEF7B9
:103D800099F908EBC420FDF793FA0646641CBC427F
:103D900001D2042EEFD00F4F444618370DE0002219
:103DA000012311461046FEF785F902CD2046FDF7A6
:103DB000C9FA241D0646BC4201D8042EEFD0FDF7F7
:103DC000ADFA002189F801100846BDE8F08700002F
:103DD000D00000200090010810B50648FDF748FF0C
:103DE0000549086108B1002010BD04A006F02CF9B7
:103DF000012010BD641E0020A400002063726561D4
:103E000065206D626F78206661696C6564200A00C8
:103E10000022642311461046FEF74CF909F048FCD5
:103E20000022142311461046FEF744F9FDF7CEFB9D
:103E3000F6E7000010B50446002060718878207114
:103E4000087A2072487A60720122091DE01DFEF78F
:103E500051FA054820604FEA3040E0602046BDE856
:103E60001040FFF771BF00005555AAAA7047704770
:103E70007047000010B50020FDF78CFF0149086075
:103E800010BD0000940000202DE9F04186B04027CD
:103E90005248CDE9010705200025009003264F4A2E
:103EA000CDE903560346FC3229464D48FDF7A8FFED
:103EB0004C48CDE9010708200090484ACDE9035657
:103EC0000346121F00214848FDF79AFF0446DFF819
:103ED0001C8105E000220A2311461046FEF7EAF88D
:103EE00098F800000028F5D01CB1214640A006F04B
:103EF000ABF802AA4FF4807061C243490620CDE9B5
:103F00000001034601F57F7200214048FDF778FF6C
:103F1000010002D036A006F097F83D48CDE9010730
:103F2000092000903A4ACDE903560346FC320021AD
:103F30003848FDF765FF010002D02DA006F084F897
:103F40003548CDE9010707200090264ACDE9035600
:103F50000346121F00213148FDF752FF010002D035
:103F600023A006F071F82E48CDE901070A20009041
:103F7000274ACDE903560346121F00212948FDF7C1
:103F80003FFF010002D01AA006F05EF82648CDE9F6
:103F900001070B200090244ACDE903560346FC326A
:103FA00000212248FDF72CFF2148CDE901070F2011
:103FB00000901F4ACDE903560346FC3200211D48FC
:103FC000FDF71EFF010005D006B009A0BDE8F041D5
:103FD00006F03AB806B0BDE8F0810000D813002022
:103FE000113E0008D8120020D9640008A400002067
:103FF0006372656174652065786974206661696CB7
:104000003A09256400000000D8140020CD9B000868
:10401000D8190020BD9F0008D81100209D6A000813
:10402000D8180020AD940008D81A00200D410008CF
:10403000D81B0020213A00087047704770B50B4D1F
:104040004FF4006421462846FDF7A4FA30B1610020
:104050002846FDF79FFA08B1022070BD2146284688
:10406000FDF798FA0028F8D0012070BD0014014037
:104070000D4810B50078662803D00C48007B022854
:1040800001D0002010BD05F07FFC05F0C1FB05F05C
:1040900081FA05F035FA06488078882801D005F0C5
:1040A0002BFC05F0CDFAECE7FC1E0020901E002052
:1040B00058030020F0B4144E96F8354096F8363088
:1040C000601CC5B20020012796F8342007FA00F1E1
:1040D0000A4207D006EB800101F8354F4B708D7016
:1040E000CB7007E006EB8001002201F8352F4A7003
:1040F0008A70CA70401CC0B20728E5D3F0BC0248E1
:104100003030FEF78DBD0000B8220020064C05E0DF
:1041100000220A2311461046FDF7CCFF2078002824
:10412000F6D006F05DFC0000A400002010B50020D1
:1041300000F0E4F90022052311461046FDF7BAFF0E
:104140000021084609F0A4F80021012009F0A0F898
:10415000184C012211022046FDF723FA01225103D7
:104160002046FDF71EFA012280211348FDF719FAB7
:10417000012211032046FDF714FA0021084602F03F
:1041800009FB0021012002F005FB0021022002F0C2
:1041900001FB0021032002F0FDFA012280210748E3
:1041A000FDF7FFF9064900200870BDE8104000F057
:1041B0008FB80000000801400014014000180140C1
:1041C0009C00002010B5FCF795FB00F0DBF8164CC6
:1041D00000224FF480512046FDF7E3F900228021B0
:1041E0001248FDF7DEF90022A1152046FDF7D9F9A6
:1041F000002261142046FDF7D4F9002280210C48EA
:10420000FDF7CFF900220A2311461046FDF752FFB1
:104210000022022311461046FDF74CFFBDE8104076
:10422000002000F06BB900000008014000140140BC
:104230000018014070B5204C002280212046FDF777
:10424000B0F90022022311461046FDF733FF1B4D43
:104250000022A1152846FDF7A4F900226114284682
:10426000FDF79FF9002280211548FDF79AF90022F9
:10427000A1142846FDF795F9002280212046FDF77C
:1042800090F900220F2311461046FDF713FF01207D
:1042900000F034F920210B48FDF77CF90A4A01218E
:1042A00030B1117009480170BDE8704000F06CB980
:1042B00000201070F6E700000018014000080140DF
:1042C00000140140000C0140840300209C000020E9
:1042D00010B5FBF79FFF04480021C1700171BDE8D4
:1042E0001040FBF7A0BF00009803002070B5054602
:1042F0000020FEF76AFC00242846FEF721FD641C1E
:10430000E4B2202CF8D370BD10B50446192008F093
:1043100031FB2046BDE8104008F072BC70B506467F
:104320000D4614460020FCF723FD1E218020FCF7DB
:104330002AFD21468220FCF726FD29468420FCF731
:1043400022FD31468A20FCF71EFDBDE870400120A9
:10435000FCF70EBD10B500210848FCF738FC084CEE
:1043600000212046FCF737F900212046FCF729F907
:104370002046BDE810400021FCF7DFB908000240EC
:104380000024014030B5594D91B02846FCF72AFC75
:104390005748009057480024CDE90104C020CDE9DA
:1043A00003048020059040000690800007902020A4
:1043B00008900002CDE9090469462846FCF752FC42
:1043C00001212846FCF703FC01208DF830008DF810
:1043D00031000B944FF46020CDE90D04444C1020C3
:1043E0008DF83C004C3C0BA92046FCF743F9062312
:1043F0000B2200212046FCF761F90623022201214D
:104400002046FCF75BF90623032202212046FCF735
:1044100055F90623042203212046FCF74FF9062311
:10442000052204212046FCF749F906231A460521F6
:104430002046FCF743F90623072219462046FCF7DD
:104440003DF90623082207212046FCF737F9062309
:10445000092208212046FCF731F906230A22092106
:104460002046FCF72BF9062301220A212046FCF7FF
:1044700025F906230C220B212046FCF71FF9062301
:104480000D220C212046FCF719F906230E220D21DE
:104490002046FCF713F906230F220E212046FCF7D5
:1044A0000DF9062310220F212046FCF707F9012100
:1044B0002046FCF790F801212046FCF782F82046C0
:1044C000FCF736F92046FCF79FF80028FAD1204681
:1044D000FCF73DF92046FCF789F80028FAD10121C4
:1044E0002046FCF72AF911B030BD00000800024058
:1044F0004C240140D81C0020704700002DE9FC41ED
:10450000002402270825124E00284FF001014FF029
:1045100004000AD0FCF7BEFF8DF804408DF805506A
:10452000012000978DF8060008E0FCF7B3FF8DF836
:1045300004408DF8055000978DF806406846FCF75A
:1045400085FE0220FCF766FE3470BDE8FC810000A9
:104550000500002010B504460122D1020248FDF7F3
:1045600020F88921617210BD0008014010B5044691
:1045700000224FF400610348FDF713F888216172AF
:1045800010BD00000008014010B5FBF743FE0448D1
:104590000121C17000210171BDE81040FBF743BE4D
:1045A0009803002070B5624D2868002874D0807A86
:1045B00005260D2871D011DC062818D0072803D055
:1045C00008286BD0092867D1FEF796FCB0FBF6F1FE
:1045D00006FB110000EB80010A3179E00E287CD047
:1045E000544C11285BD012281BD0782854D1524843
:1045F00019244069B0FBF6F106FB110088B3FEF701
:104600007BFCB0FBF6F106FB110000EB800004EB35
:1046100040010122002004F043FABDE8704003F09D
:1046200037B8A0880026411E0F2909D208225A2136
:10463000002004F035FAA088E0801020A08023E05C
:104640003C49A0F111024989491C89B2042A09D2C6
:1046500061811520A08008225A21002004F020FA50
:1046600012E02BE0A0F116020F2A03D2E0802520F1
:10467000A08004E02638042806D26181A6800022AA
:104680005A21104603F028FD608902283CD329688E
:10469000B420C860668137E048E03AE01DE0607809
:1046A0004FF00001022801D3062000E0032002F0B1
:1046B00083FEBDE87040082006F036B9FEF71CFC0A
:1046C000B0FBF6F106FB110000EB800004EB4001AB
:1046D0000122002004F0E4F916E01848007D0028CB
:1046E00024D10021022002F067FEFEF705FCB0FB9A
:1046F000F6F106FB110000EB80001E2101EB4001EA
:104700000022104603F0E8FCBDE87040002003F0F2
:1047100037BA00226421104604F0C2F90849462045
:104720000880084940F226200860EDE770BD0000CF
:10473000C8000020AC21002000030020FC1E002047
:10474000F0020020F40200202DE9F05F5D4F39688F
:10475000002970D0DFF870B101228BF80020887A30
:10476000DFF868815A4A00240E287DD009DCA0F1C8
:104770000600082879D2DFE800F083869286A0A0A0
:10478000A086B426102871D0112875D0122802D026
:1047900078286AD174E04F4D4FF01009A888A0B175
:1047A0004FF0150A102818D0152821D025282AD016
:1047B000421E0F2A2ED208225A21002004F070F93E
:1047C000A888E880A5F8049046E008225A21002035
:1047D00004F066F9A5F8049006E008225A210020AA
:1047E00004F05EF9A5F804A06889401C68813AE0ED
:1047F0002520A88000225A21104603F06DFC38685D
:10480000C6606C812FE00022AC805A21104603F074
:1048100063FCE9E72F4AA0F111035289521C92B2BE
:10482000042B09D26A81A5F804A008225A2100208D
:1048300004F036F910E042E0A0F116030F2B01D28C
:10484000CE600EE02638042806D26A810022AC80B1
:104850005A21104603F040FC6889022803D33868C7
:10486000C660A8F82E4003E019E026E021E003E04E
:10487000002003F085F920E0022006F055F81CE046
:1048800001221E2107E050690A21B0FBF1F201FB71
:10489000120114310022002004F002F9E3E79480B1
:1048A0001470002288F814401E21104603F014FCF6
:1048B000D9E703F0A1FB3868C6608BF80040BDE87B
:1048C000F09F0000C8000020D9000020FC1E00203E
:1048D00000030020AC2100202DE9F041684E316832
:1048E00000296ED0887A674C05250E286269B2FBD4
:1048F000F5F305FB13237CD009DCA0F106000828A2
:104900005FD2DFE800F00D74A274B4B4B491B425A2
:1049100010286FD0112845D0122807D0782850D100
:1049200059484078E3B3E0B302204CE0574C0027ED
:10493000A088411E0F2909D208225A21002004F024
:10494000AFF8A088E0801020A08022E04F49A0F1BD
:1049500011024989491C89B2042A08D261811520B3
:10496000A08008225A21002004F09AF811E0A0F15A
:1049700016020F2A03D2E0802520A08004E026380A
:10498000042806D26181A78000225A21104603F034
:10499000A3FB6089022853D33068C56067814FE06C
:1049A00005E00FE0BDE8F041072005F0BDBF08B10C
:1049B000022000E00420022102F0CCFE012264214A
:1049C0002EE054E00420022102F0C4FE60690C21B4
:1049D000B0FBF1F201FB1200502101EB800101223A
:1049E000002003F079FBBDE8F04102F051BED20790
:1049F00001E02AE03DE023484FF005014FF0640359
:104A000040694FF00102B0FBF1F401FB140000EB30
:104A1000800003EB400103D0002004F041F80FE0D8
:104A2000002003F059FB0BE00022A021104604F007
:104A300037F8174946200880164940F226200860BA
:104A4000BDE8F041002003F09BB8134C207D20B15D
:104A500001280CD100221921E2E700221921104679
:104A600003F03AFB002003F08BF801202075BDE82D
:104A7000F0810A4800780028F9D1CD60F7E70000FE
:104A8000C800002000030020581E0020AC21002098
:104A9000F0020020F4020020FC1E0020D7000020BD
:104AA0002DE9F0416C4D286800287AD0807A6B4E51
:104AB0000523002471690E28B1FBF3F203FB1211E8
:104AC00070D00BDCA0F106004FF04605082868D234
:104AD000DFE800F00D7D877D999999A9B42710280A
:104AE0007ED0112847D0122808D0782859D15C48A8
:104AF0000C244078E9B3E8B3022055E0594EB08861
:104B0000411E0F2909D208225421022003F0C8FFB8
:104B1000B088F0801020B08024E05249A0F111024A
:104B20004989491C89B2042A08D271811520B080B4
:104B300008225321022003F0B3FF13E0A0F1160274
:104B40000F2A05D2F08025200022B080572106E0F0
:104B50002638042806D271810022B4805521012014
:104B600003F0BAFA7089022858D32868C7607481A4
:104B700054E005E017E0BDE8F041072005F0D4BEA1
:104B800008B1022000E00420022102F0E3FD706978
:104B9000B0FBF4F104FB110000EB8001463101226F
:104BA00039E030E01DE00420022102F0D3FD7069FD
:104BB0000122B0FBF4F104FB110000EB800146314F
:104BC000002003F06DFFBDE8F04102F061BD01EB94
:104BD000810005EB40010122002003F061FF1DE090
:104BE0002DE0214D287D80B101280CD1002102202B
:104BF00002F0E2FB00222D21104603F06DFA0020A6
:104C000002F0BEFF2C75BDE8F0810021022002F009
:104C1000D3FB00222D21002003F05EFABDE8F04115
:104C2000002002F0ADBF00228221104603F038FFC1
:104C30000E480F49058040F226200860EEE70D4837
:104C400000780028DFD10021022002F0B5FB03F03C
:104C5000D3F92868C760D6E7C80000200003002009
:104C6000581E0020AC210020FC1E0020F002002075
:104C7000F4020020D70000202DE9F047544E3068A0
:104C800000287DD0DFF84CA101228AF80020807A2C
:104C900000250E2875D009DCA0F10600082871D285
:104CA000DFE800F07A7C827C9292927C4FF0B4092B
:104CB000102868D011286BD0122802D0782861D132
:104CC0006AE0454C1027A088A0B14FF015081028C5
:104CD00017D0252115281FD025281FD0421E0F2AA6
:104CE00023D208225A21002003F0DAFEA088E080B7
:104CF000A7803CE008225A21002003F0D1FEA780C3
:104D000006E008225A21002003F0CAFEA4F804801D
:104D10006089401C608131E0A18000E0A580002214
:104D20005A21104603F0D8F9F2E72B4AA0F11103FB
:104D30005289521C92B2042B08D26281A4F80480DA
:104D400008225A21002003F0ABFE10E0A0F1160368
:104D50000F2B02D2E080A18004E02638042806D27E
:104D60006281A58000225A21104603F0B5F96089BE
:104D7000022803D33168C1F80C906581002004E05B
:104D800024E011E020E01AE002E002F0F9FE1BE06E
:104D9000022005F0C9FD17E001220BE000222321CB
:104DA000104603F07DFEE9E70C480022858005707F
:104DB0000B4805751E21002003F08EF9DEE703F095
:104DC0001BF93168C1F80C908AF80050BDE8F087F3
:104DD000C8000020D9000020AC21002000030020E2
:104DE000FC1E00202DE9F041684D2868002873D092
:104DF000807A05240E2870D009DCA0F1060008286E
:104E00006AD2DFE800F00D7886789898989FB426EB
:104E100010287DD011284DD012280DD078285BD1D4
:104E20005B484069B0FBF4F104FB1101594840783C
:104E3000F1B3F0B3022052E0574C0027A088411E86
:104E40000F2909D208225421002003F029FEA0884E
:104E5000E0801020A08024E04F49A0F11102498990
:104E6000491C89B2042A08D261811520A080082239
:104E70005321002003F014FE13E0A0F116020F2AC4
:104E800005D2E08025200022A080572106E02638A8
:104E9000042806D261810022A7805521002003F05A
:104EA0001BF96089022848D32868C660678144E0FE
:104EB00005E013E0BDE8F041072005F035BD08B17D
:104EC000022000E00420022102F044FC0122232100
:104ED000002003F001F930E02DE01AE00420022167
:104EE00002F038FC01222321002003F0F5F8BDE890
:104EF000F04102F0CDBBFDF7FFFFB0FBF4F104FB86
:104F000011001E2100EB400001EB40010122DFE710
:104F10002FE0224C207D20B101280CD100220C2151
:104F2000D6E700220C21104603F0D6F8002002F04C
:104F300027FE01202075BDE8F081BDE8F04100208A
:104F400002F01EBEFDF7D8FFB0FBF4F104FB110028
:104F500000EB80002D2101EB40010022104603F000
:104F6000BBF80F49462008800E4940F22620086011
:104F7000E3E70D4800780028DDD10021022002F08F
:104F80001BFA03F039F82868C660D4E7C80000208F
:104F900000030020581E0020AC210020FC1E002031
:104FA000F0020020F4020020D70000202DE9F04795
:104FB0005A4E306800287DD0DFF864A101228AF8BB
:104FC0000020807A00250E2875D009DCA0F10600AB
:104FD000082871D2DFE800F07A7C907C9D9D9D7C52
:104FE0004FF0B409102868D011286BD0122802D0D5
:104FF000782861D16AE04B4C1027A088A0B14FF00F
:105000001508102817D0252115281FD025281FD0B6
:10501000421E0F2A23D208225A21002003F040FD0D
:10502000A088E080A7803CE008225A21002003F0FD
:1050300037FDA78006E008225A21002003F030FD4A
:10504000A4F804806089401C608131E0A18000E008
:10505000A58000225A21104603F03EF8F2E7314ABB
:10506000A0F111035289521C92B2042B08D2628122
:10507000A4F8048008225A21002003F011FD10E05A
:10508000A0F116030F2B02D2E080A18004E02638A5
:10509000042806D26281A58000225A21104603F01E
:1050A0001BF86089022803D33168C1F80C90658130
:1050B000002004E02FE01FE02BE025E002E002F0FA
:1050C0005FFD26E0032005F02FFC22E0012219E01D
:1050D00015480068154909684FF00002401AB0F5FC
:1050E000FA5F4FF0190103D2002003F0D9FCDFE78B
:1050F000002002F0F1FFDBE70D48002285800570FB
:105100000C4805751E21F3E702F076FF3168C1F8FF
:105110000C908AF80050BDE8F0870000C80000201D
:10512000D9000020AC21002090000020A000002029
:1051300000030020FC1E00202DE9F041634D28688B
:10514000002870D0807A05270024614E0E286BD08D
:1051500017DC06281FD0072803D0082864D00928A8
:1051600061D10021012002F027F97069B0FBF7F14D
:1051700007FB1100822100EB800001EB40010122BE
:1051800096E04FF0B40810287ED0112851D0122894
:105190000CD0782847D17069B0FBF7F107FB1101FB
:1051A0004C484078E9B3E8B3022052E04A4EB08858
:1051B000411E0F2909D208225A21002003F070FC59
:1051C000B088F0801020B08022E04349A0F11102A5
:1051D0004989491C89B2042A08D271811520B080FE
:1051E00008225A21002003F05BFC11E0A0F1160216
:1051F0000F2A03D2F0802520B08004E0263804284E
:1052000006D27181B48000225A21104602F064FF58
:105210007089022803D32968C1F80C8074810020AA
:1052200003E00BE014E03BE027E0BDE8F04102F0D2
:10523000A7BCBDE8F041012005F076BB08B1022013
:1052400000E00420022102F085FA012287212FE0EC
:105250000420022102F07EFA70690C21B0FBF1F209
:1052600001FB1200642101EBC0010122002002F0C9
:1052700033FFBDE8F04102F00BBA184D287D88B12C
:1052800001280DD1002100E016E002F095F800227F
:105290005A21104602F020FF002002F071FC2C750C
:1052A000BDE8F0810021012002F086F800222D21C6
:1052B000002002F011FFB2E70021022002F07CF88A
:1052C00002F09AFE2968C1F80C80E9E7C8000020C6
:1052D00000030020581E0020AC210020FC1E0020EE
:1052E00070B5434D286800287ED0807A0E285FD0A4
:1052F00014DC062818D0072878D0082858D00D28A4
:1053000074D100226421104602F0E6FE394946209D
:105310000880394940F2262008605EE0112865D0F7
:1053200012280AD0782861D100220F21104602F0FD
:10533000D3FEBDE8704002F0ABB9304C0026A08827
:10534000411E0F2909D208225A21022003F0A8FB8E
:10535000A088E0801020A08022E02849A0F111025E
:105360004989491C89B2042A08D261811520A0808C
:1053700008225A21022003F093FB11E0A0F116024B
:105380000F2A03D2E0802520A08004E026380428DC
:1053900006D26181A68000225A21012002F09CFEE3
:1053A0006089022819D32968B420C860668114E096
:1053B0001349087DB0B1012818D112498869401CF1
:1053C00088611E21B0FBF1F201FB120000280DD113
:1053D00000220321104603F063FBBDE8704000206B
:1053E00002F0CEBB012000E000E0087570BD0000B7
:1053F000C8000020F0020020F4020020AC210020B0
:10540000FC1E0020000300202DE9F047594F3A68A8
:10541000002A7BD0DFF86091012189F80010907A92
:10542000564900240E2872D009DCA0F10600082895
:105430006BD2DFE800F0717390739B9B9B73B42673
:10544000102879D0112863D0122802D078285CD196
:1054500062E04B4DA88890B14FF01508102819D084
:1054600029464FF0250C4989491C89B215281CD0C2
:1054700025281DD0431E0F2B1FD2D66041E00822E5
:105480005A21002003F00CFB3868C6606C811020A4
:10549000A88037E008225A21002003F001FB688928
:1054A000401C6881A5F804802CE0A5F804C000E049
:1054B000AC80698100225A2149E0A0F11102042A3E
:1054C00008D26981A5F8048008225A21002003F03F
:1054D000E7FA11E0A0F116020F2A03D2E880A5F83E
:1054E00004C004E02638042806D26981AC8000227A
:1054F0005A21104602F0F0FD6889022802D338686C
:10550000C6606C81002002F03BFB2FE030E022E01F
:10551000032005F009FA29E0012221E0194800687A
:10552000194A1268801AB0F5FA5F06D200221921D2
:10553000104603F0B5FAE5E714E048690C21B0FB2A
:10554000F1F201FB120000EB40010A3101220020C0
:1055500002F0C2FDD6E70D488C800C700475002265
:105560001E21F4E702F048FD3868C66089F8004063
:10557000BDE8F087C8000020D9000020000300200B
:10558000AC21002090000020A0000020FC1E002084
:105590002DE9F047854D286800287CD004F094FA66
:1055A000002878D12968887A00240E2874D009DC74
:1055B000A0F1060008286ED2DFE800F00E9BCD9B1C
:1055C000DBDBDBE0B426102867D0794F11287FD0D1
:1055D00012280FD078285ED1FDF78EFC80074FF09F
:1055E000010274D02D21002003F05AFABDE8F047E3
:1055F00002F04EB80021032001F0DEFEB8884FF023
:105600001008A0B14FF01509102818D0152821D086
:10561000252827D0411E0F292ED2082254210020F0
:1056200003F03EFAB888F880A7F804804AE0082220
:105630005421002003F034FAA7F8048006E0082281
:105640005321002003F02CFAA7F804907889401C1D
:105650007881A6E02520B88078890022401C7881D6
:10566000572105E0BC8078890022401C78815521B3
:10567000002002F031FD94E0A0F1110104290DD2C7
:1056800078890822401C7881A7F8049053210020D3
:1056900003F006FA16E06CE05DE07CE0A0F1160194
:1056A0000F2903D22868C6607C817AE02638042856
:1056B00008D278890022401C7881BC805521104690
:1056C00002F00AFD78890228ECD26AE000E00EE0E0
:1056D00078784FF00001022801D3062000E0022074
:1056E00001F06AFEBDE8F047052005F01DB91E2156
:1056F000BEE7304C304D05266078062801D00428DE
:1057000017D12069A8B12968081A40F6B831884233
:105710000FD2FDF7F1FBB0FBF6F106FB110000EB39
:105720004000782101EB40010022104602F0D4FC39
:105730000EE0FDF7E1FBB0FBF6F106FB110000EB1C
:1057400040001E2101EB40010122002003F0A8F9D6
:105750002868607025E0194D287D60B1012808D1C6
:1057600000221E21104602F0B7FC002002F008FAC9
:105770002C75BDE8F08700223C2179E700228221C8
:10578000104603F08DF90E49462008800D4940F27D
:105790002620086005E0CE6001222D21002003F0C4
:1057A0007FF9BDE8F047002002F0EAB9C800002008
:1057B000AC2100200003002090000020FC1E0020EF
:1057C000F0020020F40200202DE9F0478B4E3068F3
:1057D000002878D004F078F9002874D13268907AE3
:1057E00005210025864C0E286ED009DCA0F10600AC
:1057F000082868D2DFE800F00E9CD29CE0E0E0E8E8
:105800004FF0B40910287DD011287ED0122811D075
:10581000782858D16069B0FBF1F201FB1201002930
:105820007CD001224B21002002F056FCBDE8F0475D
:1058300001F02EBF0021032001F0BEFD714C1027A6
:10584000A088A0B14FF01508102817D025211528E1
:105850001CD025281ED0421E0F2A25D208225421F2
:10586000002003F01DF9A088E080A78042E0082214
:105870005421002003F014F9A78011E008225321DD
:10588000002003F00DF9A4F8048009E0A1800022B3
:10589000572102E00022A5805521002002F01CFCC7
:1058A0006089401C6081A3E0A0F11102042A0CD29F
:1058B00060890822401C6081A4F8048053210020E4
:1058C00003F0EEF816E077E068E0A0F116020F2A88
:1058D00004D2E080A18000225A2108E02638042862
:1058E00008D260890022401C6081A58055210020DB
:1058F00002F0F2FB608902287AD33168C1F80C907B
:10590000658175E06DE000E008E00021022001F013
:1059100053FDBDE8F047072005F006B80C21B0FBA9
:10592000F1F201FB120000EB80014631012247E059
:105930006078354D052803D06069C20722D011E098
:10594000206970B12A68101A40F6B832904208D225
:105950006069B0FBF1F201FB12001E2101EBC001F6
:1059600007E06069B0FBF1F201FB1200C0EBC0017F
:105970001E310122002003F093F804206070286893
:10598000206135E0B0FBF1F201FB1200C0EBC00179
:105990001E310122002002F09FFBEEE71B4C207D10
:1059A00060B1012808D100222D21104602F094FB9D
:1059B000002002F0E5F82575BDE8F08700222D21D2
:1059C000002002F089FB13E000228C21104603F036
:1059D00067F80F49462008800E4940F226200860EB
:1059E00006E0C2F80C9001225A21002003F058F87A
:1059F000BDE8F047002002F0C3B80000C800002056
:105A000000030020AC21002090000020FC1E00209C
:105A1000F0020020F40200202DE9F041924D2868A8
:105A2000002879D004F050F8002875D12968887AC8
:105A300005268E4C0E2870D009DCA0F1060008283F
:105A40006AD2DFE800F00FB8E7B8FAFAFAFCB42738
:105A5000102874D0DFF81882112871D0122811D0C4
:105A6000782859D16069B0FBF6F106FB11010029D5
:105A700067D001222D21002002F02EFBBDE8F0416D
:105A800001F006BE0021032001F096FCB8F80400E6
:105A900080B1152610281BD02521152825D00024DB
:105AA00025282CD0421E0F2A38D22868C760A8F8B3
:105AB0000A40D0E008225421002002F0F1FFB8F89B
:105AC0000A00401CA8F80A001020A8F80400C2E050
:105AD00008225321002002F0E3FFB8F80A00401C1E
