:020000040800F2
:10000000883C0020010100080501000807010008E4
:10001000090100080B0100080D01000800000000A4
:1000200000000000000000000000000011010008B6
:100030000F01000800000000EF020008F12B00088B
:10004000E5370008A72400086D2C00082F290008B8
:10005000790F000831280008990D0008FD0D0008EF
:100060001D0E00081F0E0008210E0008AD0B000831
:10007000B10B0008C90B0008E50B0008010C0008D3
:10008000030C0008050C0008A7080008DF3700086B
:10009000E13700089F090008A1090008250E0008A3
:1000A000492D0008ED2F0008952F0008512D00085C
:1000B000193000083D3100084131000817120008CE
:1000C000151200081B12000819120008092A00085E
:1000D0000B2A0008E53500085D3600087D3600086B
:1000E000B90D00082D290008DD37000800000000C8
:1000F0000000000000000000000000000000000000
:1001000004480047FEE7FEE7FEE7FEE7FEE7FEE7FE
:10011000FEE700001901000800F002F800F05AF8AC
:100120000AA090E8000C82448344AAF10107DA4552
:1001300001D100F04FF8AFF2090EBAE80F0013F04A
:10014000010F18BFFB1A43F001031847A407010071
:10015000C40701000A444FF0000C10F8013B13F0F3
:10016000070408BF10F8014B1D1108BF10F8015B10
:10017000641E05D010F8016B641E01F8016BF9D103
:1001800013F0080F1EBF10F8014BAD1C0C1B09D15A
:100190006D1E58BF01F801CBFAD505E014F8016BCC
:1001A00001F8016B6D1EF9D59142D6D3704700005E
:1001B0000023002400250026103A28BF78C1FBD870
:1001C000520728BF30C148BF0B6070471FB51FBD25
:1001D00010B510BD00F028FA1146FFF7F7FF08F040
:1001E00047F900F046FA03B4FFF7F2FF03BC00F052
:1001F00047FA000030BF704720BF704740BF7047CC
:10020000BFF36F8F7047BFF34F8F7047BFF35F8FA0
:10021000704701DF7047EFF31480704780F3148854
:10022000BFF36F8F7047EFF30980704780F3098841
:100230007047EFF30880704780F30888704772B604
:10024000704762B6704771B6704761B6704780F309
:1002500011887047EFF31280704740BA704700BAB8
:100260007047000002480349034A044B70470000EE
:1002700088380020883C0020883A0020883A0020F6
:1002800072B606B42E490A7802F101020A7006BC61
:10029000704706B42A490A78A2F101020A704FF0A9
:1002A0000001002A08BF81F3108806BC7047254C66
:1002B000254D25604FF0000484F30988234C4FF04E
:1002C00001052570224C4FF08055256062B6FEE78F
:1002D00030B41F4C4FF08055256030BC704730B4AF
:1002E0001B4C4FF08055256030BC704700BFEFF3CA
:1002F000108372B6EFF3098030B1A0F1200080E8DE
:10030000F00F144C2468206000B5134880475DF856
:1003100004EB124C124D2E7826700E4C114E36689E
:100320002660306890E8F00F00F1200080F3098823
:100330004EF0040E83F31088704700BF72B670470A
:100340006000002020ED00E00000FFFF68000020BA
:1003500004ED00E07800002009200008660000207D
:10036000670000208000002010B54C1084EA530480
:1003700004D54042C1F1000138BF491E1B4204D5DB
:100380005242C3F1000338BF5B1E00F0C3F814F003
:10039000804F04D04042C1F1000138BF491E14F023
:1003A000004F04D05242C3F1000338BF5B1E10BDA2
:1003B00040EA010310B59B070FD1042A0DD310C8E2
:1003C00008C9121F9C42F8D020BA19BA884201D934
:1003D000012010BD4FF0FF3010BD1AB1D30703D07C
:1003E000521C07E0002010BD10F8013B11F8014B32
:1003F0001B1B07D110F8013B11F8014B1B1B01D14E
:10040000921EF1D1184610BD10B5203AC0F00B80F5
:10041000B1E81850203AA0E81850B1E81850A0E808
:100420001850BFF4F5AF5FEA027C24BFB1E8185062
:10043000A0E8185044BF18C918C0BDE810405FEAD2
:10044000827C24BF51F8043B40F8043B08BF70474E
:10045000D20728BF31F8023B48BF11F8012B28BF53
:1004600020F8023B48BF00F8012B704702F0FF0361
:1004700043EA032242EA024200F002B84FF00002CF
:100480000429C0F0128010F0030C00F01B80CCF1A6
:10049000040CBCF1020F18BF00F8012BA8BF20F814
:1004A000022BA1EB0C0100F00DB85FEAC17C24BF68
:1004B00000F8012B00F8012B48BF00F8012B704712
:1004C0004FF0000200B5134694469646203922BFED
:1004D000A0E80C50A0E80C50B1F12001BFF4F7AF38
:1004E000090728BFA0E80C5048BF0CC05DF804EB1A
:1004F000890028BF40F8042B08BF704748BF20F888
:10050000022B11F0804F18BF00F8012B7047704785
:100510007047704753EA020C00F069802DE9F04BF8
:100520004FF00006002B1FBFB3FA83F503FA05F462
:1005300024FA05F65E4012BF1643B2FA82F502FABB
:1005400005F4C5F120051EBF22FA05FC44EA0C049F
:10055000203556EA044C4FEA144418BF641C4FF08F
:1005600000084FF00009904271EB030C39D30029C9
:1005700019BFB1FA81F701FA07F6B0FA80F700FA6D
:1005800007F6C7F120071EBF20FA07FC46EA0C0653
:100590002037B6FBF4FCA7EB0507103F07F01F0B55
:1005A000CBF120060CFA0BFB2CFA06F644BFB3463F
:1005B0000026202FA4BF5E464FF0000B5BEA060C1E
:1005C00008BF4FF0010B19EB0B09ABFB027C48EBAA
:1005D0000608C01B06FB02CC0BFB03CC71EB0C0125
:1005E000C1E70B46024641464846BDE8F08B13B5CD
:1005F0004FF000004FF00001AFF30080BDE81C4059
:10060000704710B500F008F8006810BD10B504463A
:1006100000F002F8046010BD004870472838002040
:1006200000487047283800207546FFF7F9FFAE46AE
:1006300005006946534620F00700854618B020B5EE
:10064000FFF710FEBDE820404FF000064FF0000716
:100650004FF000084FF0000B21F00701AC46ACE86A
:10066000C009ACE8C009ACE8C009ACE8C0098D46D7
:1006700070470446AFF300802046FFF7B4FD00004A
:1006800001491820ABBEFEE726000200704710B5F6
:10069000A02000F0AFF80121022000F0C3F80121F2
:1006A000022003F0A0F8222000F056F813212420A5
:1006B00000F0B8F83B21262000F0B4F8002000F04C
:1006C0006FF80221084600F0ADF80221084603F059
:1006D0008AF8252000F040F800F00704A02000F080
:1006E0005FF80221084600F09DF80221084603F059
:1006F0007AF8252000F030F800F007012046BDE828
:10070000104002F0F5B9000070B5104D01242046EC
:1007100015F8141000F086F8641CE4B2042CF6D925
:100720000724204615F8141000F07CF8641CE4B28D
:10073000222CF6D92424204615F8141000F072F863
:10074000641CE4B2312CF6D970BD00009AFA00089E
:10075000802000F04FB8000070B50E4D06464FF4F3
:10076000804400222146284600F04BFD06F07F0120
:1007700041F0400108200DF093FF012000F0F1FA54
:100780000AF096FF064601222146284600F039FD70
:10079000304670BD000801400021084600F042B814
:1007A00001460F2000F03EB870B5114D4FF4804463
:1007B00000222146284600F024FD062108200DF0E5
:1007C0006FFF562108200DF06BFF592108200DF016
:1007D00067FFA52108200DF063FFA92108200DF077
:1007E0005FFF21462846BDE87040012200F009BDA8
:1007F0000008014070B50A4D06464FF480440022BF
:100800002146284600F0FDFC314604200DF048FF4B
:1008100021462846BDE87040012200F0F2BC0000ED
:10082000000801402DE9F0410C4D0E4607464FF4FB
:10083000804400222146284600F0E3FC07F07F01B7
:1008400008200DF02DFF314608200DF029FF21462C
:100850002846BDE8F041012200F0D3BC0008014069
:100860000029816802D041F0010101E021F001017D
:10087000816070470029816802D041F4807102E0F4
:100880004FF6FF6211408160704701460020896881
:10089000490700D5012070470146002089680907F3
:1008A00000D501207047704710B542680E4B0C7997
:1008B0001A400B6842EA04221343436082680B4BE0
:1008C0001A40D1E9024323434C7942EA44021343DC
:1008D0008360C26A097C22F47002491EC9B242EAEE
:1008E0000151C16210BD0000FFFEF0FFFDF7F1FFF6
:1008F00070B5072609290AD9C568A1F10A0404EBD5
:100900004404A640B543A3401D43C56007E0056904
:1009100001EB4104A640B543A3401D4305611F23DD
:10092000072A09D2446B521E02EB820293409C4379
:1009300091400C43446370BD0D2A09D2046BD21F51
:1009400002EB820293409C4391400C43046370BDD0
:10095000C46A0D3A02EB820293409C4391400C43DF
:10096000C46270BD816841F0080181607047002950
:10097000816802D041F4A00101E021F4A00181606E
:100980007047816841F0040181607047010900F0FF
:100990000F0001EB810100EB4100C0B270477047CE
:1009A000704700002DE9F84FFF20ADF8000000254A
:1009B000614F8DF8035003248DF802406946384694
:1009C00000F0ACFB3F20ADF800008DF803508DF82F
:1009D00002406946594800F0A1FBADF800408DF88F
:1009E00003508DF802406946554800F097FBFD140E
:1009F000ADF8005014268DF803608DF8024069466A
:100A0000384600F08BFB6810ADF80000DFF834B119
:100A10008DF803608DF802406946584600F07EFB71
:100A2000ADF800508DF803608DF8024069465846D5
:100A300000F074FB0425ADF8005010278DF803700A
:100A40008DF8024069463E4800F068FBADF8005062
:100A50008DF803608DF802406946584600F05EFB51
:100A60002003ADF800008DF803508DF80240694670
:100A7000584600F053FBE801ADF800004FF048087D
:100A8000DFF8C4A08DF803804FF001098DF80290C3
:100A90006946504600F042FB2803ADF800008DF88F
:100AA00003808DF802906946504600F037FB41F212
:100AB0000200ADF800008DF803508DF80240694641
:100AC000504600F02BFB6003ADF800008DF803509A
:100AD0008DF8024069461A4800F020FB6803ADF823
:100AE00000008DF803608DF802406946144800F05C
:100AF00015FB0220ADF800008DF803708DF8024060
:100B00006946584600F00AFB2020ADF800008DF839
:100B100003508DF802406946094800F0FFFA802032
:100B2000ADF800008DF803508DF80240694650463C
:100B300000F0F4FABDE8F88F000801400010014011
:100B4000000C0140001401400018014038B5082095
:100B5000ADF8000003248DF8024014258DF80350F1
:100B600069460F4800F0DAFA0120ADF800008DF870
:100B700002408DF8035069460A4800F0CFFA102071
:100B8000ADF800008DF802408DF803506946064824
:100B900000F0C4FA07F0BAF807F0D6F838BD000044
:100BA0000014014000180140000C01407047000093
:100BB00010B5202000F028F8BDE8104000210148C1
:100BC00000F028B81C00024010B54FF4007000F08F
:100BD0001BF8BDE810400021014800F01BB80000E0
:100BE0003000024010B54FF4005000F00DF8BDE8A1
:100BF00010400021014800F00DB800004400024000
:100C00007047704770470000014948607047000016
:100C1000000002400029016802D041F0010101E01A
:100C200021F001010160704700B502460021FFF785
:100C3000F1FF0020106050609060D060184B1848A1
:100C4000D11A44389A421ED00ADC1649511812D0E3
:100C5000142914D028290DD1416841F4706108E0AD
:100C6000142914D0282916D03C2903D1416841F019
:100C70007061416000BD416841F00F01F9E74168D2
:100C800041F0F001F5E7416841F47041F1E7416856
:100C900041F47021EDE7416841F47001E9E700009B
:100CA00044000240F8FFFDBF30B5026847F6F0731C
:100CB0009A430C6A8B682343D1E904452C432343B0
:100CC0008C692343CC6923434C6A23438C6A2343B6
:100CD00013430360CA6842600A6882604968C16061
:100CE00030BD000010B50446062000F017FC00F0EF
:100CF0000700FFF74BFE401CE070042000F00EFCE4
:100D000000F03F00FFF742FEA070032000F006FC59
:100D100000F07F00FFF73AFE6070022000F0FEFB5B
:100D200000F07F00FFF732FE2070A078182802D272
:100D300060783C2806D30448017AA170417A61703A
:100D4000C079E07010BD0000883100200A21B0FB9E
:100D5000F1F2B0FBF1F301FB130000EB0210C0B2A3
:100D6000704700224FF4967306E00021491C89B2B7
:100D70009942FBD3521C92B28242F6D370470021B3
:100D800001E0491C89B28142FBD30020401C80B2A3
:100D9000C828FBD37047000010B5FFF771FA05486B
:100DA0000178491C0170FFF774FABDE8104000F0AB
:100DB000FFBE00006400002010B5FFF761FA0D4986
:100DC0000878401C0870FFF764FA4FF4804420460E
:100DD00000F056F850B1204600F04CF8FFF750FAFA
:100DE00005480168491C0160FFF753FABDE810404F
:100DF00000F0DEBE64000020C802002010B5FFF73E
:100E00003FFA05480178491C0170FFF742FABDE836
:100E1000104000F0CDBE0000640000207047704715
:100E20007047000010B5FFF72BFA0D490878401CF9
:100E30000870FFF72EFA4FF40074204600F020F8F7
:100E400050B1204600F016F8FFF71AFA054801687D
:100E5000491C0160FFF71DFABDE8104000F0A8BE74
:100E600064000020CC0200200149086070470000A7
:100E70001404014001490860704700001404014057
:100E8000064A014600201268044B0A4014331B68CE
:100E90000B4202D0002A00D001207047000401401C
:100EA00030B5164C017985790B190268D3F8001416
:100EB00005B31143124AC3F800141168036899433B
:100EC0001160131D19680568A9431960417910293B
:100ED00007D021440068D1F800240243C1F800245F
:100EE00030BD11680468214311601968006801432E
:100EF000196030BD9143C3F8001430BD00000140BB
:100F0000080401400149C860704700000020024009
:100F100070B5054640F6FF76304600F07FF80428AD
:100F200013D10A4C206940F00200206165612069FC
:100F300040F040002061304600F070F8012804D0F5
:100F4000216941F6FD721140216170BD002002400F
:100F500008490420CA68D20701D001207047CA6836
:100F6000520701D502207047C968C906FBD5032086
:100F700070470000002002407047000002480169ED
:100F800041F08001016170470020024004490A6875
:100F900022F010020A600A6802430A6070470000EB
:100FA000002002402DE9F04106460D460F2000F0DA
:100FB00035F8042816D10C4C206940F0010020615E
:100FC00035800F2000F02AF841F6FE77042804D17E
:100FD000280C70800F2000F021F8012802D0216930
:100FE00039402161BDE8F0810020024004490A68CF
:100FF00002F038020A600A6802430A607047000083
:1010000000200240034802494160034941607047A3
:101010002301674500200240AB89EFCD2DE9F04167
:101020000446FFF795FF114D114E124FDFF848802F
:1010300012E000F063FB2868401C28603068401C08
:1010400030603868401C3860D8F80010491CC8F877
:101050000010FFF77DFF641E012804D0002C00D192
:101060000520BDE8F081002CE3D1F9E7440300201E
:10107000B0000020A4000020BC0000201B4A10B5D6
:10108000811A1315904222D00BDC1949401817D051
:1010900098422AD10121082001F090FA002108206D
:1010A0000AE099421AD0B1F5006F1ED1012140200B
:1010B00001F084FA00214020BDE8104001F07EBA22
:1010C0000121042001F07AFA00210420F4E7012133
:1010D000102001F073FA00211020EDE701212020FB
:1010E00001F06CFA00212020E6E710BD001001405D
:1010F00000F8FEBF10B58A0721F003040649120F5D
:1011000021440F238C6893409C438C608B689040F3
:1011100003438B6010BD000000000140F0B5CC78A7
:10112000002204F00F03E40601D58C7823430C78E9
:101130004FF00F0C14F0FF0F4FF0010E1AD005689E
:101140000E880EFA02F42640A6420FD196000CFA41
:1011500006F725EA070703FA06F5CE783D43282E61
:1011600000D14461CE78482E00D10461521C082A77
:10117000E6D305600A88FF2A1CD94468002202F1E0
:1011800008060EFA06F50E882E40AE420ED19600E5
:101190000CFA06F7BC4303FA06F7CE783C43282E38
:1011A00000D14561CE78482E00D10561521C082A35
:1011B000E5D34460F0BD000070B50D4E7268C0F319
:1011C000034583B2840202D522F0E06206E0C40245
:1011D00003D50324AC40A24300E09A4329B1800226
:1011E00002D542EA034200E01A43726070BD00007B
:1011F000000001400246002092680A4200D001200F
:1012000070471AB102690A430261704742690A4392
:1012100042617047704770477047704710B50122B0
:10122000D1030A48FFF7EDFF00F082FA084C0122D3
:1012300040212046FFF7E5FF0220FFF7A0FD2046F2
:101240000022BDE810404021FFF7DBBF0014014041
:101250000018014070B500F06BFA114D4FF40044D6
:10126000002221462846FFF7CCFF0220FFF787FD2A
:101270000C4E002240213046FFF7C3FF0220FFF74B
:101280007EFD012221462846FFF7BBFF0220FFF723
:1012900076FD3046BDE8704001224021FFF7B1BF26
:1012A00000140140001801402DE9F041054600F00E
:1012B0003FFADFF84C80134F00244FF40046002221
:1012C00031463846FFF79DFFE80701D0012200E0D4
:1012D000002240214046FFF794FF0320FFF74FFD17
:1012E0006D08012231463846FFF78BFF0320FFF7D8
:1012F00046FD641CE4B2082CE1D3BDE8F081000097
:1013000000180140001401402DE9F047054608246B
:1013100000F034FA0E4FA0461026A7F1040910E0A1
:1013200000F06CF82806404602D5C9F8000000E03D
:1013300038606806050E00F061F8C9F8006000F03A
:101340005DF8641EE4B23E60EAD2BDE8F0870000BA
:101350001418014070B500F011FA0948082404601F
:101360001026066000F04AF8054D2D1D2C6000F097
:1013700045F82C6000F042F82E60012070BD00009E
:101380001018014070B500F0F9F9094D10242C60D7
:1013900000F034F808262E6000F030F82D1F2C6085
:1013A00000F02CF82E60BDE8704000F027B8000077
:1013B0001418014070B5002400F0CCF90E4E08203E
:1013C000306000F01BF81025356000F017F80A4A6D
:1013D000083A09E0641CE0B2411CCCB2FA2803D9F7
:1013E000FFF7D0FF002070BD10680007F2D402485C
:1013F000001D0560012070BD1018014008B50A20CD
:101400000090401E0090FCD108BD00002DE9F04185
:10141000144F00244FF40046224631463846FFF769
:10142000F0FE00F073F94FF4FA65DFF83C8003E05A
:10143000641CA4B2AC4205D840214046FFF7DAFE56
:101440000028F5D1012231463846FFF7DAFE0520A3
:10145000FFF795FC31463846BDE8F0410022FFF722
:10146000D0BE0000001401400018014070B50A4CC5
:101470000025C4F8805104F5C07401F0B3FA0748A0
:10148000C0F8B051022003F069FC01202060022066
:1014900003F064FC256070BD008022420000214200
:1014A00070B50A4C0025C4F8805104F5C07401F0F1
:1014B00099FA07480122C0F8B021022003F04EFC3F
:1014C0002260022003F04AFC256070BD00802242A9
:1014D0000000214238B54FF48050ADF800000325DC
:1014E0008DF8025014248DF8034069460948FFF72F
:1014F00015FE0120ADF800008DF802508DF8034074
:1015000069460548FFF70AFE0021084600F0DEF8AC
:1015100038BD0000000801400014014010B5044629
:1015200000F072F8A22000F047F800F0A9F8204679
:1015300000F042F800F0A4F800F066F8A32000F0F4
:101540003BF800F09DF8002000F006F8044600F09B
:1015500077F8204610BD00002DE9F04180460024B8
:1015600001F02EFA0022124B124F15460126C3F845
:101570008051022003F0F2FBC3F880616006040E84
:10158000D7F8300108B1641CE4B2012003F0E6FB97
:10159000521CD2B2082AEAD3B8F1000F04D0FFF7E8
:1015A00065FF2046BDE8F081FFF77AFFF9E700000C
:1015B00000802242000021422DE9F041044601F062
:1015C00011FA0F4B0025C3F880510E4E2A46012711
:1015D000E009C6F8B0016006040E022003F0BEFB6D
:1015E000C3F88071022003F0B9FBC3F880510220D8
:1015F00003F0B4FB521CD2B2082AE9D3BDE8F08153
:10160000008022420000214210B501F0EBF90A4AA5
:101610000120C2F8B001094BC3F88001042002F593
:10162000D87203F5C07303F099FB00241460042002
:1016300003F094FB1C6010BD000021420080224298
:1016400010B501F0CFF90C4A0020C2F880010B4B15
:10165000C3F8B001042002F5C07203F5D87303F09B
:101660007DFB01241460042003F078FB1C60BDE8BE
:101670001040042003F072BB00802242000021428F
:1016800070B5002401F09CF90E4A0125C2F8B05152
:10169000284603F063FB0C4BC3F88051012003F094
:1016A0005DFB07E0641CE4B2FA2C03D9FFF7C8FF26
:1016B000012070BDD2F830010028F3D1C3F88001B9
:1016C00070BD0000000021420080224270B50D462E
:1016D0000446FFF799FFA220FFF76EFFFFF7D0FF48
:1016E0002046FFF769FFFFF7CBFF2846FFF764FFAF
:1016F000FFF7C6FFBDE87040FFF7A2BF02494AF6F8
:10170000AA200860704700000030004008B5402063
:10171000ADF8000004208DF8030003208DF80200CE
:1017200069460248FFF7FAFC08BD000000180140B6
:1017300008B54020ADF8000010208DF8030003200C
:101740008DF8020069460248FFF7E8FC08BD00007A
:101750000018014008B50820ADF8000004208DF8FD
:10176000030003208DF8020069460348FFF7D6FC0A
:10177000FFF744FE08BD00000018014008B508202E
:10178000ADF8000014208DF8030003208DF802004E
:1017900069460348FFF7C2FCFFF730FE08BD0000B2
:1017A00000180140F8B5C020ADF800001824144E10
:1017B0008DF8034003258DF8025069463046FFF747
:1017C000ADFC6001ADF800008DF803408DF80250CB
:1017D00069463046FFF7A2FC0AF054FB4FF4804400
:1017E000ADF800401020074D8DF8030069462846EB
:1017F000FFF794FC002221462846FFF702FDF8BDC2
:10180000000C014000140140FEB5234E7F253046F8
:1018100001F0D0FCB0150021ADF80400ADF80810BF
:10182000ADF80610ADF80A1001A9304601F04AFEE5
:1018300001221421304601F016FE502400222B46CE
:1018400011463046009401F0EFFD2B4601220021A5
:101850003046009401F0E8FD2B460222002130467C
:10186000009401F0E1FD2B46032200213046009454
:1018700001F0DAFD0021304601F055FD002130462F
:1018800001F058FD0121304601F080FC0121304675
:1018900001F084FCFEBD000000080040F8B5002106
:1018A0004FF0006000F0C8F84FF4A06000F0BAF804
:1018B00025208DF8000002258DF8015003268DF8B3
:1018C0000260684600F070F80C208DF800008DF87A
:1018D00001508DF8025001248DF80340684600F055
:1018E00063F817208DF800008DF801408DF8025044
:1018F0008DF80340684600F057F828208DF8000066
:101900008DF801408DF802408DF80340684600F0E4
:101910004BF807208DF800008DF801608DF802402B
:101920008DF80340684600F03FF81B208DF800005A
:101930008DF801508DF802408DF80340684600F0A4
:1019400033F81C208DF800008DF801508DF802400E
:101950008DF80340684600F027F80322012105486E
:1019600000F074F800200AF03AFB01200AF037FB7F
:10197000F8BD00009AC3020000204FF0E021431E92
:10198000C1F880315A0DC1F88421C1F88032C1F804
:1019900084220146820002F1E022C2F80014401CB9
:1019A0000B28F7D37047000070B50F25C278017877
:1019B000012652B31A4A1268447802F4E062C2F572
:1019C000E062120AC2F10403D54082789C402A40AA
:1019D000224314018A07D30E21F0030202F1E02210
:1019E0009C40D2F80054FF2199408D430C40254380
:1019F000C2F80054007800F01F018E4040098000BA
:101A000000F1E020C0F8006170BD01F01F008640C9
:101A10004809800000F1E020C0F8806170BD00003E
:101A20000CED00E0024908430249086070470000DD
:101A30000000FA050CED00E0024A114001430248A3
:101A40000160704780FFFF1F08ED00E030B5124BCA
:101A5000FF251B6803F4E063C3F5E0631B0ADD4068
:101A6000C3F10404A1402A400A431101032202EAFF
:101A70009012C0F30120C0008140FF2383409000FA
:101A800000F1E02000F6185002689A4302600268F4
:101A90000A43026030BD00000CED00E0704700001A
:101AA00030B587B000F082F8374B00249C621C7080
:101AB0005C705C711C719C601C613449DC80204648
:101AC000401CC0B221F8024B0528F9D39C70DC7091
:101AD000DC6140F2E4612E485C6100F0C8FB2B48F9
:101AE0004FF48271D43000F0C2FB2948002200F18B
:101AF00054013F25416180F8445080F84540521C14
:101B0000D2B254305431142AF4D3446180F8445092
:101B100080F845401E481C6298614FF43471A0F56E
:101B2000956000F0A4FB1B48002200F1180100F8AA
:101B3000044B521C40F8141B92B218311D2AF6D3E4
:101B4000047044601348D86000F0A4FB3221029175
:101B50000320CDE903400D4A4FF6FF700C32CDE96A
:101B600000024023C43200210B4800F013F905AAFB
:101B70000AA1402000F062F900F019F807B0BDE8B2
:101B80003040FFF78BBF0000640000208C0900206C
:101B9000640B0020BC0600207524000875432F4FFD
:101BA000532D49492049646C650000007047704717
:101BB00010B5134C2079012820D1FEF761FB207865
:101BC00020B1401E10F0FF00207013D1607888B95A
:101BD00000F0A4FBE078A17888420BD0094951F8C5
:101BE0002000E061016B491C0163A068401CA060FB
:101BF000FEF775FBBDE81040FEF74BBB10BD0000C3
:101C000064000020600A002070B50C4D064628785C
:101C100008B1002070BDFEF733FBEC680CB16068C2
:101C2000E860FEF736FB3CB10120207000202081E7
:101C30002046666000F010FB204670BD6400002066
:101C40002DE9F0470546007889461446012801D061
:101C5000012005E0DFF8888098F8000010B102202C
:101C600010703AE098F8010008B11120F8E7FEF78B
:101C700007FB6E68002736B16F60FEF70AFB27701E
:101C80003046BDE8F087D8F8140010F8261F41F060
:101C900002010170477020F8029C284600F0B8FA53
:101CA000FEF7F7FA00F018FBFEF7EAFAD8F814107E
:101CB00091F82700012809D00D6A0F6281F826707B
:101CC000CF61FEF7E6FA27702846DAE7284600F0EB
:101CD00035FAFEF7DEFA0A2020700020D1E7000076
:101CE0006400002070B5044600780D46012801D03C
:101CF000012070BDFEF7C4FA608948B1022229466E
:101D0000204600F037FAFEF7C4FA00F0E5FA08E0E2
:101D1000606818B1FEF7BDFA142070BD6560FEF76B
:101D2000B8FA002070BD000070B50C4D064628784A
:101D300008B1002070BDFEF7A3FAEC680CB1606832
:101D4000E860FEF7A6FA3CB103202070268100204F
:101D50006060204600F080FA204670BD64000020DC
:101D600010B5094C207900280CD100F0D7FAE078A2
:101D70000649A07051F82000E0616061BDE81040A4
:101D8000FEF795BA10BD000064000020600A002034
:101D9000704700002DE9FF4F83B01C46DDE9139525
:101DA000DDE911A89346FEF76BFA1E4F387828B18B
:101DB000FEF76FFA102007B0BDE8F08F1A4E56F804
:101DC000240018B1FEF765FA2820F4E7012046F850
:101DD0002400FEF75EFA2A464146504600F058FBC2
:101DE000DDE903012B465A4600F094F8CDF8008057
:101DF000CDE90195014652462046109B00F0D0FAED
:101E0000050008D0FEF73CFA002046F82400FEF753
:101E100040FA2846CFE738790128FAD100F05CFA79
:101E2000F7E7000064000020600A0020704700000F
:101E300001490120086070470000002070B5144679
:101E40000E460546FEF71CFAFF2D03D110484069E7
:101E500090F828500F4850F825300B2553B1012B2E
:101E600008D0304600F092FA0F2807D9FEF711FA91
:101E70000E200BE0FEF70DFA257070BD314603F120
:101E8000440000F075FAFEF704FA0020207070BDDF
:101E900064000020600A002010B50446FEF7F0F947
:101EA0001A4951F8240058B101280DD090F8261095
:101EB0000A0727D531F0080180F8261008D009E07C
:101EC000FEF7E7F9642010BDFEF7E3F90B2010BD23
:101ED000818C19B1FEF7DDF9002010BD0C4AC18DCF
:101EE000D3881943D180094A90F82A10D43A808DBA
:101EF00032F81130034322F81130FEF7CAF900F02E
:101F0000EBF9E9E7FEF7C5F9652010BD600A00208E
:101F1000640000204FF080731360131F1860A2F15B
:101F200008006FF001030360001F4FF012330360DD
:101F3000001F4FF003330360001F4FF002330360B4
:101F4000001F5B100360001F0160001F4FF0113184
:101F50000160001F19010160001F4FF0093101608D
:101F6000001FD9000160001F4FF007310160001F02
:101F70004FF006310160001F4FF0053101609900FC
:101F8000001F01607047000070B50446FEF778F945
:101F90001B4BFF2C586905D090F82800A04204D1B3
:101FA000012503E090F82840FAE70025154850F88D
:101FB000240068B101280FD0124C90F82A10D43CAC
:101FC000868D34F81120B24324F8112008D00BE09C
:101FD000FEF75FF95A2070BDFEF75BF90B2070BD6C
:101FE000C28DD9889143D98010F8261F41F008018D
:101FF0000170FEF74EF90DB100F06EF9002070BDD2
:1020000064000020600A00207047000070B50400E2
:1020100018D0FEF735F90C4B0C4D596991F82A2070
:102020008E8D35F81200B04325F8120003D1CA8D09
:10203000D8889043D8808C84FEF72BF9BDE8704097
:1020400000F04AB970BD0000640000208C09002037
:1020500070B54FF47A746343B3FBF4F34FF46164E7
:102060006043C1EB011100EB8100104400EB400123
:10207000C1EBC01003EBC000040C80B2FFF7C6FF39
:102080004FF4004507E02846FFF7C0FF2846FFF75A
:10209000BDFF641EA4B2002CF5D1002070BD00006D
:1020A00010B5FEF7EDF80348846AFEF7F2F8204613
:1020B00010BD00006400002070B5FEF7E1F81D4D72
:1020C000A86A401CA862FEF7E4F82879012830D1FC
:1020D0002C6A2AE0FEF7D4F8A08C18B3401E000446
:1020E000000CA0841ED194F8260010F0370F05D004
:1020F00020F0370084F82600012000E0002084F85A
:10210000270094F8260000070CD4E08DE9880843E6
:10211000E88094F82A000849A38D31F810201A436A
:1021200021F810206469FEF7B4F894F828004028DC
:10213000D0D170BD640000208C09002010B50C4C7B
:10214000626992F82A10928D00EB410399899143BC
:10215000998104D162694189D28D9143418160693D
:10216000002180F8271080F82610C16110BD000002
:1021700064000020F0B54389224D13F0FF0F02D018
:10218000DBB2EB5C04E005EB13231B780833DBB216
:10219000012707FA03F400EB430CA6B2BCF80C408D
:1021A00014F0FF0F04D004F0FF0E15F80E5004E0F9
:1021B00005EB14252D780835EDB2AF40BFB205EB25
:1021C0000315BC43EDB2ACF80C4002D14489B443D2
:1021D00044810D48002450F825008484E0E907413B
:1021E000C472817A914381720AD10848C18831430F
:1021F000C1800548D43830F81310394320F8131043
:102200002846F0BD9AF90008600A0020640000200A
:1022100070B50F4C0F4D6169C86191F82A208E8D01
:1022200035F81230B34325F8123003D1CB8DE28854
:102230009A43E28091F82A20898D00EB420293892B
:102240000B43938162694189D28D1143418170BDF5
:10225000640000208C0900200022428111460C30CD
:10226000491CC9B220F8022B0529F9D37047002276
:1022700003E0491E00F8012B89B20029F9D170470B
:1022800005E011F8013B521E00F8013B92B2002A12
:10229000F7D1704730B54FF434710D48FFF7E7FFC1
:1022A0000B4800210B4604463F2501EBC10204EB1D
:1022B00082022432426005754375491C89B224307C
:1022C0001329F2D34360057543750248446230BD5B
:1022D000481200206400002010B5FDF7D1FF0D4C1E
:1022E000207898B9607888B900F018F8E078A1787B
:1022F00088420BD0084951F82000E061016B491C6D
:102300000163A068401CA060FDF7E2FFBDE810403B
:10231000FDF7BFBF64000020600A0020114B10B51C
:10232000D888114A10F0FF0F02D0C0B2105C04E050
:1023300002EB102000780830C0B20C4931F81010C0
:1023400011F0FF0F04D0C9B2515C01EB001006E0A0
:1023500002EB11210822097802EB00100844D87022
:1023600010BD0000640000209AF900088C090020CC
:10237000002204E0521C00F8013BD2B2491C0B7849
:10238000002BF7D100210170104670470146002054
:1023900002E0401CC0B2491C0A78002AF9D17047FB
:1023A0002DE9F05F9846DDE90ABA91460D460646EA
:1023B000FDF766FF2D4FBC69002C52D060690C34CC
:1023C000B861FDF766FF44F80C5C26770025A5761A
:1023D000E5762583C4F800B044E902A90C98A080F2
:1023E000A4F806803009A077012101FA00F060848A
:1023F00006F00F0060778140218425616561656288
:10240000E562A56225633F20656384F8380084F89F
:1024100039500C3C2046FFF7BBFC2046FFF706FD79
:10242000FDF72EFF124840F82640386AC4E905053A
:1024300000B184613C62E08DF9880843F8800C4962
:1024400094F82A00D439A38D31F810201A4321F8CA
:1024500010207879401C7871FDF71BFF0020BDE843
:10246000F09FFDF716FF4620F9E70000640000200A
:10247000600A0020054CFDF703FF2069401C206125
:10248000FDF707FFFFF7D4FCF5E70000640000202C
:10249000D30707D0920705D50022002902D004C037
:1024A000491EFAE7704770472DE9F0410C460026B7
:1024B00089880746012501B90226E288012A00D150
:1024C00002256088A37A0028384611D000F0FEFB70
:1024D0002189384600F0D9FFA37A2A46314638468A
:1024E00000F0C5FB21893846BDE8F04100F0C6BFC9
:1024F00000F0BDFB2189384600F0C0FFA37A2A46D0
:102500003146384600F0E2FB21893846BDE8F0410B
:1025100000F0BBBF014908627047000000000E4296
:102520000748016841F004010160016841F00201BF
:1025300001600448016841F004010160FDF75ABEE2
:102540000070004010ED00E0034A516821F4404162
:10255000014351607047000000100240044A002906
:10256000516901D0014300E081435161704700008F
:1025700000100240044A0029D16901D0014300E063
:102580008143D1617047000000100240044A0029D5
:10259000116901D0014300E08143116170470000DF
:1025A00000100240044A0029916901D0014300E073
:1025B000814391617047000000100240044A0029E5
:1025C000D16801D0014300E08143D1607047000031
:1025D0000010024010B500F079F84FF48034204626
:1025E00000F00CF900F054F933490128087025D1A6
:1025F0001020FEF7CBFC0220FEF7F8FC002000F0D4
:10260000F3F8002000F020F9A01100F013F9601099
:10261000FFF79AFF4FF4E011204600F025F9012062
:1026200000F01CF9392000F0BFF80028FAD0022091
:1026300000F024F900F0D0F80828FBD101217C201B
:10264000FFF7B0FF01210846FFF7ACFF012105208D
:10265000FFF7A8FF01211948FEF7AEFD012108464A
:10266000FFF77CFF01214802FFF79CFF01210420B6
:10267000FFF780FF01210220FFF77CFF01211048B6
:10268000FEF79AFD01210846FFF774FF0121C802F9
:10269000FFF788FF01210B48FEF78EFD01210A4854
:1026A000FEF78AFD01214FF0C050FFF763FFBDE840
:1026B00010400120FFF72EBF56000020000430001C
:1026C00000031800C0001600000C1A000E4800217C
:1026D000C1600161142242618161C161026842F0FE
:1026E000010202604268094B1A4042600268084BCE
:1026F0001A400260026822F480220260426822F4DA
:10270000FE02426081607047001002400000FFF846
:10271000FFFFF6FE30B5204A5168204B11F00C0146
:1027200003D0042901D0082901D0036011E05168C9
:10273000022301F4701103EB9141536813F4803FBD
:1027400002D053689B0301D5154B00E0134B59434E
:10275000016051680F2303EA1111124B5C5C0168A0
:10276000E14041605468072505EA14241C5D21FA04
:1027700004F48460546805EAD4241B5DD940C16028
:102780005268032303EA9232064B1B1F9A5CB1FB8B
:10279000F2F1016130BD00000010024000127A0029
:1027A00000093D007AF90008034600205909094A4A
:1027B00001290AD002290AD0516A03F01F0201231D
:1027C00093400B4200D0012070471168F5E7116A71
:1027D000F3E70000001002400248406800F00C00DF
:1027E0007047000000100240034A516821F0F001D8
:1027F0000143516070470000001002400B490A6815
:1028000022F480320A600A6822F480220A60B0F55D
:10281000803F07D0B0F5802F03D1086840F4A02096
:1028200008607047086840F48030F9E70010024003
:1028300070470000034A516821F4E0610143516090
:102840007047000000100240034A516821F46051B3
:1028500041EAC0005060704700100240014908661C
:102860007047000000004242034B5A68084322F4BC
:102870007C1210435860704700100240034A5168B0
:1028800021F0030101435160704700000010024035
:1028900010B50A4C3120FFF787FF20706068401C9C
:1028A0006060207810B96068FF28F3D13120FFF70D
:1028B0007BFF002800D0012010BD00005800002040
:1028C00008B54FF48060ADF8000048208DF8030093
:1028D00003208DF8020069460148FEF71FFC08BD81
:1028E0000018014008B54FF48060ADF800000420E6
:1028F0008DF8030003208DF8020069460148FEF7B9
:102900000DFC08BD0010014008B54FF48060ADF823
:10291000000010208DF8030003208DF802006946A6
:102920000148FEF7FBFB08BD0010014070477047EF
:1029300010B5052403E00B2C04D00C2C02D020464B
:10294000FFF7AAFA641CE4B20E2CF4D910BD000003
:102950002DE9F047814688466320FDF721FFF020EE
:10296000FDF748FFC020FDF745FF00220223114676
:102970001046FFF76DFB104F104D00244FF480669A
:1029800031463846FEF736FC78B100220223114664
:102990001046FFF75DFB2868641C401CE4B2286009
:1029A0000A2CEDD30020BDE8F0874146484608F0E8
:1029B0003DFE0120F7E7000000180140A4000020C0
:1029C00008B54FF48050ADF8000003208DF80200E8
:1029D00004208DF8030069460148FEF79FFB08BDFF
:1029E0000008014008B54FF48050ADF80000032006
:1029F0008DF8020014208DF8030069460148FEF7A7
:102A00008DFB08BD00080140704770470B4B00204C
:102A10004FF0A5311963024683F8340003EB8001BF
:102A2000401C01F8352FC0B24A708A70CA7007285E
:102A3000F4D30248303000F003B80000D035002055
:102A40002DE9F0418CB000270146242268460A9700
:102A5000FDF7DAFC04206D468DF8240001248DF882
:102A60002840214E30780028FDD13470FEF7CAFA94
:102A700035200A94FEF746FA0024DFF870800BE058
:102A80000022012311461046FFF7E2FA4046FEF706
:102A90003FFA8DF82400641C0A98844203D29DF802
:102AA00024000428ECD04446DFF8408008F12808D0
:102AB0000EE00022012311461046FFF7C9FA02CDAD
:102AC0002046FEF76FFA8DF82400241D444503D8F4
:102AD0009DF824000428ECD0FEF750FA37700CB0B3
:102AE0000020BDE8F0810000C900002000A001081E
:102AF000042801D3021F01E0C0F10402D3B204296B
:102B000001D30A1F01E0C1F10402D2B2934202D301
:102B100040F0080101E041F008014FF02500FDF709
:102B200081BE000070B5054616A008F015FAFEF744
:102B300075FB4020FEF7B8FBFEF768FCFEF78AFB4A
:102B4000FEF76CFBC020FEF7AFFBFEF75FFC002436
:102B50002846FEF7A9FBFEF759FC641CE4B2062CDC
:102B6000F6D3FEF777FBFEF759FB8F20FEF79CFBB1
:102B7000FEF74CFCFEF76EFBBDE8704005A008F0C8
:102B8000EBB900006C6564C6C1C4BBB5E3C1C10D3F
:102B90000A0000006C6564C6C1C4BBBDE1CAF80D83
:102BA0000A00000070B50D460446FEF737FB4020D2
:102BB000FEF77AFBFEF72AFCFEF74CFBFEF72EFB36
:102BC000C034E0B2FEF770FBFEF720FC2846FEF7AB
:102BD0006BFBFEF71BFCFEF73DFBFEF71FFB8F2098
:102BE000FEF762FBFEF712FCBDE87040FEF732BB59
:102BF00010B5FDF745FB06480178491C0170FDF74B
:102C000048FBFFF759FABDE81040FEF7D1BF0000BE
:102C1000640000204FF0E0210428086903D020F070
:102C200004000861704740F00400FAE74FF0E0212B
:102C300030B10128086906D020F001000861704712
:102C400000208861704740F00100F7E74FF0E02175
:102C50000028086902D040F0020001E020F00200E4
:102C6000086170474FF0E021486170477047F0B548
:102C7000058B048C068C43F232373E40068442EAD0
:102C80000312BB1E4FF60C761C4035400C432A4302
:102C9000002344F00101038302830184F0BD00009E
:102CA00070B5084C2388084D00262E604FF60C7630
:102CB000334041EA021119432180291D0860012097
:102CC000286070BD182C014000842542F0B5068BA9
:102CD000058C4FF6FF7404EA0117018C43F2233C84
:102CE00001EA0C01018440F6FF410E4004EA022192
:102CF00004EA03333343194343F2033215403D439F
:102D000045F0100201830284F0BD000070B5094C4B
:102D10002388094D00262E6040F6FF460902334005
:102D200041EA023119432180291D086001202860F1
:102D300070BD0000182C0140108425420149C86173
:102D40007047000000802542802000F057B8000046
:102D500070B5FDF795FA26490878401C0870FDF714
:102D600098FA042000F078F8224C4FF6FF75A8B1CD
:102D7000042000F04BF800F063F860606068E168E0
:102D800088426068E168A0EB010000D828446061D7
:102D90006068E0606169042004F094F9082000F0A4
:102DA0005BF800B3082000F031F800F04FF8A060A5
:102DB000A06821698842A0682169A0EB010000D8C1
:102DC00028446061A068206161690B4AA06942F8EB
:102DD0002010401CA061802801D30020A0616169FF
:102DE000052004F06FF9BDE87040FEF7E1BE000079
:102DF0006400002004000020BC04002002490A886E
:102E000082430A8070470000102C014002490A8862
:102E100082430A8070470000102C0140014908607D
:102E2000704700000080254210B50121CC022046E9
:102E3000FFF7C4FB2046BDE810400021FFF7BEBBF2
:102E40000148008870470000382C01400148008884
:102E5000704700003C2C01400749024600200B88C7
:102E6000A1F104011342098801EA020102D00029FC
:102E700000D0012070470000102C01402DE9F041E6
:102E8000044603884088A188227AEBB1012B22D026
:102E9000204D00270126022B2B8823D0DFF878C095
:102EA000CCF8007040F6FF4709023B4041EA02318E
:102EB000194329800CF104010860CCF80060E08817
:102EC000BDE8F04100F058B8FFF7EAFEE088BDE841
:102ED000F04100F02FB8FFF719FFE088BDE8F0419E
:102EE00000F032B8DFF830C0ACF1100CCCF8007054
:102EF0004FF60C773B4041EA0211194329800CF14F
:102F000004010860CCF80060E088BDE8F04100F002
:102F100029B800001C2C014030842542044A0129B4
:102F2000118802D08143118070470143FBE7000004
:102F30000C2C0140034A11884FF6F37319400143EA
:102F400011807047182C0140054A11884FF2FF3359
:102F500019404FF6FF7303EA0020084310807047C2
:102F6000182C0140034A11884FF6F37319400143AE
:102F7000118070471C2C0140054A11884FF2FF3325
:102F800019404FF6FF7303EA002008431080704792
:102F90001C2C014010B5FDF773F906480178491C57
:102FA0000170FDF776F92020FFF728FFBDE81040FB
:102FB000FEF7FEBD640000200B4A81881180121FBD
:102FC0000188118008492C390A8802F09F020A8082
:102FD000C28843881A430B881A430A800249007A40
:102FE000091D0880704700002C2C014010B5FDF72A
:102FF00047F908490878401C0870FDF74AF9012094
:10300000FFF72AFF10B10120FFF7F8FEBDE81040DE
:10301000FEF7CEBD6400002070B5FDF731F94549DB
:103020000878401C0870FDF734F901218E073046FE
:1030300000F0EFF818B10121304600F0ABF80221A2
:10304000304600F0E6F83C4C4FF6FF75B8B102216F
:10305000304600F09FF8304600F0D2F8E061E069B9
:10306000E16A8842E069E16AA0EB010000D82844E7
:10307000E063E069E062E16B002004F023F80421E2
:10308000304600F0C6F8B8B10421304600F082F8AE
:10309000304600F0B7F82062206A216B8842206A2F
:1030A000216BA0EB010000D82844E063206A206374
:1030B000E16B012004F006F80821304600F0A9F881
:1030C000B8B10821304600F065F8304600F09CF8B1
:1030D0006062606A616B8842606A616BA0EB0100AC
:1030E00000D82844E063606A6063E16B022003F06B
:1030F000E9FF1021304600F08CF8B8B110213046BD
:1031000000F048F8304600F081F8A062A06AA16B98
:103110008842A06AA16BA0EB010000D82844E063BC
:10312000A06AA063E16B032003F0CCFFBDE8704010
:10313000FEF73EBD64000020040000207047000040
:1031400010B5FDF79DF80A490878401C0870FDF796
:10315000A0F8084C1021204600F05BF818B11021AF
:10316000204600F017F8BDE81040FEF721BD000032
:103170006400002000080040028811B142F0800283
:1031800002E040F27F310A4002807047028A8A439F
:1031900002827047028A8A430282704700290188AE
:1031A00002D041F0010102E040F2FE321140018004
:1031B0007047000010B5B0F1804F0FD00F49401894
:1031C00013D0B0F5806F17D101210420FFF7DEF98D
:1031D00000210420BDE81040FFF7D8B901210846BE
:1031E000FFF7D4F900210120F4E701210220FFF7C5
:1031F000CDF900210220EDE710BD000000FCFFBF6B
:10320000808E7047008F7047808F7047B0F8400005
:10321000704702460020138A92890B4202EA01029B
:1032200002D0002A00D0012070472DE9F041054668
:1032300008880C46072804D02846BDE8F041FFF76F
:1032400033B9608838B3012831D04FF6FF730228B4
:1032500039D02779A679A27AA98B288C03EA07337B
:103260002F8C42F2333C07EA0C072F8440F6FF47CD
:103270003602394046EA02320A4340F2333108400E
:10328000184340F48050AA83288421892846BDE849
:10329000F04100F00CB9A37AE288A1882846FFF734
:1032A000E6FC21892846BDE8F04100F0E7B8A37AA2
:1032B000E288A1882846FFF709FD21892846BDE854
:1032C000F04100F0E2B82679E788A27AA98B288C31
:1032D00003EA06232E8C43F2332C06EA0C062E84D6
:1032E0004FF60C76314047EA02120A4343F23301AB
:1032F0000840184340F48070AA8328842189284616
:10330000BDE8F04100F0CCB8002A828901D00A4320
:1033100000E08A4382817047028B4FF6F7731A40B0
:103320000A4302837047828B4FF6F7731A400A43B1
:1033300082837047828B4FF2FF731A404FF6FF7300
:1033400003EA0121114381837047000070B5038CAB
:10335000344C4A8804F1080632B1012A04D0022A0A
:103360002FD0032A2DD049E0058B34F812402C4091
:1033700036F812501D40002A028C11D043F223333C
:103380001A4002840A888B8844EA022203870B8948
:1033900003B11023C9882B4343EA011302832DE0B4
:1033A00043F232331A4002840A888B882243838690
:1033B0000B890BB1012400E00024CB882C4323436C
:1033C000ECE7858B34F812402C4036F812501D4043
:1033D000022A028C14D042F233331A4002840A8843
:1033E0008B8844EA0222A0F840300B890BB14FF4DD
:1033F0008053C9882B4343EA01338283038470BD21
:1034000043F233231A4002840A888B88224383873D
:103410000B890BB14FF48073C9882B4343EA012316
:10342000EBE700008AF900083EB50129069C06D0AA
:103430000021ADF80810FF2B05D9FE2306E095000A
:103440000121A940F5E7052B00D20523ADF8043092
:103450000221ADF80220ADF80610ADF80040694633
:10346000FFF774FF3EBD0185818A012A03D001F078
:1034700001018182704741F00101FAE7028B4FF6AA
:10348000F3731A400A4302837047028B4FF2FF33F3
:103490001A404FF6FF7303EA01211143018370477D
:1034A000828B4FF6F3731A400A4382837047828BF4
:1034B0004FF2FF331A404FF6FF7303EA0121114325
:1034C000818370470A8882854A880285028802F0D3
:1034D0008F0202808A88C9880A4301880A430280D1
:1034E0007047000010B5FFF775F8FEF745FAFEF7D4
:1034F000D5F90848FDF7C2FD0748FDF7BFFD0748AD
:10350000FDF7BCFD0648FDF7B9FDBDE810400548D4
:10351000FDF7B4BD00080140000C0140001001405F
:10352000001401400018014010B50420FFF772FBA1
:103530000548FFF797FB0120FFF788FBBDE8104027
:103540000120FFF773BB0000683C010030B501218A
:1035500087B08803FFF726F84FF40074ADF81840E1
:1035600003208DF81A0018201C4D8DF81B0006A9A9
:103570002846FDF7D3FD6100ADF8181004218DF841
:103580001B1006A92846FDF7C9FD4FF4E130009055
:1035900000200C21ADF81000ADF80C10ADF8124071
:1035A000ADF80400ADF808000D4CADF80600ADF81C
:1035B0000A00ADF80E00ADF814006946204600F090
:1035C000ADF8012240F22551204600F08FF801218C
:1035D000204600F05BF807B030BD00000008014055
:1035E000003801402DE9F041FCF74AFE1649087801
:1035F000401C0870FCF74DFE144F40F22556314632
:10360000384600F054F8D0B1384600F0D5F8104DE7
:1036100001466C1E20782954401C207031463846E3
:1036200000F02DF800223146384600F05FF8002007
:103630000849207001200870074928780870BDE803
:10364000F041FEF7B5BA00006400002000380140E8
:1036500005000020940000209500002010B5FCF724
:103660000FFE05480178491C0170FCF712FEBDE809
:103670001040FEF79DBA0000640000207047090A60
:1036800001228A4001889143018070470029818985
:1036900002D041F4005101E021F4005181817047D2
:1036A0000246002012880A4200D00120704770B5FF
:1036B00001F01F0501260024C1F3421306FA05F2AA
:1036C000012B0FD0022B0FD0838A4FEA11210088E3
:1036D000134206FA01F600EA060001D000B1012407
:1036E000204670BD8389F0E7038AEEE710B5C1F389
:1036F000421301F01F040121A140012B07D0022B2E
:1037000007D01430002A026805D00A4304E00C30C8
:10371000F8E71030F6E78A43026010BD30B50C467A
:10372000018A85B005464CF2FF000140E088E2893D
:10373000638A1043228A1A431043A28A1043084323
:103740002882A9894EF6F3100140A08822891043EF
:10375000A2890A431043A881A88A4FF6FF41084076
:1037600061890143A9826846FEF7D4FF114885426A
:1037700001D1039800E00298642200EBC00101EB44
:10378000001021686FF018048900B0FBF1F0B0FB65
:10379000F2F109010B09634300EB8300322303EBD1
:1037A0000010B0FBF2F000F00F000843288105B0D4
:1037B00030BD0000003801408088C0F30800704729
:1037C00010B509788180044C80212046FFF768FFFE
:1037D0000028F9D010BD0000003801407047704744
:1037E00070477047704770B50C4605462846FCF791
:1037F000B3FF2042FAD170BD490050EAC12018BF82
:1038000004204A0D18BF40F0010040F2FF72B2EBF5
:10381000515F08BF40F00200012808BF0520704733
:103820002DE9F0414F1E00EBC7010446D1E900012C
:1038300015461E4637F006020DD02A4633460BF0D9
:10384000A7F97F1E04EBC703D3E900230AF098FF12
:1038500037F00602F1D1022F25D0042F13D0062F06
:1038600018BFBDE8F0812A4633460BF091F9D4E940
:103870000A230AF085FF2A4633460BF089F9D4E97A
:1038800008230AF07DFF2A4633460BF081F9D4E97C
:1038900006230AF075FF2A4633460BF079F9D4E97E
:1038A00004230AF06DFF2A4633460BF071F9D4E980
:1038B00002230AF065FF2A4633460BF069F9D4E982
:1038C0000023BDE8F0410AF05BBF5060C0E9002171
:1038D0000860704701220BF0E2BF0AF051BF0022DE
:1038E0001346104611460AF0FBBF0000024A0020B2
:1038F00011070BF0D4BF000001FDFFFFF8B54FF436
:103900000060ADF800000324154F8DF8024010252B
:103910008DF8035069463846FDF700FCAE01ADF85E
:1039200000608DF803508DF8024069463846FDF777
:10393000F5FBA802ADF800008DF803508DF80240A9
:1039400069460848FDF7EAFBADF8006004208DF8F1
:1039500003008DF8024069460348FDF7DFFBF8BD20
:1039600000100140000801400018014010B508F0A7
:1039700061F8FCF711FF0022142311461046FEF7F0
:1039800067FBFCF711FFFCF7BFFEFCF780FE02238C
:103990000022BDE8104011461046FEF759BB00005A
:1039A0002DE9FE4F80460F460025684602F0E6FBF3
:1039B00000246FF00F0AE946012658F8240057F852
:1039C0002410401A00D540420BF05AFD51460BF02E
:1039D00094FF59F8241011F0FF4F0BD00BF052FC5C
:1039E0004FF07E510BF0B4FE094920F000408842B0
:1039F00005DC07E0074908440749884202D306FA74
:103A000004F00543641C032CD7DB2846BDE8FE8F79
:103A1000295C0F3E666666C19A99D9002DE9F04D82
:103A20008D4F21F0004A86B005460C46BA452ADB88
:103A3000AAEB070028430AD08848824501DC1AD146
:103A4000CDB106B02846BDE8F04DFFF743BF844A2C
:103A5000844B28460BF09CF807460E46824A834B5F
:103A6000284621460BF094F806B03A463346BDE8A6
:103A7000F04D0AF085BE0120FCF7C8FD06B0BDE898
:103A8000F04DFFF72CBF7A48824542DABAF1795FF0
:103A90000BDA2846FFF7B0FE042808BFFFF726FF21
:103AA000284606B02146BDE8F08D2A460B46104652
:103AB0000BF06EF8834602466E480E460B46062112
:103AC0007844FFF7ADFE5A4633460BF061F8804666
:103AD00069488A465A46334604217844FFF7A0FED7
:103AE0005A4633460BF054F800223B460AF048FE93
:103AF00002460B46404651460AF0F2FE2A4623464D
:103B00000BF046F806B02A462346BDE8F04D0AF011
:103B100037BE284624F0004100223D463B460BF0CC
:103B200035F94FF0FF320BF0BAFE06460246534815
:103B30000F460B4606217844FFF772FE32463B469D
:103B40000BF026F8CDE900014D4832463B460421F2
:103B50007844FFF765FE32463B460BF019F8002229
:103B60002B460AF00DFE834602913046394608F096
:103B700054FA804643480D46504517DCDDE9000104
:103B80005A46029B0AF0ACFE42462B460BF000F868
:103B900042462B460AF0F4FD01220BF080FE304A2B
:103BA000304B0BF0E5F9304A304B4CE04FF0000A57
:103BB00052460B4640460AF0E3FDCDE9031052465B
:103BC0002B46104619460AF0E3FF32463B460BF0FF
:103BD000DDF8DDE903320AF083FE06460F46DDE933
:103BE00000015A46029B0AF07BFE834600910122A7
:103BF000304639460BF053FE194A1A4B0BF0C6F803
:103C000006460F460122404629460BF048FE5A461A
:103C1000009B0AF0BDFF32463B460BF0A9F9064671
:103C20000F460122504629460BF039FE0E4DDFF8B3
:103C300058802A4643460BF0A9F832463B460BF023
:103C4000A5F82A4643460BF0A1F8002CD8BF81F016
:103C5000004106B0BDE8F08D0000F03F0000F07FAD
:103C6000075C143326A6913C182D4454FB21F93FE0
:103C70000000E03F8CCC0000A2CC000016CC00007D
:103C80002CCC00003333EF3FFB21E93F2DE9F84F07
:103C900004460D4621F0004000917349814211DC39
:103CA0007249884201DC06D12CB120462946BDE884
:103CB000F84FFFF70FBE6E48002DCCBF6D496E491F
:103CC000BDE8F88F6D49814211DD6D498142D8BF51
:103CD0004FF0FF366DDD20462946FFF78DFD0428A5
:103CE00008BFFFF703FE20462946BDE8F88F654967
:103CF000654F25F00045814233DD6449814219DD7D
:103D0000002632464FF08043204629460AF038FD0F
:103D100080468A460122204629460BF0C0FD00223B
:103D20003B460BF025F9424653460AF0D9FD0446BE
:103D30000D463EE001260022BA463B462046294673
:103D40000AF01EFD80460F460022534620462946B3
:103D50000BF00EF942463B460AF0C2FD04460D4602
:103D600027E04B4981421BDDDFF828A10226002213
:103D70005346204629460AF00BFF00223B460AF034
:103D8000FFFC80460F4600225346204629460BF092
:103D9000EFF842463B460AF0A3FD04460D4608E014
:103DA000032622462B4600203B490AF099FD044693
:103DB0000D4622462B46104619460AF0E9FE8B4670
:103DC000824602460B460AF0E3FE074602463348A7
:103DD00088460B4606217844FFF722FD52465B4693
:103DE0000AF0D6FE82462E488B463A4643460521C7
:103DF0007844FFF715FD3A4643460AF0C9FE0246ED
:103E00000B46002E504659460CDA0AF0B9FC224601
:103E10002B460AF0BDFE01B022462B46BDE8F04F0E
:103E20000AF0B4BF0AF0ACFC22462B460AF0B0FE02
:103E30001C4A7A4402EBC603D3E900230BF098F83E
:103E400022462B460BF094F8174A7A4402EBC6033D
:103E5000D3E900230AF09AFF009A002AB8BF81F044
:103E60000041BDE8F88F0000000010440000F07F22
:103E7000182D4454FB21F93FFB21F9BF0000DC3F22
:103E80000000203E0000F33F0000F03F0000E63F4E
:103E9000008003400000F83F0000F0BF2ECA000081
:103EA000ECC900008AC9000052C900002DE9F04D9C
:103EB0009446CCF1000423F000464CEA0404524F2F
:103EC00046EAD4749A46884621F00042BC4206D89D
:103ED000454240EA050442EAD474BC4204D9BDE834
:103EE000F04D6246FFF7F9BCAAF14055A5F17F6598
:103EF00055EA0C040BD0022404EAAA74434DDFF8FF
:103F000010E144EAD87452EA000B04D00CE0BDE89A
:103F1000F04DFFF7BBBE002C14BF012CBDE8F08DA7
:103F2000022C30D0032C32D056EA0C0B0AD0BE4201
:103F300020D1BA4209D126F0804622F08042334691
:103F4000114617E000291ADB25E0DFF8C8B0FB4472
:103F5000002C04BFDBE90001BDE8F08D012C02BF9D
:103F6000DBE9000181F00041BDE8F08D022C0AD0B0
:103F7000032C0CD0BA4212D1B8F1000F0BDA23484F
:103F80002549BDE8F08D28462449BDE8F08D284636
:103F90007146BDE8F08D1D482149BDE8F08D921BAA
:103FA00012153C2AC4BF19481D490EDCBAF1000F96
:103FB000BEBF12F13C0F0020014606DB62460AF04C
:103FC0008FFC21F00041FFF761FE002C08BFBDE827
:103FD000F08D012C04BF81F00041BDE8F08D114A45
:103FE000114B022C07D00AF0C3FF2A46BDE8F04D62
:103FF0000A4B0AF0BDBF0AF0BBFF2A46BDE8F04DF0
:10400000064B0AF0C3BE00000000F07F182D445498
:10401000FB2109C0E6C80000FB21F9BFFB210940D4
:10402000FB21F93F075C143326A6A13C2DE9F84F8C
:10403000040088464FF000007ED003F01DF84F4882
:10404000002606804E4806804E4850494FF002092F
:1040500006604D480127066040F2252008604C4963
:104060004C4881F80C9006604B48076000F0E4FE75
:104070006720207084F8018084F80290E775A775A6
:10408000267604F10C01E661201D009108F030F85D
:104090004248DFF80CB107608BF8006004F0F0FADA
:1040A00005F066FB05F040FB3E48DFF8FC8006703B
:1040B00098F8090007F0BCFD98F8080007F056FDD5
:1040C0003A484FF008096FF070480670607888260B
:1040D0007A2806D04FF00A0A79280ED07B2818D00B
:1040E00037E033A006F038FF201D03F0E3FE80BB6D
:1040F00065686E7285F80A9007E0201D03F0DAFE0D
:1041000038BB65686E7285F80AA02F72C5F80C80FE
:104110001BE0201D03F0CEFE50B965686E7285F875
:104120000AA02F72C5F80C806068009903F0D3FED6
:10413000201D03F0BFFE00E01DE050B96568214876
:104140006E7285F80A902F72E8606068009903F03B
:10415000C2FE104805601048A97A01601A4801683B
:10416000CBF8041002F040FC02F05CFC07F09CFC71
:1041700004F014FA0120BDE8F88F0000DA000020F6
:10418000D8000020C4020020C0020020DC02002071
:10419000D4310020C0000020C4000020F80200201C
:1041A00030030020B4000020883100203D030020AF
:1041B000636F726E6F72207461736B20696E6974C5
:1041C000200D0A00400D03008C00002070B5002671
:1041D000354640F6FF74334600EB410000EB4311D7
:1041E00031F8022C954200D21546944200D914466B
:1041F0005B1C9BB216440C2BF0D3701B001B0A21D6
:10420000B0FBF1F080B270BD10B50A4803F02CFE8F
:10421000084807F015FB0021084607F0BEFE002104
:10422000012007F0BAFE0449002008600349086035
:1042300010BD0000D4310020CC020020C8020020B4
:1042400010B588B007A906A8CDE90001002405AB88
:1042500004AA02A903A806F0C7FD9DF80C0018B136
:104260009DF8080000B9022408B0204610BD0000E7
:104270002DE9F047040035D02A4D687A07F0D8FCC4
:10428000287A07F073FC28480025057002F0F4FB3B
:1042900026480226DFF89C8005702548DFF89890B4
:1042A00001210673C8F80050C9F8001023480580A2
:1042B000234805802348254905602348056040F2CE
:1042C0002520086007F068FE04F10C018A46201DD5
:1042D00007F00EFF6A202070A670201D03F0EAFD93
:1042E00018B113E00020BDE8F0876568882010272A
:1042F0006872AF722E724FF0BE60E860514660681F
:1043000003F0E9FDC8F80050C9F8007003F062FF3F
:104310000021012007F041FE0021084607F03DFE84
:104320000120E0E788310020B40000203D03002098
:10433000D4310020C0000020C4000020DA0000209A
:10434000D8000020C4020020C0020020DC020020AF
:10435000084A10461179407909B9002806D0137A25
:104360008B4204D1517A814201D101207047002053
:10437000704700008831002070B507F00DFE134D26
:10438000114828600121084607F007FE0022142387
:1043900011461046FDF75CFE0D4C21680DA006F09D
:1043A000DBFD2068052805D900230122194618469F
:1043B000FDF74EFE0021012007F0EFFD00202860F0
:1043C000BDE8704007F0E8BDA0680600D0020020FC
:1043D000CC0200206C6566743A090925640D0A0058
:1043E00010B5114988B004001BD01C226846FDF7A7
:1043F00047FF0E480099814204D105984FEA3141A8
:10440000884209D00A4901200870204607F056FE6C
:10441000204600F00FF804E01C2269462046FDF714
:104420002FFF08B0002010BD009001085555AAAA22
:10443000C80000202DE9FC414FF00008CDF80480B1
:10444000002844D0054604208DF8000001248DF892
:104450000440204E70780028FDD17470FCF7D2FD26
:1044600035200194FCF74EFD00241B4F0CE0002288
:10447000012311461046FDF7EBFD07EBC420FCF7C6
:1044800047FD8DF80000641C0198844203D29DF81A
:1044900000000428EBD03C460F4F20370EE00022EE
:1044A000012311461046FDF7D3FD02CD2046FCF74F
:1044B00079FD8DF80000241DBC4203D89DF8000052
:1044C0000428ECD0FCF75AFD86F801800020BDE8F6
:1044D000FC810000C80000200090010810B54021B8
:1044E0000448FDF7C4FE0349012008700249087022
:1044F00010BD000094360020C80300202DE9F047CD
:1045000040211A48FDF7B3FE184C00260120267002
:1045100060700220A0701648142565828068DFF85C
:104520005490606280464946E0620AF037FE124FBE
:104530002063B84203DD39460BF00AF9206349468F
:1045400040460BF005F9606310F1FF4F03D3394685
:104550000AF024FE60634FF4D270A08007492583DF
:10456000268203200870BDE8F08700009436002002
:104570001C3700200000B4420000B443C8030020F0
:1045800010B5044601F050FB0022142311461046DA
:10459000FDF75EFD204603F0B7FF0022142311460D
:1045A0001046FDF755FD204607F05CFC1423002261
:1045B000BDE8104011461046FDF74ABD10B504464F
:1045C00011A006F0C9FC00F037FC6421204607F07A
:1045D00035FC0022322311461046FDF739FD2046F6
:1045E00003F07EFF00224FF4E17311461046FDF701
:1045F0002FFD204601F0EEFAC8230022BDE810404E
:1046000011461046FDF724BD636C65616E5F6D6FEA
:10461000746F72206F70656E0D0A000010B50A4845
:10462000FDF7F2FA094C206138B107480C30FDF76C
:10463000EBFA606118B1002010BD05A000E00BA0EE
:1046400006F08AFC012010BD9C310020980000205B
:104650006372656165206B657920206D626F7820DB
:104660006661696C6564200D0A0000006372656113
:104670006520616374696F6E206D626F782066617A
:10468000696C6564200D0A0010B504460120607154
:1046900088782071C87BA072087CE072887C607486
:1046A0000322E01D091DFDF7EBFD054820604FEAE0
:1046B000304060612046BDE81040FFF7BBBE0000FF
:1046C0005555AAAA2DE9FF5F4FF0000BDFF800A1B6
:1046D0005F46CDF808B0CDF804B03E483E4E00EB42
:1046E000C7040025D4F80C80314640460BF030F862
:1046F000814610F1FF4F06D30120029051464846F3
:104700000AF04CFD8146314640460AF047FD80469E
:1047100051460390504505DD0120019040460BF0C5
:1047200017F880460026206940B3029898B14946A0
:10473000E0680AF0D1FF02D2E168514508DB41464A
:10474000E0680AF0C9FE23D2E068B0F5000F1FDB75
:10475000206905441CE001980028E0680FD0B0F5FE
:10476000000F03DB41460AF0B7FEF1D34946E0688B
:104770000AF0B2FF0CD2E1685145E9DB08E0494696
:104780000AF0AAFF04D24146E0680AF0A5FEDFD392
:10479000761C1E2EC7D35D4508D903985146AB46FB
:1047A0000090884202DD0AF0D3FF00907F1C1E2F8C
:1047B00093D3BBF1320F08D90648009981600121DB
:1047C0004160084604B0BDE8F09F0020FAE7000011
:1047D0000000B4431C3700200000A04038B5144846
:1047E0008079032804D013A006F0B6FB002038BD62
:1047F00009F06EF90446684605F002FC12480068AC
:104800000A2809D111488078022805D1A01DC1B21B
:104810000122022009F08EF82146009800F018F8D5
:104820000028E4D006F074FFFFF768FE012038BDD1
:10483000C20300206E6F7420696E20616C6F6E671A
:10484000206D6F6465200A00C400002094360020AB
:10485000174A10B552787B2A04D1164A1268927A08
:10486000082A03D014A006F077FB1EE0052903D226
:1048700019A006F071FB18E01B4A136802EBC30392
:104880001961116802EBC101C8601068401C10601A
:104890001E2801D300201060FFF714FF18B100F0AC
:1048A00025F8012010BD00F021F8002010BD000007
:1048B00058320020C0000020636F726E6F725F720A
:1048C00065636F72645F6164645F6F6E65206578B5
:1048D000697420310A00000077616C6B2064697391
:1048E000743A092564200A001C37002010B5F02115
:1048F0000348FBF7E5FD024900200C39086010BDB4
:1049000028370020704770477047000010B500201E
:10491000FDF70AFA0149086010BD00009000002070
:104920002DE9F04186B060276248CDE901070720F4
:10493000002600900325CDE9036503465E4A314613
:104940005E48FDF727FA0446DFF8748105E000228F
:104950000A2311461046FDF77BFB98F8000000285B
:10496000F5D01CB1214657A006F0F6FA52494FF493
:104970009C70091DCDE9011008200090CDE9036568
:10498000034601F2DC4200215448FDF703FA01001E
:1049900002D04CA006F0E0FA514801A94024049549
:1049A00081E851000A204E4A03460090FC32002163
:1049B0004C48FDF7EFF9010002D042A006F0CCFA16
:1049C000494801A9049581E851000C20394A034661
:1049D0000090121F00214548FDF7DCF9010002D0CC
:1049E00038A006F0B9FA424801A9049581E85100BF
:1049F0000E203B4A03460090121F00213D48FDF760
:104A0000C9F9010002D03CA006F0A6FA4048CDE961
:104A1000010710200090CDE9036503463D4A0021BF
:104A20003D48FDF7B7F93B494FF4A270091DCDE9A8
:104A3000011006200090CDE90365034601F20C52F7
:104A400000213648FDF7A6F9010002D01DA006F0AE
:104A500083FA33494FF48070CDE9011009200090AA
:104A6000CDE90365034601F57F7200212D48FDF76E
:104A700091F9010002D013A006F06EFA2A494FF412
:104A8000C070CDE9011005200090CDE90365034613
:104A900001F2FC5200212548FDF77CF9010005D008
:104AA00006B008A0BDE8F04106F056BA06B0BDE871
:104AB000F08100001817002094180020996F00085A
:104AC00098000020637265617465206578697420C0
:104AD0006661696C3A09256400000000BD97000812
:104AE000781E0020B5AE000818160020ED750008ED
:104AF000781D002025850008637265617465206556
:104B0000786974206661696C3A0925640A000000BE
:104B1000781F0020F42000203D4D00087DD70008BC
:104B20000826002065E20008082A00204D980008A9
:104B30007047704770B50B4C4FF400512046FCF79E
:104B400059FBA51430B129462046FCF753FB08B1A8
:104B5000022070BD29462046FCF74CFB0028F8D007
:104B6000012070BD001401402DE9F041040039D04E
:104B7000207A022836D11D49D1F8800030B1401E7C
:104B8000C1F8800002D1012081F87C00C86E401C71
:104B9000C866B0F5C87F25DB0025CD660121144825
:104BA000FFF714FB0746014612A006F0D5F9164E92
:104BB0007268974207D93388394614A006F0CCF9B9
:104BC000776035800EE031881BA006F0C5F930888B
:104BD000411C3180C82805D93580072120467560E1
:104BE00000F036F80020BDE8F0810000D43100204C
:104BF0000830002062617420766F6C746167653ADA
:104C00000925640D0A000000E002002062617420A2
:104C1000766F6C203A25642C6C617374206269672E
:104C200020766F6C203A25642C2074696D65733A88
:104C30000925640D0A0000006D617820766F6C20F4
:104C400074696D656F75743A0925640D0A0000007A
:104C50002DE9F0412B4D04000F464BD02AA006F061
:104C60007BF9207A304E022802D10120307327725E
:104C7000B07B02283ED02D480078012801D0A879C9
:104C8000D8B3002486F87C40AC71204606F062FF61
:104C9000B47300F0D1F80121142003F023F9244863
:104CA00001F090FD7B212248FFF7C0F90122214B42
:104CB0001146422008F0BAFD0122B421002003F081
:104CC000A5FA1D4C012211464020236808F0AEFDD4
:104CD000002003F077FA1448FFF770FC03F0CEFCD5
:104CE00040B9012211464020236808F09FFD0020B2
:104CF00003F068FA0020BDE8F081FFE7032006F02A
:104D0000B5FEF7E78831002073746F702063686127
:104D1000722065766E65742C20726561736F6E3AD1
:104D200025640D0A00000000D4310020300300206B
:104D3000583200200000344348070108064C05E0C3
:104D400000220A2311461046FDF782F92078002838
:104D5000F6D006F08DFD00009800002004E0002150
:104D6000491CC9B22829FBD3401EF8D27047000065
:104D7000002210B5052311461046FDF769F9002100
:104D8000084607F00AF90021012007F006F9012280
:104D9000D1020948FCF735FA084C012204212046CB
:104DA000FCF72FFA012291022046FCF72AFA044967
:104DB0000020087010BD00000008014000140140F0
:104DC0009700002010B5FBF7EDFD00F047FE104CFA
:104DD000002204212046FCF714FA00220A2311467F
:104DE0001046FDF735F9012291022046FCF709FA39
:104DF00000224FF400410748FCF703FA0122022188
:104E00002046FCF7FEF9BDE8104003A006F0A4B868
:104E100000140140000C01400A206C61736572208F
:104E2000636D6F7320706F77657220656E61626C61
:104E300065200D0A00000000002210B50223114673
:104E40001046FDF705F90121002002F0D1F90C4CC4
:104E5000002204212046FCF7D4F900220F2311463A
:104E60001046FDF7F5F8074A0021074811700121A7
:104E7000017020460022BDE810408902FCF7C1B94C
:104E8000001401402C0300209700002070B50C484E
:104E9000008B84B2B4F57A7F01D340F2E7340A255F
:104EA000B4FBF5F0C0B2002106F0C0FEB4FBF5F093
:104EB00005FB1040BDE87040432106F0E9BE00004C
:104EC000D035002070B513480189828B8088114449
:104ED000084480B2B0F5E16F01D200240AE04FF43B
:104EE0006161B0FBF1F0401C84B2B4F57A7F01D36C
:104EF00040F2E7340A25B4FBF5F0C0B2002106F019
:104F000095FEB4FBF5F005FB1040BDE8704048216C
:104F100006F0BEBED035002010B50446192006F0BC
:104F200025FE2046BDE8104006F082BE70B5144D47
:104F30000446A868002821D008F0C4FD44281DD0EC
:104F4000A868807A102819D0207C0F4D90F00102BB
:104F500022740C484FF4006405D000222146FCF76F
:104F600050F9012204E001222146FCF74AF900220F
:104F700021462846BDE87040FCF743B970BD0000EB
:104F8000B8000020000801400014014008B560B1DD
:104F900020208DF8000028208DF8010030208DF8A9
:104FA000020038208DF8030004E0A32204216846A3
:104FB000FBF75CFA6A46042140F69E2005F0B8FE35
:104FC00005F072FB08BD00003EB5044602208DF8D6
:104FD0000000CA208DF80100E3208DF802000920AE
:104FE0008DF803006A460421682005F0A1FEA32085
:104FF0008DF80000610609D5C0218DF80110C82187
:105000008DF80210C2218DF8031005E08DF8010023
:105010008DF802008DF8030014F4C07F09D0C4217C
:105020008DF80410CC218DF80510C6218DF80610DE
:1050300005E08DF804008DF805008DF806008DF868
:1050400008008DF807008DF809006A460A2140F62D
:10505000A72005F06DFEA0074FF0D80503D0202053
:105060008DF8000001E08DF800506A46012140F6FD
:10507000B62005F05DFEA00601D5012000E000206D
:1050800000F090F814F4C07F1ED0E0050AD5B220DD
:105090008DF800008B208DF80100B6208DF80200FD
:1050A0009B2009E0B0208DF8000080208DF80100E1
:1050B000B4208DF8020090208DF803006A46042188
:1050C00040F6A22005F034FEE0074FF40B6323D036
:1050D000F8208DF800006A460121184605F028FEE8
:1050E000FA21072000F03AFB072000F005FB012021
:1050F00000F022FB642000F0C5FB4FF4FA7000F0D2
:10510000D1FBC821254800F0BFFA282000F0D4FACE
:105110000A2000F0E1FA06E08DF800506A4601210D
:10512000184605F005FEA00703D5D9208DF800002C
:1051300001E08DF800506A46012140F23D7005F013
:10514000F7FD600701D5012000E0002000F046F8DF
:10515000E00601D5012000E00020FFF717FF104D09
:1051600044F00800688105F09FFA0020A8736006EB
:1051700001D50620A87314F4C07F02D0A87B801D3F
:10518000A87314F0140F02D0A87B1030A873A007E6
:1051900002D0A87B001DA87300203EBD09E3CA020F
:1051A000183800200EB54FF4976308B105A000E051
:1051B00007A007C88DE807006A460921184605F0D0
:1051C000B7FD0EBDB8AAB38DB4980D355D000000D3
:1051D000B8AAAAAAB088C3C5C700000008B560B1C4
:1051E000C0208DF80000C2208DF80100C4208DF889
:1051F0000200C6208DF8030004E08B2204216846DB
:10520000FBF734F96A46042140F6982005F090FD3A
:1052100005F04AFA08BD0000C8234FF48062024935
:1052200040F6F63005F012B950FB00082DE9FF4FAB
:1052300089B01646DDE916520024DFF834810F46A6
:1052400081462C80A24698F80E00694605F0BAF90E
:105250004FF0FF3B18B158460DB0BDE8F08FB8F8DD
:105260000A0010F0140F3CD0009909BA21F0FF0C8D
:105270009DF803104CEA010CC6F800C0019909BA68
:1052800021F0FF039DF807100B43736002999DF80E
:105290000B2009BA21F0FF011143B160039A9DF878
:1052A0000F4012BA22F0FF022243F2604FEA2C466E
:1052B00009141B1412147643494303FB036302FBD6
:1052C000021119441024A1F17061B1F1007F04D9D9
:1052D00005F0EAF9A5F800A0BDE7298841F480713E
:1052E000298041066A460ED51119A41D0B885BBAA8
:1052F0003B804B885BBA7B80898849BAB980298812
:1053000041F00801298010F4C07F11D01119A41DAB
:105310000B885BBAA9F800304B885BBAA9F8023059
:10532000898849BAA9F80410298841F070012980B8
:10533000800718D01444E07800F0C00500F03F0169
:105340006078C00707D0C80801F00701D8F800202E
:10535000491C02B190476078000704D5D8F80410C2
:1053600009B1A80988470C9806F0A1FE002073E750
:10537000183800202DE9FF41044603A804F01EFE62
:10538000BDF80C00420CC3032F48018901F0030053
:105390004D0754F8200000D54042C1F3C1058E06E8
:1053A00054F8255000D56D42C1F38116C90554F853
:1053B000264000D56442A0FB0367C11701FB0371BF
:1053C00000FB0210810041EA9670A5FB0367E91714
:1053D00001FB037105FB02118D0045EA9671A4FBE8
:1053E0000367E51705FB037304FB0232930043EAEE
:1053F0009672030E8DF80030030C8DF80130030A0D
:105400008DF802308DF80300080E8DF80400080CAA
:105410008DF80500080A8DF80600100E8DF80800BA
:10542000100C8DF80900100A8DF80A008DF807108D
:105430008DF80B206A460C214FF4257005F078FC9E
:1054400004B0BDE8F08100001838002030B50446F3
:1054500013A185B007C98DE807004FF0FF35C82CB0
:1054600016D8C820B0FBF4F1491E080A8DF80C00CC
:105470008DF80D1003AA022140F2162005F058FC09
:1054800030B96A460C2140F6C12005F051FC10B13C
:10549000284605B030BD054884810020F9E70000AA
:1054A000FEF2ABC4AAF1DFDFBBAFDFDF18380020AC
:1054B000F8B53049098901F0030250F822404A0743
:1054C00000D56442C1F3C10250F822308A0600D5EB
:1054D0005B42C1F3811250F82220C80500D5524228
:1054E000254984FB0140850045EA947083FB014314
:1054F00082FB0121950F45EA8105010E8DF8001010
:10550000010C8DF80110010A8DF80210A40F8DF81E
:10551000030044EA83046A4604214FF4747005F0E2
:1055200007FC4FF0FF3688B9200E8DF80000200CE4
:105530008DF80100200A8DF802008DF803406A46BC
:1055400004214FF4757005F0F3FB08B13046F8BD47
:10555000280E8DF80000280C8DF80100280A8DF81F
:1055600002008DF803506A4604214FF4767005F06E
:10557000DFFBF8BD1838002009E3CA022DE9FF411E
:1055800004463CA002AB006802903BA00068039078
:105590003AA006683AA0056804F00300195C8DF88B
:1055A0000010C4F3C1015A5C8DF80120C4F38112CC
:1055B0009B5C8DF8023003AB185C8DF80400585CDE
:1055C0008DF80500985C8DF806006A46032140F2CC
:1055D000264005F0ADFB4FF0FF37E0BB01AA0321E9
:1055E00040F22A4005F0A4FBA8BBCDE900656007A6
:1055F0000BD59DF8000040F001008DF800009DF8EB
:10560000040040F001008DF80400A0060BD59DF8C1
:10561000010040F001008DF801009DF8050040F008
:1056200001008DF80500E0050BD59DF8020040F063
:1056300001008DF802009DF8060040F001008DF891
:1056400006006A4603214FF4886005F071FB10B92B
:1056500001AA032100E004E040F2314005F068FBBC
:1056600018B1384604B0BDE8F08106480481002036
:10567000F8E700004CCD6C000CC92C0036567600C3
:1056800026466600183800204FF47A7290FBF2F03C
:1056900008B54843010E8DF80010010C8DF801107B
:1056A000010A8DF802108DF803006A4604214FF4B8
:1056B000AE7005F03DFB08BD0521B0FBF1F008B56B
:1056C000010A8DF800108DF801006A4602214FF49E
:1056D000AD7005F02DFB08BD0521B0FBF1F008B55C
:1056E000010A8DF800108DF801006A4602214FF47E
:1056F000AC7005F01DFB08BD08B500218DF8001049
:10570000C10702D030218DF80010810705D59DF822
:10571000001041F00C018DF80010400705D59DF8F0
:10572000000040F003008DF800006A4601214FF4AC
:10573000A47005F0FDFA08BD08B560B1042800D9D1
:105740000420401E8DF800006A46012140F24F10EF
:1057500005F0EEFA08BD0120F3E700002DE9FC4159
:10576000054640074FF0FF367CD0B1F5C86F79D8B9
:10577000084609F09DFE3E4909F084FD074601A850
:1057800004F0FEFB9DF80400022806D004280DD08A
:1057900008282ED0102865D134E00E2138460AF0B2
:1057A000ACF809F04DFE84B2324907E00D213846CD
:1057B0000AF0A3F809F044FE2F4984B2384609F0F4
:1057C000BFFE09F03DFE210A8DF8001080B28DF871
:1057D0000140010A8DF802108DF80300E8076C46BD
:1057E00020D0224602214FF4EA7005F0A1FAC8BB8E
:1057F00011E00C2138460AF080F809F021FE84B24D
:105800001E49DBE70B2138460AF077F809F018FE4D
:1058100084B21B49D2E7A21C02214FF4927005F01A
:1058200087FAF8B9A8070DD56A4602214FF4EC7043
:1058300005F07EFAB0B9A21C02214FF4947005F075
:1058400077FA78B9680710D56A4602214FF4EE70EE
:1058500005F06EFA30B9A21C02214FF4967005F0E3
:1058600067FA10B13046BDE8FC810020FBE700007C
:1058700000004843000040460000C045000040458D
:105880000000C0440521B0FBF1F008B5010A8DF815
:1058900000108DF801006A4602214FF4EF7005F008
:1058A00047FA08BD0521B0FBF1F008B5010A8DF8F3
:1058B00000108DF801006A4602214FF4ED7005F0EA
:1058C00037FA08BD2DE9F05F04003CD03B483C4F5F
:1058D0000226DFF8F0800673002501213D60C8F83C
:1058E0000010FEF74DFEFFF7A7FA3748058037484E
:1058F00005803748384905603648056040F2252064
:10590000086006F049FBDFF8D49099F8090006F02A
:105910008FF999F8080006F029F9314805703148E7
:10592000057001F0A9F804F10C018B46201D06F06A
:10593000DFFB6A202070A670201D02F0BBFA4FF03A
:10594000880A18B113E00020BDE8F09F65684FF0A9
:105950000E09254885F809A085F80A902E72E8609E
:105960005946606802F0B7FA3D60C8F80090201D03
:1059700002F0A0FA80B965684FF00F091B4885F85E
:1059800009A085F80A902E72E8605946606802F016
:10599000A2FA3D60C8F80090002001F06DFB02F013
:1059A00019FC0021012006F0F8FA0021084606F053
:1059B000F4FA02F0F3FD0120C6E70000D431002024
:1059C000C0000020C4000020DA000020D800002021
:1059D000C4020020C0020020DC0200208831002028
:1059E000B40000203D03002090D003004054890003
:1059F00070B50D46040001D0441EE4B21046FBF71A
:105A0000A5F901460320FBF761FE2846FBF79EF946
:105A100001460420FBF75AFE2046FBF797F9BDE844
:105A2000704001460620FBF751BE000010B5002172
:105A30000848FBF7EFF8084C00212046FAF71AFF58
:105A400000212046FAF70CFF2046BDE81040002157
:105A5000FAF78DBF080002400024014030B5594DCF
:105A600091B02846FBF7E0F85748009057480024CB
:105A7000CDE90104C020CDE9030480200590400059
:105A8000069080000790202008900002CDE90904CC
:105A900069462846FBF708F901212846FBF7BAF8C2
:105AA00001208DF830008DF831000B944FF4602008
:105AB000CDE90D04444C10208DF83C004C3C0BA962
:105AC0002046FAF7F1FE0623012200212046FAF7CC
:105AD0000FFF0623022201212046FAF709FF0623C1
